S02900006177735F656B5F7261366D335F6F74615F6170705F776966695F646131363230302E737265630B
S214020200109F0620D509050065080500D1090500DE
S214020210D1090500D1090500D1090500D10905005B
S2140202200000000000000000000000000D3D03007A
S214020230D109050000000000253D0300813D0300B2
S2140202403DF6040085F10400C9F104000DF2040035
S21402025051F20400095D0300B15C0300715D030006
S214020260B55D03000B060500D9E5040025E604008B
S214020270D5550300E1540300C95603001557030081
S21402028051FC0400D5FB0400D5550300E1540300DD
S214020290C9560300155703003DF604003DF6040058
S2140202A03DF6040095F20400000000000000000085
S2140202B00000000000000000000000000000000037
S2140202C00000000000000000000000000000000027
S2140202D00000000000000000000000000000000017
S2140202E00000000000000000000000000000000007
S2140206000348044B834202D0034B03B1184770479A
S214020610340DFE1F340DFE1F000000000548064B79
S2140206201B1AD90F01EBA301491002D0034B03B1E9
S21402063018477047340DFE1F340DFE1F00000000E1
S21402064010B5064C237843B9FFF7DAFF044B13B113
S2140206500448AFF300800123237010BD500DFE1F27
S2140206600000000050C80A0008B5054B1BB105493A
S2140206700548AFF30080BDE80840FFF7CFBF00BFD4
S21402068000000000540DFE1F50C80A0008B50B4BB0
S2140206901B781BB90A4B1B78002BF8D0074B1B782C
S2140206A03BB90849002004F013F80020044B1870E8
S2140206B008BD024B00221A700320F9E74E28FE1FDF
S2140206C04D28FE1F782E070030B583B000238DF824
S2140206D007302E4B1A682E4B19682E482FF04EFA0A
S2140206E0044600283BD12C4B1D7835B12B4B1B788A
S2140206F0002BFBD0294B00221A700DF10703402273
S2140207002349096823482FF005FA044638BB9DF8AA
S21402071007301BB1012B37D0022B23D0204B1B787E
S21402072033B3204B1B681A4A12681F4919482FF028
S21402073011FA044698B91A4B00221A7035B11B4BAF
S2140207401B78002BFBD0194B00221A704FF4006264
S214020750002117484DF0A0F8164B00221A802046BA
S21402076003B030BDFFF792FF04460028D6D0F6E766
S2140207700C4B1B68064A12680D4906482FF0EAF928
S21402078004460028DAD0EAE70124E8E7FC15FE1F53
S2140207900416FE1FA8020220A0490A004C28FE1FCB
S2140207A0F815FE1F0016FE1F6C15FE1F4B28FE1FB7
S2140207B0F4C401204828FE1F08B51F4B1F4A1A60C2
S2140207C01F4B80221A601F4B02221A6005280AD885
S2140207D0DFE800F0030F161D242B1B4B1B4A106884
S2140207E0186092889A801A4B01221A70FFF76CFFE3
S2140207F008BD184B154A1068186092889A80F2E76E
S214020800154B124A1068186092889A80EBE7134BD1
S2140208100E4A1068186092889A80E4E7104B0B4ADA
S2140208201068186092889A80DDE70E4B074A1068B7
S214020830186092889A80D6E70416FE1F801F104022
S2140208400016FE1FFC15FE1F7515FE1F8C2E0700D8
S214020850F815FE1F8915FE1F9D15FE1FB115FE1FFA
S214020860C515FE1FD915FE1F10B5264C8C2226492B
S21402087020464DF075F90522244904F109004DF091
S21402088044F8F8B90522214921484DF03EF8F8B956
S21402089005221E491F484DF038F8F0B905221B49BB
S2140208A01D484DF032F8E8B9052218491B484DF0AC
S2140208B02CF8E0B90522154919484DF026F8D8B9A2
S2140208C0002010BD04F1090300221A601A71D9E74C
S2140208D00F4B00221A601A71DAE70E4B00221A60DA
S2140208E01A71DBE70C4B00221A601A71DCE70B4B1D
S2140208F000221A601A71DDE7094B00221A601A718B
S214020900DEE700BF6C15FE1F801F10408C2E07000E
S2140209108915FE1FC515FE1F9D15FE1FB115FE1F6C
S214020920D915FE1F174B4FF4C0621A6018221A72AE
S214020930154A5A604FF4E0625A611C221A77134A2B
S2140209409A614FF480721A65042283F85820104A7E
S2140209505A6580219962022283F830200D48D862B7
S214020960D96383F8442080301864402058660120FA
S21402097083F86C0008489866996783F88020074ACF
S214020980DA6770476C15FE1F401010404016104084
S214020990401D1040401E1040401F1040801F104057
S2140209A038B50446FFF7BEFF5B4B01221A7014E00F
S2140209B0594B00221A70052C41D8DFE804F0315555
S2140209C084756593544B00221A70F4E7524B00224A
S2140209D01A70F0E7012032F09DFD504950484DF064
S2140209E025F808B1002CE3D04E494D484DF01EF8CC
S2140209F008B1012CE6D04C4949484DF017F808B129
S214020A00042CE3D0494B1B78002BE3D00D2144483D
S214020A104CF04AFF0028DDD03F4B00221A70CAE78E
S214020A20434B444A1A60444B4FF4C0621A60434B2D
S214020A3018221A603A484DF0A1F8414B1861FFF7A8
S214020A4043FE054600285CD12046FFF7B5FE054664
S214020A5000285BD13B49002003F03AFE3A490020C9
S214020A6003F036FE284638BD314B384A1A60324B00
S214020A704FF4E0621A60314B1C221A6028484DF08F
S214020A807DF82F4B5862DAE7294B314A1A602A4B17
S214020A904FF480721A60294B04221A6020484DF0E7
S214020AA06DF8274B1866CAE7214B2A4A1A60224B72
S214020AB080221A60214B02221A6019484DF05EF815
S214020AC01F4BD864BBE71A4B234A1A601A4B802284
S214020AD01A601A4B02221A6011484DF04FF8184B52
S214020AE09863ACE7124B1D4A1A60134B40221A60F9
S214020AF0124B01221A600A484DF040F8104B586714
S214020B009DE71749002003F0E3FDABE714490020F8
S214020B1003F0DEFDA6E700BF4A28FE1F942E07005C
S214020B20F4C40120B02E0700D02E0700F3C4012023
S214020B300416FE1F401010400016FE1FFC15FE1F76
S214020B406C15FE1F1C2F0700502F07004016104082
S214020B50401D1040C01E1040401E1040401F104056
S214020B60EC2E070010B5FFF77FFE20B90446FFF70C
S214020B70D9FE204610BD034B034A40F239210348F2
S214020B802FF016FE5C310700CC9A07007031070082
S214020B9070B5B0B0C022002168464CF07DFEFFF76B
S214020BA063FE00283BD10546EC46BD4C0FCCACE8B4
S214020BB00F000FCCACE80F0094E80700ACE8030087
S214020BC02CF8022B120C8CF800206946002003F049
S214020BD07FFD0522B349B4484CF097FE00285AD14F
S214020BE0B24BB34C1A68596820464CF0B9FFB1496B
S214020BF020464CF01BFF30B120464CF0BFFFAB4BFB
S214020C001B69984212D0AC49002003F061FDA64B46
S214020C1000221A601A711225284630B070BDA74B02
S214020C20A74A40F2CF21A7482FF0C2FD024621462E
S214020C30A5484CF095FFA549002003F049FD204643
S214020C404CF09CFF0246002120464CF025FE052271
S214020C5094499F484CF059FE002858D1934B944C27
S214020C605A69996920464CF07BFF9A4920464CF017
S214020C70DDFE30B120464CF081FF8C4B5B6A984219
S214020C800FD09549002003F023FD914B00221A60F5
S214020C901A711225C0E78849002003F019FD1225B3
S214020CA0BAE7024621468D484CF05AFF8C4900208E
S214020CB003F00EFD20464CF061FF0246002120465E
S214020CC04CF0EAFD0522774986484CF01EFE0028C5
S214020CD040F0CA80754B764C1A6D596D20464CF022
S214020CE03FFF814920464CF0A1FE30B120464CF031
S214020CF045FF6E4B1B6E98420FD07C49002003F0D6
S214020D00E7FC784B00221A601A71122584E77249B2
S214020D10002003F0DDFC12257EE7024621467448D9
S214020D204CF01EFF7349002003F0D2FC20464CF024
S214020D3025FF0246002120464CF0AEFD0522594909
S214020D406D484CF0E2FD002840F0A180574C584E0A
S214020D50A26AE16A30464CF003FF30464CF00EFFC2
S214020D600246A36B984240F08880644C3146204687
S214020D704CF0F6FE20464CF001FF013823560D2BB0
S214020D8078D05F49002003F0A3FC494C20464CF083
S214020D90F5FE0246002120464CF07EFD0522414922
S214020DA058484CF0B2FD002840F0C6803F4C404EFA
S214020DB0E26B216C30464CF0D3FE30464CF0DEFE41
S214020DC00246E36C984240F0AD804F4C31462046D6
S214020DD04CF0C6FE20464CF0D1FE431EE2560D2ACB
S214020DE05BD04A49002003F073FC314C20464CF09D
S214020DF0C5FE0246002120464CF04EFD052229493A
S214020E0043484CF082FD002840F0A980274C284E2B
S214020E10626EA16E30464CF0A3FE30464CF0AEFE3B
S214020E200246636F984240F090803A4C3146204624
S214020E304CF096FE20464CF0A1FE431EE2560D2ACA
S214020E4000F080803449002003F042FC3349002041
S214020E5003F03EFC164C20464CF090FE0246002163
S214020E6020464CF019FDD7E62049002003F030FC5E
S214020E701225D1E60022225483E72949002003F0F6
S214020E8027FC1D4B00221A601A711225C4E624495B
S214020E90002003F01DFC1225BEE60021E154A0E767
S214020EA0883107008C2E07007515FE1F6C15FE1F75
S214020EB06C0DFE1F942E0700C42F07005C3107003E
S214020EC0B09A0700703107004820FE1FB4310700B1
S214020ED08915FE1FB02E0700543207004818FE1F61
S214020EE004320700C515FE1FD02E0700E4320700A5
S214020EF04817FE1F8C3207009D15FE1FC816FE1FE0
S214020F0028330700B115FE1F4816FE1FB833070028
S214020F10D915FE1F0816FE1F48340700F4370700CF
S214020F207C3307001149002003F0D2FB104B00224D
S214020F301A601A7112256FE60C49002003F0C8FBEE
S214020F40122569E60021E1547CE70A49002003F0F5
S214020F50BFFB094B00221A601A7112255CE605498E
S214020F60002003F0B5FB122556E600BF0C3407003E
S214020F70B115FE1FA8340700D915FE1F0378032BF0
S214020F8012D8DFE803F00A0E0602084B01221A7096
S214020F907047074B01221A707047064B01221A70DF
S214020FA07047054B01221A70704700BF4E28FE1F7D
S214020FB04D28FE1F4C28FE1F4B28FE1F10B5C8B139
S214020FC00346EAB1C0685C68844200D308BB18894D
S214020FD00130B1FBF0FC00FB1C1111805A68013293
S214020FE05A601A891988B2EB510F0FD252001A8131
S214020FF0002010BD084B094A2C2109482FF0D8FBC7
S214021000084B064A2D2106482FF0D2FB19810020F4
S214021010EFE70120EDE700BFF4340700009B07006E
S2140210200C3507003835070008B528B10181028063
S214021030C3600023436008BD024B034A592103489C
S2140210402FF0B6FB50350700DC9A07000C35070078
S2140210500B782BB97047013342689342FBD3704733
S2140210600023F9E708B532F08DF8024B1B68C01A68
S21402107008BD00BF983FFE1F00B591B01E4B0AAADE
S21402108093E8030082E803000DF1140E03F1080C46
S214021090BCE80F00AEE80F00DCF80030CEF80030F7
S2140210A000230093154B164A0421192030F08EFDBA
S2140210B0144B1860C8B1134B059301F017FB124B83
S2140210C00F93124B0D93124B0C9300230E93029325
S2140210D0104B0193104B00930CAB0AAA05A90F48BC
S2140210E000F0AEFF11B05DF804FB0D4B0D4A4FF455
S2140210F0D8710D482FF05CFBECA007001829FE1FE4
S2140211006029FE1FFC2AFE1F9C3FFE1FC57A0500B3
S214021110737A0500B511020065100200883EFE1FB4
S21402112064350700209B070078350700F0B585B0C8
S214021130054600248DF80F404FF0FF311B4B186810
S21402114031F04CF8264600E001340E2C23D804EB8E
S2140211508402174B03EB82031B89002BF4D0114643
S214021160134A02EB81020DF10F010091D268298920
S214021170686837F021FF9DF80F70002FE4D00C4B03
S21402118004EB840203EB820053F8223029464068BF
S21402119098473E46D8E700231A4619460348006891
S2140211A030F09EFD304605B0F0BD00BFCC29FE1FD4
S2140211B0D029FE1F10B514461046FFF7B7FF20B918
S2140211C062682389D156D054D15410BD10B5044656
S2140211D00449002003F07CFA204636F039FC012050
S2140211E010BD00BFA435070070B594B0064628228D
S2140211F000210DEB02004CF04FFB002406940794EE
S21402120008940994ADF8164003940494294B03936A
S21402121003AB0A93284B18680C904CF0AFFC0130D5
S2140212200D90264B1293264B1393234641F2883297
S2140212304FF4FA7106A8FFF7F7FE029418E00DF1D4
S2140212401602029906A8FFF7B9FE04462BE0BDF87F
S21402125016304FF47A7202FB03F31A4AA2FB0323F8
S214021260980932F057F9002000E00120F8B9F4B9E5
S214021270154D42F2B3232A681449002003F028FAD7
S2140212804FF47A73019300930AAB42F2B3222968B1
S214021290304636F095FB0028E7D0042102A801F07C
S2140212A0B5F90128CBD0002CD1D00020DEE714B04F
S2140212B070BD00BFC43507005444FE1FD435070076
S2140212C0E0350700D34D62105844FE1FF435070080
S2140212D038B54FF0FF31244B186830F07FFF0025F9
S2140212E02C4600E001340E2C25D804EB84021F4B5A
S2140212F003EB82031B89002BF4D011461B4A02EB38
S21402130081021269012AEDD1184A02EB8102D268E3
S214021310174805EB450100EB81014A600B8105EB9E
S2140213204503012100F823101249002003F0D0F9EA
S2140213300135ADB2D6E700231A4619460A480068B8
S21402134030F0CEFC0DB9002038BD0B49084B0B60BF
S2140213504D600A4A00239360094B136051600948A6
S21402136000F06FFFF0E700BFCC29FE1FD029FE1F5A
S2140213706428FE1F1C3607005C28FE1F5028FE1F2E
S21402138051100200883EFE1F30B58BB00546002481
S2140213908DF80B40039404940594069407940894DD
S2140213A00994194B186804904CF0E8FBADF8140049
S2140213B03C23ADF80E30154B06933623ADF81C30A1
S2140213C01349204603F084F90DF10B0300934FF402
S2140213D0FA63224603A90F4837F0D5FB00B90DB9C8
S2140213E00BB030BD0C49204603F072F99DF80B1085
S2140213F0084800F0D9FE0028F2D19DF80B30002BE9
S214021400EED1FFF765FFEBE75C44FE1F50360700A0
S21402141088360700883EFE1FB8360700F0B587B04C
S214021420074600250295039504950595ADF80650E6
S214021430214B224A1A602B4641F288324FF4FA7147
S21402144002A8FFF7F1FD2E460FE03846FFF79CFF95
S21402145018B11948FFF7BAFE13E01949002003F045
S21402146037F901250BE025BB1EBB1348FFF7BCFE70
S21402147004461449002003F02BF9012CE5D0002C79
S214021480F1D131F07FFE01460DF1060202A8FFF708
S21402149095FD06460028E6D1BDF806304FF47A726E
S2140214A002FB03F3084AA2FB0323980932F032F840
S2140214B0D9E7284607B0F0BD9C3FFE1FA03FFE1F9F
S2140214C008370700E8360700D34D621038B50446E1
S2140214D0064B1870064D1F21286830F0ABF9012123
S2140214E0A140286830F0CEF938BD00BFC829FE1FDB
S2140214F0C429FE1F00B583B0024600230193009163
S2140215000349044831F040FD03B05DF804FB00BF18
S214021510343707009915020008B50B4B1B780BB140
S214021520002008BD012030F0ABFC084B186030B13B
S21402153030F0E0F8064B186018B10120F1E7002001
S214021540EFE70020EDE700BFC829FE1FCC29FE1FEB
S214021550C429FE1F014B1878704700BFC829FE1F1A
S21402156008B5FFF7B3FF08BD08B90020704710B5ED
S21402157082B001248440009100231A462146054881
S214021580006830F0C5F8044202D1002002B010BD57
S2140215900120FBE7C429FE1F38B54FF0FF310120BA
S2140215A0FFF7E2FF3649002003F092F8FFF75AFDF4
S2140215B0344B1860344B354A1A60354B354A1A603C
S2140215C0354B364A1A60FFF757FD10B30420FFF773
S2140215D07DFF2D4B186820B130F018F82A4B0022F8
S2140215E01A602B4B186820B130F010F8284B0022F6
S2140215F01A60294B186820B130F008F8264B0022F2
S2140216001A602749002003F063F8002031F0F0FC4E
S21402161038BDFFF703FF234B83F82A0010E0224968
S214021620002003F055F82148FFF7D0FD4FF4FA608A
S21402163031F070FF0120FFF7F1FE1A4B83F82A0003
S214021640184B93F82A30012BC0D10320FFF73EFF38
S214021650144D284600F066FD0446002385F82A301D
S2140216600220FFF733FF002CD9D11149002003F0E6
S2140216702FF8284600F0AEFD0C48FFF7A7FDDFE77F
S2140216803C370700983FFE1F5C44FE1F4816FE1FAD
S2140216905844FE1FC816FE1F5444FE1F2C9B07000C
S2140216A0F8370700883EFE1FA43707009C3FFE1F40
S2140216B0683707002DE9F04780460E4691469A465F
S2140216C04FF0FF31294B186830F088FD0F270024B1
S2140216D003E00F2F0CD1274601340E2C28D804EB3A
S2140216E08403234D05EB830CDCF80C100029F0D0A4
S2140216F004EB84021E4B03EB82031B89B342EBD13D
S214021700324640464CF001F90028E5D107EB870344
S214021710174A52F823304B45DED107EB8702144BAB
S21402172003EB82035B685345D6D10F27012400E002
S21402173000240E2F0FD80E4B07EB870103EB810216
S214021740C2F80C80168143F82190C2F804A0134612
S214021750089A1A61012400231A46194603480068AB
S21402176030F0BEFA2046BDE8F08700BFCC29FE1F47
S214021770D029FE1F10B5C4B004464FF4887200216B
S21402178068464CF089F8204644B010BD38B50C4681
S214021790054660B159B1436DD3B1836DC3B1C36D14
S2140217A0B3B1036EA3B1036D93B101201EE040F204
S2140217B092330F4A0F49104809F0E2FA22462946A8
S2140217C00E4809F0DDFA0E4809F0DAFA00200DE0BC
S2140217D04FF46773064A0749074809F0D1FA0948E1
S2140217E009F0CEFA064809F0CBFA002038BD00BF51
S2140217F068A1070028380700343807004C3807006D
S214021800F43707008C38070038B568B10D468446B1
S2140218100023132B1BD803F10C020CEBC202928896
S214021820AA4208D00133F4E71B4B1C4A4FF4C87196
S2140218301B482EF0BDFF0C330CEBC30C0CF104045A
S2140218403CB16368A3B1238893B1204638BD002417
S214021850F6E740F29F13134A1349144809F090FA28
S2140218602946134809F08CFA124809F089FAECE77F
S21402187040F2A3130B4A0C490C4809F081FA62683D
S21402188021880D4809F07CFA0A4809F079FA002303
S214021890236063601C46D8E7D038070050A20700D2
S2140218A0E838070038A2070028380700343807004F
S2140218B020390700F43707004039070030B583B0F7
S2140218C00C4600210091019188B10546016EA9B12E
S2140218D0DCB18DF800200193A36813B16946E06875
S2140218E098472B6E20469847B0B103B030BD124BD6
S2140218F0124A40F21F3112482EF05AFF114B0F4A7D
S2140219004FF448710E482EF053FF0F4B0B4A40F22D
S21402191021310B482EF04CFF40F22F330B4A0C4974
S2140219200C4809F02DFA227821460B4809F028FACD
S2140219300A4809F025FAD8E7D03807001CA20700A3
S214021940E838070080390700B83907000CA20700FC
S2140219502838070034380700CC390700F437070068
S21402196010B57BB18C461C46596891B19DF808307B
S214021970902B15D00023127AFFF7A0FF00232360D6
S214021980636010BD084B094A4FF41E7108482EF0DA
S2140219900FFF084B054A40F2792105482EF008FF52
S2140219A0DCF804300233E6E7F83907002CA2070019
S2140219B0E83807000C3A0700F0B583B0178828B35A
S2140219C00C46164649B3FFF7D5FE0546012380F8B6
S2140219D00C31237803F0F002302A25D0622B28D06F
S2140219E029D9902B2CD0B02B2AD0702B28D040F29D
S2140219F0D123224A2249234809F0C2F921782248F3
S214021A0009F0BEF9214809F0BBF912E0204B214A41
S214021A104FF4277120482EF0CBFE204B1D4A40F291
S214021A209D211D482EF0C4FED0F804317268394656
S214021A30984703B0F0BD402B02D0502BF9D0D6E722
S214021A4039462846FFF7E0FE034638B12278009270
S214021A50324621462846FFF783FFEAE74FF4317302
S214021A60064A0749074809F08BF939460C4809F037
S214021A7087F9064809F084F9DBE700BF68A2070089
S214021A802838070034380700883A0700F43707007A
S214021A90303A07007CA20700E8380700483A0700F9
S214021AA05C3A070038B540B10C466AB199B100F10C
S214021AB0640C02251421002319E0274B274A4FF411
S214021AC0A77127482EF074FE264B244A40F24F1187
S214021AD023482EF06DFE244B204A4FF4A87120486E
S214021AE02EF066FE3CF83300A0420BD00133132BD7
S214021AF01BD81429F6D13CF833000028F2D1194637
S214021B000025EFE74FF4B773184A1949194809F048
S214021B1037F92146184809F033F9184809F030F920
S214021B200925022D09D0284638BD002DF9D10CEB27
S214021B30C1032CF831405A60F5E740F27D130B4A98
S214021B400B490C4809F01CF921460D4809F018F912
S214021B500A4809F015F9E6E7D0380700CCA10700D5
S214021B60E8380700B8390700B03A0700B4A1070002
S214021B702838070034380700D43A0700F43707003D
S214021B80443B07002DE9F84328B18846814600F118
S214021B906405002416E0174B174A4FF45A7117488B
S214021BA02EF006FE164B144A40F2733113482EF0FE
S214021BB0FFFD002304224846FFF780FE0023EB5178
S214021BC073600134132C12D8E70005EBC40635F80F
S214021BD03430002BF5D071680029E3D0B8F1000F3D
S214021BE0E7D00B78032BE4D0042BEAD1E1E7BDE87B
S214021BF0F88300BFA43B070078A10700E838070077
S214021C00C03B070008B5062813D0022817D00328C1
S214021C1001D0042806D1C1B10B68CBB14B68CBB951
S214021C20002113E00C4B0D4A40F2AF310C482EF067
S214021C30BFFD11B10B6833B10121084607E0081E4B
S214021C4018BF012003E00021F7E70021084608BD7F
S214021C500021FBE70121F9E7EC3B070058A107004A
S214021C60E838070008B548B1014664310023132B53
S214021C700BD831F8332052B10133F8E7054B064A48
S214021C8040F2311105482EF093FD002000E00120BD
S214021C9008BD00BFD03807001CA10700E8380700BF
S214021CA02DE9F843099CC9B1054616461F468846E3
S214021CB0DCB1002121606160A160E160022822D0CF
S214021CC03BD3C31EDBB2012B44D8AAB14046FFF772
S214021CD0C9FF0146002840D1034628E0224B234A8A
S214021CE04FF4E07122482EF063FD224B1F4A40F269
S214021CF0C1111F482EF05CFD1F4B1C4A4FF4E571C4
S214021D001B482EF055FDB2F8089009F10409137825
S214021D103BB90123D8F824204A4507D9FBB919460E
S214021D2005E04046FFF79EFF0346F3E7002181F0F9
S214021D300101C8B2ABB1BDE8F8830123194625708C
S214021D406660089AE260A76081F0010111F0FF0068
S214021D50F1D0EFE701231946F1E70346EFE719460C
S214021D60EDE70220E7E700BFA43B070034A1070027
S214021D70E8380700B8390700683C070010B582B09B
S214021D80019148B1019971B1446D01A9006DA04756
S214021D9080B1002002B010BD074B084A4FF405710F
S214021DA007482EF005FD074B044A40F21521044869
S214021DB02EF0FEFC0320EDE7D038070008A107004E
S214021DC0E8380700B83907002DE9F04182B00C4622
S214021DD0098D71B3054617461E46E36D0998984766
S214021DE08046002837D00190089B009333463A4637
S214021DF021462846FFF754FF054690B1236E40461B
S214021E00984720BB40F20133144A1549154808F09A
S214021E10B7FF4146144808F0B3FF144808F0B0FF75
S214021E2015E0099A41462046FFF7A8FF054670B11D
S214021E30E4E740F20E33094A09490A4808F0A0FFCF
S214021E400B4808F09DFF094808F09AFF012528462E
S214021E5002B0BDE8F0810225F9E700BF44A1070001
S214021E602838070034380700803C0700F43707009C
S214021E70A43C0700F0B58DB005460E4617460DF198
S214021E800C0C3C4C0FCCACE80F000FCCACE80F00AF
S214021E902368CCF8003000230193ADF80830C5B1B2
S214021EA02C46EFB156B33378082B20D80CAA02EB97
S214021EB0830353F8243C716801AA204698470546D6
S214021EC040BB9DF8070030B3BDF80410C9B9002026
S214021ED021E0294B294A4FF40C7129482EF068FC60
S214021EE0284B264A40F2312125482EF061FC264B2B
S214021EF0224A40F2352122482EF05AFC3146234B24
S214021F00DAE732462046FFF7CDFD0546B0FA80F006
S214021F10400900E0002006B148B115B99DF8083026
S214021F20A3B99DF80630F3B915B301231CE00023CC
S214021F302A4631462046FFF7C1FCEEE794F82A30DF
S214021F40012B0BD094F80C31002BEAD0002384F836
S214021F500C31002DF2D00B2DF4D1EFE7204637F0EE
S214021F6009F80546EEE701233B7028460DB0F0BDA2
S214021F700023F9E7A0A20700A43B0700E4A107009C
S214021F80E8380700C83C0700DC3C0700BD22020018
S214021F90F0B583B00023019330B1054601A938F0AD
S214021FA01AF9044600270BE01D4B1E4A4FF45071E7
S214021FB01D482EF0FDFB01A9284638F00CF9044610
S214021FC05CB321462846FFF71FFC06460028F2D0DF
S214021FD04368596801238B702246284636F034FE41
S214021FE007460028E7D00023024671682846FFF716
S214021FF065FC00233360736040F255330B4A0C498C
S2140220000C4808F0BDFE384637F014F801460A4878
S21402201008F0B6FE094808F0B3FE384603B0F0BD35
S214022020A43B0700A4A10700E838070094A1070014
S2140220302838070034380700043D0700F437070045
S21402204000284CD0F0B583B00C4616461D4607460F
S214022050002948D0002B4BD0089B002B4BD0099B65
S214022060002B4BD00B6853B34B6843B38B6833B328
S214022070CB6823B30B6913B34FF4887200214BF07D
S2140220800BFC00961F4B089A2946384636F01AFD76
S214022090844650BB142200921B4B1C49384636F02D
S2140220A045FD844608BB099BC7F804310A9BC7F85E
S2140220B0083150370FCC0FC723683B6015E040F25B
S2140220C0E633134A1349144808F05AFE134808F038
S2140220D057FE134808F054FE4FF0010C05E04FF08F
S2140220E0010C604670474FF0010C604603B0F0BD2D
S2140220F04FF0010CF9E74FF0010CF6E74FF0010C38
S214022100F3E700BFB91902006044FE1FB044FE1F89
S21402211090A207002838070034380700303D070031
S214022120F437070030B583B000238DF80330044639
S21402213048B3036D4BB3002502E09DF8033033BB72
S2140221402DBB00230193A36D322201A9206D98476F
S2140221500DF1030201992046FFF78CFE0546002882
S214022160EBD040F227430B4A0B490C4808F008FE16
S214022170284636F05FFF0146094808F001FE094886
S21402218008F0FEFDD9E70125DAE70125D8E728465B
S21402219003B030BDF4A10700283807003438070022
S2140221A0683D0700F437070080B110B50446038D7A
S2140221B073B131B10121FFF7E5FC2046FFF7E8FED7
S2140221C007E00021FFF7DEFC002002E00120704756
S2140221D0012010BDF0B583B00023019378B3064604
S2140221E0036D13B9012028E07CB100220192B36D81
S2140221F001A9306D9847044601990029F4D00023BE
S21402220004223046FFF75AFBEEE706F1640500E0CB
S2140222100134132C10D805EBC40735F83430002BE4
S214022220F6D00023042279683046FFF747FB0023E6
S21402223045F834307B60EBE7002003B0F0BD0120A8
S214022240FBE770B582B006460D4614461146FFF708
S2140222509DFA10B9012002B070BD29460320FFF78F
S214022260D1FC08B90120F6E76368A26801920093E0
S21402227023682A4631460320FFF7A6FDEBE770B532
S21402228082B006460D4614461146FFF77FFA10B98D
S214022290012002B070BD29460220FFF7B3FC08B940
S2140222A00120F6E76368A2680192009323682A4633
S2140222B031460220FFF788FDEBE7FFFF08B532B193
S2140222C0134600201060908001221A7108BD034B4D
S2140222D0034A322103482EF06BFA00BF903D0700F6
S2140222E0DCA30700A83D070070B508B30D461446E8
S2140222F0064619B342B30023136093800B784BBB98
S2140223004F231A4A1A491B4808F03AFD6A68298977
S214022310194808F035FD194808F032FD228829468A
S214022320304636F091FC2B78C3B1E0B1002316E0BC
S214022330134B144A432114482EF03AFA134B114A0F
S214022340442111482EF034FA114B0E4A45210E480C
S2140223502EF02EFA36F021FE2080D1E70023E3701D
S2140223600123237170BD0123F9E700BFA4A3070070
S21402237028380700043E07001C3E0700F437070013
S214022380A43B0700C0A30700A83D0700F03D0700D6
S214022390903D070070B5B8B10D4614460646C9B161
S2140223A0F2B100231360938036F0F7FD03462080D7
S2140223B06A682968304636F026FCB0FA80F35B0974
S2140223C0E3700123237170BD084B094A6221094854
S2140223D02EF0EEF9084B064A632106482EF0E8F97D
S2140223E0064B034A642103482EF0E2F9A43B070099
S2140223F088A30700A83D07003C3E0700903D070063
S21402240070B5B8B10D4614460646C9B1F2B10023FE
S2140224101360938036F0C1FD034620806A682968FF
S214022420304636F05BFDB0FA80F35B09E3700123B9
S214022430237170BD084B094A7E2109482EF0B8F96F
S214022440084B064A7F2106482EF0B2F9064B034A8D
S214022450802103482EF0ACF9A43B070068A30700CE
S214022460A83D07003C3E0700903D070070B582B0CD
S21402247090B10C4615460646A1B1CAB101F10C034D
S21402248000938B684A68096836F07DFBB0B100237A
S2140224902B60AB8002B070BD114B124A9A211248D3
S2140224A02EF086F9114B0F4A9B210F482EF080F929
S2140224B00F4B0C4A9C210C482EF07AF9A9230D4AA0
S2140224C00D490E4808F05CFC217B0D4808F058FCCC
S2140224D00C4808F055FC217B3046FFF765FED6E730
S2140224E0A43B07004CA30700A83D0700583E070080
S2140224F0903D070030A3070028380700043E070077
S214022500743E0700F437070010B548B114466AB1A6
S21402251036F005FD00232360A3800123A37010BDBF
S214022520054B064ABD2106482EF042F9054B034AE2
S214022530BE2103482EF03CF9A43B070014A3070073
S214022540A83D0700903D070010B548B114466AB191
S21402255036F0BFFB00232360A3800123237110BD46
S214022560054B064AD22106482EF022F9054B034AAD
S214022570D32103482EF01CF9A43B0700FCA2070057
S214022580A83D0700903D070038B5C8B11446054679
S214022590036EDBB102B3EC23124A1349134808F068
S2140225A0EFFB134808F0ECFB124808F0E9FB0023A7
S2140225B02360A3800123A3702846FFF70BFE38BDD5
S2140225C00D4B0E4AE8210E482EF0F2F80D4B0B4A40
S2140225D0E9210B482EF0ECF80B4B084AEA21084892
S2140225E02EF0E6F8C4A2070028380700043E0700CB
S2140225F0CC3E0700F4370700A43B0700E0A2070022
S214022600A83D0700903E0700903D070030B583B016
S214022610002301930093F8B10C46054611B9002039
S21402262003B030BD01A832F05DF8B8B9019BBBB16A
S214022630684634F00BFAA8B90098A8B1019BD3F803
S214022640043122462946984780B9019B9B6B009825
S214022650984768B90120E3E70020E1E70020DFE7BA
S2140226600020DDE70020DBE70020D9E70020D7E7DF
S2140226700020D5E790B199B108B54FF47A7303FB01
S21402268002F20A4BA3FB02320023920900682FF0E3
S21402269027FB012814BF0020012008BD002000E00F
S2140226A00020012814BF002001207047D34D62107D
S2140226B090B108B50346A9B14FF47A7000FB02F256
S2140226C00948A0FB0202920918682FF0D5FC0128DF
S2140226D014BF0020012008BD0020012814BF0020DE
S2140226E0012070470020F2E7D34D62101B4B1B7887
S2140226F003B1704710B584B0A022002118484BF0F1
S214022700CBF800230093174B174A04210A202FF018
S2140227105DFA164B186008B1002406E0144B154A01
S214022720582115482EF044F80134092C10D80C4BC9
S21402273003EB04130393002203A90C48FFF79AFF46
S2140227400028F1D10D4B0B4A61210B482EF030F8D0
S214022750024B01221A7004B010BD00BF7045FE1F66
S2140227607845FE1F0045FE1F4845FE1F7445FE1FA6
S214022770E83E070028A40700083F07004C3F070072
S21402278000B583B000230193094B1B78DBB2012B03
S21402279008D1024601A90748FFF78AFF019803B04D
S2140227A05DF804FB044B054A702105482EF000F83C
S2140227B07045FE1F7445FE1F5C3F070014A4070009
S2140227C0083F070000B583B00190124B1B78DBB2BE
S2140227D0012B08D1019B104A934216D3A032934292
S2140227E007D3002012E00D4B0D4A83210D482DF031
S2140227F0DFFF002201A90C48FFF73CFF30B90B4B64
S214022800074A8D2107482DF0D3FF002003B05DF85C
S21402281004FB00BF7045FE1F7845FE1F5C3F0700A5
S214022820FCA30700083F07007445FE1F743F07001D
S214022830024B1A68024B1A60704700BF2046FE1F02
S2140228401C46FE1F044B1968044A1368CB1A044838
S21402285003601160704700BF2046FE1F1C46FE1F25
S2140228601846FE1F08B5FFF7EDFF08BD18B1012890
S21402287003D103487047034870470020704700BFE3
S2140228802846FE1F6846FE1F014B1878704700BF99
S2140228902446FE1F014B1870704700BF2446FE1FD9
S2140228A0014B1878704700BF2546FE1F014B187073
S2140228B0704700BF2546FE1F08B50D4B1B780BB1AF
S2140228C0012008BD0B490C482DF00CFD0028F8D15C
S2140228D00A4909482DF090FE0028F2D106482DF04C
S2140228E0FBFB0028EDD1024B01221A70E9E700BF7C
S2140228F0B246FE1F6C470A0080FA012058470A00BB
S21402290010B582B0012301931D4A10211D482DF0F7
S214022910ECFB0190019BFBB9194B1B8807EE903A22
S214022920B8EEE77ADFED186A27EE267ADFED176A49
S21402293027EE267A164B83ED007AF8EE677A9FED3D
S214022940157A67EE877A144BC3ED007A134B9B78A1
S21402295023B1019802B010BD0198FBE7104B00228C
S2140229601A70084C20462DF0BCFB0190019B2046B5
S2140229702DF004FD0190019B002BEAD00198E9E7B7
S214022980B046FE1F80FA01203333534000008039E0
S214022990AC46FE1FDE3CD53C4007FE1F6C470A00D5
S2140229A0B246FE1F837813B9014B01221A70704794
S2140229B0A846FE1F10B5A2B0FFF77EFF00240F4BFD
S2140229C01C70092C08D80A2030F0A4FD0B4B1B788B
S2140229D013B90134E4B2F4E7FFF792FF084B1C8800
S2140229E0084B186849F062FBCDE900012346064A07
S2140229F07F2102A84AF0C6FE22B010BDA846FE1FDE
S214022A00B046FE1FAC46FE1F843F0700014B93ED07
S214022A10000A70474007FE1F08B5054905482BF017
S214022A201BFE054A136923F00103136108BD00BFAC
S214022A3090470A00A4FA012000B0014000487047FF
S214022A40B446FE1F10B5054C20462BF00BFEFFF7D2
S214022A50F5FF014620462BF00DFE10BDA4FA01201C
S214022A6010B10279014B1A70704700BFBB46FE1FB9
S214022A70014B1878704700BF4807FE1F10B582B09A
S214022A800023ADF804308DF804008DF80510094ACD
S214022A90BDF804101180084A1370022201A90748E3
S214022AA02CF06FF9064C20600A2030F033FD2068C7
S214022AB002B010BDB846FE1FBB46FE1F04FA012038
S214022AC04407FE1F10B582B000230193A04B187076
S214022AD0A04B1B78834200F0D6830446102833D8D6
S214022AE0DFE810F09401B801DC01000211003D009D
S214022AF0240213013A0148026C02C802EC0248039F
S214022B006C039700B90000210220FFF7B7FF01907F
S214022B1000210420FFF7B2FF019B03430193FF212C
S214022B200620FFF7ABFF019B034301939621052086
S214022B30FFF7A4FF019B0343019300210720FFF741
S214022B409DFF019B03430193824B1C70022001F000
S214022B509FFA002840F08E83019802B010BD002133
S214022B600420FFF78BFF0190FF210620FFF786FF68
S214022B70019B0343019396210520FFF77FFF019BEC
S214022B800343019300210720FFF778FF019B0343CD
S214022B90019320210220FFF771FF019B034301935B
S214022BA040210120FFF76AFF019B03430193242182
S214022BB01020FFF763FF019B03430193242111209A
S214022BC0FFF75CFF019B0343019324211220FFF7CA
S214022BD055FF019B0343019324211620FFF74EFF66
S214022BE0019B0343019324211720FFF747FF019B14
S214022BF00343019324211820FFF740FF019B034360
S214022C00019300211C20FFF739FF019B0343019328
S214022C109AE700210220FFF731FF0190FF210420EE
S214022C20FFF72CFF019B0343019300210620FFF7C9
S214022C3025FF019B03430193FF210520FFF71EFF9B
S214022C40019B0343019300210720FFF717FF019B17
S214022C500343019378E7FF210420FFF70FFF01905B
S214022C6000210620FFF70AFF019B03430193FF2181
S214022C700520FFF703FF019B034301930021072072
S214022C80FFF7FCFE019B0343019320210220FFF77E
S214022C90F5FE019B0343019340210120FFF7EEFE60
S214022CA0019B0343019368211020FFF7E7FE019B77
S214022CB00343019368211120FFF7E0FE019B0343C3
S214022CC0019368211220FFF7D9FE019B034301936B
S214022CD068211620FFF7D2FE019B03430193682169
S214022CE01720FFF7CBFE019B0343019368211820B0
S214022CF0FFF7C4FE019B0343019300211C20FFF74C
S214022D00BDFE019B034301931EE700210220FFF74D
S214022D10B5FE0190FF210420FFF7B0FE019B03439E
S214022D200193FF210620FFF7A9FE019B03430193AF
S214022D3000210520FFF7A2FE019B03430193002119
S214022D400720FFF79BFE019B03430193FCE600BFAF
S214022D504807FE1F4907FE1FFF210420FFF78EFECD
S214022D600190FF210620FFF789FE019B0343019392
S214022D7000210520FFF782FE019B034301930021F9
S214022D800720FFF77BFE019B0343019320210220CD
S214022D90FFF774FE019B0343019340210120FFF7D6
S214022DA06DFE019B0343019368211020FFF766FE28
S214022DB0019B0343019368211120FFF75FFE019BED
S214022DC00343019368211220FFF758FE019B034339
S214022DD0019368211620FFF751FE019B03430193DE
S214022DE068211720FFF74AFE019B034301936821DF
S214022DF01820FFF743FE019B0343019300211C208A
S214022E00FFF73CFE019B034301939DE6002102204F
S214022E10FFF734FE019B03400193FF210420FFF7D6
S214022E202DFE019B03400193FF210620FFF726FE9D
S214022E30019B03400193FF210520FFF71FFE019B24
S214022E400340019300210720FFF718FE019B034071
S214022E50019379E600210220FFF710FE019B034052
S214022E60019300210420FFF709FE019B0340019312
S214022E70FF210620FFF702FE019B0340019300217B
S214022E800520FFF7FBFD019B03400193002107206D
S214022E90FFF7F4FD019B0340019355E60021022053
S214022EA0FFF7ECFD019B0340019300210420FFF78E
S214022EB0E5FD019B0340019300210620FFF7DEFD9E
S214022EC0019B03400193FF210520FFF7D7FD019BDD
S214022ED00340019300210720FFF7D0FD019B03402A
S214022EE0019331E600210220FFF7C8FD019B034053
S214022EF00193FF210420FFF7C1FD019B03400193CC
S214022F0000210620FFF7BAFD019B03400193002132
S214022F100520FFF7B3FD019B034001930021072024
S214022F20FFF7ACFD019B034001930DE60021022052
S214022F30FFF7A4FD019B0340019300210420FFF745
S214022F409DFD019B0340019300210620FFF796FD9D
S214022F50019B0340019300210520FFF78FFD019B93
S214022F600340019300210720FFF788FD019B0340E1
S214022F700193E9E500210220FFF780FD019B034053
S214022F80019377210420FFF779FD019B034001930B
S214022F9000210620FFF772FD019B03400193FF21EB
S214022FA00520FFF76BFD019B0340019300210720DC
S214022FB0FFF764FD019B03400193C5E577210420DA
S214022FC0FFF75CFD019B0340019300210620FFF7FB
S214022FD055FD019B03400193FF210520FFF74EFD9F
S214022FE0019B0340019300210720FFF747FD019B49
S214022FF00340019320210220FFF740FD019B03407E
S214023000019340210120FFF739FD019B0340019304
S21402301024211020FFF732FD019B03400193242157
S2140230201120FFF72BFD019B034001932421122060
S214023030FFF724FD019B0340019324211620FFF78E
S2140230401DFD019B0340019324211720FFF716FD67
S214023050019B0340019324211820FFF70FFD019BDB
S2140230600340019300211C20FFF708FD019B03404B
S214023070019369E500210220FFF700FD019B034052
S2140230800193AA210420FFF7F9FC019B0340019358
S214023090AA210620FFF7F2FC019B03400193AA2116
S2140230A00520FFF7EBFC019B03400193002107205C
S2140230B0FFF7E4FC019B0340019345E5AA210420A7
S2140230C0FFF7DCFC019B03400193AA210620FFF7D1
S2140230D0D5FC019B03400193AA210520FFF7CEFCF5
S2140230E0019B0340019300210720FFF7C7FC019BC9
S2140230F00340019320210220FFF7C0FC019B0340FE
S214023100019340210120FFF7B9FC019B0340019384
S21402311068211020FFF7B2FC019B0340019368214F
S2140231201120FFF7ABFC019B03400193682112209C
S214023130FFF7A4FC019B0340019368211620FFF7CA
S2140231409DFC019B0340019368211720FFF796FC24
S214023150019B0340019368211820FFF78FFC019B17
S2140231600340019300211C20FFF788FC019B0340CB
S2140231700193E9E400210220FFF780FC019B034053
S214023180019366210420FFF779FC019B034001931B
S214023190FF210620FFF772FC019B034001930021EA
S2140231A00520FFF76BFC019B0340019300210720DB
S2140231B0FFF764FC019B03400193C5E466210420EB
S2140231C0FFF75CFC019B03400193FF210620FFF7FB
S2140231D055FC019B0340019300210520FFF74EFC9E
S2140231E0019B0340019300210720FFF747FC019B48
S2140231F00340019320210220FFF740FC019B03407D
S214023200019340210120FFF739FC019B0340019303
S21402321068211020FFF732FC019B034001936821CE
S2140232201120FFF72BFC019B03400193682112201B
S214023230FFF724FC019B0340019368211620FFF749
S2140232401DFC019B0340019368211720FFF716FC23
S214023250019B0340019368211820FFF70FFC019B96
S2140232600340019300211C20FFF708FC019B03404A
S214023270019369E4FFF7FCFB014604230822034896
S21402328001F09AFB68E4002067E400BFAC3F070049
S21402329030B583B0104B93E8030002AB03E903009A
S2140232A000242546072C11D804F108036B4413F8B2
S2140232B0080CFFF707FC002814BF0125002505D1DE
S2140232C0C82030F027F90134E4B2EBE715B9034B16
S2140232D001221A7003B030BD40A40700BA46FE1F92
S2140232E000B583B001230193474948482BF056FCAA
S2140232F0019020210020FFF7C1FB019B03400193B0
S21402330000210220FFF7BAFB019B0340019308212C
S2140233100320FFF7B3FB019B03400193FF21042028
S214023320FFF7ACFB019B03400193FF210620FFF74A
S214023330A5FB019B03400193FF210520FFF79EFB9F
S214023340019B0340019300210720FFF797FB019B97
S2140233500340019300210A20FFF790FB019B0340E4
S214023360019300210B20FFF789FB019B0340019389
S21402337000210C20FFF782FB019B034001930421EE
S2140233801020FFF77BFB019B0340019304211120D1
S214023390FFF774FB019B0340019304211220FFF701
S2140233A06DFB019B0340019300211620FFF766FB8D
S2140233B0019B0340019300211720FFF75FFB019B4F
S2140233C00340019300211820FFF758FB019B03409E
S2140233D0019307211D20FFF751FB019B0340019338
S2140233E000211C20FFF74AFB019B03400193FFF7D5
S2140233F04FFF0520FFF766FB019B034001930198F0
S21402340003B05DF804FB00BFD0460A0004FA0120B0
S21402341070B505460C460D4E40F6040200213046B5
S2140234204AF03AFA022333706B097370ED00B570F6
S214023430002307E01A1D14F803C0044800F802C06F
S21402344001339BB2B3F5006FF4D370BD445BFE1F2D
S21402345008B50379012B00D008BD0122074B1A706C
S21402346040F2072106482BF06FF9064A136801332B
S214023470136003F07F031360EEE700BFBC46FE1F37
S21402348014EC0120C046FE1F08B5002240F20721B8
S21402349003482BF059F9034B00221A7008BD00BFEF
S2140234A014EC0120BC46FE1F30B583B0054600244E
S2140234B008E02FF067FE01900A2101A82FF0CEFF48
S2140234C00134A4B2AC4203D2024B1B78002BF0D0DC
S2140234D003B030BDBC46FE1F38B5194D1949284603
S2140234E012F0B4FA184C2060FFF7CEFF0723022230
S2140234F01649284612F0B0FB20600220FFF7D4FFE0
S214023500FFF7C2FF072302221149284612F0A4FB46
S21402351020600220FFF7C8FFFFF7B6FF072340F63A
S21402352004020C49284612F097FB206040F604007D
S214023530FFF7BAFF284612F05BF9206038BD00BFDD
S21402354044FA012000470A00405BFE1F5007FE1F98
S2140235504C07FE1F445BFE1F70B584B00C46032367
S214023560039343098DF80D30C0008DF80E00154EFA
S2140235701549304612F06AFA144D2860FFF784FFA8
S2140235800723009340F60403114A03A9304612F0BB
S21402359069FB286040F60400FFF786FF304612F00B
S2140235A027F92860002305E01A1D0948825CE254C8
S2140235B001339BB2B3F5006FF6D3044B186804B020
S2140235C070BD00BF44FA012000470A00405BFE1FA0
S2140235D0C446FE1F70B584B00123039300200290F8
S2140235E001900090044608E0284B13F816309842E3
S2140235F014BF002001200134E4B23B2C44D82646F6
S21402360004EBC421224D234B194428464AF04AFAB9
S21402361029462046FFF7FCFEFFF75EFF039002AA4C
S2140236204FF40061284604F08DFE039B0343039388
S2140236309DF80820154B03F81420039B13B1009B3A
S21402364001330093124D4FF44062002128464AF09F
S21402365023F929462046FFF77FFF039001AA4FF47D
S2140236600061284604F06EFE039B034303939DF815
S2140236700400064B03EB46035870039B002BB3D0A3
S214023680009B01330093AFE704B070BDC84EFE1F27
S214023690404FFE1F48A40700884201D3012070470E
S2140236A000207047014B1878704700BF48B4FE1FD1
S2140236B0054B1B78042B04D80133034A13700120F0
S2140236C070470020704700BF48B4FE1F00B583B0A5
S2140236D00123019306280AD8DFE800F00D1A2C22EF
S2140236E004122700164917482BF074FF0190019820
S2140236F003B05DF804FB13482BF0A0FE0190F6E73A
S21402370010482BF034FE01900F4B01221A70EEE7A0
S2140237100C482BF027FE01900B4B00221A70E6E7AE
S21402372008482BF029FE0190E1E706482BF029FE17
S2140237300190DCE703482BF064FE0190D7E700BF58
S2140237400C460A0030F9012047B4FE1F014B1878D8
S214023750704700BF47B4FE1F38B52E4B1C782E4B61
S21402376003EB8403D3ED007A9FED2C7AF4EEC77A4E
S214023770F1EE10FA06DD9FED2A7AF4EEC77AF1EE44
S21402378010FA08D4274A136801331360FFF7DEFFE6
S214023790002838D038BD032004F0FEFD1E4B03EB94
S2140237A0840383ED000A1B4C2578042004F0F4FD04
S2140237B01D4B03EB850383ED000A2578052004F0F4
S2140237C0EBFD1A4B03EB850383ED000A257804F024
S2140237D027FB174B03EB850383ED000A257804F0DD
S2140237E025FB144B03EB850383ED000A2378013394
S2140237F0114A82FB031202F07E0101EB6202A3EB86
S21402380082032370C2E70420FFF760FF0520FFF75C
S2140238105DFFBFE744B4FE1F14B4FE1FCDCCCCBD83
S214023820CDCCCC3D5063FE1FE4B3FE1FB4B3FE1FE7
S21402383084B3FE1F54B3FE1FABAAAA2A00B583B0F8
S21402384000230193FFF782FF012803D0019803B0FB
S2140238505DF804FBFFF73AFF019B03430193002048
S214023860FFF734FF019B03430193EFE72DE9F04195
S2140238702DED028B82B0FFF715FF5E4B53F820301A
S21402388001935D4B1B780B2B02D95B4B00221A70FF
S2140238905A4B1B680E2B02D80133584A1360564BFC
S2140238A01A78574B03EB820393ED008AB0EEC87A80
S2140238B0DFED547AB4EEE77AF1EE10FA05DD0199FF
S2140238C04E4B1868FFF7E8FE58B94C4B1B680E2B98
S2140238D002D94A4B00221A6002B0BDEC028BBDE848
S2140238E0F081B0EE480A062004F098FDDFF83C812D
S2140238F0414C237808EB830393ED000A072004F07B
S2140239008DFD414F237807EB830393ED000A0820D1
S21402391004F084FD3D4E237806EB830393ED000A04
S21402392004F08AFA3A4D237805EB830393ED000AF6
S21402393004F088FA2378324901EB83000022026001
S21402394008EB8308C8F8002007EB83073A6006EB0B
S2140239508306326005EB83052A6001332D4A82FB1B
S214023960030505F07E0000EB6500A3EB8003DBB2E7
S2140239702370013382FB030202F07E0000EB620238
S214023980A3EB820301EB8301D1ED007A9FED227A4D
S214023990F4EEC77AF1EE10FA06DD9FED207AF4EE29
S2140239A0C77AF1EE10FA15D4022000F071FBC8B106
S2140239B00023009369461A4B18682EF0F3FA009B10
S2140239C093B1184B4FF080525A60BFF34F8FBFF33C
S2140239D06F8F09E0032001F037F8134A13680133AA
S2140239E01360E1E7FFF72AFFFFF762FE034B0022B0
S2140239F01A606AE78484090045B4FE1F4CB4FE1FB1
S214023A0014B4FE1FBD378635B4B3FE1F84B3FE1F43
S214023A1054B3FE1FABAAAA2ACDCCCCBDCDCCCC3D8E
S214023A2040E4012000ED00E04C63FE1FE4B3FE1FFD
S214023A30014B1878704700BF46B4FE1F014B187042
S214023A40704700BF46B4FE1F08B500231A46194643
S214023A50024800682EF044F908BD00BF40E4012089
S214023A6010B54FF4A0420021214849F015FF00246A
S214023A7012E0204B03EB8403D3ED007A9FED1E7A0F
S214023A8067EE877AFDEEE77A17EE903A18B203F001
S214023A90CBFD174B18550134B4F5A04FE9D3FFF709
S214023AA0C7FF0A2801D800241DE000F0DFFF002827
S214023AB0F9D000F0FDFA0028F5D0FFF7C5FFF2E7CF
S214023AC00B4B1857C0B203F04FFE07EE900AF8EE03
S214023AD0E77ADFED096A87EEA67A064B03EB8403E4
S214023AE083ED007A0134B4F5A04FE9D310BD00BFD0
S214023AF05463FE1FEC94FF1F00007A44F8B90129B4
S214023B0001D000207047012B01D000207047012A07
S214023B1001D000207047B5EEC00AF1EE10FA10DDB3
S214023B20F6EE007AF4EEE70AF1EE10FA01DA002079
S214023B30704708B5022000F0C1FA012008BD002037
S214023B40704700207047FFFF0B2801D00020704707
S214023B50012901D00020704708B5012B18D1042A8C
S214023B6016D1B5EEC00AF1EE10FA0CDDF6EE007ACA
S214023B70F4EEE70AF1EE10FA05DB084A1378013391
S214023B801370012008E0032000F098FA002003E0FA
S214023B90032000F093FA002008BD00BF50B4FE1FB9
S214023BA0014B1878704700BF50B4FE1F014B1878BF
S214023BB0704700BF5207FE1F10B582B00123019363
S214023BC00F4B187080B101280BD10E4B00221A70D1
S214023BD00D4C20462BF0C6FB019020462BF02EFC07
S214023BE00190019B02B010BD074C084920462BF0FD
S214023BF0F1FC019020462BF0BAFB0190F1E700BFE2
S214023C005207FE1F50B4FE1F70F9012068460A00D4
S214023C10012801D80020704708B50020FFF7CCFF26
S214023C20012008BD08B50C4A138801339BB21380E5
S214023C300A4AA2FB0312D20802EB820251005B1A66
S214023C409BB203B108BD0120FFF7B6FF044A1388F2
S214023C5001331380F6E700BF4A63FE1FCDCCCCCCFF
S214023C604863FE1F10B582B001230193104B1870F3
S214023C7078B1012819D10F4C0F4920462BF0AAFC27
S214023C80019020462BF073FB01900C4B00221A6029
S214023C900BE00B4B00221A70064C20462BF062FB00
S214023CA0019020462BF0CAFB0190019B02B010BD8A
S214023CB05307FE1F50F9012068460A0054B4FE1F3F
S214023CC050B4FE1F10B582B00446881FC0B2012849
S214023CD009D909B1042C0AD00020FFF7AFFE012C47
S214023CE040D002B010BD0D20FFF7A8FEF9E70D2A5E
S214023CF02ED8DFE802F007142D2D2D2D2D2D2D2D7B
S214023D001D212529012B06D00A20FFF797FE012048
S214023D10FFF7A8FFE5E70120FFF7D8FCF4E72FF04E
S214023D2031FA01904FF47A6101A82FF097FBD8E799
S214023D300B20FFF783FED4E70C20FFF77FFED0E7C9
S214023D400D20FFF77BFECCE70E20FFF777FEC8E7D5
S214023D500020FFF773FE002000F0B0F90020FFF706
S214023D6081FFBEE79DF81030022BBAD10120FFF783
S214023D7023FFB6E70B78303B03EB83034A78303AEF
S214023D8002EB4303C360CB78303B03EB83020B7931
S214023D90303B03EB4203013B03618A79303ACB792D
S214023DA0303B4FF0640C0CFB03F34FF47A7C0CFBB5
S214023DB002330A7A303A02EB820203EB42034A7A71
S214023DC0303A1344A3F26C734361CB7A303B03EB75
S214023DD083030A7B303A02EB430383608B7B303BE0
S214023DE003EB8303CA7B303A02EB430343604B7C0C
S214023DF0303B03EB83038A7C303A02EB43030360D7
S214023E007047FFFF0378022B00D07047024A1388E0
S214023E1001331380F9E700BFA4B4FE1F014B1888D4
S214023E20704700BFA4B4FE1F10B588B02022002140
S214023E30684649F031FDEC46124C0FCCACE80F0058
S214023E402368CCF80030104C69462046FFF792FFF4
S214023E5021460E482AF0B0FA58B90D490B482AF006
S214023E60EDFA044650B90B4B01221A60204608B000
S214023E7010BD0446084800F071F8F7E7074800F05E
S214023E806DF8F3E7B83F070080B4FE1FB4FA0120CE
S214023E905CB4FE1F58B4FE1FCC3F0700E83F070085
S214023EA010B50E2105482AF0E9F9044608B920465D
S214023EB010BD034800F052F8F9E700BFB4FA01203B
S214023EC00440070008B504482AF014F900B908BDF2
S214023ED0024800F043F8FAE7B4FA01202C40070043
S214023EE010B5164916482AF05FFB48B9FFF79CFF43
S214023EF0FFF7D6FF044688B9124800F02FF810BD27
S214023F000446114800F02AF8104800F027F8224626
S214023F100F49002000F0DCFB00BEE7E7FFF7D2FF08
S214023F200C4800F01BF80C4800F018F82246084926
S214023F30002000F0CDFB00BEDEE700BFA4470A006B
S214023F40B4FA0120B04007004C4007009840070032
S214023F5064400700044007008440070070B5C4B000
S214023F600546FFF75BFF144EA6FB0034C4F3CF24CE
S214023F70FFF754FFA6FB0036F60A4FF4616303FB15
S214023F8016039BB20D4AA2FB031251090A46C1EB65
S214023F900111A3EB81039BB2029501930092234683
S214023FA0074AFB2104A849F0EDFB04A9002000F013
S214023FB08FFB44B070BD00BFC5B3A29189888888C4
S214023FC0CC40070070B582B0164D4FF480720021C7
S214023FD0284649F061FCFFF721FF134EA6FB00348A
S214023FE0C4F3CF24FFF71AFFA6FB0036F60A4FF4F7
S214023FF0616303FB160080B20C4BA3FB00235A0935
S2140240001346C2EB0212A0EB820080B2019000932C
S2140240102346074AFB21284649F0B4FB284602B04D
S21402402070BD00BFA8B4FE1FC5B3A2918988888858
S214024030E4400700014B1870704700BFDCB5FE1F56
S214024040014B1878704700BFDCB5FE1F014B187095
S214024050704700BFD9B5FE1F064B1B7813B9054B38
S21402406001221A70044B1B7813B9034B01221A70F3
S21402407000207047DBB5FE1FDAB5FE1F034B1B7828
S21402408013B9024B01221A7000207047DBB5FE1FDF
S214024090012803D0022804D000207047024B18786B
S2140240A07047024B18787047DBB5FE1FDAB5FE1F65
S2140240B0014B1878704700BFD8B5FE1F014B187029
S2140240C0704700BFD8B5FE1F0C2807D00D2809D0B0
S2140240D00B280AD1054B83ED000A7047034B83ED8C
S2140240E0010A7047014B83ED020A7047A8B5FE1F0E
S2140240F00369C268934204D881688A1A1344581E18
S2140241007047981A013870472DE9F84304468846E6
S2140241101646C5688768A7EB0509914509D9406820
S214024120284449F01DFDBFF35F8F3544E560BDE8C6
S214024130F88340684A46284449F012FDED1B354490
S2140241402A4608EB0901606849F00AFDBFF35F8F53
S214024150E560ECE72DE9F843064688461746C5684B
S2140241604FF000091AE05B1B5A1EB3685C1B9442B0
S21402417028BF1446BC4228BF3C46706822464146C9
S214024180284449F0EDFCA144A0443F1B2544B368F3
S214024190AB420BD0BFF35F8FF5604FB133699D42E0
S2140241A0E1D3B2685B1B1A44013ADEE70025F1E769
S2140241B04846BDE8F883FFFF10B5154CA82200213B
S2140241C0204649F069FB032323616361114AA26119
S2140241D0114BE3614FF4806323620023A3626362A0
S2140241E0E36222660D4A62661022A2662367E366CF
S2140241F06367BFF35F8F06E0C3F10F020849895673
S214024200034AD15401330F2BF6D9BFF35F8F10BD8B
S214024210F0B9FE1FF4400700F0B5FE1FE0B5FE1F22
S2140242209C840900F8B50F461646441C04EB440469
S214024230164B03EBC40400EB400003EBC003DD6A3D
S214024240012D0ED0022D1AD0F5B92046FFF750FFE9
S214024250864212D8324639462046FFF755FF354683
S2140242600BE02046FFF744FF3546864228BF054648
S2140242702A4639462046FFF747FF2846F8BD20461D
S214024280FFF768FF0546F8E70025F6E7F0B9FE1FD8
S214024290F8B504460D4616460A4B1B785BB2532BFE
S2140242A00DD1EFF311874FF0200181F311883246CA
S2140242B029462046FFF7B6FF87F31188F8BDFFF7B9
S2140242C07BFFEEE7F0B9FE1F10B504468268531C6A
S2140242D04068834205D820688154A360E3680133AE
S2140242E0E360A26863689A4200D010BD2168206924
S2140242F0FFF7CEFFA368984203D04FF0FF33E36088
S214024300F3E70023A360F0E72DE9F84F81460F4656
S21402431015461E46DDF828A00B9A0B464FF00108FC
S21402432003E0B3FBF5F308F10108AB42F9D2B0455E
S21402433000D2B04612F0010B18D1BAF1000F15D018
S21402434012F0020F02D0BEB1202400E02024BAF1FF
S214024350000F0BD0C24509D90AF1FF3A214648465A
S214024360FFF7B2FFD9F80C30002BF0DAD9F80C3090
S214024370002B25DB012404E03024E8E7013E05FBA0
S21402438004F4012EFAD8B7FBF4F39D42F7D900E005
S2140243901C46B7FBF4F304FB1377124AD156484681
S2140243A0FFF792FFD9F80C30002B03DBB4FBF5F3D2
S2140243B0AC42EDD2BBF1000F02D0BAF1000F01D130
S2140243C0BDE8F88FBAF1000FFAD0C245F8D90AF163
S2140243D0FF3A20214846FFF777FFD9F80C30002B2A
S2140243E0F0DAEDE7B08409002DE9F04782B007461F
S2140243F08846154699460A9EDDF82CA081EAE17C9D
S214024400ACEBE17C012402E09CFBF5FC0134654543
S214024410FADD4C4500D24C4636B1B8F1000F02DB4D
S2140244201AF0040F00D0013E1AF0020F02D0B9F1C2
S214024430000F03D01AF0010F00D1AEB9FB68002BB3
S2140244400FDBB8F1000F1CDB1AF0040F20D1FB685B
S214024450002B06DB0AF00303022B1ED0FB68002BA0
S2140244602DDA02B0BDE8F087002EE7D0A642E5D9E5
S214024470013E20213846FFF727FFFB68002BF3DAC0
S214024480DCE7C8F100082D213846FFF71DFFDEE7FE
S2140244902B213846FFF718FFD9E7B9F1000FDDD117
S2140244A0002EDBD0002ED9D0A642D7D9013E30212D
S2140244B03846FFF709FFFB68002BF3DACEE7CDF8A4
S2140244C004A000964B462A4641463846FFF71CFF94
S2140244D0C7E7FFFFF0B599B006460C46154603AB94
S2140244E0139340231493002315931790169391E089
S2140244F00020012211E040F0010001340CE040F0FF
S2140245000200013408E040F00400013404E040F008
S2140245100800013400E0002222B394F90030233B65
S2140245200D2BF8D801A151F823F000BF0F45020069
S21402453017450200174502001745020017450200FC
S21402454017450200174502001745020007450200FC
S21402455017450200F74402001745020017450200FD
S214024560FF44020094F90030A3F13001C9B20929D0
S21402457007D8013402EB820203EB4203A3F13002B6
S214024580F0E72E2B03D0002394F9001015E0013437
S214024590002306E0013403EB830301EB4301A1F1A0
S2140245A0300394F90010A1F1300C5FFA8CFCBCF1D8
S2140245B0090FEFD9E8E714F9011F6C29FBD0682927
S2140245C0F9D025296ED021DB78291FDC58291DDB7E
S2140245D0583920291AD8DFE801F03E191919191995
S2140245E0191919191911281919191919191919192D
S2140245F0191958191949193319193E002B681A1D29
S2140246002A6093F9001013A8FFF75EFE0134169B8A
S214024610002B4CDB14F9011B002948D025293FF456
S21402462067AF13A8FFF750FEF1E729680F1D2F604A
S2140246300968019000920A2213A8FFF7D5FEE5E763
S21402464029680F1D2F600968019000920A2213A89C
S214024650FFF75AFEDAE729680F1D2F6009680190F6
S2140246600092102213A8FFF74FFECFE72B681A1D01
S2140246702A601F6817F9011B0029C7D013A8FFF785
S21402468023FE169B002BF5DAC0E72B681A1D2A605C
S21402469019680023019308230093102213A8FFF73A
S2140246A033FEB3E7252113A8FFF70EFEAEE7169BEF
S2140246B0002B05DD159A32B9169B159A13441693EC
S2140246C0169819B0F0BD03A93046FFF7E1FDF3E7EF
S2140246D00EB400B582B003AB53F8041B019301AAD3
S2140246E0FFF7F8FE02B05DF804EB03B07047FFFF79
S2140246F000B583B0002301930449054810F068FD15
S2140247000190019803B05DF804FB00BF3C450A0027
S2140247102CF8012008B5024810F0A0FC08BD00BF26
S2140247202CF8012008B54FF440620021034849F0F6
S214024730B3F80020024B186008BD00BFA0BAFE1FE7
S2140247409CBAFE1F2DE9F04782B0044689461646FB
S2140247501F460A9DB5F5006F01D94FF40065012189
S214024760484648F0E9F9824600285CD000210191CB
S21402477000914A4649F090F82146504649F092F98F
S2140247804FF001081EE00A202EF0C4FE019B013302
S2140247900193264B1B78002B36D1019BB342F2D3F2
S2140247A000240AE03946224849F040F904460098B7
S2140247B0013000900A202EF0ADFE14B9009BAB42E9
S2140247C0F0D31CB3B8F1000F26D0019B23BBFFF732
S2140247D0A9FF00230093154A1370164A1370164A4F
S2140247E013704A465146154810F0BEFA8046002815
S2140247F0CFD0FFF78FFF64202EF08CFEFFF778FFF6
S21402480064202EF087FEDDE70024D6E7009BAB424D
S214024810D8D34FF00108D5E7504648F0B1F94046E4
S21402482002B0BDE8F0874FF00108F8E7A1C6FE1F08
S214024830A0BAFE1FA2C6FE1FA0C6FE1F2CF80120AD
S2140248402DE9F043C7B004460E46174698464FF485
S21402485080794A46002106A849F01EF804940025ED
S21402486003950296164B1B68019300952346154A3C
S214024870494606A848F086FFFFF7A4FB024606ABA9
S21402488011492846FFF724FF0220FFF701FC58B91A
S214024890012450202EF03EFE094A136801331360AD
S2140248A0204647B0BDE8F0830195CDF80080074B5F
S2140248B03A46494606A8FFF745FF0446E9E700BF21
S2140248C098BAFE1F084107007C4107000041070016
S2140248D02DE9F041A4B007460C4615461E464FF099
S2140248E080084246002104A848F0D6FF02970196A7
S2140248F000952346124A414604A848F043FFFFF7B4
S21402490061FB024604AB0F490020FFF7E1FE0220DE
S214024910FFF7BEFB38B9012450202EF0FBFD2046DF
S21402492024B0BDE8F081002301932B9B0093064B35
S2140249302A9A414604A8FFF705FF0446ECE700BFA3
S214024940844107007C41070000410700F0B5A3B090
S21402495004460D46164680273A46002102A848F02D
S2140249609BFF2346114A394602A848F00BFFFFF781
S21402497029FB024602AB0E490020FFF7A9FE0220E1
S214024980FFF786FB30B9012450202EF0C3FD2046E7
S21402499023B0F0BD002301930096064B2A46394603
S2140249A002A8FFF7CFFE0446EEE700BFF441070079
S2140249B07C410700004107002DE9F041A2B00646FF
S2140249C00D4690461F4680242246002102A848F043
S2140249D063FF2246002102A848F05EFF00962B469F
S2140249E0114A214602A848F0CDFEFFF7EBFA02ABC9
S2140249F002460E490020FFF76BFE0220FFF748FB37
S214024A0038B90124C8202EF085FD204622B0BDE824
S214024A10F081002301930097054B4246214602A8E7
S214024A20FFF790FE0446EDE7344207007C4107009C
S214024A309842070000487047A4C6FE1F014B18782C
S214024A40704700BF5507FE1F014B1870704700BF26
S214024A505507FE1F014B1870704700BF5407FE1F14
S214024A60014B1878704700BFA4C9FE1F054B9B6C0C
S214024A7013F0020F03D10020034B18707047012079
S214024A80FAE700BF00080440A5C9FE1F10B50F4C88
S214024A90A36F23F0011323F4404343F00503A367F7
S214024AA064202EF037FDA36F23F0011323F4404356
S214024AB043F00403A36764202EF02CFDA06CC0F321
S214024AC04002034B1A70104610BD00BF0008044097
S214024AD0A5C9FE1F10B5FFF7C3FF10B1114B18781A
S214024AE010BD114CE36F23F0011323F4404343F04F
S214024AF00503E36764202EF00DFDE36F23F0011338
S214024B0023F4404343F00403E36764202EF002FDDF
S214024B10A36CC3F34003034A1370FA202EF0FAFC88
S214024B20DCE700BFA5C9FE1F0008044038B50546ED
S214024B30002407E0FFF7AAFF4FF47A702EF0EAFC93
S214024B400134E4B2AC4205D2FFF790FF0028F1D060
S214024B50012000E0002038BDF8B5044615461E4682
S214024B60069FFFF76BFFFFF775FF073CE4B2012CC9
S214024B700BD97EB9FFF762FF042814D0042D08D89B
S214024B80DFE805F04A261539510000203860FFF7A5
S214024B905BFFF8BD00233B600F20FFF7C7FF042032
S214024BA0FFF752FFEAE70120FFF74EFFE6E73B6812
S214024BB001333B60FFF78EFF3B68022BE9D90023E7
S214024BC03B600F20FFF7B2FF0120FFF73DFFE0E753
S214024BD0FFF74CFF60B13B6801333B60022BD8D92C
S214024BE00220FFF731FFFFF775FF00233B60D0E797
S214024BF0FFF74CFFCDE7FFF739FF50B13B680133B3
S214024C003B600B2BC5D900233B600120FFF71CFF3E
S214024C10BFE7FFF73BFFBCE7FFF728FF0028B8D047
S214024C20FFF758FFB5E7FFF721FF0028B1D1FFF7DE
S214024C302DFFAEE7014B1878704700BFD0CAFE1FA3
S214024C4010B504464FF480720021044848F024FE52
S214024C50034B1C70034B00221A7010BDCCC9FE1FFA
S214024C60D0CAFE1FA8C9FE1FF0B583B005460E4681
S214024C7017461C46012301930020FFF7E1FFFDF7CC
S214024C80D7FD3A463146284610F054F80190114BAB
S214024C9000221A600CE0142301932EF073FA00909F
S214024CA00A2168462EF0DAFB0A490A6801320A60CF
S214024CB0084A1268A24209D2FFF7BCFF0028EAD0CF
S214024CC000200190FFF7BCFFFDF7CCFD019803B072
S214024CD0F0BD00BFCCCAFE1F014B1878704700BF5C
S214024CE0D1CAFE1F014B1870704700BFD1CAFE1F03
S214024CF010B582B01C460123019310F035F80190DE
S214024D000F4B00221A600CE0142301932EF03AFA9D
S214024D1000900A2168462EF0A1FB09490A68013272
S214024D200A60074A1268A24207D2FFF7D5FF002898
S214024D30EAD000200190FFF7D5FF019802B010BD1F
S214024D40CCCAFE1F30B583B001250195314C41F225
S214024D50111120682CF06EFD294620682CF092FD79
S214024D60FDF79EFD044600283CD00220FFF790F98E
S214024D70F0B94FF4FA602EF0CDFB274C40F2111139
S214024D8020682CF057FD254D64230322294624482B
S214024D90FFF7AEFF019057232B700420FFF74AF966
S214024DA0102120682CF06EFD0024204603B030BD92
S214024DB0642303221B491A48FFF79AFF0190174BF8
S214024DC052221A704FF47A702EF0A4FB0020FDF7E0
S214024DD06DFD0020FDF75EFD2846FFF72BF9FFF775
S214024DE079FEE2E70220FFF753F968B940F21111A3
S214024DF0094B18682CF01EFD00231A4619460A486D
S214024E0000682CF06DFFD0E70020FDF743FD01247B
S214024E10CBE700BFF4E30120D4E301205807FE1FCE
S214024E202CF80120A8420700D8E4012008B5022089
S214024E30FFF72EF920B90120FDF72CFD012008BD51
S214024E400020FDF727FDFFF7F9FD022804D10A200E
S214024E502EF060FB0020F2E7FFF708FE0028F6D1EE
S214024E600220FFF715F90028F1D0FDF701FE082809
S214024E7002D0FFF70BFEEAE7FDF7FAFD0728F8D1A6
S214024E80E5E7FFFFFFFFFFFFF8B52DED048B10EE01
S214024E90105A044647F0E8F89FED179B41EC110BB9
S214024EA0B0EE490AF0EE690A4AF022FE57EC106BA1
S214024EB0284647F0FBF832463B4647F04FF947F0A4
S214024EC0E7FB08EE100A604247F0DEF841EC110BF1
S214024ED0B0EE490AF0EE690A4AF00AFE51EC100BEF
S214024EE047F0FEFB00EE100AB8EEC88A28EE000A6B
S214024EF0BDEC048BF8BD00BF00000000000024409B
S214024F00F0B5ADF58A3DE9B09FEDD00A002003F07A
S214024F1085FA0DF58A3404F5BE74CD4D0FCD0FC457
S214024F2095E8030084E803000DF5873404F59474CD
S214024F3040F254620021204648F0AEFC4FF4C8739B
S214024F40019300940DF58A3303F5BE7304220621FD
S214024F500DF58A3000F5CA7046F0C2FE44F62062AD
S214024F6000210DF54140083048F096FC002415E07B
S214024F704FF4C87303FB04F0642204FB02F20DF53F
S214024F804141083101EB8202B24901EB80010DF585
S214024F908A3000F5CA7046F05DFE0134312CE7D93E
S214024FA00DF54543A033A3F2BC44AB4D0FCD0FC461
S214024FB095E8030084E803004FF4D27200210DF551
S214024FC04543A033A3F5CC6048F066FC6423019306
S214024FD00DF53F43403300930DF5414320333C3BF0
S214024FE0042206210DF541402030243846F078FE92
S214024FF041F2883200210DF52B40B83048F04CFCC7
S214025000002417E0642303FB04F104EB840202EBA2
S21402501082020DF52B40B83000EB82020DF54140BE
S214025020083000EB81010DF541402030243846F06F
S21402503011FE0134312CE5D9C82288490DF53543D5
S214025040A033A3F6BC2048F08BFD4FF41572002166
S2140250500DF53543A033A3F5516048F01DFC6423DB
S21402506000930DF5284390330DF52A42E43232219F
S2140250700DF52B40AC3046F085FE4FF496520021DB
S2140250800DF51540D03048F007FC002413E06423E9
S21402509003FB04F10DF51542D03202EB81020DF549
S2140250A02B40B83000EB81010DF52C4020307438CF
S2140250B046F030FE01340B2CE9D900220BE00DF548
S2140250C01543D03303EB8203D3ED007A77EEA77A4B
S2140250D0C3ED007A0132B2F5966FF0D30DF5254393
S2140250E0A033A3F6D47300241C600DF52543A03329
S2140250F0A3F6D87300221A600DF516432033543BEC
S2140251000DF516422032583A4FF496610DF51640C8
S2140251102030503846F05AFC224600E00132B2F502
S214025120966F20D20DF52543A033A3F57D6303EBDE
S214025130820393ED007A0DF52543A033A3F6D873C8
S214025140D3ED007AF5EE006A67EEA67AB4EEE77A59
S214025150F1EE10FAE2D50DF51543D03303EB8203D8
S21402516000211960DAE74FF49654224600210DF525
S2140251700340083048F090FB224600210DF5E0403F
S214025180483048F089FB224600210DF5BB40083026
S21402519048F082FB002318E00DF51542D03202EBF0
S2140251A0830211680DF50342083202EB8302116096
S2140251B00DF5E042483202EB830211600DF5BB4268
S2140251C0083202EB830211600133B3F5966FE3D324
S2140251D041F2BC2200210DF5AB432033A3F6D420C6
S2140251E048F05AFB0DF5AB432033A3F6D823002232
S2140251F01A600DF5AB432033A3F6DC231A600DF5D7
S214025200AB432033A3F52E631A600DF5AB43203370
S214025210A3F6E4231A600DF5AB432033A3F6E82386
S2140252201A600DF5AB432033A3F6EC231A600DF596
S214025230AB432033A3F52F631A600DF5AB4320333F
S214025240A3F6F4231A60002404E100BF0000000065
S214025250C0840900EC94FF1FD8840900F08409007A
S21402526000009644BD3786350DF50341083101EB43
S2140252708301D1ED007A0DF5BB41083101EB8301C4
S214025280C1ED007A0DF5E041483101EB830191ED65
S214025290007A76EE876A36EE276A27EE874A74EE3B
S2140252A0844A27EE077A35EE075A67EEA77A75EE36
S2140252B0A75A01330132B2F5966F0FD8B2F5966F40
S2140252C0D2D20DF5BB41083101EB830108680DF51A
S2140252D00341083101EB82010860C5E75FED207AE1
S2140252E064EEA74A0DF5AB432033A3F6DC22C2EDEB
S2140252F0004A26EE867AA3F52E6383ED007A92EDB7
S214025300007AD3ED004A37EE647A0DF5AB432033CC
S214025310A3F6D82383ED007A66EEA66A26EE066A20
S21402532025EE275A0DF5AB432033A3F6E82282ED8D
S214025330005A92ED007A37EE667A82ED007A65EED2
S214025340A75AA3F6EC23C3ED005AD3ED007A77EE04
S214025350C67AC3ED007AD2ED007AF0EEE77A1FED58
S2140253603F7AF4EEC77AF1EE10FA72DDD3ED007AE8
S214025370F0EEE77AF4EEC77AF1EE10FA69DD0DF593
S21402538095434833D3ED007AF0EEE77AF4EEC77A27
S214025390F1EE10FA5DDDD2ED007AF5EEC07AF1EEAE
S2140253A010FAC0F2A780F1EEE77A0DF59543303396
S2140253B0C3ED007A0DF595433433D3ED007AF5EE5E
S2140253C0C07AF1EE10FAC0F29B80F1EEE77A0DF5A4
S2140253D095432C33C3ED007A0DF5AB432033A3F58A
S2140253E02F6393ED007A0DF5AB432033A3F6F42337
S2140253F0D3ED007A67EE277A17EE900A46F056FE4D
S214025400EAA3D3E9002346F0F3FC47F069F90DF569
S214025410AB432033A3F6E423186093ED007AF7EE4D
S214025420006AC6EE877AC3ED007A0DF5AB422032EB
S214025430A2F6D822D2ED007A93ED007A67EE877A4A
S2140254400DF5AB432033A3F6D42303EB8403C3ED5D
S214025450007A013440F2AE439C4257D80DF503431E
S214025460083303EB8403DFEDCA6AC3ED006A0DF569
S214025470AB432033A3F6D823C3ED006A0DF5AB4346
S2140254802033A3F6DC23C3ED006A0DF5AB432033CD
S214025490A3F52E63C3ED006A0DF5AB432033A3F6E6
S2140254A0E423C3ED006A0DF5AB432033A3F6E823ED
S2140254B0C3ED006A0DF5AB432033A3F6EC23C3ED30
S2140254C0006A0DF5AB432033A3F52F63C3ED006AE4
S2140254D00DF5AB432033A3F6F423C3ED006A002395
S2140254E00122F0EE665AB0EE665AF0EE664AB0EE6A
S2140254F0666AE0E60DF59543303300221A6059E7F6
S2140255000DF595432C3300221A6065E7A822002188
S2140255100DF59440043048F0BFF9002307E00DF57E
S2140255209442043202EB83029A4911600133292B1A
S214025530F5D941F2683200210DF55A501C3048F078
S214025540ABF90DF55A531C3300932A230DF59442FA
S214025550043240F2AF410DF595404C3046F0E4FA85
S2140255600026152518E00DF55A531C3303EB850368
S21402557093ED000ADFED887A20EE270A0DF59543B3
S2140255804C3303EB860484ED000A0420FFF77CFC10
S21402559084ED000A0136013540F2C3439D42E2D94A
S2140255A04FF41654224600210DF588501C3048F060
S2140255B073F9224600210DF588501C3048F06CF92C
S2140255C04FF4965200210DF51540D03048F064F99C
S2140255D04FF48052714947A848F0C2FA00200146AB
S2140255E002461FE00DF595434C3303EB8203D3EDE1
S2140255F0007A47AB03EB800393ED007A67EE877A77
S2140256000DF588531C3303EB8103C3ED007A4B1C64
S21402561001300DF588541C3404EB830300241C600F
S21402562002310132B2F5806FDCD3012300220DF580
S21402563088511C315A4845F085FE4FF480620DF5BC
S2140256401541D0310DF588501C3046F0AAFB46AB0A
S21402565000221A600DF2171300221A700DF21713A9
S21402566046AA4FF400710DF51540D03046F0AEF95B
S2140256704C4B1B683BB19DF81731032B1DD9062BEB
S2140256801DD8572600E04B2668252A4600212BA85F
S21402569048F002F92AAB00241C602A46214610A8CC
S2140256A048F0FAF80CAB1C605C609C60DC6008ABEF
S2140256B01C605C609C60DC6022E06426E4E72D26C9
S2140256C0E2E704FB06F5A7002AAB2BAA02EB84024C
S2140256D031460DF595404C3000EB850046F076F9E4
S2140256E02AAB1B681D4410AB43F824502BAD3D4437
S2140256F0042095ED000AFFF7C7FB85ED000A01348A
S21402570040F2AF40B0FBF6F0A042DAD80022012306
S21402571002E0032A2AD80133411E994226D92BA930
S21402572001EB8301D1ED007A591E2BAC04EB81010B
S21402573091ED007AF4EEC77AF1EE10FAE9DD591C23
S21402574004EB810191ED007AF4EEC77AF1EE10FADD
S214025750DFDD0CA901EB8201C1ED007A10A951F838
S214025760234008A941F822400132D2E707AB0E4A8D
S2140257701A6006AB00241C6006AB07AA10210CA810
S21402578046F024F92246234615E000BFAFF3008018
S21402579000000000310CC33C00002842B885090016
S2140257A07CC20A0004F0FE1FCDCCCC3DBC89D89743
S2140257B0B2D29C3C0132032A19D80CA901EB820111
S2140257C0D1ED006A07A890ED007AC6EE877AC1EDA1
S2140257D0007AB6EE007AF4EEC77AF1EE10FAE9DD58
S2140257E008A951F8220041F823000133E2E7032B0F
S2140257F005D9002303930493059303215DE0032B4D
S214025800F7D808AA002142F823100133F7E703AAC3
S21402581002EB830300221A6001219DED037ADDED7F
S214025820047A37EE277ADDED057A37EE277A07EE29
S214025830901AF8EE677A87EE270A694B1B68032BE5
S21402584000F29180DFED677AB4EEE70AF1EE10FA25
S2140258500CD4B4EE400AF1EE10FA07D6DFED627A07
S214025860B4EEE70AF1EE10FA40F3B580B8EE000A9D
S214025870002002F0D3FD002002F08EFD0DF58A3DD9
S21402588069B0F0BD013207EE902AF8EE677A9FED16
S214025890577A67EE877ADFED566A86EEA77A03AA0C
S2140258A002EB830383ED007A0121B6E703AA02EB3B
S2140258B0830300221A6001390346022BADD8089AE8
S2140258C0002AA4D009980028DCD0581C08AC54F84A
S2140258D0202054F82340121B07EE902AF8EE677A2F
S2140258E09FED427A67EE877ADFED416A86EEA77A07
S2140258F003AA02EB830282ED007ADFED3A7AB4EE77
S214025900E77AF1EE10FAD1D4DFED377AB4EEE77A21
S214025910F1EE10FAD0DDC9E7013102292BD803A82F
S21402592000EB8100D0ED007A9FED326AF4EEC67A83
S214025930F1EE10FA07DDF5EEC07AF1EE10FA02DDAE
S214025940013276EEA76A9FED2B6AF4EEC67AF1EE86
S21402595010FAE1D5F5EEC07AF1EE10FADCDD01338D
S21402596037EE277AD8E700219FED237AF0EE476AD2
S2140259700B460A46D1E79A4205D907EE902AF8EE78
S214025980677A86EEA70A9A4205D207EE903AF8EEB2
S214025990677A87EE270A9A4210D09A427FF452AF6D
S2140259A0164B93ED007ADFED137AB4EEE77AF1EE5A
S2140259B010FA7FF747AFB0EE660A43E70F4991ED5C
S2140259C0006ADFED0C7AB4EEE76AF1EE10FAE4D57F
S2140259D0B0EE470AE1E7002002F020FD4BE700BFE9
S2140259E004F0FE1F0000204200002043E3C2883B72
S2140259F00000704200009642000000005008FE1FA1
S214025A002DE9F0412DED048BADF5355D84B04FF4F4
S214025A109A7200210DF530501C3047F03DFF0023EE
S214025A2000E001334C2BFCD900252C4622E1013341
S214025A30B3F5806FFBD34FF400629F490DF61C400E
S214025A4048F08EF82202002001461EE09B4B03EB34
S214025A508203D3ED007A0DF61C4303EB800393ED2D
S214025A60007A67EE877A0DF5E0531C3303EB810369
S214025A70C3ED007A4B1C01300DF5E0561C3606EBE2
S214025A80830300261E6002310132A31CB2EB032FF1
S214025A90DCD3012300220DF5E0511C31884845F085
S214025AA051FC4FF4006200210DF5A0501C3047F067
S214025AB0F3FE002300E00133B3F5007FFBD34FF47F
S214025AC000720DF5A0511C310DF5E0501C3046F069
S214025AD068F94FF4CE72002104A847F0DDFE4FF0BD
S214025AE00008192714E00DF5A0531C3303EB8703B7
S214025AF093ED000A04AB03EB880686ED000AF0EE8F
S214025B00000A4AF029F986ED000A08F10108013771
S214025B107F2FE8D94FF4007200210DF5D06047F0D0
S214025B20BBFE002307E00DF5D06202EB83024FF0C6
S214025B307051116001337F2BF5D94FF46772002143
S214025B400DF5086047F0A8FE0DF508630093802364
S214025B500DF5D062672104A845F0E6FF4FF4CE7239
S214025B6000216BA847F098FE002140220AE00DF5BE
S214025B70086303EB820318686BAB03EB81031860C0
S214025B8001310132A62AF2D94FF4CE720021D2A8F0
S214025B9047F082FE002211E004AB03EB8203D3ED52
S214025BA0007A6BAB03EB820393ED007A77EEC77A4B
S214025BB0D2AB03EB8203C3ED007A0132662AEBD93D
S214025BC002AB9FED409A83ED009A03AB00261E605F
S214025BD003AB02AA6721D2A845F0F8FE334607E0D7
S214025BE0D2AA02EB8302D2ED007A39EE279A01336B
S214025BF0662B0FD8D2AA02EB8302D2ED007AF5EE1C
S214025C00C07AF1EE10FAEBD5D2AA02EB83022E4945
S214025C101160E5E74FF4CE7200210DF2E44047F042
S214025C203BFE002622E0D2AB03EB860393ED007A1E
S214025C309FED260A79EE007A87EE278A0DF2E44374
S214025C4003EB860383ED008A0DF530531C3303EB1A
S214025C508507D7ED008A38EE000A4AF04DF828EE9E
S214025C60008A78EEC88AC7ED008A0136662EDAD92F
S214025C70013501344C2C09D84FF4805200210DF521
S214025C80E0501C3047F008FE0023D1E600230AE06D
S214025C900DF530521C3202EB830211680C4A02EBFD
S214025CA08302116001334C2BF2D90DF5355D04B039
S214025CB0BDEC048BBDE8F081B8950900EC94FF1F9B
S214025CC08CC20A0000000000CDCC4C3D00008025AE
S214025CD0A8F3FE1F2DE9F041ADF51A5D8AB07822D1
S214025CE000210DF51850303047F0D6FD002309E0AC
S214025CF00DF51A52283202EB83024FF0785142F821
S214025D00781C0133072BF3D90DF508541C3440F2E6
S214025D1014420021204647F0BFFD009408230DF5EB
S214025D2018523032E721DF4845F0FEFE4FF45F722C
S214025D3000210DF5F55047F0AFFD0021082310E0D5
S214025D400DF508521C3202EB8302D2ED007AF1EE18
S214025D50677A0DF5F55202EB8102C2ED007A013147
S214025D600133E62BECD90DF5F4521C3200261660F0
S214025D700DF5F453183300241C60DF210DF5F550A1
S214025D8045F024FE0DF5F45514352E600DF5F4534A
S214025D9010331C602A46DF210DF5F55045F048FE0B
S214025DA0D5ED006AF0EEE66A22460EE00DF5F553F2
S214025DB003EB8203D3ED007A76EEA77A9FEDBA7AEA
S214025DC077EE877AC3ED007A0132DE2AEED94FF4F7
