S02900006177735F656B5F7261366D335F6F74615F6170705F776966695F646131363230302E737265630B
S21402020000DE06205DE10400FDDF040059E1040083
S21402021059E1040059E1040059E1040059E10400DF
S214020220000000000000000000000000D52C0300C3
S21402023059E1040000000000ED2C0300492D0300E4
S214020240A1CD040021C5040095C60400A5C704007C
S21402025075C80400954F03002D4F03000950030094
S2140202604950030025DE040025BD040095BD0400A8
S214020270294803002D470300054903004D490300A2
S214020280294803002D470300054903004D49030092
S214020290294803002D470300054903004D49030082
S2140202A0A1CD0400A1CD0400A1CD040059CA0400CA
S2140202B05DD40400EDD3040000000000000000003E
S2140202C00000000000000000000000000000000027
S2140202D00000000000000000000000000000000017
S2140202E00000000000000000000000000000000007
S2140202F000000000000000000000000000000000F7
S2140206000348044B834202D0034B03B1184770479A
S214020610340FFE1F340FFE1F000000000548064B75
S2140206201B1AD90F01EBA301491002D0034B03B1E9
S21402063018477047340FFE1F340FFE1F00000000DD
S21402064010B5064C237843B9FFF7DAFF044B13B113
S2140206500448AFF300800123237010BD500FFE1F25
S21402066000000000F0A60A0008B5054B1BB10549BC
S2140206700548AFF30080BDE80840FFF7CFBF00BFD4
S21402068000000000540FFE1FF0A60A0010B510B3BB
S214020690DAB1C36844689C4202D30BB1012010BD94
S2140206A003890133B1FBF3FC03FB1C111180436881
S2140206B0028901880133B2EB510F436002D30181F4
S2140206C0002010BD52000281FAE7064B064A074890
S2140206D02D212DF063FC064B034A04482C212DF0F5
S2140206E05DFC00BFE41A0700906D0700B81A070009
S2140206F0A01A070010B528B1002401810280C36049
S214020700446010BD024B034A034859212DF046FCB3
S214020710FC1A07006C6D0700B81A070008B530F01F
S214020720D9FB024B1B68C01A08BD00BFF438FE1F77
S214020730704700BF2DE9F04F6F4C704B23609BB0A3
S21402074000260390334641F288324FF4FA7108A825
S214020750CDE909660896ADF810600B96FFF7CAFF5A
S214020760DFF8C891DFF8C881654D0DF1180B242219
S214020770002111A84CF0FEFAD8F80000ADF812607D
S214020780CDE90C66CDE90E66CDE90696CDF840B009
S21402079012904CF05BFC5B4B189301305A4B139053
S2140207A0199341F2883200234FF4FA710CA8FFF72E
S2140207B0A1FF4FF47A7A059607E001F025F90128A1
S2140207C041D0BDF8120030F05DFB296810ABCDE9D0
S2140207D000AA42F2B322204635F00CF9074604215D
S2140207E005A8002FE9D1494B8DF83070186810978C
S2140207F0CDE91277CDE91477169711904CF026FCC6
S2140208000CAB0093424B13933C23ADF84230362395
S214020810ADF84800ADF850303E483A464FF4FA6319
S21402082010A935F0F5FCE0B1334835F075FA30F032
S21402083051FB04AA014608A8FFF728FF60B1002072
S2140208401BB0BDE8F08F05990DF112020CA8FFF758
S2140208501DFF0028EBD1B4E7BDF8100030F012FB04
S21402086085E7039B1BB901201BB0BDE8F08F9DF8FE
S2140208703010284800F02EFE0028D5D19DF83070A2
S214020880002FF0D1DFF8ACA04FF0FF31DAF800000D
S2140208902FF008F9204BDFF88CC003F596711A8901
S2140208A06AB1186901280AD107EB470E01370CF81E
S2140208B02E000CEB8E00BFB20281DA68426014335F
S2140208C09942ECD10023DAF800001A4619462EF0B7
S2140208D01FFE002FC7D01149114A124B0B60124B54
S2140208E013600C484F6000235160936000F086FE50
S2140208F00028B8D098E700BFF838FE1FFC38FE1F65
S214020900343DFE1F201B07002C1B0700383DFE1F30
S214020910401B0700E437FE1F2C23FE1FB821FE1FD4
S214020920AC21FE1FC021FE1F31070200101B07006C
S214020930303DFE1F2823FE1F2DE9F041DFF86880B8
S214020940184CD8F8000084B000234FF0FF3115464B
S2140209508DF80F300DF10F072FF0A4F804F59676F8
S21402096002E01434A64213D02389002BF9D0298939
S214020970E2686868009736F053FA9DF80F30294609
S214020980002BEED0D4E9003014349847A642EBD1BF
S2140209900023D8F800001A4619462EF0B9FD04B016
S2140209A0BDE8F0812C23FE1F2823FE1F2DE9F04F01
S2140209B091B04FF0FF325D4C009200231A4602219E
S2140209C02068DFF8B0A1DFF8B091DFF8B0B12EF002
S2140209D0E9FA30F07FFA564B1A68801A1860554BBF
S2140209E0CAF80030544BC9F80030544B544ACBF87E
S2140209F0002093E8030005AF03F1080687E803002A
S214020A000FCE0BAD4FF00008CDF800800FC533684F
S214020A102B604C4A4C4B042119202EF0F9FC4B4B10
S214020A20186000287BD00B9301F04EF8484B0193D8
S214020A30484B494D0093494B0893494BCDF80880E3
S214020A40CDF824800793DFF83881CDF828803A461F
S214020A500BA907AB284600F0CBFB40B3414F2068FA
S214020A6004231F213B702EF041FB206810212EF03C
S214020A705DFBDBF8000020B12EF03AFA0023CBF83B
S214020A800030DAF8000020B12EF032FA0023CAF85D
S214020A900030D9F8000020B12EF02AFA0023C9F857
S214020AA00030002011B0BDE8F04F2FF0D1BFFFF7A5
S214020AB041FE012885F82A00D0D12A4F09E02846AF
S214020AC000F064FD404635F027F995F82A00012823
S214020AD0C5D103231F2120683B702EF007FB082197
S214020AE020682EF023FB284600F0E2FB0022064692
S214020AF002231F21206885F82A203B702EF0F6FA82
S214020B00206804212EF012FB002ED8D0404635F085
S214020B1003F90120FFF70EFE85F82A00D7E7124BED
S214020B20124A13484FF4D8712DF038FA2023FE1FCC
S214020B30F438FE1F2C10FE1FBC6D07007C730700E6
S214020B40AC0FFE1FBC22FE1F7422FE1F5824FE1F7F
S214020B50390902001D070200E437FE1F795D050011
S214020B60415D05002423FE1F781B0700B06D0700B9
S214020B708C1B0700343DFE1F303DFE1F383DFE1F16
S214020B80F838FE1F10B5002382B00C460246CDE9A7
S214020B900043034903482FF029FF02B010BD00BFEF
S214020BA0B81B0700AD09020008B50A4B1B780BB14B
S214020BB0002008BD01202EF0C9FD074B1860002852
S214020BC0F6D02EF0E1F9054B1860003818BF012068
S214020BD008BD00BF2423FE1F2823FE1F2023FE1F5E
S214020BE0014B1878704700BF2423FE1F38B5074D07
S214020BF0074B04461F2128681C702EF077FA012145
S214020C002868A140BDE838402EF090BA2023FE1F87
S214020C102423FE1F00B9704710B5084A82B001248B
S214020C2084400023106800911A4621462EF0BAF935
S214020C30044214BF0120002002B010BD2023FE1F74
S214020C402DE9F04FDFF8B0A02A4E83B0074689465A
S214020C50DAF8000001934FF0FF3190464FF00F0B89
S214020C602EF020FF3446002504E001350F2D04F156
S214020C7014042BD0E16801B323894B45F5D14A46CB
S214020C8038464CF0B0F80028EFD10BEB8B0306EB9E
S214020C90830156F823304345E7D14B68019A9342C5
S214020CA0E3D101240023DAF800001A4619462EF092
S214020CB02FFC204603B0BDE8F08FBBF10F0FDBD14F
S214020CC0AB4601350F2D04F11404D3D1BBF10E0F40
S214020CD00DD80BEB8B0B019B46F82B8006EB8B0695
S214020CE073600C9BF760A6F808903361D9E700247E
S214020CF0D8E700BF2C23FE1F2823FE1F2DE9F04154
S214020D00144F154C06460D4638684FF0FF312EF04C
S214020D10C9FE04F5967802E01434444511D02389BE
S214020D20AB42F9D1E0682A4631464CF05CF800281E
S214020D30F2D12061C4E90000C4E90200143444453B
S214020D40EDD1002338681A46BDE8F04119462EF068
S214020D50DFBB00BF2823FE1F2C23FE1F38B50D461F
S214020D600446D8B1D1B1436D4BB1836D3BB1C36D6F
S214020D702BB1036E1BB1036D0BB1012038BD0F4AB8
S214020D800F4910484FF4677309F054FA0E4809F0F9
S214020D9051FA0E4809F04EFA002038BD40F292335E
S214020DA0064A0749074809F045FA09482A462146ED
S214020DB009F040FA054809F03DFAEDE7BC73070072
S214020DC0C01B0700CC1B0700241C0700BC3407000E
S214020DD0E41B070030B50C4683B00021CDE90011B4
S214020DE0002830D0016E054631B3F4B10193A368F2
S214020DF08DF800201BB16946E0689847296E2046A8
S214020E00884708B103B030BD40F22F33114A124969
S214020E10124809F00FFA22781148214609F00AFA18
S214020E20104809F007FA03B030BD0F4B0F4A1048BE
S214020E3040F221312DF0B2F80E4B0C4A0C484FF41A
S214020E4048712DF0ABF80C4B084A094840F21F31A6
S214020E502DF0A4F850740700C01B0700CC1B070037
S214020E60041D0700BC340700F01C0700607407006E
S214020E70801C0700B81C0700681C07002DE9F0411B
S214020E8058B38846074600F1640400F582750026CA
S214020E9006E00B78033B012B0AD90834AC4213D088
S214020EA02388002BF9D0616881B1B8F1000FF0D128
S214020EB0002304223846FFF78DFF083444F8086CF6
S214020EC044F8046CAC42EBD1BDE8F081064B074A0D
S214020ED0074840F273312DF061F8064B034A044886
S214020EE04FF45A712DF05AF84C1D0700CC730700C8
S214020EF0801C0700301D070070B500230C4605460F
S214020F0000F1640102E00133142B0DD031F83320D6
S214020F10A242F8D1DB0003F164042E197368A3B170
S214020F202B5B93B1304670BD114A1249124840F20B
S214020F309F1309F07FF91148214609F07BF9104802
S214020F4009F078F90026304670BD40F2A313084A2D
S214020F500849094809F06EF97268295B094809F0E0
S214020F6069F9074809F066F900232B517360E9E72F
S214020F707C740700C01B0700CC1B0700781D070007
S214020F80BC340700981D07002DE9F0411788002899
S214020F905DD00D46002961D0012380F80C310B7814
S214020FA0164603F0F002302A044639D0622B1AD0D5
S214020FB015D903F0DF02902A17D0702B15D02E4ACF
S214020FC02E492F4840F2D12309F034F92D482978CA
S214020FD009F030F9BDE8F0412B4809F02BB9402B57
S214020FE003D0502BEBD1BDE8F08139462046FFF7FF
S214020FF083FF8046D8B141682B78002935D0902BE4
S21402100008BF6B68327A0CBF023300232046FFF714
S214021010E1FE0023C8F80030C8F80430BDE8F081CD
S2140210207268D0F804313946BDE8F0411847124AD2
S214021030124913484FF4317309F0FCF81348394645
S21402104009F0F8F8BDE8F0410F4809F0F3B8104B84
S214021050104A11484FF427712CF0A0FF0F4B0D4A8F
S2140210600D4840F29D212CF099FF0D4B0D4A0A487F
S21402107040F279212CF092FF94740700C01B0700FF
S214021080CC1B0700541E0700BC340700281E0700AE
S214021090D81D0700A8740700801C0700F01D070073
S2140210A0041E0700707407002DE9F0410D46098DF5
S2140210B082B0002935D006461F460998EB6D904649
S2140210C09847044640B30021022E016041608160C9
S2140210D0C16050D0F31E012B0FD8B8F1000F6ED0AE
S2140210E0294605F1A003B1F8640030B108318B42FD
S2140210F051D0B1F864000028F8D1089B2670C4E9E4
S2140211000273C4F804806B6D099A286D019401A9D4
S2140211109847C0B1002600E00226304602B0BDE87D
S214021120F0812A4A2A492B4840F20E3309F082F807
S214021130294809F07FF8294809F07CF8012630464C
S21402114002B0BDE8F08103262B6E204698470028A1
S214021150E3D11E4A1E491F4840F2013309F06AF8DD
S21402116021461F4809F066F81C4809F063F8304625
S21402117002B0BDE8F081B8F80830D5F824C0191DD1
S21402118098F800304BB96145B7D30126DCE76145D4
S21402119028BF00260FD20226D6E72B4605F1A0006E
S2140211A002E008339842F2D0B3F86420002AF8D15D
S2140211B06145A2D30126C6F10206F6B2C4E7094B80
S2140211C0094A0A484FF4E5712CF0E8FEA8730700B6
S2140211D0C01B0700CC1B0700B81E0700BC34070064
S2140211E0941E07007C1E070098730700801C0700E9
S2140211F0F0B583B0002847D00C46002944D01E46DE
S214021200002B41D0089B002B3ED0099B002B3BD0E5
S2140212100B6863B34B6853B38B6843B3CB6833B383
S2140212200B6923B3174605464FF4887200214BF02C
S214021230A1FD3146164B089A0097284634F08EFFD9
S214021240064610BB1422134B13490092284634F06C
S214021250B9FF0646C8B9099BC5F804310A9BC5F80A
S21402126008310FCC50350FC523682B600DE00B4AB2
S2140212700B490C4840F2E63308F0DCFF0A4808F057
S214021280D9FF0A4808F0D6FF0126304603B0F0BD63
S214021290890F02003C3DFE1F8C3DFE1FBC740700FA
S2140212A0C01B0700CC1B0700DC1E0700BC3407006F
S2140212B02DE9F0438DB0002800F0C7800546006D8A
S2140212C0002800F0C280DFF808820026724CAB6D60
S2140212D000963222694698470FCC0DF10C0CACE80A
S2140212E00F000FCCACE80F00009F23680196ADF804
S2140212F00860CCF80030002F00F093803B78082B73
S21402130000F2BB800CAA02EB8303796853F8243CF4
S21402131001AA284698470446D8B12FB102460023B0
S21402132039462846FFF756FD5C4A5D495D4840F25D
S214021330274308F07FFF204635F024FE01465A4830
S21402134008F078FF594808F075FF20460DB0BDE852
S214021350F0839DF8073023B1BDF80490B9F1000F71
S21402136019D12FB13946234622462846FFF732FDC9
S2140213709DF80830002B57D0002085F80C61002815
S2140213803FD00B283DD09DF80630002B45D10028D3
S21402139045D1286D9AE7002F76D0034605F1640101
S2140213A04FF0020C142004E0914514D00133142BA4
S2140213B042D0142831F83320F6D1002AF4D1132B68
S2140213C003F1010C18463AD031F83C2091456346A9
S2140213D04FF0000CEAD1364A314932484FF4B7731F
S2140213E008F028FF4946334808F024FF2F4808F043
S2140213F021FF0023092239462846FFF7EBFC092481
S21402140092E795F82A30012BBDD1284635F0EEFC3E
S21402141095F80C31002BB0D1B5E7002895D00446DC
S21402142082E73946434673E79DF80630002BB0D074
S21402143020460DB0BDE8F083BCF1000F07D121F8BD
S214021440309001EBC0014F6092E701247DE7184A15
S2140214501349144840F27D1308F0ECFE494616483C
S21402146008F0E8FE114808F0E5FE0023022239469D
S2140214702846FFF7AFFC022456E7104B104A1148E5
S21402148040F235212CF08AFD0F4B104A0D4840F2EF
S2140214904F112CF083FD00BFCC7407003874070090
S2140214A0C01B0700CC1B07000C200700BC3407003B
S2140214B0F87307003C1F0700AC1F0700141F070045
S2140214C028740700801C0700F01C07001074070031
S2140214D0B1160200F0B583B010B1038D05461BB9F4
S2140214E00124204603B0F0BD0C4629B30121FFF7C4
S2140214F0C5FC002301A92846019336F067FB044683
S214021500B0B1012721462846FFF7F6FC06462246DA
S214021510284636B1736859688F7035F003F9044669
S21402152078B901A9284636F051FB04460028E9D1CD
S2140215300024204603B0F0BDFFF7A0FC204603B00F
S214021540F0BD7168024600232846FFF743FC0023DD
S214021550094A0A4933607360094840F2553308F075
S21402156069FE204635F00EFD0146064808F062FE8A
S214021570054808F05FFEB4E7E8730700C01B0700E3
S214021580CC1B070034200700BC340700002833D0E9
S214021590F0B50646006D83B0002478B1B36D0194B1
S2140215A0002201A9984701990546002304223046E5
S2140215B009B1FFF70FFC25B1306DEFE7012003B04C
S2140215C0F0BD06F1640406F5827702E00834BC42F8
S2140215D00FD02388002BF9D06168002304223046FE
S2140215E0FFF7F8FB083444F8085C44F8045CBC4295
S2140215F0EFD1002003B0F0BD0120704770B50D4654
S21402160082B0114614460646FFF7A8FB10B9012021
S21402161002B070BD002DFAD02B68002BF7D06B6895
S214021620002BF4D0D4E9012123680320CDE9002160
S2140216302A463146FFF738FD02B070BD70B50D463A
S21402164082B0114614460646FFF788FB10B9012001
S21402165002B070BD002DFAD02B68002BF7D06B6855
S214021660002BF4D0D4E9012123680420CDE900211F
S2140216702A463146FFF718FD02B070BD70B50D461A
S21402168082B0114614460646FFF768FB60B15DB1AC
S214021690D4E9012123680220CDE900212A463146F9
S2140216A0FFF702FD02B070BD012002B070BD00BFA0
S2140216B008B52AB10020012390801060137108BD7E
S2140216C0024B034A034832212CF068FC60200700D4
S2140216D0087607007820070070B5002835D00D463A
S2140216E069B314462AB30023136093800B78064628
S2140216F0DBB94F23184A1949194808F09BFD6A6856
S2140217002989184808F096FD174808F093FD2288A4
S2140217102946304635F006F82B7813B1B0FA80F336
S2140217205B090122E370227170BD35F06DFB2080EB
S214021730DFE70E4B0E4A0F4845212CF02FFC0E4BCE
S2140217400B4A0C4844212CF029FC0C4B084A094849
S21402175043212CF023FC00BFD0750700C01B0700F6
S214021760D4200700EC200700BC34070060200700E6
S214021770EC75070078200700C0200700301D070020
S21402178070B5B8B10D4609B31446CAB1002313604A
S2140217909380064635F038FB2080D5E900120346D2
S2140217A0304634F031FFB0FA80F35B090122E37071
S2140217B0227170BD084B094A094862212CF0EEFBE3
S2140217C0084B064A064864212CF0E8FB064B034AFF
S2140217D0034863212CF0E2FB301D0700B4750700B6
S2140217E078200700602007000C21070070B5B8B10A
S2140217F00D4609B31446CAB1002313609380064609
S21402180035F002FB2080D5E900120346304635F05B
S21402181027FAB0FA80F35B090122E370227170BDE9
S214021820084B094A09487E212CF0B8FB084B064AA9
S214021830064880212CF0B2FB064B034A03487F2160
S2140218402CF0ACFB301D07009475070078200700CB
S214021850602007000C21070070B582B0002834D043
S2140218600C4661B3154622B30A468B6852F80C1B27
S21402187000926268064634F0CBFC20B100232B604F
S214021880AB8002B070BD144A14491548A92308F06B
S214021890D1FC217B134808F0CDFC134808F0CAFCA3
S2140218A0217B3046FFF716FE00232B60AB8002B08A
S2140218B070BD0E4B0E4A0F489C212CF06FFB0E4B50
S2140218C00B4A0C489B212CF069FB0C4B084A094832
S2140218D09A212CF063FB00BF5C750700C01B070053
S2140218E0D420070044210700BC340700602007000C
S2140218F0787507007820070028210700301D0700AA
S21402190010B548B114466AB135F040FA00230122F8
S2140219102360A380A27010BD054B064A0648BD216F
S2140219202CF03CFB054B034A0348BE212CF036FB49
S214021930301D07004075070078200700602007006A
S21402194010B548B114466AB134F06CFF0023012288
S214021950A3802360227110BD054B064A0648D22199
S2140219602CF01CFB054B034A0348D3212CF016FB34
S214021970301D070028750700782007006020070042
S21402198038B5D0B1036E05461BB31446DAB1144A15
S21402199014491548EC2308F04DFC144808F04AFC9C
S2140219A0134808F047FC002301222360A380A2709C
S2140219B02846BDE83840FFF7E9BD0E4B0E4A0F48F1
S2140219C0E8212CF0EBFA0E4B0B4A0C48EA212CF0DD
S2140219D0E5FA0C4B084A0948E9212CF0DFFA00BF69
S2140219E0F0740700C01B0700D42007009C210700E4
S2140219F0BC340700301D07000C750700782007006E
S214021A00602007006021070030B5002383B0CDE9CF
S214021A10003308B10D4611B9002003B030BD0446AC
S214021A20684630F08BFA0028F6D1009B002BF3D0E4
S214021A3001A832F0EBFC0028EED101980028EBD08A
S214021A40009B2A46D3F80431214698470028E3D162
S214021A50DDE900309B6B9847B0FA80F04009DCE77E
S214021A60A8B108B589B14FF47A7C094B00680CFB23
S214021A7002F2A3FB0232920900232DF049FDA0F1E7
S214021A800100B0FA80F0400908BD084608BD70475C
S214021A90D34D6210A0B108B581B10A4B00684FF46D
S214021AA07A7C0CFB02F2A3FB023292092DF03EFF77
S214021AB0A0F10100B0FA80F0400908BD084608BD52
S214021AC0704700BFD34D6210F0B51A4F3B7885B011
S214021AD00BB105B0F0BD03F0FF04A0222146164864
S214021AE0164D4BF047F9164B164A009404210A206D
S214021AF02DF08EFC2860B0B10F4C04F1A006002237
S214021B0003A928460394FFF7ABFF30B11034B44262
S214021B10F5D101233B7005B0F0BD0B4B0B4A0C48C8
S214021B2061212CF03BFA0B4B084A094858212CF04D
S214021B3035FA00BF4C3EFE1F543EFE1F503EFE1FAF
S214021B40DC3DFE1F243EFE1F1C22070054760700C3
S214021B50D8210700B821070000B50B4B1B7883B0CD
S214021B600022012B019208D1024601A90748FFF77D
S214021B7091FF019803B05DF804FB054B054A064841
S214021B8070212CF00BFA00BF4C3EFE1F503EFE1F8B
S214021B902C22070040760700D821070000B5114B1B
S214021BA01B7883B0012B019016D10F4B984203D2BB
S214021BB0002003B05DF804FBA0339842F8D20B482D
S214021BC0002201A9FFF74CFF0028F2D1084B094A70
S214021BD009488D212CF0E2F9084B064A0648832173
S214021BE02CF0DCF94C3EFE1F543EFE1F503EFE1FFC
S214021BF04422070028760700D82107002C22070077
S214021C00024A034B12681A60704700BFFC3EFE1F72
S214021C10F83EFE1F044A0549136809680448116025
S214021C20CB1A0360704700BFF83EFE1FFC3EFE1F45
S214021C30F43EFE1F0349044A01230B70137002F0A0
S214021C4037B800BF003FFE1F013FFE1F28B1044BFE
S214021C5001280CBF1846002070470248704700BF94
S214021C60043FFE1F443FFE1F014B1878704700BF1B
S214021C70003FFE1F014B1870704700BF003FFE1F5B
S214021C80014B1878704700BF013FFE1F014B1870CA
S214021C90704700BF013FFE1F837813B9014B012234
S214021CA01A707047843FFE1F70B53B4E3378A6B05D
S214021CB0002B59D0394D00232B700A240A202FF00E
S214021CC0E1F82A78631E12B913F0FF04F6D1344CF9
S214021CD0344801232246102105932BF0F1FD05908E
S214021CE0059B002B3BD123889FED2F7A9FED2F6A11
S214021CF0DFED2F6A2F4A304D3049927807EE903A40
S214021D00F8EEE77A67EE877A07EE103A67EE867A9B
S214021D10B8EE477A17EE900A67EE267A2860C1ED8B
S214021D20007A6AB1059A039349F024FC244A039B7D
S214021D30CDE900017F2106A84AF092FF26B070BDC9
S214021D40184832702BF0B6FD05901648059B2BF00E
S214021D50E7FF0590059BDBB923882868E2E7164A69
S214021D60059B10682388DEE712490E482BF03EFFDB
S214021D7000289FD113490B482BF002FE002899D168
S214021D8008482BF091FD002894D10123337091E787
S214021D90059B28682388C6E78E3FFE1F843FFE1FEA
S214021DA08C3FFE1FD839022033335340000080395F
S214021DB0DE3CD53C041A0A00883FFE1FA807FE1F19
S214021DC054220700F0190A00014B93ED000A7047EF
S214021DD0A807FE1F08B50549054829F0F3FF054A7E
S214021DE0136923F00103136108BD00BF281A0A0015
S214021DF0FC39022000B0014010B5054C204629F0FF
S214021E00E7FF20460349BDE8104029F0E9BF00BFBE
S214021E10FC390220903FFE1F10B1024B02791A7065
S214021E20704700BF963FFE1F2DE9F04FA94DAA4E00
S214021E302B78044683B00020A3420190347000F051
S214021E403E81102C00F23581DFE814F04F0733078D
S214021E501807FC06B606B905890544050D05C6042D
S214021E60D00380034E03E402110073025201DFF82E
S214021E707892DFF878A29948994F4FF0000846F218
S214021E80046302226946ADF80030A9F800304346E2
S214021E908AF800802AF010FA38600A202EF0F2FF44
S214021EA04FF606733A68ADF80030A9F80030019B89
S214021EB08A48134001930222434669468AF8008004
S214021EC02AF0FAF938600A202EF0DCFF05233A6879
S214021ED0ADF80030A9F80030019B8048134001930A
S214021EE00222434669468AF800802AF0E5F93860FD
S214021EF00A202EF0C7FF07233A68ADF80030A9F88B
S214021F000030019B754813400193022243466946FE
S214021F108AF800802AF0D0F938600A202EF0B2FF44
S214021F2042F202033A68ADF80030A9F80030019B8D
S214021F306A48134001930222434669468AF80080A3
S214021F402AF0BAF938600A202EF09CFF44F2010308
S214021F503A68ADF80030A9F80030019B5F4813409C
S214021F6001930222434669468AF800802AF0A4F9C1
S214021F7038600A202EF086FF46F610033A68ADF85F
S214021F800030A9F80030019B544813400193022206
S214021F90434669468AF800802AF08EF938600A209D
S214021FA02EF070FF46F611033A68ADF80030A9F835
S214021FB00030019B4948134001930222434669467A
S214021FC08AF800802AF078F938600A202EF05AFF44
S214021FD046F612033A68ADF80030A9F80030019BC5
S214021FE03E48134001930222434669468AF800801F
S214021FF02AF062F938600A202EF044FF46F61603ED
S2140220003A68ADF80030A9F80030019B3348134017
S21402201001930222434669468AF800802AF04CF968
S21402202038600A202EF02EFF46F617033A68ADF8FF
S2140220300030A9F80030019B284813400193022281
S214022040434669468AF800802AF036F938600A2044
S2140220502EF018FF46F618033A68ADF80030A9F8D5
S2140220600030019B1D4813400193022243466946F5
S2140220708AF800802AF020F938600A202EF002FF43
S2140220803A68019B154813401C220193A9F80020C8
S214022090ADF8002069468AF80080434602222AF0FC
S2140220A00BF938600A202EF0EDFE3A68019B1340C9
S2140220B0019302202C7001F00BFE18B9019803B0B0
S2140220C0BDE8F08F317807480423082202F03CFB73
S2140220D0F4E700BFB107FE1FB007FE1F5C390220FF
S2140220E0AC07FE1F7C220700943FFE1F963FFE1F92
S2140220F0DFF81893DFF818A3C248C34F4FF0000862
S2140221004FF6047302226946ADF80030A9F8003093
S21402211043468AF800802AF0CFF838600A202EF06C
S214022120B1FE0623ADF80030A9F800303B680193F3
S214022130022243466946B3488AF800802AF0BCF871
S21402214038600A202EF09EFE4FF605733A68ADF808
S2140221500030A9F80030019BAA48134301930222DB
S214022160434669468AF800802AF0A6F838600A20B4
S2140221702EF088FE07233A68ADF80030A9F8003042
S214022180019BA048134301930222434669468AF8FC
S21402219000802AF091F838600A202EF073FE42F290
S2140221A002033A68ADF80030A9F80030019B954862
S2140221B0134301930222434669468AF800802AF0B6
S2140221C07BF838600A202EF05DFE44F201033A687E
S2140221D0ADF80030A9F80030019B8A4813430193FA
S2140221E00222434669468AF800802AF065F838607B
S2140221F00A202EF047FE46F610033A68ADF8003085
S214022200A9F80030019B7F481343019302224346FC
S21402221069468AF800802AF04FF838600A202EF0C5
S21402222031FE46F611033A68ADF80030A9F80030E0
S214022230019B7448134301930222434669468AF877
S21402224000802AF039F838600A202EF01BFE46F687
S21402225012033A68ADF80030A9F80030019B6948CD
S214022260134301930222434669468AF800802AF005
S21402227023F838600A202EF005FE46F616033A6862
S214022280ADF80030A9F80030019B5E481343019375
S2140222900222434669468AF800802AF00DF8386022
S2140222A00A202EF0EFFD46F617033A68ADF8003026
S2140222B0A9F80030019B5348134301930222434678
S2140222C069468AF8008029F0F7FF38600A202EF067
S2140222D0D9FD46F618033A68ADF80030A9F8003082
S2140222E0019B4848134301930222434669468AF8F3
S2140222F0008029F0E1FF38600A202EF0C3FD3A681C
S214022300019B404813431C220193A9F80020ADF814
S214022310002069468AF800804346022229F0CCFF54
S21402232038600A202EF0AEFD3A68019B13430193F3
S214022330BFE64FF000084FF00209DFF8D0A0DFF842
S214022340D0B03048ADF8009043464A466946AAF8EF
S21402235000908BF8008029F0AFFF2B4F38600A20E0
S2140223602EF090FD4FF60473ADF80030AAF8003058
S2140223703B6801934A464346694622488BF80080EA
S21402238029F09AFF38600A202EF07CFD06233A6870
S214022390ADF80030AAF80030019B1A4813430193A7
S2140223A04A46434669468BF8008029F085FF386026
S2140223B00A202EF067FD4FF605733A68ADF8003036
S2140223C0AAF80030019B0F48134301934A4643463E
S2140223D069468BF8008029F06FFF38600A202EF0DD
S2140223E051FD3868019B034307200193AAF80000B9
S2140223F0ADF800004A4603488BF80080694643461B
S2140224008CE700BF5C390220AC07FE1F943FFE1F1C
S214022410963FFE1F4FF002094FF00008DFF8C4A1F6
S214022420DFF8C4B16D48ADF8009043464A466946A7
S214022430AAF800908BF8008029F03EFF684F3860BB
S2140224400A202EF01FFD46F204633A68ADF800300B
S214022450AAF80030019B6148134001934A4643465E
S21402246069468BF8008029F027FF38600A202EF094
S21402247009FD4FF606733A68ADF80030AAF8003048
S214022480019B5648134001934A46434669468BF8D9
S214022490008029F011FF38600A202EF0F3FC052395
S2140224A03A68ADF80030AAF80030019B4B4813405A
S2140224B001934A46434669468BF8008029F0FCFEA3
S2140224C038600A202EF0DEFC3868019B03400720A5
S2140224D00193AAF80000ADF800004A463F488BF880
S2140224E0008069464346DAE5DFF8F890DFF8F8A0A0
S2140224F03A483B4F4FF000084AF604230222694648
S214022500ADF80030A9F8003043468AF8008029F07A
S214022510D3FE38600A202EF0B5FC4AF606233A6847
S214022520ADF80030A9F80030019B2C481340019307
S2140225300222434669468AF8008029F0BDFE3860CA
S2140225400A202EF09FFC4AF60523C0E44FF000084E
S2140225504FF00209DFF88CA0DFF88CB01F48ADF808
S214022560009043464A466946AAF800908BF80080D7
S21402257029F0A2FE1A4F38600A202EF083FC4AF693
S21402258004233A68ADF80030AAF80030019B1348DD
S214022590134001934A46434669468BF8008029F069
S2140225A08BFE38600A202EF06DFC4AF606233A6847
S2140225B0ADF80030AAF80030019B0848134001939A
S2140225C04A46434669468BF8008029F075FE386015
S2140225D00A202EF057FC4AF6052361E75C390220F2
S2140225E0AC07FE1F943FFE1F963FFE1FDFF8DC92ED
S2140225F0DFF8DCA2B348B44F4FF0000847F204738A
S21402260002226946ADF80030A9F8003043468AF83F
S214022610008029F051FE38600A202EF033FC062393
S2140226203A68ADF80030A9F80030019BA54813407F
S21402263001930222434669468AF8008029F03CFE4E
S21402264038600A202EF01EFC4FF605733A68ADF885
S2140226500030A9F80030019B9A48134001930222E9
S214022660434669468AF8008029F026FE38600A202A
S2140226702EF008FC07233A68ADF80030A9F80030BF
S214022680019B9048134001930222434669468AF80A
S214022690008029F011FE38600A202EF0F3FB42F289
S2140226A002033A68ADF80030A9F80030019B85486D
S2140226B0134001930222434669468AF8008029F0B5
S2140226C0FBFD38600A202EF0DDFB44F201033A6877
S2140226D0ADF80030A9F80030019B7A481340019308
S2140226E00222434669468AF8008029F0E5FD3860F2
S2140226F00A202EF0C7FB42F210433A68ADF80030CB
S214022700A9F80030019B6F4813400193022243460A
S21402271069468AF8008029F0CFFD38600A202EF03C
S214022720B1FB42F211433A68ADF80030A9F8003026
S214022730019B6448134001930222434669468AF885
S214022740008029F0B9FD38600A202EF09BFB42F289
S21402275012433A68ADF80030A9F80030019B594898
S214022760134001930222434669468AF8008029F004
S214022770A3FD38600A202EF085FB42F216433A6823
S214022780ADF80030A9F80030019B4E481340019383
S2140227900222434669468AF8008029F08DFD386099
S2140227A00A202EF06FFB42F217433A68ADF800306B
S2140227B0A9F80030019B4348134001930222434686
S2140227C069468AF8008029F077FD38600A202EF0E4
S2140227D059FB42F218433FE44FF002094FF000085B
S2140227E0DFF8E8A0DFF8E8B03648ADF800904346D8
S2140227F04A466946AAF800908BF8008029F05CFDEC
S214022800314F38600A202EF03DFB47F204733A68D7
S214022810ADF80030AAF80030019B2A481340019315
S2140228204A46434669468BF8008029F045FD3860E3
S2140228300A202EF027FB06233A68ADF80030AAF8E5
S2140228400030019B1F48134001934A46434669469F
S2140228508BF8008029F030FD38600A202EF012FB3B
S2140228604FF605731CE6DFF86490DFF864A015489F
S214022870154F4FF000084FF6047302226946ADF872
S2140228800030A9F8003043468AF8008029F014FD8B
S21402289038600A202EF0F6FA4FF60673ADF80030CE
S2140228A0A9F800303B680193022243466946054870
S2140228B08AF8008029F000FD38600A202EF0E2FA3D
S2140228C0052343E45C390220AC07FE1F943FFE1F3B
S2140228D0963FFE1F4FF000084FF00209DFF8D0A225
S2140228E0DFF8D0B2B048ADF8009043464A46694693
S2140228F0AAF800908BF8008029F0DEFCAB4F386017
S2140229000A202EF0BFFA4FF60473ADF80030AAF88C
S21402291000303B6801934A4643466946A2488BF814
S214022920008029F0C9FC38600A202EF0ABFA4FF678
S21402293006733A68ADF80030AAF80030019B9A4850
S214022940134301934A46434669468BF8008029F0B2
S214022950B3FC38600A202EF095FA05232DE54FF0D9
S21402296002094FF00008DFF848A2DFF848B28E48A6
S214022970ADF8009043464A466946AAF800908BF89E
S214022980008029F099FC894F38600A202EF07AFAE6
S21402299004233A68ADF80030AAF80030019B82485A
S2140229A0134001934A46434669468BF8008029F055
S2140229B083FC38600A202EF065FA06235BE5DFF812
S2140229C0F091DFF8F0A17848784F4FF00008042322
S2140229D002226946ADF80030A9F8003043468AF86C
S2140229E0008029F069FC38600A202EF04BFA4FF678
S2140229F00673ADF80030A9F800303B680193022256
S214022A004346694668488AF8008029F055FC3860D3
S214022A100A202EF037FA49F205633A68ADF800301C
S214022A20A9F80030019B60481343019302224346F3
S214022A3069468AF8008029F03FFC38600A202EF0AA
S214022A4021FA07233A68ADF80030A9F80030019B56
S214022A505548134301930222434669468AF800808A
S214022A6029F02AFC38600A202EF00CFA42F2020301
S214022A703A68ADF80030A9F80030019B4A48134383
S214022A8001930222434669468AF8008029F014FC24
S214022A9038600A202EF0F6F944F201033A68ADF8DF
S214022AA00030A9F80030019B3F48134301930222ED
S214022AB0434669468AF8008029F0FEFB38600A2001
S214022AC02EF0E0F942F210433A68ADF80030A9F869
S214022AD00030019B34481343019302224346694661
S214022AE08AF8008029F0E8FB38600A202EF0CAF93E
S214022AF042F211433A68ADF80030A9F80030019B63
S214022B002948134301930222434669468AF8008005
S214022B1029F0D2FB38600A202EF0B4F942F21243B2
S214022B203A68ADF80030A9F80030019B1E481343FE
S214022B3001930222434669468AF8008029F0BCFBCC
S214022B4038600A202EF09EF942F216433A68ADF833
S214022B500030A9F80030019B134813430193022268
S214022B60434669468AF8008029F0A6FB38600A20A8
S214022B702EF088F942F217433A68ADF80030A9F809
S214022B800030019B084813430193022243466946DC
S214022B908AF8008029F090FB38600A202EF072F93D
S214022BA042F21843FFF797BB5C390220AC07FE1FC0
S214022BB0943FFE1F963FFE1F4FF000084FF002099B
S214022BC0DFF894A1DFF894B16148ADF8009043466F
S214022BD04A466946AAF800908BF8008029F06CFBFA
S214022BE05C4F38600A202EF04DF90423ADF8003011
S214022BF0AAF800303B6801934A4643466946544861
S214022C008BF8008029F058FB38600A202EF03AF93B
S214022C104FF606733A68ADF80030AAF80030019B0A
S214022C204B48134301934A46434669468BF8008055
S214022C3029F042FB38600A202EF024F949F2056397
S214022C40FFF7BBBB4FF002094FF00008DFF808A100
S214022C50DFF808B13E48ADF8009043464A4669465A
S214022C60AAF800908BF8008029F026FB394F3860CE
S214022C700A202EF007F94FF604738AE64FF002098F
S214022C804FF00008DFF8D0A0DFF8D0B03048ADF83B
S214022C90009043464A466946AAF800908BF80080A0
S214022CA029F00AFB2B4F38600A202EF0EBF804239B
S214022CB0ADE54FF002094FF00008DFF89CA0DFF800
S214022CC09CB02348ADF8009043464A466946AAF8A7
S214022CD000908BF8008029F0EFFA1E4F38600A2029
S214022CE02EF0D0F80423FFF7B0BB4FF002094FF0E6
S214022CF00008DFF864A0DFF864B01548ADF800906D
S214022D0043464A466946AAF800908BF8008029F0A6
S214022D10D3FA104F38600A202EF0B4F84FF6047338
S214022D203A68ADF80030AAF80030019B0848134014
S214022D3001934A46434669468BF8008029F0BCFA5E
S214022D4038600A202EF09EF84FF6067374E500BF30
S214022D505C390220AC07FE1F943FFE1F963FFE1F03
S214022D6030B50A4B83B0CDE900330DF1FF340DF1D7
S214022D70070514F8010FFFF757F80346C8201BB9DA
S214022D802EF080F8A542F4D103B030BD0F070F072E
S214022D902DE9F047CF4ED049DFF84483DFF844935D
S214022DA0CE4C82B001233046019329F07BFB0025EE
S214022DB04FF4005301906946ADF80030A8F8003091
S214022DC002222B46304689F8005029F075FA206018
S214022DD00A202EF057F82268019B0227134001931F
S214022DE03A462B466946304689F80050ADF80070E0
S214022DF0A8F8007029F060FA20600A202EF042F847
S214022E0040F603032268ADF80030A8F80030019BB4
S214022E10134001933A462B466946304689F80050DD
S214022E2029F04AFA20600A202EF02CF84FF6047396
S214022E302268ADF80030A8F80030019B13400193D9
S214022E403A462B466946304689F8005029F034FA4D
S214022E5020600A202EF016F84FF606732268ADF8A8
S214022E600030A8F80030019B134001933A462B46E7
S214022E706946304689F8005029F01EFA20600A207A
S214022E802EF000F84FF605732268ADF80030A8F869
S214022E900030019B134001933A462B466946304662
S214022EA089F8005029F008FA20600A202DF0EAFF7F
S214022EB007232268ADF80030A8F80030019B1340C3
S214022EC001933A462B466946304689F8005029F067
S214022ED0F3F920600A202DF0D5FF2268019B1340EB
S214022EE04FF00A0A01933A462B466946304689F85D
S214022EF00050ADF800A0A8F800A029F0DDF9206087
S214022F0050462DF0BFFF0B232268ADF80030A8F81C
S214022F100030019B134001933A462B4669463046E1
S214022F2089F8005029F0C8F9206050462DF0AAFF13
S214022F300C232268ADF80030A8F80030019B13403D
S214022F4001933A462B466946304689F8005029F0E6
S214022F50B3F9206050462DF095FF4FF48263226845
S214022F60ADF80030A8F80030019B134001933A46B2
S214022F702B466946304689F8005029F09DF92060B4
S214022F8050462DF07FFF40F211432268ADF8003024
S214022F90A8F80030019B134001933A462B46694637
S214022FA0304689F8005029F087F9206050462DF007
S214022FB069FF40F212432268ADF80030A8F80030EC
S214022FC0019B134001933A462B466946304689F8E0
S214022FD0005029F071F9206050462DF053FF162359
S214022FE02268ADF80030A8F80030019B1340019328
S214022FF03A462B466946304689F8005029F05CF975
S214023000206050462DF03EFF17232268ADF80030B0
S214023010A8F80030019B134001933A462B466946B6
S214023020304689F8005029F047F9206050462DF0C6
S21402303029FF18232268ADF80030A8F80030019B5B
S214023040134001933A462B466946304689F80050AB
S21402305029F032F9206050462DF014FF40F21D731D
S2140230602268ADF80030A8F80030019B13400193A7
S2140230703A462B466946304689F8005029F01CF934
S214023080206050462DF0FEFE30462668019B3340F7
S21402309069463A46019389F800502B461C25A8F843
S2140230A00050ADF8005029F007F903465046236059
S2140230B02DF0E8FE2268019B13400193FFF750FEB5
S2140230C00520FEF7B1FE019B03400193019802B072
S2140230D0BDE8F0875C39022068190A00AC07FE1FBB
S2140230E0943FFE1F963FFE1F014B1878704700BFA5
S2140230F0B007FE1F70B50D4D06460C4640F604029C
S2140231000021284649F036FE73090222F6006B704B
S2140231102A70AE70611E2B1D05F6040011F8012FF1
S21402312003F8012B9842F9D170BD00BF1C54FE1F54
S21402313070B53A493A483B4E3B4D82B011F0D4FC4A
S2140231400022034640F207213848336028F07CFE0E
S214023150002207232A7036493148022211F0E0FE87
S2140231602B78306083B92DF0B5FE0A21019001A8B4
S2140231702DF034FE2B783BB92DF0ACFE0A21034627
S21402318001A801932DF02AFE002240F207212748CB
S21402319028F05AFE002207232A70264920480222D7
S2140231A011F0BEFE2B78306083B92DF093FE0A2113
S2140231B0019001A82DF012FE2B783BB92DF08AFE65
S2140231C00A21034601A801932DF008FE002240F2D0
S2140231D00721164828F038FE00222A7016491048A1
S2140231E0072340F6040211F09BFE40F6040430600A
S2140231F00AE02DF06FFE013C03460A2101A8A4B2A4
S21402320001932DF0EBFD14B12B78002BF1D004487E
S21402321011F0DCFB306002B070BD00BF98190A00E6
S2140232209C3902201854FE1F973FFE1F202B0220B7
S214023230B807FE1FB407FE1F1C54FE1FF0B5032579
S21402324085B000FA05F342090C462048204902954B
S2140232508DF809208DF80A3011F046FC1D4E1E4FDF
S2140232600346002240F207211C48336028F0ECFD9A
S21402327007230022009315483A7040F60403184AC2
S21402328002A911F051FE40F6040530600AE02DF066
S21402329021FE013D03460A2103A8ADB203932DF099
S2140232A09DFD15B13B78002BF1D0084811F08EFB3E
S2140232B00C4B3060611E03F5006013F8012F01F815
S2140232C0012F9842F9D1306805B0F0BD9C39022032
S2140232D098190A001854FE1F973FFE1F202B022043
S2140232E09C3FFE1F9F3FFE1F2DE9F047002484B03F
S2140232F02C4F2D4E2D4DCDE901440123009307EBB3
S21402330003080394314628465FFA84FA49F038FEE9
S21402331029465046FFF7EEFEFFF70AFF01AA0346CC
S2140233204FF400612846009304F0D6FC009B8446C6
S21402333043EA0C030093019B07F81430009B4FF4FA
S2140233404062002128464FEA440913B1039B013329
S214023350039349F00FFD29465046FFF76FFF02AA76
S21402336003464FF400612846009304F0B5FC009B28
S21402337003430093009A9DF8083008F80930013498
S21402338006F6010612B1039A013203923C2C17F894
S2140233900900B7D1181AB0FA80F0400904B0BDE8A7
S2140233A0F08700BFA047FE1F6C7607001848FE1F76
S2140233B00279012A00D0704708B5074B07481A70F1
S2140233C040F2072128F040FD054A1368013303F056
S2140233D07F03136008BD00BF973FFE1F202B02200D
S2140233E0983FFE1F70B5314D314C2B789FED317AE8
S2140233F004EB8304D4ED007AF4EEC77AF1EE10FA09
S21402340082B006DD9FED2C7AF4EEC77AF1EE10FA62
S21402341019D42A4A136801331360294C23780BB156
S21402342002B070BD012527492748019529F0A8FB5F
S21402343001902548019B009529F04EFB0090009BC9
S214023440257002B070BD032004F072FC04202E78B2
S21402345084ED000A04F06CFC1C4B2C78052003EB70
S214023460860383ED000A04F063FC194B2E7803EB07
S214023470840383ED000A04F0D5F9164B2C7803EB8F
S214023480860383ED000A04F0D3F92A78124B134917
S2140234900132A3FB0203DB0803EB430301EB8401C7
S2140234A0A2EB830281ED000A2A70B6E71CADFE1F6E
S2140234B0ECACFE1FCDCCCCBDCDCCCC3D285CFE1FEB
S2140234C01FADFE1FA4180A0088380220BCACFE1FDF
S2140234D08CACFE1F5CACFE1FABAAAAAA2CACFE1FCD
S2140234E070B5104D2C7884B00026012C019602D0BF
S2140234F0019804B070BD0C48039429F0E7FA0390D3
S214023500039A019B08482E7013430193029429F0F4
S214023510F5FB0290029A019B13430193019804B0B3
S21402352070BD00BF1FADFE1F883802202DE9F04F88
S214023530614E624C3378624A2178624D624F52F88D
S21402354021209FED627A0B2B83B084BF0023337059
S214023550009207EB83032A6893ED000A0E2AF0EE28
S214023560C07A00F28480F4EEC77A0132F1EE10FAE5
S2140235702A6040F38680009B9A42C0F08280062032
S21402358004F018FC52493378DFF85CB1DFF85CA12E
S214023590DFF85C91DFF85C8101EB830393ED000AB0
S2140235A0072004F007FC33780BEB8303082093ED27
S2140235B0000A04F0FFFB33780AEB830393ED000A5C
S2140235C004F03CF9337809EB830393ED000A04F028
S2140235D03BF932783E499FED3F7A01EB820E09EBCA
S2140235E0820102F101090AEB8200A8FB09A3DB08AB
S2140235F003EB4303A9EB830333700133A8FB038673
S214023600F6080BEB820C06EB460607EB8202A3EBF0
S2140236108603002607EB83031660D3ED007ACEF806
S2140236200060F4EEC77AF1EE10FACCF8006006609D
S2140236300E6006DD9FED287AF4EEC77AF1EE10FAF8
S21402364031D4022000F044FB28B3244A0023106839
S214023650019301A92CF008F9019BF3B1204B4FF01E
S21402366080525A60BFF34F8FBFF36F8F15E0F4EEB0
S214023670C77AF1EE10FA09DC00232B6003B0BDE82E
S214023680F08F0F2AF8D003B0BDE8F08F009B9A4265
S214023690BFF475AFF0E7FFF723FF2378042B9CBF38
S2140236A001332370E8E7032001F08AF80D4A136815
S2140236B001331360C5E700BF1DADFE1F20ADFE1F20
S2140236C0A856090024ADFE1FECACFE1FBD3786359A
S2140236D0BCACFE1FCDCCCCBDCDCCCC3D4C23022009
S2140236E000ED00E0245CFE1F8CACFE1F5CACFE1FEF
S2140236F02CACFE1FABAAAAAA014B1878704700BFD3
S2140237001FADFE1F014B1878704700BF1EADFE1F8F
S21402371010B5044684B0881F01289DF818C014D935
S21402372031B93D4A0023012C137013D004B010BDEA
S214023730042CF6D10D2A20D8DFE802F04C421F1FD7
S2140237401F1F1F1F1F1F3E3A0736334B0D221A70CC
S21402375004B010BDBCF1020FE8D13049304A3148FE
S21402376013700C70039429F0B1F903462D480393A5
S21402377029F0C4FA0390039BD8E70024264B204680
S2140237801C7000F0BBFA284A254B28481470012109
S21402379002911C7029F09AF903462448029329F0F4
S2140237A0ADFA0290029BC1E71B4B0E221A70BDE7D0
S2140237B0194B0C221A70B9E7174B0B221A70B5E791
S2140237C02DF088FB4FF47A61034603A803932DF08D
S2140237D005FBABE7012B15D00F48134A14490A2400
S2140237E00123047011481370019329F0C9F90346A6
S2140237F00E48019329F070F90E4B019000220199B0
S2140238001A6093E70C48009329F060F90B4B00907E
S214023810002200991A70DFE71EADFE1FBA07FE1FD0
S21402382028ADFE1FC8380220BB07FE1FA83802209C
S21402383000190A002CADFE1F883802201FADFE1F9D
S2140238402DE9F0412348244E244C2DED028B4FF4F3
S214023850A042002149F08EFA9FED218A06F5A03893
S21402386027463546F5EC017A67EE887AFDEEE77A6A
S21402387017EE903A18B203F049FC454507F8010FD7
S214023880F0D1184B1B780A2B14D8174D9FED148ACB
S21402389014F8010F03F0C0FC07EE900AF8EEE77A80
S2140238A0AC4287EE887AA6EC017AF1D1BDEC028BA7
S2140238B0BDE8F08100F08AFF0028E6D000F018FA92
S2140238C00028E2D0094A0023106819461A462BF04F
S2140238D01FFEDAE72C5CFE1FCC98FF1F2B5CFE1F38
S2140238E000007A441EADFE1F2BACFE1F4C230220A6
S2140238F0034A0023106819461A462BF009BE00BF79
S2140239004C23022010B9012902D0704700207047CC
S214023910012BFAD1012AF8D1B5EEC00AF1EE10FA5F
S214023920F3DDF6EE007AF4EEE70AF1EE10FAECDBDF
S21402393000B583B00220019200F0E0F9019A104629
S21402394003B05DF804FB00BF0B2801D000207047CF
S2140239500129FBD1012B08B513D1042A11D1B5EEEA
S214023960C00AF1EE10FA0CDDF6EE007AF4EEE70A83
S214023970F1EE10FA05DB054A184613780133137088
S21402398008BD032000F0BAF9002008BD28ADFE1FCE
S214023990012801D80020704710B50A4B0A490B4887
S2140239A082B0002201241A70019429F0E9F8034635
S2140239B00648019329F090F80190019B204602B038
S2140239C010BD00BFBA07FE1F00190A00C838022041
S2140239D0014B1878704700BF28ADFE1F014B1878C0
S2140239E0704700BFBA07FE1F17480288013292B21C
S2140239F002EB420303EB031303EB032302EB830303
S214023A00C3F34E0141EAC33341F6991C9BB26345A8
S214023A10028000D9704710B50C4A0D4C0D4882B092
S214023A200123002111700193237029F04FF80346F9
S214023A300848019329F062F9074A01901388019910
S214023A400133138002B010BD225CFE1F28ADFE1F9C
S214023A50BA07FE1FC8380220205CFE1F0378022B1E
S214023A6003D1024A138801331380704778ADFE1FD4
S214023A70014B1888704700BF78ADFE1F30B53E4C2C
S214023A8089B020220021684649F074F90FCCEE4630
S214023A90AEE80F0023689DF80700CEF80030C3F3A7
S214023AA007224FF0640C3038303AC3F307430CFB5E
S214023AB000F002EB82029DF806109DF800C09DF809
S214023AC003409DF80BE0303B03EB42039DF80120D8
S214023AD030394FF47A75ACF1300C05FB01000CEB73
S214023AE08C0C2649303A02EB4C02303CCA609DF8F8
S214023AF004200B6004EB84049DF8083002EB4402B9
S214023B00313A303B03EB83030A619DF8092000EB50
S214023B1043031344A3F29C739DF80E009DF80C20F9
S214023B204B619DF80F30AEF1300E303800EB80005E
S214023B300EEB8E0E303A303B03EB400302EB4E02A6
S214023B400F488A604B6028F015F840B90D490C48BA
S214023B5027F016FF044648B9204609B030BD044691
S214023B60094800F065F8204609B030BD074800F065
S214023B705FF8204609B030BD8822070054ADFE1F0C
S214023B800C3A022030ADFE1F9C220700B822070026
S214023B9010B51E491E4827F0ADFE60B9FFF76EFF4E
S214023BA01B480E2128F080F8044690B9BDE8104064
S214023BB0184800F03DB80446174800F039F8174890
S214023BC000F036F816492246002000F0FFFB00BE41
S214023BD0E4E7144800F02CF80D4827F0A9FD80B958
S214023BE0104800F025F8104800F022F80C4922464A
S214023BF0002000F0EBFB00BE0648BDE8104000F0D7
S214023C0017B80A4800F014F8EAE700BF3C1A0A00A0
S214023C100C3A022080230700D422070068230700FC
S214023C20EC2207000C230700542307003423070066
S214023C3030B5C5B00446FFF71BFF0546FFF718FF71
S214023C400F4B0294A3FB0012D20A4FF4616101FBF0
S214023C5012020C4C92B2A4FB02146409C4EB0411C7
S214023C60A2EB8102A3FB051391B2CDE90041064AFD
S214023C70C3F3CF23FB2104A848F0F2FF45B030BDC2
S214023C80C5B3A291898888889C230700014B1870C7
S214023C90704700BFB0ADFE1F014B1878704700BFDB
S214023CA0B0ADFE1F014B1870704700BFADADFE1FD2
S214023CB0054B1A780AB100221A70044B1A780AB118
S214023CC000221A7000207047AFADFE1FAEADFE1F79
S214023CD0012806D0022801D000207047024B18782F
S214023CE07047024B18787047AEADFE1FAFADFE1F91
S214023CF0014B1878704700BFACADFE1F014B187021
S214023D00704700BFACADFE1F0C280BD00D2805D0A7
S214023D100B2806D1054B83ED000A7047034B83ED53
S214023D20020A7047014B83ED010A70477CADFE1F05
S214023D302DE9F041D0E902850446A8EB0507406864
S214023D4097422844154408D83A460E46A5EB08057D
S214023D5049F06EF960682A46F11949F069F9BFF32D
S214023D605F8FE560BDE8F0812DE9F8430646D0E9AD
S214023D700204894617464FF0000833699C4203F155
S214023D80FF3228BF03F1FF33A0EB04052ABF1B183E
S214023D90131B1B1BBD4228BF3D469D42706828BFB1
S214023DA01D4649462A46204449F042F9B0682C444A
S214023DB0A844A9447F1BA04208BF0024BFF35F8F1C
S214023DC0F460002FD9D14046BDE8F88310B5154CF3
S214023DD0A8220021204648F0CDFF03212161124A85
S214023DE061611248A2614FF48061E06100232162A2
S214023DF00F48A36210216362E36222666066A166D0
S214023E002367E3666367BFF35F8F0A4BA3F1100C69
S214023E101846C21A13F9011DA1546345F9D1BFF31E
S214023E205F8F10BDC4B1FE1FCC230700C4ADFE1FBA
S214023E30B4ADFE1FD056090038B5214B00EB400446
S214023E4003EBC40E0130DEF82C4000EB4000012CE0
S214023E508C46154603EBC00015D0022C0FD034BB9F
S214023E60DEF82830DEF8242093429CBFDEF82010CD
S214023E705B18013B9A1A95421CD9204638BDBDE80C
S214023E803840FFF771BFDEF82830DEF82440A34240
S214023E909CBFDEF820105B18013B1C1B944228BF17
S214023EA0144622466146FFF743FF204638BD0024EB
S214023EB0204638BD2A466146FFF73AFF2C46DCE725
S214023EC0C4B1FE1FF8B50B4B1B78532B04460D46A8
S214023ED0164601D0FFF77AFFEFF311874FF0200165
S214023EE081F31188324629462046FFF7A5FF87F35D
S214023EF01188F8BDC4B1FE1F10B5D0E901320446E0
S214023F00501C984207D823689954E2686368A060F8
S214023F100132E26002469A4200D010BD2168206952
S214023F20FFF7D0FFA368984215BF4FF0FF33002378
S214023F30E360A36010BD00BF2DE9F84F1546A94205
S214023F40DDF828900B9A0F4683461E4669D30B4629
S214023F504FF00108B3FBF5F39D4208F10108F9D9C9
S214023F60B04538BFB04612F0010A02D1B9F1000FCF
S214023F703ED1DBF80C30002B29DB012402E0013EA7
S214023F8005FB04F4012EFAD8B7FBF4F39D4205D8DC
S214023F9005FB04F4B7FBF4F39D42F9D9224E06E082
S214023FA0AC42B4FBF5F30CD31C46B7FBF3F3F15665
S214023FB0584604FB1377FFF79FFFDBF80C30002B05
S214023FC0EEDABAF1000F02D0B9F1000F07D1BDE860
S214023FD0F88FFFF791FFDBF80C30002BF7DBC145BB
S214023FE04FF02001584609F1FF39F2D8BDE8F88FA4
S214023FF0930711D420240AE0FFF77EFFDBF80C308B
S214024000002B09F1FF39E2DBB9F1000FB3D0C1454D
S21402401021465846F0D8ACE7002E0CBF30242024A8
S214024020F5E74FF001089BE7D45609002DE9F04F5B
S2140240309BB040230DF1280ACDE904A30023CDE965
S214024040073081460C461746069306E004A8FFF79B
S21402405053FF079B002BC0F2AE8014F9011B002908
S21402406000F0A1802529F1D10026234613F9012B61
S214024070A2F123010D2908D8DFE801F0800707071F
S214024080070707077C0784070778A2F13001C9B241
S21402409009294FF000050FD805EB850502EB45050B
S2140240A093F90020A2F13001C9B209291C46A5F1F4
S2140240B0300503F10103EFD92E2A00F0FD8094F9B2
S2140240C000104FF0000B21F0040068281C465DD05B
S2140240D02529BBD05839CBB2202BBAD82029B8D83C
S2140240E001A353F821F000BFBF4102005340020073
S2140240F05340020053400200534002005340020065
S2140241005340020053400200534002005340020054
S21402411053400200A5420200394202005340020008
S2140241205340020053400200534002005340020034
S2140241305340020053400200534002005340020024
S2140241405340020053400200014202005340020064
S21402415053400200DB410200534002001F420200AD
S2140241605340020053400200BF41020046F00206DE
S2140241701C467AE746F004061C4676E746F0080632
S2140241801C4672E746F001061C466EE714F9011B50
S21402419021F00403682B9BD114F9011B21F00403C0
S2140241A0682B95D1F2E7079B002B04DD069C002CBA
S2140241B040F09B80234418461BB0BDE8F08F396858
S2140241C0081D3860102209685B46CDE900560DEBE3
S2140241D00200FFF7B1FE079B3CE73B681A1D3A60F8
S2140241E01D6815F9011B04A800293FF432AFFFF73A
S2140241F083FE079B002BF4DA18461BB0BDE8F08F4F
S2140242003A68111D396011680022082301921022B3
S21402421000930DEB0200FFF78FFE079B1AE7396843
S214024220081D386009685B46CDE900560A2204A8D4
S214024230FFF782FE079B0DE73B68191D39601B6876
S21402424003931A4683EAE373A3EBE273092B40F364
S21402425096805D484FF0010819466329A0FB03C308
S21402426008F101084FEAD303F6DCD84538BFD84632
S214024270002D43D107980025034600289BDB039BAD
S214024280002B67DB730771D406F00303022B79D089
S2140242905B46CDE9005603990A2204A8FFF74CFEB6
S2140242A0079BD7E63B681A1D3A6093F9001004A8EC
S2140242B0FFF722FE079BCDE694F90110A1F130022A
S2140242C0D2B2092A57D81C464FF0000B0BEB8B02D2
S2140242D001EB420214F9011FA1F13003DBB2092BF4
S2140242E0A2F1300BF2D9631CEDE62246514648464F
S2140242F00393FFF7E7FD039B23445CE7039A002A38
S21402430006F002031CDB72071AD4002B53D0BBF153
S214024310000F12D0F0070CD50FE004A8FFF7ECFD53
S2140243200798002805F1FF350346FFF644AF002D37
S214024330A3D0A8454FF02001EFD3079803469CE789
S214024340013D13B1BBF1000FF7D0F207F5D4002DF3
S214024350EFD18FE75B422D2104A80393FFF7CCFD34
S214024360079800280346FFF626AF8DE72B2104A800
S214024370FFF7C2FDF4E701334FF0000BA3E64FF060
S214024380010872E7BBF1000F82D1002D80D04545AF
S2140243904FF0300116D904A8FFF7AEFD07980028A3
S2140243A005F1FF350346FFF606AF002DEFD10028D4
S2140243B0FFF601AF6CE7F107BBD5079B002BBFF6F4
S2140243C067AFF8E60346F2E7CDCCCCCC0EB400B528
S2140243D082B003AB01AA53F8041B0193FFF726FE33
S2140243E002B05DF804EB03B0704700BFF0B50023DF
S2140243F0A3B00C4640220546194612A88DF807308F
S21402440004F1400648F0B6FCA4460DF1080EDCF8AE
S2140244100000DCF80410DCF80820DCF80C307446E7
S2140244200FC40CF1100CB445A646F0D13248012256
S214024430294628F081FF0446002842D12F4B1E78D9
S2140244402EB12F4A1378002BFCD0002313702A4873
S2140244500DF107034022294628F0CCFE044680BB15
S2140244609DF807401CB1012C2BD0022C2CD02248E0
S21402447040232A4602A928F01DFF044608BB2EB197
S214024480204A1378002BFCD000231370AC4612AEE1
S21402449005F1400EDCF80000DCF80410DCF8082019
S2140244A0DCF80C3035460FC50CF1100CF4452E46E0
S2140244B0F0D1402202A912A848F032FC002818BF08
S2140244C01824204623B0F0BD0F4C23784BB90F4F6B
S2140244D003E02CF0D7FC23781BB93B780A20002B8C
S2140244E0F7D0237803F0FF0213B9084B1A70BEE721
S2140244F0002323700324E4E78C400220381B0A00C2
S2140245006DB2FE1F6CB2FE1F6FB2FE1F6EB2FE1FB2
S21402451001460148FFF76ABF000010400146014805
S214024520FFF764BF400010400378032B06D8DFE88D
S21402453003F00E020A06084B01221A707047074B58
S21402454001221A707047064B01221A707047054BFB
S21402455001221A70704700BF6CB2FE1F6FB2FE1FB8
S2140245606EB2FE1F6DB2FE1F10B403798168002280
S214024570013B82601F2B14D8DFE803F0222E1316AD
S21402458013131310131313131313131013131313FA
S214024590131313131313131313131310184B0122AD
S2140245A01A705DF8044B7047164B174C1A68A154E4
S2140245B0501C134A1860002111705DF8044B7047B6
S2140245C012490F4C0B6812480022013322700B600E
S2140245D002605DF8044B70470D4A0E4813680124CA
S2140245E0047023440648094C1360002101702160C0
S2140245F009485DF8044B4FF4406248F0BBBB00BF6D
S2140246007ECAFE1F78BEFE1F7CBEFE1F74BEFE1F45
S21402461070B2FE1F7DCAFE1F74B2FE1F2DE9F04F58
S21402462087B00D46109F0191B7F5006F04464FF014
S2140246300101284628BF4FF400679046994647F086
S214024640DFFC00286FD000232146039382460493A2
S21402465048F096FC354D364C0126DDF80CB0BBF121
S214024660000F2FD14FF440625946284648F082FB8D
S2140246703049314E314B81F800B03148019A86F804
S21402468000B05146C3F800B0CDF810B084F800B0C0
S2140246900FF0AAFB0646E0B129480FF0ABFC6420F7
S2140246A02CF0F0FB27492648CDF814B00FF030FD69
S2140246B005906420059B2CF0E5FBDDF80CB0BBF101
S2140246C0000FCFD0504647F0BFFC304607B0BDE8DB
S2140246D0F08F23783BB11CE02CF0D4FB039B2278AE
S2140246E001330393AAB9039B43454FF00A00F3D361
S2140246F0049BBB424946284610D248F005FC049A61
S214024700834601320A2004922CF0BCFBBBF1000F58
S214024710D8D1049BBB4249462846EED3049BBB42F3
S214024720D0D3012699E70126CFE700BF7CBEFE1F45
S2140247307DCAFE1F7ECAFE1F7CCAFE1F78BEFE1FF3
S21402474014420220181C0A00F0B5A3B005460C4617
S21402475016460021802202A81F4648F00BFB114A8B
S21402476000952346802102A848F07AFA0220FFF735
S214024770AFFA30B9C8202CF085FB0124204623B0BE
S214024780F0BD0022CDE90072074B3246802102A816
S214024790FFF744FF0446C8202CF074FB204623B0E3
S2140247A0F0BD00BFD82307003C240700004870472E
S2140247B080CAFE1F014B1878704700BFBD07FE1F58
S2140247C0014B1870704700BFBD07FE1F034A044B1B
S2140247D0906CC0F340021A701046704700080440FE
S2140247E081CDFE1F38B50C4C0C4DA36F2B4043F009
S2140247F00503A36764202CF045FBA36F2B4043F010
S2140248000403A36764202CF03DFBA06C044BC0F3AA
S21402481040021A70104638BD00080440FE3FFEFFF4
S21402482081CDFE1F38B5114B1B7813B1104C207882
S21402483038BD104D104CEB6F234043F00503EB6779
S21402484064202CF01FFBEB6F234043F00403EB675E
S21402485064202CF017FBAB6C054CC3F34003FA2024
S21402486023702CF00FFB207838BD00BF80CDFE1FD2
S21402487081CDFE1F00080440FE3FFEFF2DE9F84FE3
S214024880754E0A9F317807381446744A012811700B
S21402489041D953B9042904BF01233370042C3DD8EF
S2140248A0DFE804F0C4AF766443004FF0000BDFF895
S2140248B0B4816B4DDFF8B091C7F800B04FF00F0A25
S2140248C0AB6C99074FF06400C3F3400228D488F813
S2140248D000B0AB6F03EA090343F00503AB672CF0A5
S2140248E0D1FAAB6F03EA090343F004036420AB6713
S2140248F02CF0C8FAAB6C4FF47A70C3F340030AF19B
S214024900FF3A88F800302CF0BDFA1AF0FF0AD7D129
S21402491004233370C2E700233B603370BDE8F88F90
S214024920042388F800203370B8E74D4CA36CC3F319
S21402493040029B0700F185804A4D4B4E00232B70A8
S214024940A36F334043F005036420A3672CF09AFA62
S214024950A36F334043F00403A36764202CF092FA5B
S214024960A36CC3F340032B70BDE8F88F3C4CA36CDA
S2140249709907C3F34002DFD53B683A4901330B2B54
S21402498088BF00230A7092BF3B603B603270C5E767
S2140249903B6801333B60FFF745FF3B68022BBDD9FE
S2140249A04FF00009DFF8BC802D4C2F4DC7F8009061
S2140249B00F27A36CC3F340029B074FF0640048D452
S2140249C088F80090A36F2B4043F00503A3672CF0F2
S2140249D059FAA36F2B4043F004036420A3672CF01C
S2140249E051FAA36C4FF47A70C3F34003013F88F880
S2140249F000302CF047FA17F0FF07DAD101233370A4
S214024A008CE7174CA36C9807C3F3400294D53B6817
S214024A1014490133022B0A703B607FF67FAF0223F4
S214024A203370FFF7FFFE00233B6077E70C4B9B6C6F
S214024A3013F0020FC3F340020A4B05D100221A708C
S214024A406CE7084B1A7069E71A70BDE8F84FFFF773
S214024A50E9BE88F80020D1E7BD07FE1FBC07FE1F8F
S214024A600008044081CDFE1FFE3FFEFF2DE9F04701
S214024A7082B001260096DFF88C801F4E044600277F
S214024A808946924600214FF480721C481D4648F023
S214024A9071F9377088F80070FDF7B2F82046524672
S214024AA049460FF087F9164C00902760FDB114278F
S214024AB00DE000972CF00EFA0A21034601A8019396
S214024AC02CF08CF922680132AA4222600FD2327888
S214024AD0002AEED00024094800944FF48072214642
S214024AE048F048F9347088F80040FDF793F80098CB
S214024AF002B0BDE8F08700BFB0CEFE1FACCDFE1FF1
S214024B00ACCEFE1F88CDFE1FF0B583B001241D4635
S214024B1000940FF069F90F4C009000232360B5B1A2
S214024B200D4E14270DE000972CF0D4F90A21024608
S214024B3001A801922CF052F922680132AA422260A0
S214024B4005D23278002AEED0002300933370009804
S214024B5003B0F0BDACCEFE1FB1CEFE1F2DE9F04F66
S214024B6095B0324D01920124002203942A60002B54
S214024B703CD007468A461E464FF0140B1CE048F00F
S214024B8001F9A0EB080904464A46414604A874B156
S214024B9048F03BF909F150036B4401344FF000082A
S214024BA02C21204603F8408C48F0ECF840BB2B68DA
S214024BB00133B3422B6019D22C21384648F0E2F872
S214024BC0034600F101082C214046002BD7D1CDF830
S214024BD00CB02CF07FF90A2103460CA80C932CF09B
S214024BE0FDF82B680133B3422B60E5D3032110484E
S214024BF00FF080F90390039B039815B0BDE8F08F81
S214024C00051B21462A460CA848F0FFF805F150037A
S214024C100DEB030004A900F8208C504648F0B0F9CA
S214024C2001980CA948F0ACF9E0E700BF84CDFE1F5E
S214024C303837022000487047ACCDFE1F10B54FF43F
S214024C40807204460021044848F094F80349044B55
S214024C500C7000221A7010BDACCDFE1FB0CEFE1F27
S214024C6088CDFE1F30B5344C83B0012541F21111B8
S214024C70206801952AF03AFA294620682AF056FA60
S214024C80FCF7FEFF08B30220FFF722F8002838D10F
S214024C902A4C2B4D4FF4FA602CF0F4F8206840F2C0
S214024CA011112AF023FA2946642303222548FFF726
S214024CB02BFF57220346042001932A70FEF7E6FFD5
S214024CC0206810212AF032FA12E004460220FEF78B
S214024CD0FFFF054678B9194B40F2111118682AF001
S214024CE005FA194A2B46106829462A462AF010FC6D
S214024CF0002003B030BD2046FCF7BCFF012003B005
S214024D0030BD12490F4864230322FFF7FDFE0C4A0A
S214024D10034652214FF47A70019311702CF0B2F8C8
S214024D200020FCF7B3FF0020FCF7A4FF2846FEF79E
S214024D30ADFFFFF777FDE1E7B42202200023022051
S214024D40C007FE1F38370220E42302204C24070047
S214024D5008B50220FEF7BCFF20B90120FCF78AFF47
S214024D60012008BD0020FCF785FFFFF723FD02287F
S214024D7004D10A202CF086F8002008BDFFF726FD95
S214024D800028F6D10220FEF7A3FF0028F1D0FEF796
S214024D90ABF9082802D0FFF725FDEAE7FEF7A4F9EB
S214024DA00728F8D1E5E700BF2DE9F04F2DED048B7B
S214024DB0B64D9FEDB70AB74FADF58A3DEFB000206E
S214024DC002F0F8FF0FCD2CAC0FC495E8030040F2BA
S214024DD0546284E8030000210DF5E36047F0CAFF41
S214024DE04FF4C87301930DF5E36304220093062182
S214024DF02CAB18A846F0CCF90DF5474044F62062D5
S214024E00002198300DF5474447F0B4FF9834A24D80
S214024E102646324629464FF4C87318A805F5C865D3
S214024E2046F06CF9BD4206F5C876F2D19B4E0FCE1F
S214024E3032AD0FC596E803004FF4D27285E8030040
S214024E400021C8A847F096FF64230193C8AB0093DD
S214024E50042232AB06211BA846F09AF90DF50E4045
S214024E6041F28832002190300DF50E4747F082FF5E
S214024E70903704F59C4620363D462A462146642352
S214024E801BA804F5C87446F039F9B44205F1640566
S214024E90F3D18349C82296A848F0CAF80DF2C44353
S214024EA04FF415720021184647F064FF642103464A
S214024EB096AA00911EA8322146F0C6F90DF540507A
S214024EC04FF49652002128300DF5405447F052FF19
S214024ED0283407F5965625462A46394664231EA8E0
S214024EE007F5C87746F070F9B74205F5C875F3D1ED
S214024EF00DF54053283303F59655D3ED007A77EE39
S214024F00A77AE3EC017AAB42F7D10AAB0BAF0022E9
S214024F100DF540501A6000260AAB3A464FF49661E9
S214024F2028303E6045F07EFF97ED007AF5EE007A77
S214024F300DF5405327EE277A2833F3EC017AF4EE88
S214024F40C77AF1EE10FA48BF43F8046CAB42F4D1CC
S214024F500DF58B433833A3F534704FF49652002187
S214024F6047F008FF0DF5AB404FF49652002128306B
S214024F7047F000FF0DF5EB4338334FF4965200210D
S214024F80A3F5556047F0F6FE0DF587433833A3F1D7
S214024F90D0060DF5D0400DF5AB41683028313246CB
S214024FA054F8043B42F8043BAC4241F8043B40F858
S214024FB0043BF5D141F2BC2B0DF5EB505A460021CD
S214024FC00C3047F0D7FE9FED328ADFED368A8DED44
S214024FD00C8A0DF5B763A3F28458A3F5B067A3F263
S214024FE07C5388ED008A87ED008A83ED008A0DF5F2
S214024FF0B763A3F27455A3F5AE638DED108A85ED03
S214025000008A83ED008A8DED138A13AB0DF5EB5300
S2140250100C339FED259A03930DF1300910ACB3447F
S2140250209A460DF58B433833A3F53473A6EC018A02
S21402503093ED007A89ED008A0FAB88ED008A87ED42
S214025040008A83ED008A12AB84ED008A85ED008A21
S21402505083ED008ADFED0E4A8DED138A13AB0DF554
S214025060874338330DF5D0420DF5AB41A3F1CC00A2
S214025070B0EE645AB0EE644AB0EE646AF0EE645A79
S21402508068322831002340F2AF4C22E0E456090091
S214025090000000004CD10020CC98FF1FFC560900EF
S2140250A01457090000009644BD37863567EE277A06
S2140250B067EE073AD2ED006AA2EC017A34EE274A8E
S2140250C074EEA34A36EE076AE0EC016AB0EE667A40
S2140250D00133F1EC017A67EEA76A634575EEA75ACB
S2140250E035EE265AE2D10DF58B43383303F553637A
S2140250F093EDAF7A67EE277A37EE066A77EE847A12
S21402510065EEA53A67EEA87A66EE255AC8ED007AED
S214025110C7ED005AD8ED005A97ED004A67EE076AC7
S21402512025EE285A76EEA47A75EEC46A67EEA87A59
S214025130C9ED006A84ED005AD4ED006A76EEE36AA1
S21402514026EE066AC4ED006AC5ED007AD5ED007A51
S21402515077EEC67A0DF5EB43C5ED007AD4ED007A0C
S214025160F0EEE77A3833F4EEC97A03F52C73F1EEF3
S21402517010FA83EDAF7A50DDD5ED007AF0EEE77ADD
S214025180F4EEC97AF1EE10FA47DDD9ED007AF0EEC8
S214025190E77AF4EEC97AF1EE10FA3EDDD4ED007A43
S2140251A0F5EEC07AF1EE10FAC0F27D82F1EEE77A01
S2140251B0CDED127AD5ED007AF5EEC07AF1EE10FA60
S2140251C012ABC0F27B82F1EEE77A13ABC3ED007A44
S2140251D09DED127A12ABDDED137A67EE277A13ABEA
S2140251E017EE900A46F0C6F9E5A3D3E9002346F087
S2140251F063F846F0D9FC0F909DED0F7AF7EE006A41
S214025200C6EE877A0FABC3ED007AD9ED007A93ED3E
S214025210007A67EE877ACAED007A5E450AF1040ADA
S2140252207FF4FFAEA82200216CA847F0A3FDCC496C
S2140252306CAB96AA43F8041B9342FBD10DF5F640DD
S21402524041F268320021283047F094FD0DF5F7430D
S2140252503833903B0DF5EB5000936CAA2A2340F2AC
S214025260AF410C3045F0AAFEBBA7D7E900670DF5A3
S214025270F74338330DF5EB55DFEDBA8A9FEDBA8A60
S214025280A3F13C0403F594580C35F4EC017A67EE6E
S214025290A87A17EE900A46F06DF932463B4646F07B
S2140252A0C1F946F059FC07EE900AF8EEE77A444553
S2140252B067EE887AE5EC017AE7D10DF522404FF4E5
S2140252C016520021183047F055FD0DF540504FF4A8
S2140252D096520021283047F04DFDA4494FF48052E3
S2140252E00DF66C5047F0A4FE0DF5EB520DF5224379
S2140252F00C3200240DF66C51183302F58050F2EC95
S214025300017AB1EC017A5C6067EE877A824203F139
S214025310080343ED027AF2D10DF5224101239448A7
S214025320DFF864820022183144F0FCFE0DF52240BC
S2140253300DF5405118304FF48062283145F094FF45
S2140253400DF5B763A3F5AD630DF127051C600DF5EA
S214025350405000232B7028302B4614AA4FF40071BD
S21402536045F060FDD8F8003033B12B78032B00F2FD
S21402537093810B26642501E00F264B256822002127
S21402538038A847F0F7FC00240DF5B76368222146DB
S214025390A3F58E60159447F0EDFC24ABC3E90044F8
S2140253A0C3E9024428ABC3E90044C3E902446EAB36
S2140253B052A9D83BCDE905314FEA860A01EB8602AF
S2140253C09FED698A04920DF154094FEA850B1E4639
S2140253D00F46CDF81CA03246039815AB294645F079
S2140253E021FDD9F800303068234447F8043B46F0E4
S2140253F0C1F859A3D3E9002346F014F946F0ACFBF2
S214025400039B07EE900A5B44F8EEE77A0393049B4D
S21402541067EE887A9F422C44E6EC017ADBD1DDE91E
S2140254200531DDF81CA0A3F108000DF5B764504461
S214025430002224ADA4F5A36403E0834201F1040133
S2140254401BD093ED007AD3ED017AF4EEC77AF1EE33
S21402545010FA03F10403F0DD93ED017AF4EEC77A55
S214025460F1EE10FA05EB8206E7DD4F6844F822708B
S2140254700132042AC6ED007ADFD116AD17AB00243E
S2140254803C4A2A601C602A4617AB102124A845F025
S214025490C9FC28A8D5ED006A234624AAB6EE007AEF
S2140254A004460146054692ED006AC6EE267AF4EEFA
S2140254B0C77AF1EE10FAE2EC017A03DD0E6845F8DF
S2140254C023600133904201F10401ECD1032B07D88B
S2140254D000EB8300C3F104039A00002147F04AFC64
S2140254E021A9002328A8C1E900330A468B60D0E927
S2140254F0001E002900F0F8809FED1F5ADFED1F5AAC
S2140255009FED226ADFED226A4FF0000C084616462F
S2140255100325BEF1000F00F0D58054F8047F381A38
S21402552007EE900AF8EE677A013367EE857A85EE23
S214025530A77AB4EEC67AF1EE10FA2FD4B4EEE67A73
S214025540F1EE10FA2ADC032B86ED007A06F1040649
S2140255502CD03846DDE700BF000000000088C340BC
S214025560310CC33C0000284217B7D138DC5709007B
S21402557020A10A00CDCCCC3DE3C2883B000070429D
S214025580BC89D897B2D29C3CE4F3FE1F00002042AE
S214025590000020430000000000009642032BC6F8DD
S2140255A000C005F1FF3506F10406D2D107EE905A87
S2140255B0F8EE677AD8F800109DED217ADDED225AD2
S2140255C09DED235A032921AB27D837EE257A37EEED
S2140255D0057A87EE270A5FED137AB4EEE70AF1EE54
S2140255E010FA0BD4B4EE400AF1EE10FA06D65FEDCE
S2140255F0187AB4EEE70AF1EE10FA78DDB8EE000A91
S214025600002002F0D7FB002002F092FB0DF58A3D47
S2140256106FB0BDEC048BBDE8F08F1FED220A5FED84
S214025620224A0023F0EE406A02F10C001946B2EC60
S214025630016AB4EEE46AF1EE10FA15DD76EE866AD9
S21402564001318242F3D18B421FD317D82A4B9FEDEA
S2140256502B6AD3ED004AF4EEC64AF1EE10FABAD43B
S214025660B3DDB0EE660AB6E7EBD5B5EEC06AF1EE8C
S21402567010FAC4BF30EE060A0133E2E707EE903AAC
S214025680F8EE677A80EE270AA5E707EE901AF8EE9C
S214025690677A86EEA70A9EE7062B8BBF1A260D268A
S2140256A02D2557256AE6D5ED007A8DED128AF5EEA0
S2140256B0C07AF1EE10FA12ABBFF685AD13AB83EDEE
S2140256C0008A85E5013107EE901A9FED0D7ADFED2F
S2140256D00D6AF8EE677A21A967EE877A01EB8303F3
S2140256E086EEA77A83ED007AF7EE007A62E700206C
S2140256F002F060FB87E700BFB808FE1F0000964274
S214025700E3C2883B00007042F8B52DED028B10EE26
S214025710104A9FED1B8B054645F00AFFB0EE480A7D
S214025720F0EE680A41EC110B49F04AFC684257EC6D
S214025730106B45F00DFFB0EE480AF0EE680A41EC39
S214025740110B49F03DFC204655EC104B45F012FF7C
S21402575032463B4645F066FF46F0FEF9294608EE1D
S214025760100A204646F020FAB8EEC88A00EE100A62
S21402577020EE080ABDEC028BF8BD00BFAFF3008036
S21402578000000000000024402DE9F04F2DED068BAE
S214025790ADF52E5D8FB04FF49A72002105A847F042
S2140257A0E9FA0DF59D540DF5AD56744FDFED74AA6A
S2140257B09FED74AADFED749A4FF0000805AD183419
S2140257C018360DF61C090DF5DD504FF480520021F7
S2140257D0183047F0CFFA6D494FF400620DF6B83034
S2140257E047F026FC0DF5DD530DF6B8321833394670
S2140257F0B2EC017AF1EC017AC3ED019A67EE877A90
S214025800A242C3ED007A03F10803F1D10DF5DD5192
S21402581001235F480022183144F084FC4FF40062F2
S2140258200021204647F0A6FA0DF5DD504FF400722F
S2140258302146183045F018FD0DF5A47B4FF4CE72C4
S214025840002152A847F096FA04F164035A46F3EC94
S214025850017A67EEA77A9E42E2EC017AF7D14FF41C
S214025860007200210DF21C6047F084FA4FF070516E
S2140258700DF21C630DF61C0243F8041B9A42FBD180
S2140258804FF4677200210DF61C0047F073FA80236E
S2140258900DF21C62672152A8CDF8009045F08EFBEF
S2140258A00DF6B833A3F6D4004FF4CE720DF61C11E3
S2140258B047F0BEFB4FF4CE7200210DF5906047F024
S2140258C059FA0DF5906AB9AA11465346FBEC017ACD
S2140258D0B2EC017A77EEC77A8B45E3EC017AF5D122
S2140258E004AB00221A60CDED039A03AB03AA04AB05
S2140258F067210DF5906045F095FA9FED237A0DF538
S21402590090630DF21C6BF3EC017AF5EEC07AF1EEC1
S21402591010FA44BFF0EE6A7A43ED01AA5B4537EE11
S214025920277AF0D177EE0A8A95ED009AFAEC017A98
S21402593087EEA88A38EE0A0A49F046FC28EE008A64
S214025940DA4539EE489A85ED009AEFD108F5807867
S214025950B8F59A4F05F1040507F580677FF433AF73
S2140259604FF49A7205A90B4847F062FB0DF52E5DBF
S2140259700FB0BDEC068BBDE8F08F00BFCC98FF1FC2
S214025980CDCC4C3D0000802500000000DC670900FD
S21402599030A10A0088F7FE1F2DE9F04FADF51A5D1B
S2140259A08DB00DF5D6630DF50A55A3F25C541C3581
S2140259B0582200215DA847F0DDF94FF0785340F2F7
S2140259C014420021284623606360A360E3602361DB
S2140259D06361A361E36147F0CDF908235748009558
S2140259E0E721224645F0EAFA4FF45F7200210DF6EF
S2140259F0BC4047F0BFF90DF6BC450DF50A530DF550
S214025A0018513C3338312A46F3EC017AF1EE677AC4
S214025A108B42E2EC017AF7D107AB06AA00240026F5
S214025A201C60166007AB06AADF210DF6BC4045F0E7
S214025A30F9F9099408AC09ABDF2109AB22460DF649
S214025A40BC40266045F02EFA94ED007ADFED3C6A03
S214025A500DF6BC43B0EEC77A03F55F77D3ED007A56
S214025A6077EE277A77EEA67AE3EC017ABB42F5D197
S214025A700DF5B55310334FF45F720021A3F5CF60D6
S214025A8047F078F90DF5B55310330DF5B956A3F571
S214025A903F704FF45F720021103647F06BF94FF4F7
S214025AA05F720021304647F065F90DF582531033D8
S214025AB0A3F118040DF59D5130461431224655F8CF
S214025AC0043B42F8043BBD4241F8043B40F8043B29
S214025AD0F5D14FF45E7200210DF2CC5047F04AF930
S214025AE00DF5B5530DF2CC551033DFED162A9FEDAA
S214025AF0163ADFED161A9FED161AB7EE002A04F5CF
S214025B005E77AC46A3F5CF6EDFED115AA4EC011A10
S214025B100DF5825310330DF59D51A3F114009EED41
S214025B20007AB0EE656AB0EE654AF0EE654AB0EE0F
S214025B30655A3246143100231FE000BFECF3FE1F05
S214025B408AA47D2500005F43BD3786359595E624F9
S214025B500000000067EE277A67EE073AD2ED006A89
S214025B60A2EC017A34EE274A75EEA35A74EE874AFF
S214025B70E0EC016AB0EE667A0133F1EC017A67EE88
S214025B80A76ADE2B35EE275A36EE266AE2D126EED5
S214025B90227A65EE056A9EEDDE6A37EE667A86ED55
S214025BA0DE6AF0EEC76AF4EEC36AF1EE10FA3DDD85
S214025BB066EE066A76EE244A76EEA56A64EEA45A85
S214025BC066EEA26A76EEE56AF0EEE65AF4EEC35A9E
S214025BD0F1EE10FA2ADD26EE276A64EE854A36EEE4
S214025BE0046A26EE226A36EE646AF0EEC67AF4EEAE
S214025BF0C37AF1EE10FA19DDB5EEC07AF1EE10FABC
S214025C00C0F29881B1EEC77AF5EEC06AF1EE10FAEC
S214025C10C0F29881F1EEE66A27EE267A77EE217ACE
S214025C2082EE277A67EE067ACCED007ABC420CF159
S214025C30040C7FF469AF0AAC0023224680210DF2E1
S214025C40CC50236045F012F994ED007A73AC0DF255
S214025C50CC722346F5EC017A77EEC77A9542E3ECEE
S214025C60017AF7D10DF5F4504FF4806200211C3012
S214025C7047F080F8BF494FF40072F3A847F0D8F90E
S214025C800DF5F4530025F3AA1C3304F50071F4EC69
S214025C90017AB2EC017A5D6067EE877A8C4203F194
S214025CA0080343ED027AF2D10DF5F4510123B2480E
S214025CB000221C3144F036FA0DF5F4511C31084628
S214025CC0802245F0D1FA0DF5D663A3F284630DF176
S214025CD017041D600DF5F450002323701C30234674
S214025CE00BAA0A2145F09EF82378022B40F2138174
S214025CF0DFEDA27A9FEDA27A032B18BFF0EE477A69
S214025D000BBFE727E127092403240BBF4FF00E0839
S214025D104FF00A081223062355AA02EB8301E2EC8F
S214025D20017A8A42FBD10DF5D5560C3655AA0DF2EC
S214025D30CC500096DE2145F041F90DF644104FF4A2
S214025D405E72002147F016F80DF6441906EB84063B
S214025D504D46B6EC010A042085ED000AFFF7D4FC96
S214025D600134A742A5EC010AF3D85822002113A851
S214025D7047F000F85822002129A846F0FBFF5822D7
S214025D8000213FA846F0F6FF0FAB002213ACC3E992
S214025D900022C3E9022229ADDF23B3FBF8F3980001
S214025DA04FEA880A04EB8307264641460294804659
S214025DB02C46234632464846039145F033F896ED84
