S02900006177735F656B5F7261366D335F6F74615F6170705F776966695F646131363230302E737265630B
S214020200687E0420B9D4040049D30400B5D404009F
S214020210B5D40400B5D40400B5D40400B5D40400A3
S214020220000000000000000000000000610D030056
S214020230B5D4040000000000790D0300D50D0300BC
S2140202404DC204004DC0040091C00400D5C0040095
S21402025019C10400D12B0300792B0300392C0300AB
S2140202607D2C0300DFD00400A1B40400EDB404002A
S214020270512903005D280300452A0300912A030042
S214020280512903005D280300452A0300912A030032
S214020290512903005D280300452A0300912A030022
S2140202A04DC204004DC204004DC204005DC10400EC
S2140202B061C80400E5C7040000000000000000005A
S2140202C00000000000000000000000000000000027
S2140202D00000000000000000000000000000000017
S2140202E00000000000000000000000000000000007
S2140202F000000000000000000000000000000000F7
S2140206000348044B834202D0034B03B1184770479A
S214020610840DFE1F840DFE1F000000000548064BD9
S2140206201B1AD90F01EBA301491002D0034B03B1E9
S21402063018477047840DFE1F840DFE1F0000000041
S21402064010B5064C237843B9FFF7DAFF044B13B113
S2140206500448AFF300800123237010BDA00DFE1FD7
S21402066000000000B4C3070008B5054B1BB10549DE
S2140206700548AFF30080BDE80840FFF7CFBF00BFD4
S21402068000000000A40DFE1FB4C3070008B50B4B04
S2140206901B781BB90A4B1B78002BF8D0074B1B782C
S2140206A03BB90849002003F079FB0020044B187080
S2140206B008BD024B00221A700320F9E79E28FE1F8F
S2140206C09D28FE1F80F0060030B583B000238DF80B
S2140206D007302E4B1A682E4B19682E482CF056F807
S2140206E0044600283BD12C4B1D7835B12B4B1B788A
S2140206F0002BFBD0294B00221A700DF10703402273
S2140207002349096823482CF00DF8044638BB9DF8A7
S21402071007301BB1012B37D0022B23D0204B1B787E
S21402072033B3204B1B681A4A12681F4919482CF02B
S21402073019F8044698B91A4B00221A7035B11B4BA9
S2140207401B78002BFBD0194B00221A704FF4006264
S214020750002117484CF062FB164B00221A802046F6
S21402076003B030BDFFF792FF04460028D6D0F6E766
S2140207700C4B1B68064A12680D4906482BF0F2FF1E
S21402078004460028DAD0EAE70124E8E74C16FE1F02
S2140207905416FE1F8CD7FF1F648207009C28FE1F7C
S2140207A04816FE1F5016FE1FBC15FE1F9B28FE1F76
S2140207B0D858FF1F9828FE1F08B51F4B1F4A1A60FD
S2140207C01F4B80221A601F4B02221A6005280AD885
S2140207D0DFE800F0030F161D242B1B4B1B4A106884
S2140207E0186092889A801A4B01221A70FFF76CFFE3
S2140207F008BD184B154A1068186092889A80F2E76E
S214020800154B124A1068186092889A80EBE7134BD1
S2140208100E4A1068186092889A80E4E7104B0B4ADA
S2140208201068186092889A80DDE70E4B074A1068B7
S214020830186092889A80D6E75416FE1F801F1040D2
S2140208405016FE1F4C16FE1FC515FE1F90F2060020
S2140208504816FE1FD915FE1FED15FE1F0116FE1FB8
S2140208601516FE1F2916FE1F10B5264C8C22264989
S21402087020464CF035FC0522244904F109004CF0D0
S21402088006FBF8B90522214921484CF000FBF8B9CD
S21402089005221E491F484CF0FAFAF0B905221B49F8
S2140208A01D484CF0F4FAE8B9052218491B484CF0EA
S2140208B0EEFAE0B90522154919484CF0E8FAD8B91B
S2140208C0002010BD04F1090300221A601A71D9E74C
S2140208D00F4B00221A601A71DAE70E4B00221A60DA
S2140208E01A71DBE70C4B00221A601A71DCE70B4B1D
S2140208F000221A601A71DDE7094B00221A601A718B
S214020900DEE700BFBC15FE1F801F104090F20600F7
S214020910D915FE1F1516FE1FED15FE1F0116FE1F2A
S2140209202916FE1F174B4FF4C0621A6018221A725D
S214020930154A5A604FF4E0625A611C221A77134A2B
S2140209409A614FF480721A65042283F85820104A7E
S2140209505A6580219962022283F830200D48D862B7
S214020960D96383F8442080301864402058660120FA
S21402097083F86C0008489866996783F88020074ACF
S214020980DA677047BC15FE1F401010404016104034
S214020990401D1040401E1040401F1040801F104057
S2140209A038B50446FFF7BEFF5B4B01221A7014E00F
S2140209B0594B00221A70052C41D8DFE804F0315555
S2140209C084756593544B00221A70F4E7524B00224A
S2140209D01A70F0E701202FF003FC504950484CF003
S2140209E0E7FA08B1002CE3D04E494D484CF0E0FA45
S2140209F008B1012CE6D04C4949484CF0D9FA08B166
S214020A00042CE3D0494B1B78002BE3D00D2144483D
S214020A104CF00CFA0028DDD03F4B00221A70CAE7D1
S214020A20434B444A1A60444B4FF4C0621A60434B2D
S214020A3018221A603A484CF061FB414B1861FFF7E6
S214020A4043FE054600285CD12046FFF7B5FE054664
S214020A5000285BD13B49002003F0A0F93A49002068
S214020A6003F09CF9284638BD314B384A1A60324B9F
S214020A704FF4E0621A60314B1C221A6028484CF090
S214020A803DFB2F4B5862DAE7294B314A1A602A4B54
S214020A904FF480721A60294B04221A6020484CF0E8
S214020AA02DFB274B1866CAE7214B2A4A1A60224BAF
S214020AB080221A60214B02221A6019484CF01EFB53
S214020AC01F4BD864BBE71A4B234A1A601A4B802284
S214020AD01A601A4B02221A6011484CF00FFB184B90
S214020AE09863ACE7124B1D4A1A60134B40221A60F9
S214020AF0124B01221A600A484CF000FB104B586752
S214020B009DE71749002003F049F9ABE71449002096
S214020B1003F044F9A6E700BF9A28FE1F98F20600E3
S214020B20D858FF1FB4F20600D4F20600D558FF1FAD
S214020B305416FE1F401010405016FE1F4C16FE1F85
S214020B40BC15FE1F20F3060054F3060040161040A4
S214020B50401D1040C01E1040401E1040401F104056
S214020B60F0F2060010B5FFF77FFE20B90446FFF745
S214020B70D9FE204610BD034B034A40F239210348F2
S214020B802CF088FB60F506004C75070074F506002D
S214020B9070B5B0B0C022002168464CF03FF9FFF7AE
S214020BA063FE002847D10546BA4B1B68BA4A12684C
S214020BB0BA4968464CF0BCF86946002003F0EEF8E5
S214020BC0EC46B74C0FCCACE80F000FCCACE80F00ED
S214020BD094E80700ACE803002CF8022B120C8CF801
S214020BE000206946002003F0D9F80522AD49AE4838
S214020BF04CF04DF900285AD1AC4BAD4C1A685968E6
S214020C0020464CF06DFAAB4920464CF0D1F930B193
S214020C1020464CF073FAA54B1B69984212D0A6499F
S214020C20002003F0BBF8A04B00221A601A711225AE
S214020C30284630B070BDA14BA14A40F2CF21A14850
S214020C402CF028FB024621469F484CF049FA9F4961
S214020C50002003F0A3F820464CF050FA024600218A
S214020C6020464CF0DBF805228E4999484CF00FF9E5
S214020C70002858D18D4B8E4C5A69996920464CF003
S214020C802FFA944920464CF093F930B120464CF0A6
S214020C9035FA864B5B6A98420FD08F49002003F0E4
S214020CA07DF88B4B00221A601A711225C0E7824922
S214020CB0002003F073F81225BAE702462146874859
S214020CC04CF00EFA8649002003F068F820464CF0F5
S214020CD015FA0246002120464CF0A0F8052271497A
S214020CE080484CF0D4F8002840F0CB806F4B704C14
S214020CF01A6D596D20464CF0F3F97B4920464CF0AC
S214020D0057F930B120464CF0F9F9684B1B6E984201
S214020D100FD07649002003F041F8724B00221A6089
S214020D201A71122584E76C49002003F037F8122561
S214020D307EE7024621466E484CF0D2F96D49002005
S214020D4003F02CF820464CF0D9F902460021204642
S214020D504CF064F80522534967484CF098F800288E
S214020D6040F0E880514C524EA26AE16A30464CF09E
S214020D70B7F930464CF0C2F90246A36B984240F0EF
S214020D80CF805E4C314620464CF0AAF920464CF005
S214020D90B5F9013823560D2B79D05949002002F0B7
S214020DA0FDFF434C20464CF0A9F90246002120469E
S214020DB04CF034F805223B4952484CF068F80028BB
S214020DC040F0CB80394C3A4EE26B216C30464CF008
S214020DD087F930464CF092F90246E36C984240F0AE
S214020DE0B280494C314620464CF07AF920464CF007
S214020DF085F9431EE2560D2A00F0A28043490020E0
S214020E0002F0CCFF2A4C20464CF078F9024600212C
S214020E1020464CF003F8052222493D484CF037F8AC
S214020E20002840F0AD80214C214E626EA16E304605
S214020E304CF056F930464CF061F90246636F984220
S214020E4040F09480334C314620464CF049F9204617
S214020E504CF054F9431EE2560D2A00F084802E49C7
S214020E60002002F09BFF2D49002002F097FF104C55
S214020E7020464CF043F90246002120464BF0CEFFB6
S214020E80D6E61A49002002F089FF1225D0E6002293
S214020E90225482E7607F0700647F070094F0060012
S214020EA08CF5060090F20600C515FE1FBC15FE1F47
S214020EB0BC0DFE1F98F20600C8F3060060F5060099
S214020EC03075070074F506009820FE1FB8F5060078
S214020ED0D915FE1FB4F2060058F606009818FE1F33
S214020EE008F606001516FE1FD4F20600E8F60600FF
S214020EF09817FE1F90F60600ED15FE1F1817FE1F28
S214020F002CF706000116FE1F9816FE1FBCF70600F9
S214020F102916FE1F5816FE1F4CF80600D8FB0600C0
S214020F201A49002002F03AFF194B00221A601A7181
S214020F3012257DE61549002002F030FF122577E6DD
S214020F400021E1545AE71349002002F027FF124B12
S214020F5000221A601A7112256AE60E49002002F073
S214020F601DFF122564E60021E15478E70B490020B4
S214020F7002F014FF0A4B00221A601A71122557E675
S214020F800649002002F00AFF122551E680F7060005
S214020F90ED15FE1F10F806000116FE1FACF806003F
S214020FA02916FE1F0378032B12D8DFE803F00A0E79
S214020FB00602084B01221A707047074B01221A706C
S214020FC07047064B01221A707047054B01221A70B1
S214020FD0704700BF9E28FE1F9D28FE1F9C28FE1FEE
S214020FE09B28FE1F10B5C8B10346EAB1C0685C680C
S214020FF0844200D308BB18890130B1FBF0FC00FB29
S2140210001C1111805A6801325A601A891988B2EB8B
S214021010510F0FD252001A81002010BD084B094A08
S2140210202C2109482CF036F9084B064A2D21064891
S2140210302CF030F919810020EFE70120EDE700BF20
S214021040F8F806008075070010F906003CF906005D
S21402105008B528B101810280C3600023436008BD41
S214021060024B034A592103482CF014F954F906009E
S2140210705C75070010F906000B782BB97047013330
S21402108042689342FBD370470023F9E708B52EF077
S214021090DFFE024B1B68C01A08BD00BFE83FFE1FFA
S2140210A000B591B01E4B0AAA93E8030082E803003B
S2140210B00DF1140E03F1080CBCE80F00AEE80F00A9
S2140210C0DCF80030CEF8003000230093154B164AA9
S2140210D0042119202DF0E0FB144B1860C8B1134B05
S2140210E0059301F065FB124B0F93124B0D93124BB7
S2140210F00C9300230E930293104B0193104B009314
S2140211000CAB0AAA05A90F4800F0DEFF11B05DF885
S21402111004FB0D4B0D4A4FF4D8710D482CF0BAF86B
S2140211206C7B07006829FE1FB029FE1F4C2BFE1F92
S214021130EC3FFE1F7558050023580500DD1102001E
S2140211408D100200D83EFE1F68F90600A075070043
S2140211507CF90600F0B585B0054600248DF80F40F0
S2140211604FF0FF311B4B18682DF09EFE264600E01E
S21402117001340E2C23D804EB8402174B03EB8203B4
S2140211801B89002BF4D01146134A02EB81020DF1A3
S2140211900F010091D2682989686835F0E5FD9DF84F
S2140211A00F70002FE4D00C4B04EB840203EB82009A
S2140211B053F822302946406898473E46D8E700232F
S2140211C01A461946034800682DF0F0FB304605B073
S2140211D0F0BD00BF1C2AFE1F202AFE1F10B51446B3
S2140211E01046FFF7B7FF20B962682389D156D0545C
S2140211F0D15410BD10B504460449002002F0CEFDBD
S214021200204634F0FDFA012010BD00BFA8F9060002
S21402121070B594B00646282200210DEB02004BF072
S214021220FDFD00240694079408940994ADF8164030
S21402123003940494294B039303AB0A93284B186830
S2140212400C904BF05BFF01300D90264B1293264B11
S2140212501393234641F288324FF4FA7106A8FFF739
S214021260F7FE029418E00DF11602029906A8FFF79F
S214021270B9FE04462BE0BDF816304FF47A7202FB34
S21402128003F31A4AA2FB032398092EF0A9FF0020B3
S21402129000E00120F8B9F4B9154D42F2B3232A68EA
S2140212A01449002002F07AFD4FF47A7301930093FA
S2140212B00AAB42F2B3222968304634F059FA0028C3
S2140212C0E7D0042102A801F003FA0128CBD0002CB3
S2140212D0D1D00020DEE714B070BD00BFC8F906000A
S2140212E0A444FE1FD8F90600E4F90600D34D6210A6
S2140212F0A844FE1FF8F9060038B54FF0FF31244B1C
S21402130018682DF0D1FD00252C4600E001340E2C85
S21402131025D804EB84021F4B03EB82031B89002BA8
S214021320F4D011461B4A02EB81021269012AEDD162
S214021330184A02EB8102D268174805EB450100EB1A
S21402134081014A600B8105EB4503012100F8231059
S2140213501249002002F022FD0135ADB2D6E7002385
S2140213601A4619460A4800682DF020FB0DB90020DF
S21402137038BD0B49084B0B604D600A4A0023936048
S214021380094B13605160094800F09FFFF0E700BF69
S2140213901C2AFE1F202AFE1FB428FE1F20FA060063
S2140213A0AC28FE1FA028FE1F79100200D83EFE1FA2
S2140213B030B58BB0054600248DF80B400394049498
S2140213C005940694079408940994194B1868049097
S2140213D04BF094FEADF814003C23ADF80E30154BDE
S2140213E006933623ADF81C301349204602F0D6FC8D
S2140213F00DF10B0300934FF4FA63224603A90F483C
S21402140035F099FA00B90DB90BB030BD0C4920463B
S21402141002F0C4FC9DF80B10084800F009FF0028F3
S214021420F2D19DF80B30002BEED1FFF765FFEBE70C
S214021430AC44FE1F54FA06008CFA0600D83EFE1F85
S214021440BCFA0600F0B587B007460025029503955C
S21402145004950595ADF806501F4B204A1A602B4698
S21402146041F288324FF4FA7102A8FFF7F1FD2E46D8
S2140214700FE03846FFF79CFF18B11748FFF7BAFE91
S2140214800FE01749002002F089FC012507E005BBA2
S214021490FEB91148FFF7BCFE04460128E9D0002C2D
S2140214A0F5D12EF0D5FC01460DF1060202A8FFF793
S2140214B099FD06460028EAD1BDF806304FF47A7246
S2140214C002FB03F3074AA2FB032398092EF088FEC9
S2140214D0DDE7284607B0F0BDEC3FFE1FF03FFE1FDB
S2140214E0ECFA0600D34D621038B50446064B187067
S2140214F0064D1F2128682DF003F80121A140286817
S2140215002DF026F838BD00BF182AFE1F142AFE1F2B
S21402151000B583B0024600230193009103490448B4
S2140215202EF098FB03B05DF804FB00BF18FB060024
S214021530B515020008B50B4B1B780BB1002008BD91
S21402154001202DF003FB084B186030B12CF038FF59
S214021550064B186018B10120F1E70020EFE70020E3
S214021560EDE700BF182AFE1F1C2AFE1F142AFE1FC4
S214021570014B1878704700BF182AFE1F08B5FFF700
S214021580B3FF08BD08B90020704710B582B0012429
S2140215908440009100231A462146054800682CF034
S2140215A01DFF044202D1002002B010BD0120FBE75D
S2140215B0142AFE1F38B54FF0FF310120FFF7E2FF75
S2140215C03449002002F0EAFBFFF760FD324B186058
S2140215D0324B334A1A60334B334A1A60334B344A1F
S2140215E01A60FFF75DFD10B30420FFF77DFF2B4B5B
S2140215F0186820B12CF070FE284B00221A60294B86
S214021600186820B12CF068FE264B00221A60274B81
S214021610186820B12CF060FE244B00221A6025497F
S214021620002002F0BBFB00202EF048FB38BDFFF77F
S21402163009FF214B83F82A000CE02049002002F023
S214021640ADFB1F48FFF7D6FD0120FFF7FBFE1A4B46
S21402165083F82A00184B93F82A30012BC4D10320B2
S214021660FFF742FF144D284600F0A0FD0446002373
S21402167085F82A300220FFF737FF002CDDD111490A
S214021680002002F08BFB284600F0E8FD0C48FFF72E
S214021690B1FDDFE720FB0600E83FFE1FAC44FE1F5D
S2140216A09816FE1FA844FE1F1817FE1FA444FE1F0E
S2140216B0AC750700DCFB0600D83EFE1F88FB060062
S2140216C0EC3FFE1F4CFB06002DE9F04780460E4617
S2140216D091469A464FF0FF31294B18682DF0E4FBED
S2140216E00F27002403E00F2F0CD1274601340E2CBF
S2140216F028D804EB8403234D05EB830CDCF80C108E
S2140217000029F0D004EB84021E4B03EB82031B89F4
S214021710B342EBD1324640464BF0B9FB0028E5D146
S21402172007EB8703174A52F823304B45DED107EB07
S2140217308702144B03EB82035B685345D6D10F270F
S214021740012400E000240E2F0FD80E4B07EB870172
S21402175003EB8102C2F80C80168143F82190C2F88E
S21402176004A01346089A1A61012400231A46194651
S214021770034800682DF01AF92046BDE8F08700BF3E
S2140217801C2AFE1F202AFE1F70B506460D464FF085
S214021790FF31184B18682DF087FB002400E0013457
S2140217A00E2C1ED804EB840C134B03EB8C031B8904
S2140217B0AB42F4D1104B03EB8C032A463146D86871
S2140217C04BF065FB0028EAD104EB84010A4800EBE3
S2140217D08102002340F8213053609360D360136186
S2140217E0DDE700231A461946024800682DF0DEF8A7
S2140217F070BD00BF1C2AFE1F202AFE1F10B5C4B0F3
S21402180004464FF48872002168464BF007FB2046D8
S21402181044B010BD38B50C46054660B159B1436DAB
S214021820D3B1836DC3B1C36DB3B1036EA3B1036D00
S21402183093B101201EE040F292330F4A0F4910483E
S21402184005F02EFA224629460E4805F029FA0E48D9
S21402185005F026FA00200DE04FF46773064A0749A2
S214021860074805F01DFA094805F01AFA064805F079
S21402187017FA002038BD00BFE87B07000CFC060004
S21402188018FC060030FC0600D8FB060070FC0600BA
S21402189038B568B10D4684460023132B1BD803F1D6
S2140218A00C020CEBC2029288AA4208D00133F4E77B
S2140218B01B4B1C4A4FF4C8711B482BF0EBFC0C3335
S2140218C00CEBC30C0CF104043CB16368A3B123888F
S2140218D093B1204638BD0024F6E740F29F13134A20
S2140218E01349144805F0DCF92946134805F0D8F9DF
S2140218F0124805F0D5F9ECE740F2A3130B4A0C495F
S2140219000C4805F0CDF9626821880D4805F0C8F943
S2140219100A4805F0C5F90023236063601C46D8E731
S214021920B4FC0600D07C0700CCFC0600B87C07009E
S2140219300CFC060018FC060004FD0600D8FB060098
S21402194024FD060030B583B00C46002100910191BB
S21402195088B10546016EA9B1DCB18DF8002001936D
S214021960A36813B16946E06898472B6E20469847ED
S214021970B0B103B030BD124B124A40F21F311248CA
S2140219802BF088FC114B0F4A4FF448710E482BF08F
S21402199081FC0F4B0B4A40F221310B482BF07AFCAC
S2140219A040F22F330B4A0C490C4805F079F922789D
S2140219B021460B4805F074F90A4805F071F9D8E794
S2140219C0B4FC06009C7C0700CCFC060064FD060006
S2140219D09CFD06008C7C07000CFC060018FC06002A
S2140219E0B0FD0600D8FB060010B57BB18C461C463F
S2140219F0596891B19DF80830902B15D00023127AC1
S214021A00FFF7A0FF00232360636010BD084B094A5E
S214021A104FF41E7108482BF03DFC084B054A40F275
S214021A20792105482BF036FCDCF804300233E6E771
S214021A30DCFD0600AC7C0700CCFC0600F0FD0600D0
S214021A40F0B583B0178828B30C46164649B3FFF79D
S214021A50D5FE0546012380F80C31237803F0F00208
S214021A60302A25D0622B28D029D9902B2CD0B02B07
S214021A702AD0702B28D040F2D123224A224923486A
S214021A8005F00EF92178224805F00AF9214805F0FA
S214021A9007F912E0204B214A4FF4277120482BF019
S214021AA0F9FB204B1D4A40F29D211D482BF0F2FB0C
S214021AB0D0F8043172683946984703B0F0BD402B1F
S214021AC002D0502BF9D0D6E739462846FFF7E0FE7B
S214021AD0034638B122780092324621462846FFF75E
S214021AE083FFEAE74FF43173064A0749074805F0D1
S214021AF0D7F839460C4805F0D3F8064805F0D0F872
S214021B00DBE700BFE87C07000CFC060018FC0600BA
S214021B106CFE0600D8FB060014FE0600FC7C0700DE
S214021B20CCFC06002CFE060040FE060038B540B18E
S214021B300C466AB199B100F1640C02251421002307
S214021B4019E0274B274A4FF4A77127482BF0A2FB30
S214021B50264B244A40F24F1123482BF09BFB244B82
S214021B60204A4FF4A87120482BF094FB3CF833002F
S214021B70A0420BD00133132B1BD81429F6D13CF804
S214021B8033000028F2D119460025EFE74FF4B77369
S214021B90184A1949194805F083F82146184805F0ED
S214021BA07FF8184805F07CF80925022D09D028464A
S214021BB038BD002DF9D10CEBC1032CF831405A6028
S214021BC0F5E740F27D130B4A0B490C4805F068F81E
S214021BD021460D4805F064F80A4805F061F8E6E784
S214021BE0B4FC06004C7C0700CCFC06009CFD0600FC
S214021BF094FE0600347C07000CFC060018FC060067
S214021C00B8FE0600D8FB060028FF06002DE9F843BA
S214021C1028B18846814600F16405002416E0174B79
S214021C20174A4FF45A7117482BF034FB164B144AD6
S214021C3040F2733113482BF02DFB00230422484652
S214021C40FFF780FE0023EB5173600134132C12D889
S214021C50E70005EBC40635F83430002BF5D0716882
S214021C600029E3D0B8F1000FE7D00B78032BE4D0BD
S214021C70042BEAD1E1E7BDE8F88300BF88FF06003F
S214021C80F87B0700CCFC0600A4FF060008B5062871
S214021C9013D0022817D0032801D0042806D1C1B1D8
S214021CA00B68CBB14B68CBB9002113E00C4B0D4A45
S214021CB040F2AF310C482BF0EDFA11B10B6833B19C
S214021CC00121084607E0081E18BF012003E0002194
S214021CD0F7E70021084608BD0021FBE70121F9E7E6
S214021CE0D0FF0600D87B0700CCFC060008B548B13A
S214021CF0014664310023132B0BD831F8332052B13E
S214021D000133F8E7054B064A40F2311105482BF03D
S214021D10C1FA002000E0012008BD00BFB4FC0600A6
S214021D209C7B0700CCFC06002DE9F843099CC9B150
S214021D30054616461F468846DCB1002121606160D2
S214021D40A160E160022822D03BD3C31EDBB2012B86
S214021D5044D8AAB14046FFF7C9FF0146002840D141
S214021D60034628E0224B234A4FF4E07122482BF028
S214021D7091FA224B1F4A40F2C1111F482BF08AFAF1
S214021D801F4B1C4A4FF4E5711B482BF083FAB2F83E
S214021D90089009F1040913783BB90123D8F82420E6
S214021DA04A4507D9FBB9194605E04046FFF79EFFAC
S214021DB00346F3E7002181F00101C8B2ABB1BDE8EA
S214021DC0F8830123194625706660089AE260A760C8
S214021DD081F0010111F0FF00F1D0EFE7012319466F
S214021DE0F1E70346EFE71946EDE70220E7E700BF13
S214021DF088FF0600B47B0700CCFC06009CFD0600AC
S214021E004C00070010B582B0019148B1019971B13A
S214021E10446D01A9006DA04780B1002002B010BD3C
S214021E20074B084A4FF4057107482BF033FA074B65
S214021E30044A40F2152104482BF02CFA0320EDE761
S214021E40B4FC0600887B0700CCFC06009CFD06005E
S214021E502DE9F04182B00C46098D71B3054617464E
S214021E601E46E36D099898478046002837D00190B1
S214021E70089B009333463A4621462846FFF754FF0E
S214021E80054690B1236E4046984720BB40F2013388
S214021E90144A1549154804F003FF4146144804F055
S214021EA0FFFE144804F0FCFE15E0099A414620465F
S214021EB0FFF7A8FF054670B1E4E740F20E33094A81
S214021EC009490A4804F0ECFE0B4804F0E9FE09480A
S214021ED004F0E6FE0125284602B0BDE8F0810225A0
S214021EE0F9E700BFC47B07000CFC060018FC0600DE
S214021EF064000700D8FB060088000700F0B58DB026
S214021F0005460E4617460DF10C0C3C4C0FCCACE8C1
S214021F100F000FCCACE80F002368CCF8003000238B
S214021F200193ADF80830C5B12C46EFB156B33378FD
S214021F30082B20D80CAA02EB830353F8243C7168C2
S214021F4001AA20469847054640BB9DF8070030B3D5
S214021F50BDF80410C9B9002021E0294B294A4FF4E4
S214021F600C7129482BF096F9284B264A40F231216B
S214021F7025482BF08FF9264B224A40F2352122487B
S214021F802BF088F93146234BDAE732462046FFF734
S214021F90CDFD0546B0FA80F0400900E0002006B10B
S214021FA048B115B99DF80830A3B99DF80630F3B9C3
S214021FB015B301231CE000232A4631462046FFF7CC
S214021FC0C1FCEEE794F82A30012B0BD094F80C31C2
S214021FD0002BEAD0002384F80C31002DF2D00B2D12
S214021FE0F4D1EFE7204634F09DFE0546EEE70123E6
S214021FF03B7028460DB0F0BD0023F9E7207D0700B0
S21402200088FF0600647C0700CCFC0600AC000700D4
S214022010C000070081230200F0B583B000230193BD
S21402202030B1054601A935F0AEFF044600270BE0A5
S2140220301D4B1E4A4FF450711D482BF02BF901A977
S214022040284635F0A0FF04465CB321462846FFF733
S2140220501FFC06460028F2D04368596801238B709D
S2140220602246284634F0C8FC07460028E7D000235C
S214022070024671682846FFF765FC002333607360EA
S21402208040F255330B4A0C490C4804F009FE384618
S21402209034F0A8FE01460A4804F002FE094804F09D
S2140220A0FFFD384603B0F0BD88FF0600247C07001B
S2140220B0CCFC0600147C07000CFC060018FC06008C
S2140220C0E8000700D8FB060000284CD0F0B583B025
S2140220D00C4616461D460746002948D0002B4BD014
S2140220E0089B002B4BD0099B002B4BD00B6853B39D
S2140220F04B6843B38B6833B3CB6823B30B6913B314
S2140221004FF4887200214AF089FE00961F4B089A07
S2140221102946384634F0AEFB844650BB1422009261
S2140221201B4B1C49384634F0D9FB844608BB099B36
S214022130C7F804310A9BC7F8083150370FCC0FC7CF
S21402214023683B6015E040F2E633134A134914480D
S21402215004F0A6FD134804F0A3FD134804F0A0FD06
S2140221604FF0010C05E04FF0010C604670474FF04F
S214022170010C604603B0F0BD4FF0010CF9E74FF0DA
S214022180010CF6E74FF0010CF3E700BF411A02001C
S214022190B044FE1F0045FE1F107D07000CFC060023
S2140221A018FC060014010700D8FB060030B583B001
S2140221B000238DF80330044648B3036D4BB3002565
S2140221C002E09DF8033033BB2DBB00230193A36DC1
S2140221D0322201A9206D98470DF10302019920468B
S2140221E0FFF78CFE05460028EBD040F227430B4A49
S2140221F00B490C4804F054FD284634F0F3FD014622
S214022200094804F04DFD094804F04AFDD9E70125C6
S214022210DAE70125D8E7284603B030BD747C07000C
S2140222200CFC060018FC06004C010700D8FB060052
S21402223080B110B50446038D73B131B10121FFF7A9
S214022240E5FC2046FFF7E8FE07E00021FFF7DEFC8C
S214022250002002E001207047012010BDF0B583B0D7
S2140222600023019378B30646036D13B9012028E0D4
S2140222707CB100220192B36D01A9306D98470446E5
S21402228001990029F4D0002304223046FFF75AFBB6
S214022290EEE706F1640500E00134132C10D805EBD6
S2140222A0C40735F83430002BF6D0002304227968B0
S2140222B03046FFF747FB002345F834307B60EBE7F8
S2140222C0002003B0F0BD0120FBE770B582B00646E1
S2140222D00D4614461146FFF79DFA10B9012002B0CA
S2140222E070BD29460320FFF7D1FC08B90120F6E7A6
S2140222F06368A2680192009323682A463146032047
S214022300FFF7A6FDEBE770B582B006460D4614460B
S2140223101146FFF77FFA10B9012002B070BD2946B8
S2140223200420FFF7B3FC08B90120F6E76368A26849
S2140223300192009323682A4631460420FFF788FD5F
S214022340EBE770B582B006460D4614461146FFF717
S21402235061FA10B9012002B070BD29460220FFF7CB
S21402236095FC08B90120F6E76368A268019200931B
S21402237023682A4631460220FFF76AFDEBE7FFFF95
S21402238008B532B1134600201060908001221A71FF
S21402239008BD034B034A322103482AF07BFF00BFE5
S2140223A0740107005C7E07008C01070070B508B355
S2140223B00D461446064619B342B3002313609380B3
S2140223C00B784BBB4F231A4A1A491B4804F068FC89
S2140223D06A682989194804F063FC194804F060FC0D
S2140223E022882946304634F007FB2B78C3B1E0B189
S2140223F0002316E0134B144A432114482AF04AFFDE
S214022400134B114A442111482AF044FF114B0E4A3D
S21402241045210E482AF03EFF34F097FC2080D1E793
S2140224200023E3700123237170BD0123F9E700BF87
S214022430247E07000CFC0600E801070000020700E5
S214022440D8FB060088FF0600407E07008C010700C6
S214022450D40107007401070070B5B8B10D461446E2
S2140224600646C9B1F2B100231360938034F06DFCC6
S214022470034620806A682968304634F09CFAB0FA2F
S21402248080F35B09E3700123237170BD084B094A90
S214022490622109482AF0FEFE084B064A63210648D6
S2140224A02AF0F8FE064B034A642103482AF0F2FE9D
S2140224B088FF0600087E07008C010700200207003E
S2140224C07401070070B5B8B10D4614460646C9B188
S2140224D0F2B100231360938034F037FC0346208069
S2140224E06A682968304634F0D1FBB0FA80F35B099B
S2140224F0E3700123237170BD084B094A7E21094807
S2140225002AF0C8FE084B064A7F2106482AF0C2FE79
S214022510064B034A802103482AF0BCFE88FF0600C9
S214022520E87D07008C0107002002070074010700FF
S21402253070B582B090B10C4615460646A1B1CAB136
S21402254001F10C0300938B684A68096834F0F3F9CA
S214022550B0B100232B60AB8002B070BD114B124AA3
S2140225609A2112482AF096FE114B0F4A9B210F48D9
S2140225702AF090FE0F4B0C4A9C210C482AF08AFE49
S214022580A9230D4A0D490E4804F08AFB217B0D480B
S21402259004F086FB0C4804F083FB217B3046FFF7F1
S2140225A047FED6E788FF0600CC7D07008C010700B1
S2140225B03C02070074010700B07D07000CFC060011
S2140225C0E801070058020700D8FB060010B548B11C
S2140225D014466AB134F07BFB00232360A3800123F8
S2140225E0A37010BD054B064ABD2106482AF052FECE
S2140225F0054B034ABE2103482AF04CFE88FF06001C
S214022600947D07008C0107007401070010B548B1DD
S21402261014466AB134F035FA00232360A3800123FE
S214022620237110BD054B064AD22106482AF032FE17
S214022630054B034AD32103482AF02CFE88FF0600E6
S2140226407C7D07008C0107007401070038B5C8B10D
S21402265014460546036EDBB102B3EC23124A134955
S214022660134804F01DFB134804F01AFB124804F04A
S21402267017FB00232360A3800123A3702846FFF7DD
S214022680EDFD38BD0D4B0E4AE8210E482AF002FE3B
S2140226900D4B0B4AE9210B482AF0FCFD0B4B084A6E
S2140226A0EA2108482AF0F6FD447D07000CFC0600E5
S2140226B0E8010700B0020700D8FB060088FF060004
S2140226C0607D07008C010700740207007401070092
S2140226D030B583B0002301930093F8B10C4605464B
S2140226E011B9002003B030BD01A82EF0E1FEB8B942
S2140226F0019BBBB1684631F08FF8A8B90098A8B123
S214022700019BD3F8043122462946984780B9019B9B
S2140227109B6B0098984768B90120E3E70020E1E741
S2140227200020DFE70020DDE70020DBE70020D9E716
S2140227300020D7E70020D5E790B199B108B54FF44D
S2140227407A7303FB02F20A4BA3FB023200239209BE
S21402275000682CF02BF9012814BF0020012008BDC8
S214022760002000E00020012814BF0020012070474E
S214022770D34D621090B108B50346A9B14FF47A70F2
S21402278000FB02F20948A0FB0202920918682CF02C
S214022790D9FA012814BF0020012008BD0020012814
S2140227A014BF0020012070470020F2E7D34D6210CC
S2140227B01B4B1B7803B1704710B584B0A0220021D2
S2140227C018484AF02BFB00230093174B174A0421A4
S2140227D00A202CF061F8164B186008B1002406E0B7
S2140227E0144B154A582115482AF054FD0134092C79
S2140227F010D80C4B03EB04130393002203A90C48D6
S214022800FFF79AFF0028F1D10D4B0B4A61210B48C6
S2140228102AF040FD024B01221A7004B010BD00BF20
S214022820C045FE1FC845FE1F5045FE1F9845FE1FA9
S214022830C445FE1FCC020700A87E0700EC02070074
S2140228403003070000B583B000230193094B1B78C1
S214022850DBB2012B08D1024601A90748FFF78AFF1F
S214022860019803B05DF804FB044B054A7021054845
S2140228702AF010FDC045FE1FC445FE1F4003070098
S214022880947E0700EC02070000B583B00190124B5D
S2140228901B78DBB2012B08D1019B104A934216D358
S2140228A0A032934207D3002012E00D4B0D4A83213B
S2140228B00D482AF0EFFC002201A90C48FFF73CFF66
S2140228C030B90B4B074A8D2107482AF0E3FC00205B
S2140228D003B05DF804FB00BFC045FE1FC845FE1FDF
S2140228E0400307007C7E0700EC020700C445FE1F7B
S2140228F058030700024B1A68024B1A60704700BF63
S2140229007046FE1F6C46FE1F044B1968044A136885
S214022910CB1A044803601160704700BF7046FE1F62
S2140229206C46FE1F6846FE1F08B5FFF7EDFF08BDA2
S214022930014B1878704700BF7446FE1F014B187093
S214022940704700BF7446FE1F014B1878704700BFE1
S2140229507546FE1F014B1870704700BF7546FE1F76
S21402296008B50D4B1B780BB1012008BD0B490C486E
S2140229702AF022FA0028F8D10A4909482AF0A6FBCA
S2140229800028F2D106482AF011F90028EDD1024BB0
S21402299001221A70E9E700BF7E46FE1F308107005B
S2140229A0D8D0FF1F1C81070010B582B00123019307
S2140229B01D4A10211D482AF002F90190019BFBB91D
S2140229C0194B1B8807EE903AB8EEE77ADFED186AE5
S2140229D027EE267ADFED176A27EE267A164B83ED68
S2140229E0007AF8EE677A9FED157A67EE877A144BCF
S2140229F0C3ED007A134B9B7823B1019802B010BD49
S214022A000198FBE7104B00221A70084C20462AF069
S214022A10D2F80190019B20462AF01AFA0190019BF7
S214022A20002BEAD00198E9E77C46FE1FD8D0FF1FAC
S214022A3033335340000080397846FE1FDE3CD53CD7
S214022A404007FE1F308107007E46FE1F837813B9BB
S214022A50014B01221A7070477646FE1F10B5A2B0CF
S214022A60FFF77EFF00240F4B1C70092C08D80A20A3
S214022A702DF0B6FB0B4B1B7813B90134E4B2F4E726
S214022A80FFF792FF084B1C88084B186848F0F6FDC3
S214022A90CDE900012346064A7F2102A84AF014F92E
S214022AA022B010BD7646FE1F7C46FE1F7846FE1FED
S214022AB068030700014B93ED000A70474007FE1FAC
S214022AC008B50549054828F02BFD054A136923F089
S214022AD00103136108BD00BF54810700FCD0FF1F2D
S214022AE000B00140004870478046FE1F10B5054CF6
S214022AF0204628F01BFDFFF7F5FF0146204628F08A
S214022B001DFD10BDFCD0FF1F10B10279014B1A70DB
S214022B10704700BF8746FE1F014B1878704700BFFC
S214022B204807FE1F10B582B00023ADF804308DF8BA
S214022B3004008DF80510094ABDF804101180084AF1
S214022B401370022201A9074829F07FF8064C20607C
S214022B500A202DF045FB206802B010BD8446FE1FF9
S214022B608746FE1F98D0FF1F4407FE1F10B582B08F
S214022B7000230193A04B1870A04B1B78834200F0F1
S214022B80D6830446102833D8DFE810F09401B80143
S214022B90DC01000211003D00240213013A01480242
S214022BA06C02C802EC0248036C039700B9000021CD
S214022BB00220FFF7B7FF019000210420FFF7B2FFC3
S214022BC0019B03430193FF210620FFF7ABFF019B06
S214022BD00343019396210520FFF7A4FF019B0343BD
S214022BE0019300210720FFF79DFF019B03430193FA
S214022BF0824B1C70022000F0CBFD002840F08E8332
S214022C00019802B010BD00210420FFF78BFF01904F
S214022C10FF210620FFF786FF019B034301939621BF
S214022C200520FFF77FFF019B034301930021072046
S214022C30FFF778FF019B0343019320210220FFF751
S214022C4071FF019B0343019340210120FFF76AFFB6
S214022C50019B0343019324211020FFF763FF019B8E
S214022C600343019324211120FFF75CFF019B0343DA
S214022C70019324211220FFF755FF019B0343019382
S214022C8024211620FFF74EFF019B034301932421C4
S214022C901720FFF747FF019B0343019324211820C7
S214022CA0FFF740FF019B0343019300211C20FFF71F
S214022CB039FF019B034301939AE700210220FFF7A5
S214022CC031FF0190FF210420FFF72CFF019B0343F5
S214022CD0019300210620FFF725FF019B0343019382
S214022CE0FF210520FFF71EFF019B034301930021EE
S214022CF00720FFF717FF019B0343019378E7FF21A5
S214022D000420FFF70FFF019000210620FFF70AFFBD
S214022D10019B03430193FF210520FFF703FF019B5D
S214022D200343019300210720FFF7FCFE019B0343A8
S214022D30019320210220FFF7F5FE019B0343019336
S214022D4040210120FFF7EEFE019B03430193682119
S214022D501020FFF7E7FE019B034301936821112031
S214022D60FFF7E0FE019B0343019368211220FFF761
S214022D70D9FE019B0343019368211620FFF7D2FE7A
S214022D80019B0343019368211720FFF7CBFE019BAB
S214022D900343019368211820FFF7C4FE019B0343F7
S214022DA0019300211C20FFF7BDFE019B0343019304
S214022DB01EE700210220FFF7B5FE0190FF21042046
S214022DC0FFF7B0FE019B03430193FF210620FFF7A6
S214022DD0A9FE019B0343019300210520FFF7A2FEF3
S214022DE0019B0343019300210720FFF79BFE019BF3
S214022DF003430193FCE600BF4807FE1F4907FE1F78
S214022E00FF210420FFF78EFE0190FF210620FFF728
S214022E1089FE019B0343019300210520FFF782FEF2
S214022E20019B0343019300210720FFF77BFE019BD2
S214022E300343019320210220FFF774FE019B034304
S214022E40019340210120FFF76DFE019B034301938E
S214022E5068211020FFF766FE019B03430193682159
S214022E601120FFF75FFE019B0343019368211220A6
S214022E70FFF758FE019B0343019368211620FFF7D4
S214022E8051FE019B0343019368211720FFF74AFE78
S214022E90019B0343019368211820FFF743FE019B21
S214022EA00343019300211C20FFF73CFE019B0343D2
S214022EB001939DE600210220FFF734FE019B0340AA
S214022EC00193FF210420FFF72DFE019B034001938F
S214022ED0FF210620FFF726FE019B03400193FF21F8
S214022EE00520FFF71FFE019B0340019300210720E8
S214022EF0FFF718FE019B0340019379E600210220AA
S214022F00FFF710FE019B0340019300210420FFF708
S214022F1009FE019B03400193FF210620FFF702FEF4
S214022F20019B0340019300210520FFF7FBFD019B57
S214022F300340019300210720FFF7F4FD019B0340A5
S214022F40019355E600210220FFF7ECFD019B0340AA
S214022F50019300210420FFF7E5FD019B0340019346
S214022F6000210620FFF7DEFD019B03400193FF21AF
S214022F700520FFF7D7FD019B0340019300210720A0
S214022F80FFF7D0FD019B0340019331E600210220AA
S214022F90FFF7C8FD019B03400193FF210420FFF7C2
S214022FA0C1FD019B0340019300210620FFF7BAFDF5
S214022FB0019B0340019300210520FFF7B3FD019B0F
S214022FC00340019300210720FFF7ACFD019B03405D
S214022FD001930DE600210220FFF7A4FD019B0340AA
S214022FE0019300210420FFF79DFD019B03400193FE
S214022FF000210620FFF796FD019B03400193002166
S2140230000520FFF78FFD019B034001930021072057
S214023010FFF788FD019B03400193E9E500210220AA
S214023020FFF780FD019B0340019377210420FFF701
S21402303079FD019B0340019300210620FFF772FDF4
S214023040019B03400193FF210520FFF76BFD019BC7
S2140230500340019300210720FFF764FD019B034014
S2140230600193C5E577210420FFF75CFD019B034031
S214023070019300210620FFF755FD019B03400193B3
S214023080FF210520FFF74EFD019B0340019300211F
S2140230900720FFF747FD019B0340019320210220F2
S2140230A0FFF740FD019B0340019340210120FFF7FB
S2140230B039FD019B0340019324211020FFF732FDC6
S2140230C0019B0340019324211120FFF72BFD019B56
S2140230D00340019324211220FFF724FD019B0340A5
S2140230E0019324211620FFF71DFD019B0340019347
S2140230F024211720FFF716FD019B0340019324218C
S2140231001820FFF70FFD019B0340019300211C20AE
S214023110FFF708FD019B0340019369E500210220A9
S214023120FFF700FD019B03400193AA210420FFF74D
S214023130F9FC019B03400193AA210620FFF7F2FC4B
S214023140019B03400193AA210520FFF7EBFC019B9C
S2140231500340019300210720FFF7E4FC019B034094
S214023160019345E5AA210420FFF7DCFC019B0340FE
S2140231700193AA210620FFF7D5FC019B0340019389
S214023180AA210520FFF7CEFC019B034001930021F4
S2140231900720FFF7C7FC019B034001932021022072
S2140231A0FFF7C0FC019B0340019340210120FFF77B
S2140231B0B9FC019B0340019368211020FFF7B2FC83
S2140231C0019B0340019368211120FFF7ABFC019B92
S2140231D00340019368211220FFF7A4FC019B0340E1
S2140231E0019368211620FFF79DFC019B0340019383
S2140231F068211720FFF796FC019B03400193682184
S2140232001820FFF78FFC019B0340019300211C202E
S214023210FFF788FC019B03400193E9E400210220AA
S214023220FFF780FC019B0340019366210420FFF711
S21402323079FC019B03400193FF210620FFF772FCF5
S214023240019B0340019300210520FFF76BFC019BC5
S2140232500340019300210720FFF764FC019B034013
S2140232600193C5E466210420FFF75CFC019B034042
S2140232700193FF210620FFF755FC019B03400193B3
S21402328000210520FFF74EFC019B0340019300211D
S2140232900720FFF747FC019B0340019320210220F1
S2140232A0FFF740FC019B0340019340210120FFF7FA
S2140232B039FC019B0340019368211020FFF732FC82
S2140232C0019B0340019368211120FFF72BFC019B11
S2140232D00340019368211220FFF724FC019B034060
S2140232E0019368211620FFF71DFC019B0340019302
S2140232F068211720FFF716FC019B03400193682103
S2140233001820FFF70FFC019B0340019300211C20AD
S214023310FFF708FC019B0340019369E4FFF7FCFBFF
S214023320014604230822034800F052FE68E4002007
S21402333067E400BF9003070030B583B0104B93E8F4
S214023340030002AB03E9030000242546072C11D82C
S21402335004F108036B4413F8080CFFF707FC002877
S21402336014BF0125002505D1C8202CF039FF0134F1
S214023370E4B2EBE715B9034B01221A7003B030BD75
S214023380C07E07008646FE1F00B583B00123019368
S2140233904749484828F066FB019020210020FFF7A5
S2140233A0C1FB019B0340019300210220FFF7BAFBF9
S2140233B0019B0340019308210320FFF7B3FB019B07
S2140233C003400193FF210420FFF7ACFB019B03405F
S2140233D00193FF210620FFF7A5FB019B0340019303
S2140233E0FF210520FFF79EFB019B0340019300216E
S2140233F00720FFF797FB019B0340019300210A2059
S214023400FFF790FB019B0340019300210B20FFF77F
S21402341089FB019B0340019300210C20FFF782FBEE
S214023420019B0340019304211020FFF77BFB019BC5
S2140234300340019304211120FFF774FB019B034014
S214023440019304211220FFF76DFB019B03400193B9
S21402345000211620FFF766FB019B03400193002123
S2140234601720FFF75FFB019B034001930021182002
S214023470FFF758FB019B0340019307211D20FFF72E
S21402348051FB019B0340019300211C20FFF74AFBDE
S214023490019B03400193FFF74FFF0520FFF766FBF2
S2140234A0019B03400193019803B05DF804FB00BF43
S2140234B0EC80070098D0FF1F0B78303B03EB8303AA
S2140234C04A78303A02EB4303C360CB78303B03EBD7
S2140234D083020B79303B03EB4203013B03618A799B
S2140234E0303ACB79303B4FF0640C0CFB03F34FF4CD
S2140234F07A7C0CFB02330A7A303A02EB820203EB46
S21402350042034A7A303A1344A3F26C734361CB7A8D
S214023510303B03EB83030A7B303A02EB43038360C0
S2140235208B7B303B03EB8303CA7B303A02EB4303CD
S21402353043604B7C303B03EB83038A7C303A02EBDE
S214023540430303607047FFFF0378022B00D07047E7
S214023550024A138801331380F9E700BFD446FE1FE0
S214023560014B1888704700BFD446FE1F10B588B0BE
S21402357020220021684649F051FCEC46124C0FCC42
S214023580ACE80F002368CCF80030104C69462046A1
S214023590FFF792FF21460E4827F072FE58B90D49F2
S2140235A00B4827F0AFFE044650B90B4B01221A60B7
S2140235B0204608B010BD0446084800F071F8F7E748
S2140235C0074800F06DF8F3E79C030700B046FE1FBD
S2140235D00CD1FF1F8C46FE1F8846FE1FB003070055
S2140235E0CC03070010B50E21054827F0ABFD0446B4
S2140235F008B9204610BD034800F052F8F9E700BFAC
S2140236000CD1FF1FE803070008B5044827F0D6FCD4
S21402361000B908BD024800F043F8FAE70CD1FF1FD4
S2140236201004070010B51649164827F021FF48B9BE
S214023630FFF79CFFFFF7D6FF044688B9124800F052
S2140236402FF810BD0446114800F02AF8104800F082
S21402365027F822460F49002000F0A0FB00BEE7E74D
S214023660FFF7D2FF0C4800F01BF80C4800F018F8E1
S21402367022460849002000F091FB00BEDEE700BFAC
S214023680688107000CD1FF1F94040700300407006E
S2140236907C04070048040700E803070068040700E4
S2140236A070B5C4B00546FFF75BFF144EA6FB0034A8
S2140236B0C4F3CF24FFF754FFA6FB0036F60A4FF4F6
S2140236C0616303FB16039BB20D4AA2FB0312510968
S2140236D00A46C1EB0111A3EB81039BB2029501934B
S2140236E000922346074AFB2104A849F0EDFA04A9F2
S2140236F0002000F053FB44B070BD00BFC5B3A291DA
S21402370089888888B004070070B582B0164D4FF4D9
S21402371080720021284649F081FBFFF721FF134EF5
S214023720A6FB0034C4F3CF24FFF71AFFA6FB00362D
S214023730F60A4FF4616303FB160080B20C4BA3FB40
S21402374000235A091346C2EB0212A0EB820080B293
S214023750019000932346074AFB21284649F0B4FA13
S214023760284602B070BD00BFD846FE1FC5B3A29160
S21402377089888888C8040700014B1870704700BF04
S214023780DB47FE1F014B1878704700BFDB47FE1F62
S214023790012803D0022804D000207047024B187874
S2140237A07047024B18787047DA47FE1FD947FE1F4C
S2140237B0014B1878704700BFD847FE1F0369C268DE
S2140237C0934204D881688A1A1344581E7047981A7E
S2140237D0013870472DE9F843044688461646C56800
S2140237E08768A7EB0509914509D94068284449F03E
S2140237F077FCBFF35F8F3544E560BDE8F883406829
S2140238004A46284449F06CFCED1B35442A4608EB30
S2140238100901606849F064FCBFF35F8FE560ECE77E
S2140238202DE9F843064688461746C5684FF0000954
S2140238301AE05B1B5A1EB3685C1B944228BF1446F0
S214023840BC4228BF3C46706822464146284449F09E
S21402385047FCA144A0443F1B2544B368AB420BD0AF
S214023860BFF35F8FF5604FB133699D42E1D3B26813
S2140238705B1B1A44013ADEE70025F1E74846BDE83D
S214023880F883FFFF10B5154CA8220021204649F008
S214023890C5FA032323616361114AA261114BE361F6
S2140238A04FF4806323620023A3626362E3622266AC
S2140238B00D4A62661022A2662367E3666367BFF359
S2140238C05F8F06E0C3F10F0208498956034AD154B6
S2140238D001330F2BF6D9BFF35F8F10BDEC4BFE1FE3
S2140238E0D8040700EC47FE1FDC47FE1FC87E070011
S2140238F0F8B50F461646441C04EB4404164B03EB7D
S214023900C40400EB400003EBC003DD6A012D0ED0B9
S214023910022D1AD0F5B92046FFF750FF864212D87C
S214023920324639462046FFF755FF35460BE020461D
S214023930FFF744FF3546864228BF05462A463946E3
S2140239402046FFF747FF2846F8BD2046FFF768FFE8
S2140239500546F8E70025F6E7EC4BFE1FF8B50446E9
S2140239600D4616460A4B1B785BB2532B0DD1EFF36E
S21402397011874FF0200181F31188324629462046EE
S214023980FFF7B6FF87F31188F8BDFFF77BFFEEE778
S214023990EC4BFE1F10B504468268531C40688342F7
S2140239A005D820688154A360E3680133E360A26807
S2140239B063689A4200D010BD21682069FFF7CEFFE7
S2140239C0A368984203D04FF0FF33E360F3E7002387
S2140239D0A360F0E72DE9F84F81460F4615461E46CE
S2140239E0DDF828A00B9A0B464FF0010803E0B3FB64
S2140239F0F5F308F10108AB42F9D2B04500D2B04661
S214023A0012F0010B18D1BAF1000F15D012F0020F06
S214023A1002D0BEB1202400E02024BAF1000F0BD061
S214023A20C24509D90AF1FF3A21464846FFF7B2FFD6
S214023A30D9F80C30002BF0DAD9F80C30002B25DB45
S214023A40012404E03024E8E7013E05FB04F4012EDD
S214023A50FAD8B7FBF4F39D42F7D900E01C46B7FB51
S214023A60F4F304FB1377124AD1564846FFF792FF47
S214023A70D9F80C30002B03DBB4FBF5F3AC42EDD2E5
S214023A80BBF1000F02D0BAF1000F01D1BDE8F88FEA
S214023A90BAF1000FFAD0C245F8D90AF1FF3A20214E
S214023AA04846FFF777FFD9F80C30002BF0DAEDE73F
S214023AB0DC7E07002DE9F04782B0074688461546A9
S214023AC099460A9EDDF82CA081EAE17CACEBE17C0B
S214023AD0012402E09CFBF5FC01346545FADD4C4509
S214023AE000D24C4636B1B8F1000F02DB1AF0040FD2
S214023AF000D0013E1AF0020F02D0B9F1000F03D037
S214023B001AF0010F00D1AEB9FB68002B0FDBB8F13B
S214023B10000F1CDB1AF0040F20D1FB68002B06DB1B
S214023B200AF00303022B1ED0FB68002B2DDA02B02C
S214023B30BDE8F087002EE7D0A642E5D9013E202157
S214023B403846FFF727FFFB68002BF3DADCE7C8F1FD
S214023B5000082D213846FFF71DFFDEE72B213846E9
S214023B60FFF718FFD9E7B9F1000FDDD1002EDBD041
S214023B70002ED9D0A642D7D9013E30213846FFF7CB
S214023B8009FFFB68002BF3DACEE7CDF804A0009617
S214023B904B462A4641463846FFF71CFFC7E7FFFF5B
S214023BA0F0B599B006460C46154603AB1393402370
S214023BB01493002315931790169391E00020012288
S214023BC011E040F0010001340CE040F00200013444
S214023BD008E040F00400013404E040F0080001343C
S214023BE000E0002222B394F90030233B0D2BF8D8D4
S214023BF001A151F823F000BFDB3B0200E33B0200C9
S214023C00E33B0200E33B0200E33B0200E33B02002D
S214023C10E33B0200E33B0200D33B0200E33B02002D
S214023C20C33B0200E33B0200E33B0200CB3B020045
S214023C3094F90030A3F13001C9B2092907D801343A
S214023C4002EB820203EB4203A3F13002F0E72E2BD3
S214023C5003D0002394F9001015E00134002306E097
S214023C60013403EB830301EB4301A1F1300394F922
S214023C700010A1F1300C5FFA8CFCBCF1090FEFD9F1
S214023C80E8E714F9011F6C29FBD06829F9D0252929
S214023C906ED021DB78291FDC58291DDB58392029F4
S214023CA01AD8DFE801F03E19191919191919191944
S214023CB01911281919191919191919191919581927
S214023CC01949193319193E002B681A1D2A6093F9EF
S214023CD0001013A8FFF75EFE0134169B002B4CDB88
S214023CE014F9011B002948D025293FF467AF13A811
S214023CF0FFF750FEF1E729680F1D2F600968019053
S214023D0000920A2213A8FFF7D5FEE5E729680F1DE1
S214023D102F600968019000920A2213A8FFF75AFE44
S214023D20DAE729680F1D2F600968019000921022B9
S214023D3013A8FFF74FFECFE72B681A1D2A601F68ED
S214023D4017F9011B0029C7D013A8FFF723FE169BFD
S214023D50002BF5DAC0E72B681A1D2A6019680023C3
S214023D60019308230093102213A8FFF733FEB3E74C
S214023D70252113A8FFF70EFEAEE7169B002B05DDE6
S214023D80159A32B9169B159A13441693169819B0BB
S214023D90F0BD03A93046FFF7E1FDF3E70EB400B528
S214023DA082B003AB53F8041B019301AAFFF7F8FE97
S214023DB002B05DF804EB03B07047FFFF00B583B0B6
S214023DC000230193044905480EF0C0FB01900198B8
S214023DD003B05DF804FB00BF7883070044D9FF1FD9
S214023DE008B502480EF0F8FA08BD00BF44D9FF1F16
S214023DF008B54FF440620021034849F00FF800204E
S214023E00024B186008BD00BFA058FE1F9C58FE1F3C
S214023E102DE9F04782B00446894616461F460A9D9B
S214023E20B5F5006F01D94FF400650121484648F008
S214023E301BF9824600285CD00021019100914A4677
S214023E4048F0ECFF2146504649F0EEF84FF00108E4
S214023E501EE00A202CF0C4F9019B01330193264B85
S214023E601B78002B36D1019BB342F2D300240AE022
S214023E703946224849F09CF80446009801300090E2
S214023E800A202CF0ADF914B9009BAB42F0D31CB358
S214023E90B8F1000F26D0019B23BBFFF7A9FF002332
S214023EA00093154A1370164A1370164A13704A4640
S214023EB0514615480EF016F980460028CFD0FFF777
S214023EC08FFF64202CF08CF9FFF778FF64202CF02B
S214023ED087F9DDE70024D6E7009BAB42D8D34FF044
S214023EE00108D5E7504648F0E3F8404602B0BDE880
S214023EF0F0874FF00108F8E7A164FE1FA058FE1FE6
S214023F00A264FE1FA064FE1F44D9FF1F08B54FF42B
S214023F1040620021024848F081FF002008BD00BF31
S214023F20984CFE1F08B590F9082000238360037999
S214023F30013B1F2B1AD8DFE803F01A2419101919AF
S214023F4019331919191919191937191919191919A2
S214023F501919191919191919193B17490B68581CF7
S214023F6008601649CA54164B00221A7008BD002271
S214023F70134B1A7013490B6801330B60124B1A600D
S214023F80F4E7124B01221A7000220D4B1A700E49EA
S214023F900B6801330B600B4B1A60FFF7B7FFE5E7C0
S214023FA0074B01221A70E1E7054B01221A70DDE782
S214023FB0034B01221A70D9E79C58FE1FA058FE1F19
S214023FC0A264FE1F9858FE1F944CFE1FA164FE1F9B
S214023FD02DE9F041A2B006460D4690461F468024C3
S214023FE02246002102A848F019FF2246002102A814
S214023FF048F014FF00962B46114A214602A848F0C4
S21402400063FEFFF781FB02AB02460E490020FFF774
S214024010C5FE0220FFF7BCFB38B90124C8202CF0ED
S214024020DFF8204622B0BDE8F08100230193009716
S214024030054B4246214602A8FFF7EAFE0446EDE794
S2140240406005070058050700C405070000487047CA
S214024050A464FE1F014B1878704700BF4B07FE1F73
S214024060014B1870704700BF4B07FE1F014B1870BC
S214024070704700BF4A07FE1F014B1878704700BF03
S214024080A467FE1F054B9B6C13F0020F03D10020A2
S214024090034B187070470120FAE700BF000804407F
S2140240A0A567FE1F10B50F4CA36F23F0011323F470
S2140240B0404343F00503A36764202CF091F8A36FF6
S2140240C023F0011323F4404343F00403A367642060
S2140240D02CF086F8A06CC0F34002034B1A70104610
S2140240E010BD00BF00080440A567FE1F10B5FFF70D
S2140240F0C3FF10B1114B187810BD114CE36F23F0BB
S214024100011323F4404343F00503E36764202CF0D5
S21402411067F8E36F23F0011323F4404343F00403EC
S214024120E36764202CF05CF8A36CC3F34003034AF5
S2140241301370FA202CF054F8DCE700BFA567FE1FC8
S2140241400008044038B50546002407E0FFF7AAFF3A
S2140241504FF47A702CF044F80134E4B2AC4205D243
S214024160FFF790FF0028F1D0012000E0002038BDC4
S214024170F8B5044615461E46069FFFF76BFFFFF787
S21402418075FF073CE4B2012C0BD97EB9FFF762FF3C
S214024190042814D0042D08D8DFE805F04A2615397D
S2140241A0510000203860FFF75BFFF8BD00233B603C
S2140241B00F20FFF7C7FF0420FFF752FFEAE70120B0
S2140241C0FFF74EFFE6E73B6801333B60FFF78EFFE3
S2140241D03B68022BE9D900233B600F20FFF7B2FFB2
S2140241E00120FFF73DFFE0E7FFF74CFF60B13B68B9
S2140241F001333B60022BD8D90220FFF731FFFFF7CD
S21402420075FF00233B60D0E7FFF74CFFCDE7FFF7D3
S21402421039FF50B13B6801333B600B2BC5D90023F5
S2140242203B600120FFF71CFFBFE7FFF73BFFBCE741
S214024230FFF728FF0028B8D0FFF758FFB5E7FFF7CB
S21402424021FF0028B1D1FFF72DFFAEE7014B18780A
S214024250704700BFD068FE1F10B504464FF4807248
S2140242600021044848F0DAFD034B1C70034B002281
S2140242701A7010BDCC67FE1FD068FE1FA867FE1F0F
S214024280F0B583B005460E4617461C460123019339
S2140242900020FFF7E1FFFEF72DFB3A46314628469F
S2140242A00DF006FF0190114B00221A600CE0142359
S2140242B001932BF0CDFD00900A2168462BF034FFC7
S2140242C00A490A6801320A60084A1268A24209D2FA
S2140242D0FFF7BCFF0028EAD000200190FFF7BCFFE2
S2140242E0FEF722FB019803B0F0BD00BFCC68FE1FAC
S2140242F0014B1878704700BFD168FE1F014B18703B
S214024300704700BFD168FE1F10B582B01C4601235D
S21402431001930DF0E7FE01900F4B00221A600CE0AD
S214024320142301932BF094FD00900A2168462BF08B
S214024330FBFE09490A6801320A60074A1268A2426D
S21402434007D2FFF7D5FF0028EAD000200190FFF73A
S214024350D5FF019802B010BDCC68FE1F30B583B001
S21402436001250195314C41F2111120682AF0C8F856
S214024370294620682AF0ECF8FEF7E6FA04460028FA
S2140243803CD00220FFF704FAF0B94FF4FA602BF0A3
S21402439027FF274C40F2111120682AF0B1F8254D6C
S2140243A06423032229462448FFF7AEFF01905723D1
S2140243B02B700420FFF7E0F9102120682AF0C8F8D5
S2140243C00024204603B030BD642303221B491A484A
S2140243D0FFF79AFF0190174B52221A704FF47A7029
S2140243E02BF0FEFE0020FEF7B5FA0020FEF7A6FA36
S2140243F02846FFF7C1F9FFF779FEE2E70220FFF74A
S214024400C7F968B940F21111094B18682AF078F812
S21402441000231A4619460A4800682AF0C7FAD0E767
S2140244200020FEF78BFA0124CBE700BFACBAFF1FD1
S2140244308CBAFF1F4C07FE1FE4CEFF1FD4050700F1
S21402444090BBFF1F08B50220FFF7A2F920B9012092
S214024450FEF774FA012008BD0020FEF76FFAFFF798
S214024460F9FD022804D10A202BF0BAFE0020F2E75A
S214024470FFF708FE0028F6D10220FFF789F9002888
S214024480F1D0FEF749FB082802D0FFF70BFEEAE759
S214024490FEF742FB0728F8D1E5E7FFFF0048704722
S2140244A0D468FE1F014B1878704700BFD458FF1F10
S2140244B030B54FF0000E4FF00C0C09E010F90C303E
S2140244C02F2B13D0002010E00EF1010E0CF1010C80
S2140244D08C4509D29E45F1D012F90E5010F90C40C7
S2140244E0A542F1D0002000E0002030BD0120FCE70C
S2140244F008B5002828D0184A0260184A4260184AAE
S2140245008260184AC260184A4261184A8261184A92
S214024510C261184A0262184A4262184A8262184AFD
S2140245200263184AC262184AC265184A8265184A65
S214024530C264184A0265184A8264184A4265184AD2
S2140245400264184A426408BD174B184A40F21F41DB
S214024550174828F09FFE00BFC97F0500FD7F0500B3
S2140245601D8005005D80050071800500398105000B
S2140245706D810500A9810500B1810500114A02007E
S2140245807949020019480200471603007116030013
S2140245902116030041160300E5150300FD1603006D
S2140245A0B115030069150300D8050700287F070028
S2140245B0F805070010B54FF0FF31134B18682AF0C4
S2140245C073FC01280CD10023032B12D80F4A40F6A5
S2140245D0046101FB032292F8002E1AB10133F3E7BD
S2140245E000240EE0094C01FB0344012384F8003E3C
S2140245F000E0002400231A461946034800682AF001
S214024600D5F9204610BD00BFD860FF1FDC60FF1F33
S21402461030B583B000230093019381B10C46174B4B
S2140246201B68174A126809896068FFF741FF20B1C4
S214024630226940F6FA539A4208D903B030BD114BAC
S214024640114A40F29121114828F024FE1049002018
S214024650FFF7A4FBFFF7AEFF05460028EDD0226960
S214024660E16848F03DFD2369C5F8FC3D03238DF85B
S21402467004300095684634F07DFDDEE7F4A3FF1FA4
S214024680F8A3FF1F180607004C7F0700F80507006F
S2140246903806070030B583B000230093019381B13A
S2140246A00C46174B1B68174A126809896068FFF7A1
S2140246B0FFFE20B1226940F6FA539A4208D903B0A7
S2140246C030BD114B114A40F2DF21114828F0E2FDBD
S2140246D010490020FFF762FBFFF76CFF0546002833
S2140246E0EDD02269E16848F0FBFC2369C5F8FC3D81
S2140246F006238DF804300095684634F03BFDDEE76D
S214024700F4A3FF1FF8A3FF1F18060700EC7E07009E
S214024710F80507006006070010B504464FF0FF31A3
S214024720084B18682AF0C0FB012800D010BD0021F3
S21402473084F8001E0B460A46024800682AF036F93C
S214024740F4E700BFD860FF1F08B534F0FFFC044949
S2140247500020FFF723FB00202BF0B0FA08BD00BFB5
S2140247608C06070008B5082814D8DFE800F0051400
S2140247701926321337133C001D490020FFF70EFBA3
S2140247801C490020FFF70AFB35F02AF80121002019
S21402479034F0ECFF08BD18490020FFF7FFFAF9E7EE
S2140247A016490020FFF7FAFA022035F033F80028FF
S2140247B0F0D11349FFF7F2FAECE719B10846FFF712
S2140247C0ABFFE7E70F4B104A40F25F210F4828F095
S2140247D061FD0121002034F0C9FFDBE70C4900200F
S2140247E0FFF7DCFAD6E70B490020FFF7D7FAD1E746
S2140247F0A4060700E0060700100707004C0707009C
S21402480088070700C00707003C7F0700F805070077
S214024810D80707000008070030B58FB000230B93B7
S2140248200C93089309930A930593069307930393AD
S214024830049348B3044600292DD00990ADF82810F9
S2140248408DF8202008AB0B9301230C932BF012FF5C
S21402485003900BAD0495C82307931E4B059303AB39
S214024860069322461C490020FFF798FA00210846C4
S2140248702CF042FA05AA29461848FDF744FD88B1ED
S214024880A22528460FB030BD154B164A40F2E2313B
S214024890154828F0FFFC154B124A40F2E331124845
S2140248A028F0F8FC4FF0FF3200920DAB00210846CC
S2140248B02CF024F8012801D0A225E2E79DF8345016
S2140248C00DB1A225DDE7224609490020FFF766FA68
S2140248D0D7E700BFF54802004C080700D83EFE1F87
S2140248E018080700147F0700F805070034080700B9
S2140248F07008070030B583B004460D4642680B7850
S2140249004BB1206828B10021009103232A782CF0AD
S21402491061F803B030BD136819895868FCF734FF94
S214024920EFE7006850B110B582B00024009403236C
S2140249300A7821462CF04EF802B010BD7047FFFFF1
S21402494030B583B005460C460B784BB1286828B1C3
S21402495000210091032322782CF03CF803B030BDEE
S21402496043681B681989586800230093014AFCF7BC
S214024970ABFEEBE7F54A020030B58FB0002409948F
S2140249800A940B940C940D9406940794089404AD20
S214024990049405940A90ADF82C109DF848108DF8F2
S2140249A024100C920D932BF065FE0490C8230893F6
S2140249B0154B06930795FCF7DBFD03280CD1002167
S2140249C008462CF099F906AA09A91048FDF7B9FC81
S2140249D040B1A0200FB030BD4FF0FF310320FCF7EE
S2140249E0D1FDECE74FF0FF32009203AB0021084600
S2140249F02BF084FF012801D0A020EBE79DF80C00E5
S214024A000028E7D0A020E5E723490200D83EFE1F93
S214024A1030B58FB000230B930C93089309930A9337
S214024A200593069307930393049338B3054661B33D
S214024A300990ADF828108DF8202008AB0B930123BF
S214024A400C932BF017FE03900BAB0493C82307932B
S214024A50214B059303AB0693FCF78AFD03281BD173
S214024A60002108462CF048F905AA0BA91B48FDF7B9
S214024A702CFCB8B1A12420460FB030BD184B194A01
S214024A804FF45471184828F005FC184B154A40F2AA
S214024A905131154828F0FEFB4FF0FF310320FCF79A
S214024AA071FDDDE741F2883300930DAB4FF0FF3224
S214024AB0002108462BF022FF012801D0A124DAE7C4
S214024AC09DF834400CB1A124D5E72A4608490020B7
S214024AD0FFF764F9CFE700BF41490200D83EFE1F48
S214024AE018080700007F0700F805070034080700CB
S214024AF09008070030B585B005460C4600238DF8B1
S214024B000F300DF10F0300931E23124A09896068C5
S214024B1032F02AF99DF80F3023B99DF80F3033B1E1
S214024B2005B030BD21462846FFF772FDF5E70DF1C8
S214024B300F0300931723084A2189606832F014F99C
S214024B409DF80F30002BEBD021462846FFF7A2FD3A
S214024B50E6E700BFAC080700CC08070010B510490E
S214024B600020FFF71BF934F0A9FE98B1002010BD13
S214024B704FF47A702BF034FBA4F57A7434F01EFEF0
S214024B80082801D0002CF3D134F018FE082804D0EF
S214024B900020ECE742F21074F0E70120E7E700BFDE
S214024BA0E408070010B510490020FFF7F7F834F0C4
S214024BB0ABFE98B1002010BD4FF47A702BF010FBBC
S214024BC0A4F57A7434F0FAFD082801D1002CF3D14A
S214024BD034F0F4FD082804D00120ECE742F2107409
S214024BE0F0E70020E7E700BF0809070010B5A0B00D
S214024BF000241E941F94029403940494059406A819
S214024C00FFF776FC43F6100221462E4848F006F9D6
S214024C102D4B2E4A126806A92D4834F04FFD68B176
S214024C200024012C15D02B490020FFF7B7F82521C8
S214024C302948FCF7A9FD204620B010BD2346019462
S214024C40009441F28832254925482BF003F80446A1
S214024C50E7E700230093234A25211F48FCF734FD8B
S214024C6004460128DFD100238DF87C301EA834F0DC
S214024C7081FA03E04FF47A702BF0B2FA34F09EFD1C
S214024C800A28D0D00828F5D002A834F09DFD059B4E
S214024C900193049B0093039B029A13490020FFF79B
S214024CA07DF84FF47A710220FCF76CFC0128E1D102
S214024CB0FFF754FF4FF0FF310320FCF763FCFFF7CA
S214024CC071FFD7E7DC60FF1F65470200F8A3FF1FEE
S214024CD05007FE1FA00907003C0907002C09070021
S214024CE049470200114602006409070000B583B076
S214024CF0FCF73EFC03282ED11A490020FFF74EF897
S214024D0019481A4B186048F0F9F9194B1860194AF5
S214024D10138800939378D27817490020FFF73EF85D
S214024D20012029F013FF154B186008B1FFF75EFF4C
S214024D30124B186808B12AF0B7FA0C4B186820B163
S214024D4029F0CAFA094B00221A6000202AF0B6FFA0
S214024D5003B05DF804FB4FF0FF310320FCF712FCB2
S214024D60CAE700BFDC0907009816FE1FF8A3FF1F5C
S214024D70F4A3FF1FB87F0700000A0700D860FF1FD2
S214024D8000B583B000230193012200924FF4C07253
S214024D90034904482AF05EFF03B05DF804FB00BF37
S214024DA0440A0700ED4C020070B5314B01221A701E
S214024DB03049314827F082FB00284CD12F4D40F273
S214024DC0C9422F49284648F08BF90020FBF7E8FD38
S214024DD04FF4D2622B49284648F082F90120FBF7AD
S214024DE0DFFDB3222849284648F07AF90420FBF76B
S214024DF0D7FD2C46254E0FCE0FC496E8030044F886
S214024E00040B21800320FBF7CBFDAC46204C0FCCD5
S214024E10ACE80F000FCCACE80F000FCCACE80F00EC
S214024E2094E803004CF8040B8CF800100220FBF701
S214024E30B7FD2C46174D0FCD0FC495E8030084E846
S214024E4003000520FBF7ACFD024658B9FBF78AFEC5
S214024E50FBF79EFE70BD02460F490020FEF79EFF3E
S214024E6000BEABE70C490020FEF798FF00BEEDE758
S214024E70D558FF1F648207008CD7FF1FD858FF1F24
S214024E80540A0700200F0700B01507006416070033
S214024E907C160700B41607004804070000B583B066
S214024EA00123019301202BF09BF9FBE7022800D097
S214024EB0704708B50249034826F0D2FC08BD00BF79
S214024EC094810700CCC2FF1F10B5144914480BF09A
S214024ED0D1FE38B91349144846F0B6F9044630B93B
S214024EE0204610BD0121022001F01EFDF2E70D4909
S214024EF00D4846F0A5F958B90A490B4846F0A4F9F8
S214024F0004460028ECD00121022001F00DFDE7E75F
S214024F100121022001F008FDEEE700BF4C800700E9
S214024F209CCFFF1F588007001CCFFF1F10B586B00E
S214024F30002305930493039305A82CF0B9FA0346BD
S214024F4030B1124A124911607BB1184606B010BD44
S214024F502EF00CFC034618B10C4A0D491160F4E71A
S214024F6004A82EF059FC0346EBE70C46084648F028
S214024F70C5F803AB0193074B00930323421C21465B
S214024F80049828F0C7FD0346DFE700BF00A4FF1F12
S214024F909817FE1F1417070070B58EB00CAE0024CB
S214024FA00C940D9409AB09940A940B9407AD0794DC
S214024FB0089404940594069403940A91ADF82C2060
S214024FC08DF824000C9301230D932BF053FB0790CE
S214024FD008964FF47A730693154B0493059521466B
S214024FE020462BF089FE04E0FCF7C2FA022815D010
S214024FF0D4B104AA0CA90F48FDF767F904460028A5
S214025000F2D14FF0FF32009203AB002108462BF09C
S21402501075FC9DF80C40002CEAD0E5E74FF0FF3116
S2140250200320FCF7AFFAE3E720460EB070BD00BFE0
S21402503039500200D83EFE1F30B583B004460D46F6
S21402504042680B7853B9136819895868012300938C
S21402505000230A4AFCF738FB012808D100210091F8
S21402506003232A7820682BF0B5FC03B030BD044B2E
S214025070044A40F2DB51044828F00CF9A950020019
S21402508024170700687F070050170700006850B112
S21402509010B582B00024009403230A7821462BF030
S2140250A099FC02B010BD70472DE9F84380460F46C2
S2140250B0002401E00134E4B2092C16D83E890C4BD8
S2140250C053F82450284648F019F88642F2D1324660
S2140250D07968284647F0DBFE0028EBD1054B53F8EB
S2140250E02430394640469847E4E7BDE8F88300BFD7
S2140250F08807FE1F847F070030B5A3B00C46412206
S214025100002111A847F08AFE002510954022294664
S214025110684647F083FE15492846FEF73FFE1023F1
S2140251208DF844302269E1680DF1450047F0C1FE72
S214025130012310AA11A90E48006829F021FD227841
S2140251400C492846FEF72AFE62780B492846FEF7E7
S21402515025FE2269E168684647F0ABFE6A460749C3
S2140251602846FEF71BFE23B030BD00BF6C170700B3
S214025170C8C2FF1F841707009C170700B017070056
S21402518030B5A3B00C464122002111A847F046FED6
S2140251900025109540222946684647F03FFE1549ED
S2140251A02846FEF7FBFD0F238DF844302269E1689E
S2140251B00DF1450047F07DFE012310AA11A90E4805
S2140251C0006829F0DDFC22780C492846FEF7E6FD49
S2140251D062780B492846FEF7E1FD2269E1686846D7
S2140251E047F067FE6A4607492846FEF7D7FD23B012
S2140251F030BD00BF6C170700C8C2FF1F8417070028
S2140252009C170700B017070030B5A3B00D46412221
S214025210002111A847F002FE0024109440222146E5
S214025220684647F0FBFD12492046FEF7B7FD072306
S2140252308DF84430012310AA11A90E48006829F0FF
S2140252409FFC2A780C492046FEF7A8FD6A780B498F
S2140252502046FEF7A3FD2A69E968684647F029FE5C
S2140252606A4607492046FEF799FD23B030BD00BFC7
S2140252706C170700C8C2FF1F841707009C17070099
S214025280B017070030B5A3B00D464122002111A881
S21402529047F0C4FD0024109440222146684647F099
S2140252A0BDFD12492046FEF779FD06238DF84430EF
S2140252B0012310AA11A90E48006829F061FC2A7879
S2140252C00C492046FEF76AFD6A780B492046FEF72F
S2140252D065FD2A69E968684647F0EBFD6A460749B4
S2140252E02046FEF75BFD23B030BD00BF6C170700FB
S2140252F0C8C2FF1F841707009C170700B0170700D5
S21402530030B5A3B00D464122002111A847F086FD14
S2140253100024109440222146684647F07FFD124939
S2140253202046FEF73BFD05238DF84430012310AAE4
S21402533011A90E48006829F023FC2A780C49204659
S214025340FEF72CFD6A780B492046FEF727FD2A69F0
S214025350E968684647F0ADFD6A4607492046FEF70B
S2140253601DFD23B030BD00BF6C170700C8C2FF1F6B
S214025370841707009C170700B017070030B5A3B0C4
S2140253800D464122002111A847F048FD0024109442
S21402539040222146684647F041FD12492046FEF764
S2140253A0FDFC04238DF84430012310AA11A90E48EF
S2140253B0006829F0E5FB2A780C492046FEF7EEFC49
S2140253C06A780B492046FEF7E9FC2A69E9686846CE
S2140253D047F06FFD6A4607492046FEF7DFFC23B01A
S2140253E030BD00BF6C170700C8C2FF1F8417070036
S2140253F09C170700B017070030B5A3B00D46412230
S214025400002111A847F00AFD0024109440222146EC
S214025410684647F003FD12492046FEF7BFFC032309
S2140254208DF84430012310AA11A90E48006829F00D
S214025430A7FB2A780C492046FEF7B0FC6A780B498F
S2140254402046FEF7ABFC2A69E968684647F031FD5C
S2140254506A4607492046FEF7A1FC23B030BD00BFCE
S2140254606C170700C8C2FF1F841707009C170700A7
S214025470B017070030B5A3B00D464122002111A88F
S21402548047F0CCFC0024109440222146684647F0A0
S214025490C5FC12492046FEF781FC02238DF84430F3
S2140254A0012310AA11A90E48006829F069FB2A7880
S2140254B00C492046FEF772FC6A780B492046FEF736
S2140254C06DFC2A69E968684647F0F3FC6A460749B4
S2140254D02046FEF763FC23B030BD00BF6C17070002
S2140254E0C8C2FF1F841707009C170700B0170700E3
S2140254F030B5A3B00D464122002111A847F08EFC1C
S2140255000024109440222146684647F087FC114941
S2140255102046FEF743FC01238DF8443010AA11A959
S2140255200D48006829F02CFB2A780C492046FEF725
S21402553035FC6A780A492046FEF730FC2A69E96893
S214025540684647F0B6FC6A4606492046FEF726FC41
S21402555023B030BD6C170700C8C2FF1F84170700B0
S2140255609C170700B01707002DE9F0438FB00646D8
S214025570884617461D46179C002009900A900B90F5
S2140255800C900D900DF11C09079008900490059060
S2140255900690039001462BF0AFFB8DF82460CDF801
S2140255A02880ADF82C700C95169B0D932BF062F8A4
S2140255B007904FF47A730693194B0493CDF8149020
S2140255C01AE04FF0FF32009203AB002108462BF0A0
S2140255D095F99DF80C50BDB928460FB0BDE8F0838A
S2140255E04FF0FF310320FBF7CDFF13E0002DF3D081
S2140255F0631E002CF0DD1C4604AA09A90948FCF724
S214025600A0FE05460028DCD0002CEFDDFBF7B0FF3D
S2140256100228E5D0012EE9D101238DF82630E5E7F0
S2140256208D500200D83EFE1F70B5AAB00D46144635
S21402563050F8216040F2893200217F4847F0EEFBA5
S214025640013D062D00F2F680DFE805F0042834441A
S21402565070809800D4E90423CDE90423D4E9022318
S214025660CDE90223D4E90023CDE90023734A40F2B0
S2140256708931714847F028FB0446002C40F3DA8053
S214025680304647F03BFD02460323019300946A4BE3
S21402569031460120FFF768FF2AB070BDD4E9002327
S2140256A0CDE90023664A40F28931634847F00CFB95
S2140256B00446E2E7D4E90223CDE90223D4E9002333
S2140256C0CDE900235F4A40F289315B4847F0FCFA95
S2140256D00446D2E7D4E91023CDE91023D4E90E23F9
S2140256E0CDE90E23D4E90C23CDE90C23D4E90A2311
S2140256F0CDE90A23D4E90823CDE90823D4E9062311
S214025700CDE90623D4E90423CDE90423D4E9022310
S214025710CDE90223D4E90023CDE900234A4A40F228
S2140257208931454847F0D0FA0446A6E7D4E9022371
S214025730CDE90223D4E90023CDE90023434A40F20F
S21402574089313D4847F0C0FA044696E7D4E9062375
S214025750CDE90623D4E90423CDE90423D4E90223C0
S214025760CDE90223D4E90023CDE90023384A40F2EA
S2140257708931314847F0A8FA04467EE7D4E928235F
S214025780CDE92823D4E92623CDE92623D4E9242308
S214025790CDE92423D4E92223CDE92223D4E9202308
S2140257A0CDE92023D4E91E23CDE91E23D4E91C2308
S2140257B0CDE91C23D4E91A23CDE91A23D4E9182308
S2140257C0CDE91823D4E91623CDE91623D4E9142308
S2140257D0CDE91423D4E91223CDE91223D4E9102308
S2140257E0CDE91023D4E90E23CDE90E23D4E90C2308
S2140257F0CDE90C23D4E90A23CDE90A23D4E9082308
S214025800CDE90823D4E90623CDE90623D4E9042307
S214025810CDE90423D4E90223CDE90223D4E9002307
S214025820CDE900230B4A40F28931034847F04CFA8F
S214025830044622E701202FE704A4FF1F04180700EE
S21402584074180700B818070018190700341A07005A
S214025850941A0700241B070070B59CB0064615ACC8
S214025860624D0FCD0FC495E8070084E807000EAC22
S2140258705F4D0FCD0FC495E8070084E807000DF1D1
S2140258801C0C5C4C0FCCACE80F0094E80700ACE8AC
S21402589003002CF8022B120C8CF80020EC46564C17
S2140258A00FCCACE80F0094E80700ACE803002CF835
S2140258B0022B120C8CF8002056B33446013415A97C
S2140258C0204647F0A7FB58B36946204647F0A2FB9E
S2140258D0002836D00EA9204647F09CFB002841D06F
S2140258E06946204647F096FB00284CD007A920467A
S2140258F047F090FB0546002856D06946204647F0FA
S21402590089FB0546002860D0002528461CB070BDDD
S2140259103A4A3B490020FEF741FA00BEFF25F4E76B
S2140259200121032001F000F80121042000F0FCFF11
S2140259300021052000F0F8FF32490020FEF72EFA7B
S214025940C8E70121032000F0EFFF0121042000F048
S214025950EBFF0121052000F0E7FF2B490020FEF7B0
S2140259601DFAB7E70121032000F0DEFF0021042024
S21402597000F0DAFF0121052000F0D6FF23490020BF
S214025980FEF70CFAB2E70121032000F0CDFF012159
S214025990042000F0C9FF0121052000F0C5FF1C49C4
S2140259A00020FEF7FBF9A1E70021032000F0BCFF70
S2140259B00121042000F0B8FF0121052000F0B4FF09
S2140259C014490020FEF7EAF99FE70121032000F0C0
S2140259D0ABFF0121042000F0A7FF0121052000F003
S2140259E0A3FF0D490020FEF7D9F98EE7BC1E07007B
S2140259F0D81E0700F41E0700101F07002C1E070003
S214025A0048040700501E0700601E0700741E0700A9
S214025A10841E0700981E0700A81E070070B58AB0ED
S214025A20064605AC1D4D0FCD0FC42B682380EC46F1
S214025A301B4C0FCCACE80F0023682CF8023B1B0C67
S214025A408CF800308EB13446013405A9204647F062
S214025A50E1FA054688B16946204647F0DBFA054674
S214025A6098B1002528460AB070BD0E4A0E4900209D
S214025A70FEF794F900BEFF25F4E7012100F054FF7B
S214025A800A490020FEF78AF9ECE70021084600F0F2
S214025A904BFF07490020FEF781F9E3E7501F070096
S214025AA0641F07002C1E0700480407002C1F07006F
S214025AB03C1F0700FFFFFFFFF0B585B000240394EC
S214025AC04FF0FF330093AC4B2246214620462AF085
S214025AD015FFFFF769F9A9492046FEF75FF9A84DB9
S214025AE0284647F00BFB0246A64E2946304647F0AC
S214025AF0F7FAA54D284647F001FB0246A34F294672
S214025B00384647F0EDFAA24D284647F0F7FA024625
S214025B102946A04847F0E4FA9F4D2F60AE6038460B
S214025B2047F0ECFA01306860304647F0E7FA013099
S214025B30E8602C616C6103A827F0A4FB9DF80E3088
S214025B409DF80D20019200939DF80F30934A9449D8
S214025B502046FEF723F9FFF7B7F978BB002007F0D7
S214025B60FFFC0446002835D100F0C4FF0446002896
S214025B703BD1894828F0AAFA0446002840D1FFF70C
S214025B80D5F90446002846D1FBF7D4FC0446012882
S214025B904CD10120FBF7F2FC04214FF4C050FBF776
S214025BA0B7FCFFF7EDF801217E4B186828F0D0FC11
S214025BB0FBF7DEFC032846D101244CE00446012113
S214025BC0022000F0B1FE224677490020FEF7E6F8F2
S214025BD000BEC3E70121022000F0A6FE224672495B
S214025BE00020FEF7DBF800BEBEE70121022000F02F
S214025BF09BFE22466C490020FEF7D0F800BEB8E7AE
S214025C000121022000F090FE224667490020FEF79E
S214025C10C5F800BEB3E70121022000F085FE224649
S214025C2061490020FEF7BAF800BEADE70121022066
S214025C3000F07AFE002CACD022465B490020FEF72C
S214025C40ADF800BEA5E74FF0FF310320FBF79AFC44
S214025C50B2E70134E4B2092C11D8544B53F824505D
S214025C60284647F04BFA024629460120FFF794F9E8
S214025C700028EED12A464E49FEF790F8E9E74D494C
S214025C800020FEF78BF807E0C8224B494B4B1868FA
S214025C9029F058F8012809D0FBF76AFC0228F3D14C
S214025CA04FF0FF310320FBF76DFCEDE7444B1A681B
S214025CB0511C196043490020FEF770F83E4B1B78D2
S214025CC0013B0F2BE8D8DFE813F010008F00BA0074
S214025CD0FD007801F901590210008F00BA00FD009C
S214025CE07801F90159022B043C0400223649374B4D
S214025CF0186829F0A5F9012828D0354B00221A6029
S214025D005A609A60DA601A615A61012000F02AFE2F
S214025D102F4CD4E900232F490020FEF73FF8D4E9A0
S214025D2002232D490020FEF739F8D4E904232B4933
S214025D300020FEF733F8224601212948FFF774FCBB
S214025D400028A9D1012000F00DFEA5E72549002074
S214025D50FEF724F81C4DA86845F090FC1C4CC4E9DC
S214025D600001286845F08AFCC4E90201686845F02B
S214025D7085FCC4E90401C8E710BAFF1F781F0700B4
S214025D809820FE1F54B0FF1F9818FE1F54A8FF1F2E
S214025D901817FE1FD4A7FF1F78B9FF1F881F07001A
S214025DA08C1F07008CBAFF1F480407008807FE1FD7
S214025DB0382207006022070090A7FF1FC8C2FF1FF5
