S02900006177735F656B5F7261366D335F6F74615F6170705F776966695F646131363230302E737265630B
S21402020020720420A1D3040031D204009DD304003E
S2140202109DD304009DD304009DD304009DD3040007
S214020220000000000000000000000000490C03006F
S2140202309DD3040000000000610C0300BD0C030007
S21402024035C1040035BF040079BF0400BDBF0400F9
S21402025001C00400B92A0300612A0300212B03000F
S214020260652B0300C7CF040089B30400D5B304008E
S21402027039280300452703002D29030079290300A6
S21402028049C70400CDC604003928030045270300E9
S2140202902D2903007929030035C1040035C1040065
S2140202A035C1040045C00400000000000000000044
S2140202B00000000000000000000000000000000037
S2140202C00000000000000000000000000000000027
S2140202D00000000000000000000000000000000017
S2140202E00000000000000000000000000000000007
S2140206000348044B834202D0034B03B1184770479A
S214020610800DFE1F800DFE1F000000000548064BE1
S2140206201B1AD90F01EBA301491002D0034B03B1E9
S21402063018477047800DFE1F800DFE1F0000000049
S21402064010B5064C237843B9FFF7DAFF044B13B113
S2140206500448AFF300800123237010BD980DFE1FDF
S21402066000000000DCBF070008B5054B1BB10549BA
S2140206700548AFF30080BDE80840FFF7CFBF00BFD4
S214020680000000009C0DFE1FDCBF070008B50B4BE8
S2140206901B781BB90A4B1B78002BF8D0074B1B782C
S2140206A03BB90849002003F065FB0020044B187094
S2140206B008BD024B00221A700320F9E79628FE1F97
S2140206C09528FE1F20EF060030B583B000238DF874
S2140206D007302E4B1A682E4B19682E482BF0CAFF8D
S2140206E0044600283BD12C4B1D7835B12B4B1B788A
S2140206F0002BFBD0294B00221A700DF10703402273
S2140207002349096823482BF081FF044638BB9DF82D
S21402071007301BB1012B37D0022B23D0204B1B787E
S21402072033B3204B1B681A4A12681F4919482BF02C
S2140207308DFF044698B91A4B00221A7035B11B4B2E
S2140207401B78002BFBD0194B00221A704FF4006264
S214020750002117484CF0B6FA164B00221A802046A3
S21402076003B030BDFFF792FF04460028D6D0F6E766
S2140207700C4B1B68064A12680D4906482BF066FFAA
S21402078004460028DAD0EAE70124E8E74416FE1F0A
S2140207904C16FE1FECCCFF1FC07F07009428FE1FDE
S2140207A04016FE1F4816FE1FB415FE1F9328FE1F96
S2140207B0C84CFF1F9028FE1F08B51F4B1F4A1A6021
S2140207C01F4B80221A601F4B02221A6005280AD885
S2140207D0DFE800F0030F161D242B1B4B1B4A106884
S2140207E0186092889A801A4B01221A70FFF76CFFE3
S2140207F008BD184B154A1068186092889A80F2E76E
S214020800154B124A1068186092889A80EBE7134BD1
S2140208100E4A1068186092889A80E4E7104B0B4ADA
S2140208201068186092889A80DDE70E4B074A1068B7
S214020830186092889A80D6E74C16FE1F801F1040DA
S2140208404816FE1F4416FE1FBD15FE1F34EF060097
S2140208504016FE1FD115FE1FE515FE1FF915FE1FD9
S2140208600D16FE1F2116FE1F10B5264C8C22264999
S21402087020464CF085FB0522244904F109004CF081
S2140208805AFAF8B90522214921484CF054FAF8B927
S21402089005221E491F484CF04EFAF0B905221B49A4
S2140208A01D484CF048FAE8B9052218491B484CF096
S2140208B042FAE0B90522154919484CF03CFAD8B973
S2140208C0002010BD04F1090300221A601A71D9E74C
S2140208D00F4B00221A601A71DAE70E4B00221A60DA
S2140208E01A71DBE70C4B00221A601A71DCE70B4B1D
S2140208F000221A601A71DDE7094B00221A601A718B
S214020900DEE700BFB415FE1F801F104034EF06005E
S214020910D115FE1F0D16FE1FE515FE1FF915FE1F4B
S2140209202116FE1F174B4FF4C0621A6018221A7265
S214020930154A5A604FF4E0625A611C221A77134A2B
S2140209409A614FF480721A65042283F85820104A7E
S2140209505A6580219962022283F830200D48D862B7
S214020960D96383F8442080301864402058660120FA
S21402097083F86C0008489866996783F88020074ACF
S214020980DA677047B415FE1F40101040401610403C
S214020990401D1040401E1040401F1040801F104057
S2140209A038B50446FFF7BEFF5B4B01221A7014E00F
S2140209B0594B00221A70052C41D8DFE804F0315555
S2140209C084756593544B00221A70F4E7524B00224A
S2140209D01A70F0E701202FF077FB504950484CF090
S2140209E03BFA08B1002CE3D04E494D484CF034FA9D
S2140209F008B1012CE6D04C4949484CF02DFA08B112
S214020A00042CE3D0494B1B78002BE3D00D2144483D
S214020A104CF060F90028DDD03F4B00221A70CAE77E
S214020A20434B444A1A60444B4FF4C0621A60434B2D
S214020A3018221A603A484CF0B1FA414B1861FFF797
S214020A4043FE054600285CD12046FFF7B5FE054664
S214020A5000285BD13B49002003F08CF93A4900207C
S214020A6003F088F9284638BD314B384A1A60324BB3
S214020A704FF4E0621A60314B1C221A6028484CF090
S214020A808DFA2F4B5862DAE7294B314A1A602A4B05
S214020A904FF480721A60294B04221A6020484CF0E8
S214020AA07DFA274B1866CAE7214B2A4A1A60224B60
S214020AB080221A60214B02221A6019484CF06EFA04
S214020AC01F4BD864BBE71A4B234A1A601A4B802284
S214020AD01A601A4B02221A6011484CF05FFA184B41
S214020AE09863ACE7124B1D4A1A60134B40221A60F9
S214020AF0124B01221A600A484CF050FA104B586703
S214020B009DE71749002003F035F9ABE714490020AA
S214020B1003F030F9A6E700BF9228FE1F3CEF06005E
S214020B20C84CFF1F58EF060078EF0600C54CFF1FA3
S214020B304C16FE1F401010404816FE1F4416FE1F9D
S214020B40B415FE1FC4EF0600F8EF0600401610406C
S214020B50401D1040C01E1040401E1040401F104056
S214020B6094EF060010B5FFF77FFE20B90446FFF7A4
S214020B70D9FE204610BD034B034A40F239210348F2
S214020B802CF0FCFA04F20600B071070018F2060018
S214020B9070B5B0B0C022002168464CF093F8FFF75B
S214020BA063FE00283BD10546EC46BD4C0FCCACE8B4
S214020BB00F000FCCACE80F0094E80700ACE8030087
S214020BC02CF8022B120C8CF800206946002003F049
S214020BD0D1F80522B349B4484CF0ADF800285AD1F2
S214020BE0B24BB34C1A68596820464CF0C9F9B14961
S214020BF020464CF031F930B120464CF0CFF9AB4BE1
S214020C001B69984212D0AC49002003F0B3F8A64BF9
S214020C1000221A601A711225284630B070BDA74B02
S214020C20A74A40F2CF21A7482CF0A8FA024621464E
S214020C30A5484CF0A5F9A549002003F09BF82046EC
S214020C404CF0ACF90246002120464CF03BF8052257
S214020C5094499F484CF06FF8002858D1934B944C17
S214020C605A69996920464CF08BF99A4920464CF00D
S214020C70F3F830B120464CF091F98C4B5B6A9842FF
S214020C800FD09549002003F075F8914B00221A60A8
S214020C901A711225C0E78849002003F06BF8122566
S214020CA0BAE7024621468D484CF06AF98C49002084
S214020CB003F060F820464CF071F902460021204607
S214020CC04CF000F80522774986484CF034F80028A4
S214020CD040F0CA80754B764C1A6D596D20464CF022
S214020CE04FF9814920464CF0B7F830B120464CF017
S214020CF055F96E4B1B6E98420FD07C49002003F0CC
S214020D0039F8784B00221A601A71122584E7724964
S214020D10002003F02FF812257EE70246214674488B
S214020D204CF02EF97349002003F024F820464CF0CC
S214020D3035F90246002120464BF0C4FF05225949E8
S214020D406D484BF0F8FF002840F0A180574C584EF3
S214020D50A26AE16A30464CF013F930464CF01EF9AE
S214020D600246A36B984240F08880644C3146204687
S214020D704CF006F920464CF011F9013823560D2B9B
S214020D8078D05F49002002F0F5FF494C20464CF02F
S214020D9005F90246002120464BF094FF0522414900
S214020DA058484BF0C8FF002840F0C6803F4C404EE3
S214020DB0E26B216C30464CF0E3F830464CF0EEF82D
S214020DC00246E36C984240F0AD804F4C31462046D6
S214020DD04CF0D6F820464CF0E1F8431EE2560D2AB7
S214020DE05BD04A49002002F0C5FF314C20464CF049
S214020DF0D5F80246002120464BF064FF0522294919
S214020E0043484BF098FF002840F0A980274C284E14
S214020E10626EA16E30464CF0B3F830464CF0BEF827
S214020E200246636F984240F090803A4C3146204624
S214020E304CF0A6F820464CF0B1F8431EE2560D2AB6
S214020E4000F080803449002002F094FF33490020ED
S214020E5002F090FF164C20464CF0A0F80246002105
S214020E6020464BF02FFFD7E62049002002F082FFF3
S214020E701225D1E60022225483E72949002002F0F7
S214020E8079FF1D4B00221A601A711225C4E6244906
S214020E90002002F06FFF1225BEE60021E154A0E713
S214020EA030F2060034EF0600BD15FE1FB415FE1F15
S214020EB0B40DFE1F3CEF06006CF0060004F20600BE
S214020EC09471070018F206009020FE1F5CF20600DE
S214020ED0D115FE1F58EF0600FCF206009018FE1F02
S214020EE0ACF206000D16FE1F78EF06008CF3060025
S214020EF09017FE1F34F30600E515FE1F1017FE1F9F
S214020F00D0F30600F915FE1F9016FE1F60F40600C9
S214020F102116FE1F5016FE1FF0F406007CF806008F
S214020F2024F406001149002002F024FF104B002290
S214020F301A601A7112256FE60C49002002F01AFF99
S214020F40122569E60021E1547CE70A49002002F0F6
S214020F5011FF094B00221A601A7112255CE6054938
S214020F60002002F007FF122556E600BFB4F4060082
S214020F70F915FE1F50F506002116FE1F0378032BF7
S214020F8012D8DFE803F00A0E0602084B01221A7096
S214020F907047074B01221A707047064B01221A70DF
S214020FA07047054B01221A70704700BF9628FE1F35
S214020FB09528FE1F9428FE1F9328FE1F10B5C8B161
S214020FC00346EAB1C0685C68844200D308BB18894D
S214020FD00130B1FBF0FC00FB1C1111805A68013293
S214020FE05A601A891988B2EB510F0FD252001A8131
S214020FF0002010BD084B094A2C2109482CF0BEF8E7
S214021000084B064A2D2106482CF0B8F81981002014
S214021010EFE70120EDE700BF9CF50600E47107004C
S214021020B4F50600E0F5060008B528B10181028095
S214021030C3600023436008BD024B034A592103489C
S2140210402CF09CF8F8F50600C0710700B4F506000F
S2140210500B782BB97047013342689342FBD3704733
S2140210600023F9E708B52EF067FE024B1B68C01A8C
S21402107008BD00BFE03FFE1F00B591B01E4B0AAA96
S21402108093E8030082E803000DF1140E03F1080C46
S214021090BCE80F00AEE80F00DCF80030CEF80030F7
S2140210A000230093154B164A042119202DF068FBE5
S2140210B0144B1860C8B1134B059301F065FB124B35
S2140210C00F93124B0D93124B0C9300230E93029325
S2140210D0104B0193104B00930CAB0AAA05A90F48BC
S2140210E000F0DEFF11B05DF804FB0D4B0D4A4FF425
S2140210F0D8710D482CF042F8D07707006029FE1F01
S214021100A829FE1F442BFE1FE43FFE1F5D57050065
S2140211100B570500B511020065100200D03EFE1FF7
S2140211200CF606000472070020F60600F0B585B03D
S214021130054600248DF80F404FF0FF311B4B186810
S2140211402DF026FE264600E001340E2C23D804EBB2
S2140211508402174B03EB82031B89002BF4D0114643
S214021160134A02EB81020DF10F010091D268298920
S214021170686835F06DFD9DF80F70002FE4D00C4BBB
S21402118004EB840203EB820053F8223029464068BF
S21402119098473E46D8E700231A4619460348006891
S2140211A02DF078FB304605B0F0BD00BF142AFE1FB6
S2140211B0182AFE1F10B514461046FFF7B7FF20B9CF
S2140211C062682389D156D054D15410BD10B5044656
S2140211D00449002002F0CEFD204634F085FA0120B4
S2140211E010BD00BF4CF6060070B594B00646282225
S2140211F000210DEB02004BF065FD002406940794D7
S21402120008940994ADF8164003940494294B03936A
S21402121003AB0A93284B18680C904BF0BFFE0130C4
S2140212200D90264B1293264B1393234641F2883297
S2140212304FF4FA7106A8FFF7F7FE029418E00DF1D4
S2140212401602029906A8FFF7B9FE04462BE0BDF87F
S21402125016304FF47A7202FB03F31A4AA2FB0323F8
S21402126098092EF031FF002000E00120F8B9F4B909
S214021270154D42F2B3232A681449002002F07AFD83
S2140212804FF47A73019300930AAB42F2B3222968B1
S214021290304634F0E1F90028E7D0042102A801F034
S2140212A003FA0128CBD0002CD1D00020DEE714B000
S2140212B070BD00BF6CF606009C44FE1F7CF606005E
S2140212C088F60600D34D6210A044FE1F9CF6060068
S2140212D038B54FF0FF31244B18682DF059FD002524
S2140212E02C4600E001340E2C25D804EB84021F4B5A
S2140212F003EB82031B89002BF4D011461B4A02EB38
S21402130081021269012AEDD1184A02EB8102D268E3
S214021310174805EB450100EB81014A600B8105EB9E
S2140213204503012100F823101249002002F022FD95
S2140213300135ADB2D6E700231A4619460A480068B8
S2140213402DF0A8FA0DB9002038BD0B49084B0B60EA
S2140213504D600A4A00239360094B136051600948A6
S21402136000F09FFFF0E700BF142AFE1F182AFE1F98
S214021370AC28FE1FC4F60600A428FE1F9828FE1FEF
S21402138051100200D03EFE1F30B58BB00546002439
S2140213908DF80B40039404940594069407940894DD
S2140213A00994194B186804904BF0F8FDADF8140038
S2140213B03C23ADF80E30154B06933623ADF81C30A1
S2140213C01349204602F0D6FC0DF10B0300934FF4AE
S2140213D0FA63224603A90F4835F021FA00B90DB97F
S2140213E00BB030BD0C49204602F0C4FC9DF80B1031
S2140213F0084800F009FF0028F2D19DF80B30002BB8
S214021400EED1FFF765FFEBE7A444FE1FF8F60600F1
S21402141030F70600D03EFE1F60F70600F0B587B034
S214021420074600250295039504950595ADF80650E6
S2140214301F4B204A1A602B4641F288324FF4FA714B
S21402144002A8FFF7F1FD2E460FE03846FFF79CFF95
S21402145018B11748FFF7BAFE0FE01749002002F04E
S21402146089FC012507E005BBFEB91148FFF7BCFE63
S21402147004460128E9D0002CF5D12EF05DFC014689
S2140214800DF1060202A8FFF799FD06460028EAD1EA
S214021490BDF806304FF47A7202FB03F3074AA2FB4A
S2140214A0032398092EF010FEDDE7284607B0F0BDAC
S2140214B0E43FFE1FE83FFE1F90F70600D34D621082
S2140214C038B50446064B1870064D1F2128682CF0C6
S2140214D08BFF0121A14028682CF0AEFF38BD00BF6B
S2140214E0102AFE1F0C2AFE1F00B583B002460023F8
S2140214F001930091034904482EF020FB03B05DF8E7
S21402150004FB00BFBCF706008D15020008B50B4BA6
S2140215101B780BB1002008BD01202DF08BFA084B7A
S214021520186030B12CF0C0FE064B186018B10120CE
S214021530F1E70020EFE70020EDE700BF102AFE1FCC
S214021540142AFE1F0C2AFE1F014B1878704700BF94
S214021550102AFE1F08B5FFF7B3FF08BD08B9002022
S214021560704710B582B001248440009100231A46C9
S2140215702146054800682CF0A5FE044202D1002050
S21402158002B010BD0120FBE70C2AFE1F38B54FF053
S214021590FF310120FFF7E2FF3449002002F0EAFBA8
S2140215A0FFF760FD324B1860324B334A1A60334BFA
S2140215B0334A1A60334B344A1A60FFF75DFD10B3A4
S2140215C00420FFF77DFF2B4B186820B12CF0F8FDA6
S2140215D0284B00221A60294B186820B12CF0F0FD27
S2140215E0264B00221A60274B186820B12CF0E8FD23
S2140215F0244B00221A602549002002F0BBFB002083
S2140216002EF0D0FA38BDFFF709FF214B83F82A00E7
S2140216100CE02049002002F0ADFB1F48FFF7D6FD84
S2140216200120FFF7FBFE1A4B83F82A00184B93F8AB
S2140216302A30012BC4D10320FFF742FF144D28465F
S21402164000F0A0FD0446002385F82A300220FFF7AA
S21402165037FF002CDDD11149002002F08BFB284613
S21402166000F0E8FD0C48FFF7B1FDDFE7C4F706001F
S214021670E03FFE1FA444FE1F9016FE1FA044FE1F5E
S2140216801017FE1F9C44FE1F1072070080F806000B
S214021690D03EFE1F2CF80600E43FFE1FF0F70600C1
S2140216A02DE9F04780460E4691469A464FF0FF31A6
S2140216B0294B18682DF06CFB0F27002403E00F2F30
S2140216C00CD1274601340E2C28D804EB8403234D74
S2140216D005EB830CDCF80C100029F0D004EB840236
S2140216E01E4B03EB82031B89B342EBD132464046C4
S2140216F04BF021FB0028E5D107EB8703174A52F887
S21402170023304B45DED107EB8702144B03EB8203F3
S2140217105B685345D6D10F27012400E000240E2F24
S2140217200FD80E4B07EB870103EB8102C2F80C8041
S214021730168143F82190C2F804A01346089A1A614B
S214021740012400231A461946034800682DF0A2F821
S2140217502046BDE8F08700BF142AFE1F182AFE1F87
S21402176070B506460D464FF0FF31184B18682DF03F
S2140217700FFB002400E001340E2C1ED804EB840C70
S214021780134B03EB8C031B89AB42F4D1104B03EBD8
S2140217908C032A463146D8684BF0CDFA0028EAD1A7
S2140217A004EB84010A4800EB8102002340F8213052
S2140217B053609360D3601361DDE700231A4619462F
S2140217C0024800682DF066F870BD00BF142AFE1F9E
S2140217D0182AFE1F10B5C4B004464FF488720021C2
S2140217E068464BF06FFA204644B010BD38B50C463A
S2140217F0054660B159B1436DD3B1836DC3B1C36DB4
S214021800B3B1036EA3B1036D93B101201EE040F2A3
S21402181092330F4A0F49104805F0B6F92246294678
S2140218200E4805F0B1F90E4805F0AEF900200DE0BD
S2140218304FF46773064A0749074805F0A5F90948B1
S21402184005F0A2F9064805F09FF9002038BD00BF52
S2140218504C780700B0F80600BCF80600D4F806007C
S2140218607CF8060014F9060038B568B10D468446C1
S2140218700023132B1BD803F10C020CEBC202928836
S214021880AA4208D00133F4E71B4B1C4A4FF4C87136
S2140218901B482BF073FC0C330CEBC30C0CF104044A
S2140218A03CB16368A3B1238893B1204638BD0024B7
S2140218B0F6E740F29F13134A1349144805F064F9F9
S2140218C02946134805F060F9124805F05DF9ECE781
S2140218D040F2A3130B4A0C490C4805F055F962680E
S2140218E021880D4805F050F90A4805F04DF9002305
S2140218F0236063601C46D8E758F90600347907006F
S21402190070F906001C790700B0F80600BCF806005D
S214021910A8F906007CF80600C8F9060030B583B0C0
S2140219200C4600210091019188B10546016EA9B1CD
S214021930DCB18DF800200193A36813B16946E06814
S21402194098472B6E20469847B0B103B030BD124B75
S214021950124A40F21F3112482BF010FC114B0F4A6C
S2140219604FF448710E482BF009FC0F4B0B4A40F21D
S21402197021310B482BF002FC40F22F330B4A0C4964
S2140219800C4805F001F9227821460B4805F0FCF8D0
S2140219900A4805F0F9F8D8E758F906000079070072
S2140219A070F9060008FA060040FA0600F07807000A
S2140219B0B0F80600BCF8060054FA06007CF80600EA
S2140219C010B57BB18C461C46596891B19DF808301B
S2140219D0902B15D00023127AFFF7A0FF0023236076
S2140219E0636010BD084B094A4FF41E7108482BF07D
S2140219F0C5FB084B054A40F2792105482BF0BEFB91
S214021A00DCF804300233E6E780FA060010790700B5
S214021A1070F9060094FA0600F0B583B0178828B36A
S214021A200C46164649B3FFF7D5FE0546012380F855
S214021A300C31237803F0F002302A25D0622B28D00E
S214021A4029D9902B2CD0B02B2AD0702B28D040F23C
S214021A50D123224A2249234805F096F821782248C3
S214021A6005F092F8214805F08FF812E0204B214A43
S214021A704FF4277120482BF081FB204B1D4A40F281
S214021A809D211D482BF07AFBD0F804317268394646
S214021A90984703B0F0BD402B02D0502BF9D0D6E7C2
S214021AA039462846FFF7E0FE034638B12278009210
S214021AB0324621462846FFF783FFEAE74FF43173A2
S214021AC0064A0749074805F05FF839460C4805F00C
S214021AD05BF8064805F058F8DBE700BF4C790700CC
S214021AE0B0F80600BCF8060010FB06007CF80600FC
S214021AF0B8FA06006079070070F90600D0FA060008
S214021B00E4FA060038B540B10C466AB199B100F164
S214021B10640C02251421002319E0274B274A4FF4B0
S214021B20A77127482BF02AFB264B244A40F24F1176
S214021B3023482BF023FB244B204A4FF4A87120485D
S214021B402BF01CFB3CF83300A0420BD00133132BC6
S214021B501BD81429F6D13CF833000028F2D11946D6
S214021B600025EFE74FF4B773184A1949194805F0EC
S214021B700BF82146184805F007F8184805F004F84F
S214021B800925022D09D0284638BD002DF9D10CEBC7
S214021B90C1032CF831405A60F5E740F27D130B4A38
S214021BA00B490C4804F0F0FF21460D4804F0ECFF08
S214021BB00A4804F0E9FFE6E758F90600B07807009D
S214021BC070F9060040FA060038FB0600987807000F
S214021BD0B0F80600BCF806005CFB06007CF80600BF
S214021BE0CCFB06002DE9F84328B18846814600F171
S214021BF06405002416E0174B174A4FF45A7117482B
S214021C002BF0BCFA164B144A40F2733113482BF0F1
S214021C10B5FA002304224846FFF780FE0023EB5164
S214021C2073600134132C12D8E70005EBC40635F8AE
S214021C303430002BF5D071680029E3D0B8F1000FDC
S214021C40E7D00B78032BE4D0042BEAD1E1E7BDE81A
S214021C50F88300BF2CFC06005C78070070F90600CB
S214021C6048FC060008B5062813D0022817D0032819
S214021C7001D0042806D1C1B10B68CBB14B68CBB9F1
S214021C80002113E00C4B0D4A40F2AF310C482BF00A
S214021C9075FA11B10B6833B10121084607E0081E38
S214021CA018BF012003E00021F7E70021084608BD1F
S214021CB00021FBE70121F9E774FC06003C780700E7
S214021CC070F9060008B548B1014664310023132BAB
S214021CD00BD831F8332052B10133F8E7054B064AE8
S214021CE040F2311105482BF049FA002000E00120AD
S214021CF008BD00BF58F906000078070070F9060014
S214021D002DE9F843099CC9B1054616461F46884682
S214021D10DCB1002121606160A160E160022822D06E
S214021D203BD3C31EDBB2012B44D8AAB14046FFF711
S214021D30C9FF0146002840D1034628E0224B234A29
S214021D404FF4E07122482BF019FA224B1F4A40F258
S214021D50C1111F482BF012FA1F4B1C4A4FF4E571B3
S214021D601B482BF00BFAB2F8089009F10409137815
S214021D703BB90123D8F824204A4507D9FBB91946AE
S214021D8005E04046FFF79EFF0346F3E7002181F099
S214021D900101C8B2ABB1BDE8F8830123194625702C
S214021DA06660089AE260A76081F0010111F0FF0008
S214021DB0F1D0EFE701231946F1E70346EFE71946AC
S214021DC0EDE70220E7E700BF2CFC060018780700C4
S214021DD070F9060040FA0600F0FC060010B582B064
S214021DE0019148B1019971B1446D01A9006DA047F6
S214021DF080B1002002B010BD074B084A4FF40571AF
S214021E0007482BF0BBF9074B044A40F21521044859
S214021E102BF0B4F90320EDE758F90600EC7707003B
S214021E2070F9060040FA06002DE9F04182B00C4631
S214021E30098D71B3054617461E46E36D0998984705
S214021E408046002837D00190089B009333463A46D6
S214021E5021462846FFF754FF054690B1236E4046BA
S214021E60984720BB40F20133144A1549154804F03E
S214021E708BFE4146144804F087FE144804F084FEA4
S214021E8015E0099A41462046FFF7A8FF054670B1BD
S214021E90E4E740F20E33094A09490A4804F074FEA0
S214021EA00B4804F071FE094804F06EFE0125284630
S214021EB002B0BDE8F0810225F9E700BF28780700E6
S214021EC0B0F80600BCF8060008FD06007CF806001E
S214021ED02CFD0600F0B58DB005460E4617460DF1F0
S214021EE00C0C3C4C0FCCACE80F000FCCACE80F004F
S214021EF02368CCF8003000230193ADF80830C5B152
S214021F002C46EFB156B33378082B20D80CAA02EB36
S214021F10830353F8243C716801AA20469847054675
S214021F2040BB9DF8070030B3BDF80410C9B90020C5
S214021F3021E0294B294A4FF40C7129482BF01EF94F
S214021F40284B264A40F2312125482BF017F9264B1A
S214021F50224A40F2352122482BF010F93146234B13
S214021F60DAE732462046FFF7CDFD0546B0FA80F0A6
S214021F70400900E0002006B148B115B99DF80830C6
S214021F80A3B99DF80630F3B915B301231CE000236C
S214021F902A4631462046FFF7C1FCEEE794F82A307F
S214021FA0012B0BD094F80C31002BEAD0002384F8D6
S214021FB00C31002DF2D00B2DF4D1EFE7204634F091
S214021FC025FE0546EEE701233B7028460DB0F0BD20
S214021FD00023F9E7847907002CFC0600C87807007E
S214021FE070F9060050FD060064FD06005923020043
S214021FF0F0B583B00023019330B1054601A935F050
S21402200036FF044600270BE01D4B1E4A4FF4507164
S2140220101D482BF0B3F801A9284635F028FF0446E0
S2140220205CB321462846FFF71FFC06460028F2D07E
S2140220304368596801238B702246284634F050FCC8
S21402204007460028E7D00023024671682846FFF7B5
S21402205065FC00233360736040F255330B4A0C492B
S2140220600C4804F091FD384634F030FE01460A482A
S21402207004F08AFD094804F087FD384603B0F0BD37
S2140220802CFC06008878070070F9060078780700AE
S214022090B0F80600BCF806008CFD06007CF80600C8
S2140220A000284CD0F0B583B00C4616461D460746AF
S2140220B0002948D0002B4BD0089B002B4BD0099B05
S2140220C0002B4BD00B6853B34B6843B38B6833B3C8
S2140220D0CB6823B30B6913B34FF4887200214AF01E
S2140220E0F1FD00961F4B089A2946384634F036FB17
S2140220F0844650BB142200921B4B1C49384634F0CF
S21402210061FB844608BB099BC7F804310A9BC7F8E3
S214022110083150370FCC0FC723683B6015E040F2FA
S214022120E633134A1349144804F02EFD134804F00C
S2140221302BFD134804F028FD4FF0010C05E04FF08C
S214022140010C604670474FF0010C604603B0F0BDCC
S2140221504FF0010CF9E74FF0010CF6E74FF0010CD7
S214022160F3E700BF191A0200A844FE1FF844FE1F38
S21402217074790700B0F80600BCF80600B8FD060041
S2140221807CF8060030B583B000238DF80330044691
S21402219048B3036D4BB3002502E09DF8033033BB12
S2140221A02DBB00230193A36D322201A9206D98470F
S2140221B00DF1030201992046FFF78CFE0546002822
S2140221C0EBD040F227430B4A0B490C4804F0DCFCE8
S2140221D0284634F07BFD0146094804F0D5FC094840
S2140221E004F0D2FCD9E70125DAE70125D8E728462C
S2140221F003B030BDD8780700B0F80600BCF8060079
S214022200F0FD06007CF8060080B110B50446038D8A
S21402221073B131B10121FFF7E5FC2046FFF7E8FE76
S21402222007E00021FFF7DEFC002002E001207047F5
S214022230012010BDF0B583B00023019378B30646A3
S214022240036D13B9012028E07CB100220192B36D20
S21402225001A9306D9847044601990029F4D000235D
S21402226004223046FFF75AFBEEE706F1640500E06B
S2140222700134132C10D805EBC40735F83430002B84
S214022280F6D00023042279683046FFF747FB002386
S21402229045F834307B60EBE7002003B0F0BD012048
S2140222A0FBE770B582B006460D4614461146FFF7A8
S2140222B09DFA10B9012002B070BD29460320FFF72F
S2140222C0D1FC08B90120F6E76368A2680192009380
S2140222D023682A4631460320FFF7A6FDEBE770B5D2
S2140222E082B006460D4614461146FFF77FFA10B92D
S2140222F0012002B070BD29460420FFF7B3FC08B9DE
S2140223000120F6E76368A2680192009323682A46D2
S21402231031460420FFF788FDEBE770B582B006462B
S2140223200D4614461146FFF761FA10B9012002B0B5
S21402233070BD29460220FFF795FC08B90120F6E792
S2140223406368A2680192009323682A4631460220F7
S214022350FFF76AFDEBE7FFFF08B532B11346002030
S2140223601060908001221A7108BD034B034A322185
S21402237003482AF003FF00BF18FE0600C07A0700D3
S21402238030FE060070B508B30D461446064619B36D
S21402239042B30023136093800B784BBB4F231A4A39
S2140223A01A491B4804F0F0FB6A682989194804F0A8
S2140223B0EBFB194804F0E8FB22882946304634F045
S2140223C08FFA2B78C3B1E0B1002316E0134B144A00
S2140223D0432114482AF0D2FE134B114A44211148D5
S2140223E02AF0CCFE114B0E4A45210E482AF0C6FEB4
S2140223F034F01FFC2080D1E70023E3700123237111
S21402240070BD0123F9E700BF887A0700B0F806001E
S2140224108CFE0600A4FE06007CF806002CFC0600D5
S214022420A47A070030FE060078FE060018FE0600B4
S21402243070B5B8B10D4614460646C9B1F2B10023CE
S2140224401360938034F0F5FB034620806A6829689F
S214022450304634F024FAB0FA80F35B09E3700123C5
S214022460237170BD084B094A622109482AF086FE8C
S214022470084B064A632106482AF080FE064B034AAA
S214022480642103482AF07AFE2CFC06006C7A0700C8
S21402249030FE0600C4FE060018FE060070B5B8B18F
S2140224A00D4614460646C9B1F2B100231360938066
S2140224B034F0BFFB034620806A682968304634F051
S2140224C059FBB0FA80F35B09E3700123237170BDF8
S2140224D0084B094A7E2109482AF050FE084B064A54
S2140224E07F2106482AF04AFE064B034A802103480B
S2140224F02AF044FE2CFC06004C7A070030FE06004A
S214022500C4FE060018FE060070B582B090B10C46F6
S21402251015460646A1B1CAB101F10C0300938B68B9
S2140225204A68096834F07BF9B0B100232B60AB80AF
S21402253002B070BD114B124A9A2112482AF01EFEB2
S214022540114B0F4A9B210F482AF018FE0F4B0C4ADC
S2140225509C210C482AF012FEA9230D4A0D490E486A
S21402256004F012FB217B0D4804F00EFB0C4804F02D
S2140225700BFB217B3046FFF747FED6E72CFC060016
S214022580307A070030FE0600E0FE060018FE06005F
S214022590147A0700B0F806008CFE0600FCFE060061
S2140225A07CF8060010B548B114466AB134F003FB55
S2140225B000232360A3800123A37010BD054B064AA7
S2140225C0BD2106482AF0DAFD054B034ABE21034820
S2140225D02AF0D4FD2CFC0600F879070030FE06002F
S2140225E018FE060010B548B114466AB134F0BDF9BB
S2140225F000232360A3800123237110BD054B064AE6
S214022600D22106482AF0BAFD054B034AD3210348D5
S2140226102AF0B4FD2CFC0600E079070030FE060026
S21402262018FE060038B5C8B114460546036EDBB17F
S21402263002B3EC23124A1349134804F0A5FA1348CE
S21402264004F0A2FA124804F09FFA00232360A38043
S2140226500123A3702846FFF7EDFD38BD0D4B0E4A49
S214022660E8210E482AF08AFD0D4B0B4AE9210B4859
S2140226702AF084FD0B4B084AEA2108482AF07EFD20
S214022680A8790700B0F806008CFE060054FF060084
S2140226907CF806002CFC0600C479070030FE060013
S2140226A018FF060018FE060030B583B0002301931B
S2140226B00093F8B10C46054611B9002003B030BDB0
S2140226C001A82EF069FEB8B9019BBBB1684631F08D
S2140226D017F8A8B90098A8B1019BD3F8043122468E
S2140226E02946984780B9019B9B6B0098984768B922
S2140226F00120E3E70020E1E70020DFE70020DDE736
S2140227000020DBE70020D9E70020D7E70020D5E746
S21402271090B199B108B54FF47A7303FB02F20A4BF3
S214022720A3FB02320023920900682CF0B3F80128BA
S21402273014BF0020012008BD002000E00020012870
S21402274014BF002001207047D34D621090B108B527
S2140227500346A9B14FF47A7000FB02F20948A0FBC7
S2140227600202920918682CF061FA012814BF0020B0
S214022770012008BD0020012814BF00200120704758
S2140227800020F2E7D34D62101B4B1B7803B1704753
S21402279010B584B0A022002118484AF093FA00230C
S2140227A00093174B174A04210A202BF0E9FF164B19
S2140227B0186008B1002406E0144B154A5821154843
S2140227C02AF0DCFC0134092C10D80C4B03EB041362
S2140227D00393002203A90C48FFF79AFF0028F1D1C1
S2140227E00D4B0B4A61210B482AF0C8FC024B012212
S2140227F01A7004B010BD00BFB845FE1FC045FE1FCC
S2140228004845FE1F9045FE1FBC45FE1F70FF060092
S2140228100C7B070090FF0600D4FF060000B583B0CD
S21402282000230193094B1B78DBB2012B08D1024629
S21402283001A90748FFF78AFF019803B05DF804FB79
S214022840044B054A702105482AF098FCB845FE1F3D
S214022850BC45FE1FE4FF0600F87A070090FF06005C
S21402286000B583B00190124B1B78DBB2012B08D166
S214022870019B104A934216D3A032934207D30020FC
S21402288012E00D4B0D4A83210D482AF077FC0022F8
S21402289001A90C48FFF73CFF30B90B4B074A8D21C4
S2140228A007482AF06BFC002003B05DF804FB00BF6B
S2140228B0B845FE1FC045FE1FE4FF0600E07A07008B
S2140228C090FF0600BC45FE1FFCFF0600024B1A687E
S2140228D0024B1A60704700BF6846FE1F6446FE1F22
S2140228E0044B1968044A1368CB1A04480360116043
S2140228F0704700BF6846FE1F6446FE1F6046FE1F06
S21402290008B5FFF7EDFF08BD014B1878704700BF0A
S2140229106C46FE1F014B1870704700BF6C46FE1FC8
S214022920014B1878704700BF6D46FE1F014B1870AA
S214022930704700BF6D46FE1F08B50D4B1B780BB1E6
S214022940012008BD0B490C482AF0AAF90028F8D144
S2140229500A4909482AF02EFB0028F2D106482AF036
S21402296099F80028EDD1024B01221A70E9E700BF60
S2140229707646FE1F8C7D0700C4C4FF1F787D0700C5
S21402298010B582B0012301931D4A10211D482AF07A
S2140229908AF80190019BFBB9194B1B8807EE903A07
S2140229A0B8EEE77ADFED186A27EE267ADFED176AC9
S2140229B027EE267A164B83ED007AF8EE677A9FEDBD
S2140229C0157A67EE877A144BC3ED007A134B9B7821
S2140229D023B1019802B010BD0198FBE7104B00220C
S2140229E01A70084C20462AF05AF80190019B20469D
S2140229F02AF0A2F90190019B002BEAD00198E9E7A0
S214022A007446FE1FC4C4FF1F333353400000803990
S214022A107046FE1FDE3CD53C4007FE1F8C7D07003D
S214022A207646FE1F837813B9014B01221A7070474F
S214022A306E46FE1F10B5A2B0FFF77EFF00240F4BB6
S214022A401C70092C08D80A202DF03EFB0B4B1B7875
S214022A5013B90134E4B2F4E7FFF792FF084B1C887F
S214022A60084B186848F07EFDCDE900012346064A69
S214022A707F2102A84AF09CF822B010BD6E46FE1FC7
S214022A807446FE1F7046FE1F0C000700014B93EDB6
S214022A90000A70474007FE1F08B50549054828F09A
S214022AA0B3FC054A136923F00103136108BD00BF96
S214022AB0B07D0700E8C4FF1F00B001400048704721
S214022AC07846FE1F10B5054C204628F0A3FCFFF7FB
S214022AD0F5FF0146204628F0A5FC10BDE8C4FF1FFE
S214022AE010B10279014B1A70704700BF7F46FE1F75
S214022AF0014B1878704700BF4807FE1F10B582B01A
S214022B000023ADF804308DF804008DF80510094A4C
S214022B10BDF804101180084A1370022201A9074862
S214022B2029F007F8064C20600A202DF0CDFA20681E
S214022B3002B010BD7C46FE1F7F46FE1F84C4FF1FE8
S214022B404407FE1F10B582B000230193A04B1870F5
S214022B50A04B1B78834200F0D6830446102833D855
S214022B60DFE810F09401B801DC01000211003D001C
S214022B70240213013A0148026C02C802EC0248031E
S214022B806C039700B90000210220FFF7B7FF0190FF
S214022B9000210420FFF7B2FF019B03430193FF21AC
S214022BA00620FFF7ABFF019B034301939621052006
S214022BB0FFF7A4FF019B0343019300210720FFF7C1
S214022BC09DFF019B03430193824B1C70022000F081
S214022BD0CBFD002840F08E83019802B010BD002184
S214022BE00420FFF78BFF0190FF210620FFF786FFE8
S214022BF0019B0343019396210520FFF77FFF019B6C
S214022C000343019300210720FFF778FF019B03434C
S214022C10019320210220FFF771FF019B03430193DA
S214022C2040210120FFF76AFF019B03430193242101
S214022C301020FFF763FF019B034301932421112019
S214022C40FFF75CFF019B0343019324211220FFF749
S214022C5055FF019B0343019324211620FFF74EFFE5
S214022C60019B0343019324211720FFF747FF019B93
S214022C700343019324211820FFF740FF019B0343DF
S214022C80019300211C20FFF739FF019B03430193A8
S214022C909AE700210220FFF731FF0190FF2104206E
S214022CA0FFF72CFF019B0343019300210620FFF749
S214022CB025FF019B03430193FF210520FFF71EFF1B
S214022CC0019B0343019300210720FFF717FF019B97
S214022CD00343019378E7FF210420FFF70FFF0190DB
S214022CE000210620FFF70AFF019B03430193FF2101
S214022CF00520FFF703FF019B0343019300210720F2
S214022D00FFF7FCFE019B0343019320210220FFF7FD
S214022D10F5FE019B0343019340210120FFF7EEFEDF
S214022D20019B0343019368211020FFF7E7FE019BF6
S214022D300343019368211120FFF7E0FE019B034342
S214022D40019368211220FFF7D9FE019B03430193EA
S214022D5068211620FFF7D2FE019B034301936821E8
S214022D601720FFF7CBFE019B03430193682118202F
S214022D70FFF7C4FE019B0343019300211C20FFF7CB
S214022D80BDFE019B034301931EE700210220FFF7CD
S214022D90B5FE0190FF210420FFF7B0FE019B03431E
S214022DA00193FF210620FFF7A9FE019B034301932F
S214022DB000210520FFF7A2FE019B03430193002199
S214022DC00720FFF79BFE019B03430193FCE600BF2F
S214022DD04807FE1F4907FE1FFF210420FFF78EFE4D
S214022DE00190FF210620FFF789FE019B0343019312
S214022DF000210520FFF782FE019B03430193002179
S214022E000720FFF77BFE019B03430193202102204C
S214022E10FFF774FE019B0343019340210120FFF755
S214022E206DFE019B0343019368211020FFF766FEA7
S214022E30019B0343019368211120FFF75FFE019B6C
S214022E400343019368211220FFF758FE019B0343B8
S214022E50019368211620FFF751FE019B034301935D
S214022E6068211720FFF74AFE019B0343019368215E
S214022E701820FFF743FE019B0343019300211C2009
S214022E80FFF73CFE019B034301939DE600210220CF
S214022E90FFF734FE019B03400193FF210420FFF756
S214022EA02DFE019B03400193FF210620FFF726FE1D
S214022EB0019B03400193FF210520FFF71FFE019BA4
S214022EC00340019300210720FFF718FE019B0340F1
S214022ED0019379E600210220FFF710FE019B0340D2
S214022EE0019300210420FFF709FE019B0340019392
S214022EF0FF210620FFF702FE019B034001930021FB
S214022F000520FFF7FBFD019B0340019300210720EC
S214022F10FFF7F4FD019B0340019355E600210220D2
S214022F20FFF7ECFD019B0340019300210420FFF70D
S214022F30E5FD019B0340019300210620FFF7DEFD1D
S214022F40019B03400193FF210520FFF7D7FD019B5C
S214022F500340019300210720FFF7D0FD019B0340A9
S214022F60019331E600210220FFF7C8FD019B0340D2
S214022F700193FF210420FFF7C1FD019B034001934B
S214022F8000210620FFF7BAFD019B034001930021B2
S214022F900520FFF7B3FD019B0340019300210720A4
S214022FA0FFF7ACFD019B034001930DE600210220D2
S214022FB0FFF7A4FD019B0340019300210420FFF7C5
S214022FC09DFD019B0340019300210620FFF796FD1D
S214022FD0019B0340019300210520FFF78FFD019B13
S214022FE00340019300210720FFF788FD019B034061
S214022FF00193E9E500210220FFF780FD019B0340D3
S214023000019377210420FFF779FD019B034001938A
S21402301000210620FFF772FD019B03400193FF216A
S2140230200520FFF76BFD019B03400193002107205B
S214023030FFF764FD019B03400193C5E57721042059
S214023040FFF75CFD019B0340019300210620FFF77A
S21402305055FD019B03400193FF210520FFF74EFD1E
S214023060019B0340019300210720FFF747FD019BC8
S2140230700340019320210220FFF740FD019B0340FD
S214023080019340210120FFF739FD019B0340019384
S21402309024211020FFF732FD019B034001932421D7
S2140230A01120FFF72BFD019B0340019324211220E0
S2140230B0FFF724FD019B0340019324211620FFF70E
S2140230C01DFD019B0340019324211720FFF716FDE7
S2140230D0019B0340019324211820FFF70FFD019B5B
S2140230E00340019300211C20FFF708FD019B0340CB
S2140230F0019369E500210220FFF700FD019B0340D2
S2140231000193AA210420FFF7F9FC019B03400193D7
S214023110AA210620FFF7F2FC019B03400193AA2195
S2140231200520FFF7EBFC019B0340019300210720DB
S214023130FFF7E4FC019B0340019345E5AA21042026
S214023140FFF7DCFC019B03400193AA210620FFF750
S214023150D5FC019B03400193AA210520FFF7CEFC74
S214023160019B0340019300210720FFF7C7FC019B48
S2140231700340019320210220FFF7C0FC019B03407D
S214023180019340210120FFF7B9FC019B0340019304
S21402319068211020FFF7B2FC019B034001936821CF
S2140231A01120FFF7ABFC019B03400193682112201C
S2140231B0FFF7A4FC019B0340019368211620FFF74A
S2140231C09DFC019B0340019368211720FFF796FCA4
S2140231D0019B0340019368211820FFF78FFC019B97
S2140231E00340019300211C20FFF788FC019B03404B
S2140231F00193E9E400210220FFF780FC019B0340D3
S214023200019366210420FFF779FC019B034001939A
S214023210FF210620FFF772FC019B03400193002169
S2140232200520FFF76BFC019B03400193002107205A
S214023230FFF764FC019B03400193C5E4662104206A
S214023240FFF75CFC019B03400193FF210620FFF77A
S21402325055FC019B0340019300210520FFF74EFC1D
S214023260019B0340019300210720FFF747FC019BC7
S2140232700340019320210220FFF740FC019B0340FC
S214023280019340210120FFF739FC019B0340019383
S21402329068211020FFF732FC019B0340019368214E
S2140232A01120FFF72BFC019B03400193682112209B
S2140232B0FFF724FC019B0340019368211620FFF7C9
S2140232C01DFC019B0340019368211720FFF716FCA3
S2140232D0019B0340019368211820FFF70FFC019B16
S2140232E00340019300211C20FFF708FC019B0340CA
S2140232F0019369E4FFF7FCFB014604230822034816
S21402330000F0F0FD68E4002067E400BF3400070028
S21402331030B583B0104B93E8030002AB03E9030019
S21402332000242546072C11D804F108036B4413F831
S214023330080CFFF707FC002814BF0125002505D15D
S214023340C8202CF0C1FE0134E4B2EBE715B9034BFA
S21402335001221A7003B030BD247B07007E46FE1F92
S21402336000B583B0012301934749484828F0EEFA96
S214023370019020210020FFF7C1FB019B034001932F
S21402338000210220FFF7BAFB019B034001930821AC
S2140233900320FFF7B3FB019B03400193FF210420A8
S2140233A0FFF7ACFB019B03400193FF210620FFF7CA
S2140233B0A5FB019B03400193FF210520FFF79EFB1F
S2140233C0019B0340019300210720FFF797FB019B17
S2140233D00340019300210A20FFF790FB019B034064
S2140233E0019300210B20FFF789FB019B0340019309
S2140233F000210C20FFF782FB019B0340019304216E
S2140234001020FFF77BFB019B034001930421112050
S214023410FFF774FB019B0340019304211220FFF780
S2140234206DFB019B0340019300211620FFF766FB0C
S214023430019B0340019300211720FFF75FFB019BCE
S2140234400340019300211820FFF758FB019B03401D
S214023450019307211D20FFF751FB019B03400193B7
S21402346000211C20FFF74AFB019B03400193FFF754
S2140234704FFF0520FFF766FB019B0340019301986F
S21402348003B05DF804FB00BF487D070084C4FF1F3D
S2140234900B78303B03EB83034A78303A02EB430364
S2140234A0C360CB78303B03EB83020B79303B03EBF4
S2140234B04203013B03618A79303ACB79303B4FF0C5
S2140234C0640C0CFB03F34FF47A7C0CFB02330A7A8F
S2140234D0303A02EB820203EB42034A7A303A134452
S2140234E0A3F26C734361CB7A303B03EB83030A7B14
S2140234F0303A02EB430383608B7B303B03EB830360
S214023500CA7B303A02EB430343604B7C303B03EB0F
S21402351083038A7C303A02EB430303607047FFFF63
S2140235200378022B00D07047024A138801331380B7
S214023530F9E700BFCC46FE1F014B1888704700BF54
S214023540CC46FE1F10B588B020220021684649F0FE
S214023550B9FBEC46124C0FCCACE80F002368CCF853
S2140235600030104C69462046FFF792FF21460E486F
S21402357027F0FAFD58B90D490B4827F037FE0446E6
S21402358050B90B4B01221A60204608B010BD044603
S214023590084800F071F8F7E7074800F06DF8F3E71F
S2140235A040000700A846FE1FF8C4FF1F8446FE1F01
S2140235B08046FE1F540007007000070010B50E215B
S2140235C0054827F033FD044608B9204610BD0348D7
S2140235D000F052F8F9E700BFF8C4FF1F8C0007009E
S2140235E008B5044827F05EFC00B908BD024800F0A2
S2140235F043F8FAE7F8C4FF1FB400070010B51649EF
S214023600164827F0A9FE48B9FFF79CFFFFF7D6FF3A
S214023610044688B9124800F02FF810BD0446114837
S21402362000F02AF8104800F027F822460F4900203A
S21402363000F0A0FB00BEE7E7FFF7D2FF0C4800F061
S2140236401BF80C4800F018F822460849002000F043
S21402365091FB00BEDEE700BFC47D0700F8C4FF1F73
S21402366038010700D400070020010700EC0007001D
S2140236708C0007000C01070070B5C4B00546FFF7C2
S2140236805BFF144EA6FB0034C4F3CF24FFF754FFAF
S214023690A6FB0036F60A4FF4616303FB16039BB2E1
S2140236A00D4AA2FB031251090A46C1EB0111A3EB14
S2140236B081039BB20295019300922346074AFB219F
S2140236C004A849F075FA04A9002000F053FB44B0A0
S2140236D070BD00BFC5B3A2918988888854010700CF
S2140236E070B582B0164D4FF480720021284649F01C
S2140236F0E9FAFFF721FF134EA6FB0034C4F3CF24EA
S214023700FFF71AFFA6FB0036F60A4FF4616303FBC7
S214023710160080B20C4BA3FB00235A091346C2EBD9
S2140237200212A0EB820080B2019000932346074A61
S214023730FB21284649F03CFA284602B070BD00BF7D
S214023740D046FE1FC5B3A291898888886C010700FF
S214023750014B1870704700BFD347FE1F014B187805
S214023760704700BFD347FE1F012803D0022804D0AB
S21402377000207047024B18787047024B1878704743
S214023780D247FE1FD147FE1F014B1878704700BF75
S214023790D047FE1F0369C268934204D881688A1A1A
S2140237A01344581E7047981A013870472DE9F8439B
S2140237B0044688461646C5688768A7EB05099145FC
S2140237C009D94068284449F0DBFBBFF35F8F3544D4
S2140237D0E560BDE8F88340684A46284449F0D0FBD5
S2140237E0ED1B35442A4608EB0901606849F0C8FB20
S2140237F0BFF35F8FE560ECE72DE9F843064688469F
S2140238001746C5684FF000091AE05B1B5A1EB368DC
S2140238105C1B944228BF1446BC4228BF3C467068D4
S21402382022464146284449F0ABFBA144A0443F1B34
S2140238302544B368AB420BD0BFF35F8FF5604FB140
S21402384033699D42E1D3B2685B1B1A44013ADEE754
S2140238500025F1E74846BDE8F883FFFF10B5154C92
S214023860A8220021204649F02DFA03232361636132
S214023870114AA261114BE3614FF480632362002375
S214023880A3626362E36222660D4A62661022A26641
S2140238902367E3666367BFF35F8F06E0C3F10F0239
S2140238A008498956034AD15401330F2BF6D9BFF380
S2140238B05F8F10BDE44BFE1F7C010700E447FE1F2E
S2140238C0D447FE1F2C7B0700F8B50F461646441C4D
S2140238D004EB4404164B03EBC40400EB400003EB7A
S2140238E0C003DD6A012D0ED0022D1AD0F5B920468E
S2140238F0FFF750FF864212D8324639462046FFF777
S21402390055FF35460BE02046FFF744FF3546864214
S21402391028BF05462A4639462046FFF747FF28466F
S214023920F8BD2046FFF768FF0546F8E70025F6E7EC
S214023930E44BFE1FF8B504460D4616460A4B1B78A6
S2140239405BB2532B0DD1EFF311874FF0200181F3B9
S2140239501188324629462046FFF7B6FF87F31188BC
S214023960F8BDFFF77BFFEEE7E44BFE1F10B50446FB
S2140239708268531C4068834205D820688154A3603D
S214023980E3680133E360A26863689A4200D010BD20
S21402399021682069FFF7CEFFA368984203D04FF054
S2140239A0FF33E360F3E70023A360F0E72DE9F84F67
S2140239B081460F4615461E46DDF828A00B9A0B4692
S2140239C04FF0010803E0B3FBF5F308F10108AB4240
S2140239D0F9D2B04500D2B04612F0010B18D1BAF1B6
S2140239E0000F15D012F0020F02D0BEB1202400E064
S2140239F02024BAF1000F0BD0C24509D90AF1FF3ACA
S214023A0021464846FFF7B2FFD9F80C30002BF0DA11
S214023A10D9F80C30002B25DB012404E03024E8E73B
S214023A20013E05FB04F4012EFAD8B7FBF4F39D42DF
S214023A30F7D900E01C46B7FBF4F304FB1377124AEF
S214023A40D1564846FFF792FFD9F80C30002B03DB1D
S214023A50B4FBF5F3AC42EDD2BBF1000F02D0BAF1E3
S214023A60000F01D1BDE8F88FBAF1000FFAD0C245B7
S214023A70F8D90AF1FF3A20214846FFF777FFD9F82E
S214023A800C30002BF0DAEDE7407B07002DE9F0471B
S214023A9082B007468846154699460A9EDDF82CA04F
S214023AA081EAE17CACEBE17C012402E09CFBF5FCC4
S214023AB001346545FADD4C4500D24C4636B1B8F1C4
S214023AC0000F02DB1AF0040F00D0013E1AF0020FBC
S214023AD002D0B9F1000F03D01AF0010F00D1AEB92F
S214023AE0FB68002B0FDBB8F1000F1CDB1AF0040F8B
S214023AF020D1FB68002B06DB0AF00303022B1ED044
S214023B00FB68002B2DDA02B0BDE8F087002EE7D066
S214023B10A642E5D9013E20213846FFF727FFFB687B
S214023B20002BF3DADCE7C8F100082D213846FFF750
S214023B301DFFDEE72B213846FFF718FFD9E7B9F15C
S214023B40000FDDD1002EDBD0002ED9D0A642D7D969
S214023B50013E30213846FFF709FFFB68002BF3DAF7
S214023B60CEE7CDF804A000964B462A464146384694
S214023B70FFF71CFFC7E7FFFFF0B599B006460C46F5
S214023B80154603AB13934023149300231593179003
S214023B90169391E00020012211E040F0010001346A
S214023BA00CE040F00200013408E040F0040001346A
S214023BB004E040F00800013400E0002222B394F949
S214023BC00030233B0D2BF8D801A151F823F000BF9B
S214023BD0B33B0200BB3B0200BB3B0200BB3B020006
S214023BE0BB3B0200BB3B0200BB3B0200BB3B0200EE
S214023BF0AB3B0200BB3B02009B3B0200BB3B02000E
S214023C00BB3B0200A33B020094F90030A3F1300153
S214023C10C9B2092907D8013402EB820203EB420338
S214023C20A3F13002F0E72E2B03D0002394F9001004
S214023C3015E00134002306E0013403EB830301EBB5
S214023C404301A1F1300394F90010A1F1300C5FFAA0
S214023C508CFCBCF1090FEFD9E8E714F9011F6C29B7
S214023C60FBD06829F9D025296ED021DB78291FDC04
S214023C7058291DDB583920291AD8DFE801F03E19E9
S214023C801919191919191919191128191919191996
S214023C9019191919191958191949193319193E00F8
S214023CA02B681A1D2A6093F9001013A8FFF75EFE10
S214023CB00134169B002B4CDB14F9011B002948D05B
S214023CC025293FF467AF13A8FFF750FEF1E72968EE
S214023CD00F1D2F600968019000920A2213A8FFF7B1
S214023CE0D5FEE5E729680F1D2F600968019000924E
S214023CF00A2213A8FFF75AFEDAE729680F1D2F607B
S214023D00096801900092102213A8FFF74FFECFE732
S214023D102B681A1D2A601F6817F9011B0029C7D0D5
S214023D2013A8FFF723FE169B002BF5DAC0E72B68D5
S214023D301A1D2A6019680023019308230093102293
S214023D4013A8FFF733FEB3E7252113A8FFF70EFEED
S214023D50AEE7169B002B05DD159A32B9169B159A0F
S214023D6013441693169819B0F0BD03A93046FFF710
S214023D70E1FDF3E70EB400B582B003AB53F8041BC3
S214023D80019301AAFFF7F8FE02B05DF804EB03B058
S214023D907047FFFF00B583B000230193044905482E
S214023DA00EF048FB0190019803B05DF804FB00BFDB
S214023DB05C7C0700D0C2FF1F08B502480EF080FAEE
S214023DC008BD00BFD0C2FF1F08B54FF440620021F5
S214023DD0034848F077FF0020024B186008BD00BF7A
S214023DE0904CFE1F8C4CFE1F2DE9F04782B0044615
S214023DF0894616461F460A9DB5F5006F01D94FF44F
S214023E0000650121484648F0A3F8824600285CD0A7
S214023E100021019100914A4648F054FF214650463F
S214023E2049F056F84FF001081EE00A202CF04CF933
S214023E30019B01330193264B1B78002B36D1019B45
S214023E40B342F2D300240AE03946224849F004F885
S214023E5004460098013000900A202CF035F914B977
S214023E60009BAB42F0D31CB3B8F1000F26D0019BE7
S214023E7023BBFFF7A9FF00230093154A1370164AC7
S214023E801370164A13704A46514615480EF09EF8AD
S214023E9080460028CFD0FFF78FFF64202CF014F95D
S214023EA0FFF778FF64202CF00FF9DDE70024D6E751
S214023EB0009BAB42D8D34FF00108D5E7504648F0F6
S214023EC06BF8404602B0BDE8F0874FF00108F8E70D
S214023ED09158FE1F904CFE1F9258FE1F9058FE1FD0
S214023EE0D0C2FF1F2DE9F041A2B006460D4690460D
S214023EF01F4680242246002102A848F0E3FE2246FE
S214023F00002102A848F0DEFE00962B46114A214602
S214023F1002A848F04DFEFFF7E3FB02AB02460E494D
S214023F200020FFF727FF0220FFF71EFC38B9012406
S214023F30C8202CF0C9F8204622B0BDE8F081002344
S214023F4001930097054B4246214602A8FFF74CFF15
S214023F500446EDE704020700FC01070068020700BA
S214023F60004870479458FE1F014B1878704700BFF0
S214023F704B07FE1F014B1870704700BF4B07FE1F12
S214023F80014B1870704700BF4A07FE1F014B187896
S214023F90704700BF945BFE1F054B9B6C13F0020F2D
S214023FA003D10020034B187070470120FAE700BFC8
S214023FB000080440955BFE1F10B50F4CA36F23F05C
S214023FC0011323F4404343F00503A36764202CF057
S214023FD07BF8A36F23F0011323F4404343F004035A
S214023FE0A36764202CF070F8A06CC0F34002034B69
S214023FF01A70104610BD00BF00080440955BFE1FF5
S21402400010B5FFF7C3FF10B1114B187810BD114C55
S214024010E36F23F0011323F4404343F00503E36701
S21402402064202CF051F8E36F23F0011323F440438D
S21402403043F00403E36764202CF046F8A36CC3F352
S2140240404003034A1370FA202CF03EF8DCE700BF68
S214024050955BFE1F0008044038B50546002407E0BD
S214024060FFF7AAFF4FF47A702CF02EF80134E4B270
S214024070AC4205D2FFF790FF0028F1D0012000E005
S214024080002038BDF8B5044615461E46069FFFF7C3
S2140240906BFFFFF775FF073CE4B2012C0BD97EB924
S2140240A0FFF762FF042814D0042D08D8DFE805F0D5
S2140240B04A261539510000203860FFF75BFFF8BD2D
S2140240C000233B600F20FFF7C7FF0420FFF752FFD5
S2140240D0EAE70120FFF74EFFE6E73B6801333B6065
S2140240E0FFF78EFF3B68022BE9D900233B600F20C7
S2140240F0FFF7B2FF0120FFF73DFFE0E7FFF74CFFB7
S21402410060B13B6801333B60022BD8D90220FFF72F
S21402411031FFFFF775FF00233B60D0E7FFF74CFF48
S214024120CDE7FFF739FF50B13B6801333B600B2BFD
S214024130C5D900233B600120FFF71CFFBFE7FFF74E
S2140241403BFFBCE7FFF728FF0028B8D0FFF758FF71
S214024150B5E7FFF721FF0028B1D1FFF72DFFAEE745
S214024160014B1878704700BFC05CFE1F10B50446AE
S2140241704FF480720021044848F0A4FD034B1C70E3
S214024180034B00221A7010BDBC5BFE1FC05CFE1FF4
S214024190985BFE1FF0B583B005460E4617461C46D2
S2140241A0012301930020FFF7E1FFFEF78FFB3A465B
S2140241B0314628460DF0F0FE0190114B00221A609F
S2140241C00CE0142301932BF0B7FD00900A216846F9
S2140241D02BF01EFF0A490A6801320A60084A126872
S2140241E0A24209D2FFF7BCFF0028EAD000200190C5
S2140241F0FFF7BCFFFEF784FB019803B0F0BD00BFDB
S214024200BC5CFE1F014B1878704700BFC15CFE1FE6
S214024210014B1870704700BFC15CFE1F10B582B01C
S2140242201C46012301930DF0D1FE01900F4B002294
S2140242301A600CE0142301932BF07EFD00900A21F5
S21402424068462BF0E5FE09490A6801320A60074A09
S2140242501268A24207D2FFF7D5FF0028EAD0002054
S2140242600190FFF7D5FF019802B010BDBC5CFE1F9F
S21402427030B583B001250195314C41F21111206809
S2140242802AF0B2F8294620682AF0D6F8FEF748FB4C
S214024290044600283CD00220FFF766FAF0B94FF435
S2140242A0FA602BF011FF274C40F2111120682AF019
S2140242B09BF8254D6423032229462448FFF7AEFFC8
S2140242C0019057232B700420FFF742FA1021206832
S2140242D02AF0B2F80024204603B030BD642303223D
S2140242E01B491A48FFF79AFF0190174B52221A7081
S2140242F04FF47A702BF0E8FE0020FEF717FB002042
S214024300FEF708FB2846FFF723FAFFF779FEE2E7F7
S2140243100220FFF729FA68B940F21111094B186812
S2140243202AF062F800231A4619460A4800682AF05C
S214024330B1FAD0E70020FEF7EDFA0124CBE700BF82
S21402434098AEFF1F78AEFF1F4C07FE1FD0C2FF1F9E
S214024350780207007CAFFF1F08B50220FFF704FAB9
S21402436020B90120FEF7D6FA012008BD0020FEF78C
S214024370D1FAFFF7F9FD022804D10A202BF0A4FE99
S2140243800020F2E7FFF708FE0028F6D10220FFF72A
S214024390EBF90028F1D0FEF7ABFB082802D0FFF7B6
S2140243A00BFEEAE7FEF7A4FB0728F8D1E5E7FFFFD6
S2140243B000487047C45CFE1F014B1878704700BF68
S2140243C0C44CFF1F30B54FF0000E4FF00C0C09E046
S2140243D010F90C302F2B13D0002010E00EF1010E36
S2140243E00CF1010C8C4509D29E45F1D012F90E5003
S2140243F010F90C40A542F1D0002000E0002030BDAC
S2140244000120FCE708B5002828D0184A0260184A9E
S2140244104260184A8260184AC260184A4261184AC4
S2140244208261184AC261184A0262184A4262184AEF
S2140244308262184A0263184AC262184AC265184A59
S2140244408265184AC264184A0265184A8264184A83
S2140244504265184A0264184A426408BD174B184A55
S21402446040F21F41174828F089FE00BFB17E0500C2
S214024470E57E0500057F0500457F0500597F05009E
S2140244802180050055800500918005009980050071
S214024490254902008D4802002D4702002F15030011
S2140244A0591503000915030029150300CD1403004E
S2140244B0E515030099140300511403007C0207005B
S2140244C08C7B07009C02070010B54FF0FF31134BA0
S2140244D018682AF05DFC01280CD10023032B12D8A1
S2140244E00F4A40F6046101FB032292F8002E1AB12D
S2140244F00133F3E700240EE0094C01FB03440123D9
S21402450084F8003E00E0002400231A4619460348B9
S21402451000682AF0BFF9204610BD00BFC854FF1F2E
S214024520CC54FF1F30B583B000230093019381B1B2
S2140245300C46174B1B68174A126809896068FFF712
S21402454041FF20B1226940F6FA539A4208D903B0D5
S21402455030BD114B114A40F29121114828F00EFE4F
S21402456010490020FFF706FCFFF7AEFF05460028BD
S214024570EDD02269E16848F003FD2369C5F8FC3DE9
S21402458003238DF804300095684634F067FDDEE7B5
S214024590E497FF1FE897FF1FBC020700B07B0700E7
S2140245A09C020700DC02070030B583B000230093AC
S2140245B0019381B10C46174B1B68174A126809898A
S2140245C06068FFF7FFFE20B1226940F6FA539A426E
S2140245D008D903B030BD114B114A40F2DF21114811
S2140245E028F0CCFD10490020FFF7C4FBFFF76CFF54
S2140245F005460028EDD02269E16848F0C1FC23692F
S214024600C5F8FC3D06238DF804300095684634F064
S21402461025FDDEE7E497FF1FE897FF1FBC020700B1
S214024620507B07009C0207000403070010B50446EF
S2140246304FF0FF31084B18682AF0AAFB012800D079
S21402464010BD002184F8001E0B460A460248006888
S2140246502AF020F9F4E700BFC854FF1F08B534F06B
S214024660E9FC04490020FFF785FB00202BF09AFAAC
S21402467008BD00BF3003070008B5082814D8DFE8D5
S21402468000F005141926321337133C001D4900208A
S214024690FFF770FB1C490020FFF76CFB35F014F89F
S2140246A00121002034F0D6FF08BD18490020FFF78C
S2140246B061FBF9E716490020FFF75CFB022035F0A4
S2140246C01DF80028F0D11349FFF754FBECE719B1A7
S2140246D00846FFF7ABFFE7E70F4B104A40F25F21B1
S2140246E00F4828F04BFD0121002034F0B3FFDBE732
S2140246F00C490020FFF73EFBD6E70B490020FFF7E8
S21402470039FBD1E74803070084030700B403070018
S214024710F00307002C04070064040700A07B0700D0
S2140247209C0207007C040700A404070030B58FB083
S21402473000230B930C93089309930A93059306930D
S21402474007930393049348B3044600292DD0099097
S214024750ADF828108DF8202008AB0B9301230C939C
S2140247602BF0FCFE03900BAD0495C82307931E4B5B
S214024770059303AB069322461C490020FFF7FAFA7C
S214024780002108462CF02CFA05AA29461848FDF7FF
S214024790A6FD88B1A22528460FB030BD154B164A95
S2140247A040F2E231154828F0E9FC154B124A40F275
S2140247B0E331124828F0E2FC4FF0FF3200920DABD4
S2140247C0002108462CF00EF8012801D0A225E2E7C7
S2140247D09DF834500DB1A225DDE722460949002096
S2140247E0FFF7C8FAD7E700BF09480200F00407003F
S2140247F0D03EFE1FBC040700787B07009C02070021
S214024800D80407001405070030B583B004460D46E9
S21402481042680B784BB1206828B10021009103232F
S2140248202A782CF04BF803B030BD13681989586803
S214024830FCF796FFEFE7006850B110B582B000248F
S214024840009403230A7821462CF038F802B010BDF3
S2140248507047FFFF30B583B005460C460B784BB168
S214024860286828B100210091032322782CF026F82C
S21402487003B030BD43681B6819895868002300934B
S214024880014AFCF70DFFEBE7094A020030B58FB08C
S214024890002409940A940B940C940D94069407949D
S2140248A0089404AD049405940A90ADF82C109DF873
S2140248B048108DF824100C920D932BF04FFE0490A6
S2140248C0C8230893154B06930795FCF73DFE03286D
S2140248D00CD1002108462CF083F906AA09A9104833
S2140248E0FDF71BFD40B1A0200FB030BD4FF0FF31E9
S2140248F00320FCF733FEECE74FF0FF32009203ABE7
S214024900002108462BF06EFF012801D0A020EBE71D
S2140249109DF80C000028E7D0A020E5E73748020003
S214024920D03EFE1F30B58FB000230B930C93089336
S21402493009930A930593069307930393049338B354
S214024940054661B30990ADF828108DF8202008AB13
S2140249500B9301230C932BF001FE03900BAB0493F5
S214024960C8230793214B059303AB0693FCF7ECFD94
S21402497003281BD1002108462CF032F905AA0BA900
S2140249801B48FDF78EFCB8B1A12420460FB030BDFF
S214024990184B194A4FF45471184828F0EFFB184B7D
S2140249A0154A40F25131154828F0E8FB4FF0FF3126
S2140249B00320FCF7D3FDDDE741F2883300930DAB0D
S2140249C04FF0FF32002108462BF00CFF012801D0E1
S2140249D0A124DAE79DF834400CB1A124D5E72A4693
S2140249E008490020FFF7C6F9CFE700BF5548020086
S2140249F0D03EFE1FBC040700647B07009C02070033
S214024A00D80407003405070030B585B005460C46C5
S214024A1000238DF80F300DF10F0300931E23124A68
S214024A200989606832F014F99DF80F3023B99DF8B1
S214024A300F3033B105B030BD21462846FFF772FD70
S214024A40F5E70DF10F0300931723084A21896068E2
S214024A5032F0FEF89DF80F30002BEBD021462846A8
S214024A60FFF7A2FDE6E700BF500507007005070046
S214024A7010B510490020FFF77DF934F093FE98B187
S214024A80002010BD4FF47A702BF01EFBA4F57A744A
S214024A9034F008FE082801D0002CF3D134F002FED0
S214024AA0082804D00020ECE742F21074F0E7012058
S214024AB0E7E700BF8805070010B510490020FFF79A
S214024AC059F934F095FE98B1002010BD4FF47A7073
S214024AD02BF0FAFAA4F57A7434F0E4FD082801D132
S214024AE0002CF3D134F0DEFD082804D00120ECE7D8
S214024AF042F21074F0E70020E7E700BFAC050700BB
S214024B0010B5A0B000241E941F940294039404943B
S214024B10059406A8FFF776FC43F6100221462E48B7
S214024B2048F0D0F82D4B2E4A126806A92D4834F0CC
S214024B3039FD68B10024012C15D02B490020FFF75F
S214024B4019F925212948FCF70BFE204620B010BD96
S214024B5023460194009441F28832254925482AF0DA
S214024B60EDFF0446E7E700230093234A25211F486A
S214024B70FCF796FD04460128DFD100238DF87C3031
S214024B801EA834F06BFA03E04FF47A702BF09CFA0E
S214024B9034F088FD0A28D0D00828F5D002A834F0D0
S214024BA087FD059B0193049B0093039B029A13497E
S214024BB00020FFF7DFF84FF47A710220FCF7CEFCF4
S214024BC00128E1D1FFF754FF4FF0FF310320FCF735
S214024BD0C5FCFFF771FFD7E7CC54FF1F79460200EA
S214024BE0E897FF1F5007FE1F44060700E005070070
S214024BF0D00507005D4602002545020008060700AC
S214024C0000B583B0FCF7A0FC03282ED11A49002079
S214024C10FFF7B0F819481A4B186048F0BFF9194B5D
S214024C201860194A138800939378D278174900209F
S214024C30FFF7A0F8012029F0FDFE154B186008B119
S214024C40FFF75EFF124B186808B12AF0A1FA0C4B68
S214024C50186820B129F0B4FA094B00221A60002025
S214024C602AF0A0FF03B05DF804FB4FF0FF310320EB
S214024C70FCF774FCCAE700BF800607009016FE1F0A
S214024C80E897FF1FE497FF1F147C0700A40607009F
S214024C90C854FF1F00B583B000230193012200927F
S214024CA04FF4C072034904482AF048FF03B05DF887
S214024CB004FB00BFE8060700014C020070B5314B4A
S214024CC001221A703049314827F06CFB00284CD17B
S214024CD02F4D40F2C9422F49284648F051F900208C
S214024CE0FBF75EFE4FF4D2622B49284648F048F99D
S214024CF00120FBF755FEB3222849284648F040F922
S214024D000420FBF74DFE2C46254E0FCE0FC496E828
S214024D10030044F8040B21800320FBF741FEAC4657
S214024D20204C0FCCACE80F000FCCACE80F000FCC39
S214024D30ACE80F0094E803004CF8040B8CF8001063
S214024D400220FBF72DFE2C46174D0FCD0FC495E81B
S214024D50030084E803000520FBF722FE024658B94A
S214024D60FBF700FFFBF714FF70BD02460F49002059
S214024D70FFF700F800BEABE70C490020FEF7FAFF8B
S214024D8000BEEDE7C54CFF1FC07F0700ECCCFF1F3F
S214024D90C84CFF1FF8060700C40B07005412070092
S214024DA0081307002013070058130700EC0007003B
S214024DB000B583B00123019301202BF085F9FBE7B0
S214024DC0022800D0704708B50249034826F0BCFC0A
S214024DD008BD00BFF07D0700B8B6FF1F10B5144926
S214024DE014480BF0BBFE38B91349144846F0A0F934
S214024DF0044630B9204610BD0121022001F008FD0C
S214024E00F2E70D490D4846F08FF958B90A490B48A2
S214024E1046F08EF904460028ECD00121022001F06B
S214024E20F7FCE7E70121022001F0F2FCEEE700BF03
S214024E30A87C070088C3FF1FB47C070008C3FF1FB7
S214024E4010B586B0002305930493039305A82CF0AF
S214024E50A3FA034630B1124A124911607BB11846D2
S214024E6006B010BD2EF0F6FB034618B10C4A0D49EB
S214024E701160F4E704A82EF043FC0346EBE70C4669
S214024E80084648F08BF803AB0193074B00930323C5
S214024E90421C2146049828F0B1FD0346DFE700BF16
S214024EA0F097FF1F9017FE1F7013070070B58EB0A5
S214024EB00CAE00240C940D9409AB09940A940B943E
S214024EC007AD0794089404940594069403940A91F3
S214024ED0ADF82C208DF824000C9301230D932BF0B3
S214024EE03DFB079008964FF47A730693154B04938E
S214024EF00595214620462BF073FE04E0FCF724FBC2
S214024F00022815D0D4B104AA0CA90F48FDF7C9F996
S214024F1004460028F2D14FF0FF32009203AB002184
S214024F2008462BF05FFC9DF80C40002CEAD0E5E723
S214024F304FF0FF310320FCF711FBE3E720460EB0EB
S214024F4070BD00BF4D4F0200D03EFE1F30B583B08D
S214024F5004460D4642680B7853B913681989586897
S214024F600123009300230A4AFCF79AFB012808D182
S214024F700021009103232A7820682BF09FFC03B0BF
S214024F8030BD044B044A40F2DE51044828F0F6F8DD
S214024F90BD4F020080130700C47B0700AC13070056
S214024FA0006850B110B582B00024009403230A783A
S214024FB021462BF083FC02B010BD70472DE9F84362
S214024FC080460F46002401E00134E4B2092C16D8CC
S214024FD03E890C4B53F82450284647F0DFFF8642A2
S214024FE0F2D132467968284647F0A5FE0028EBD172
S214024FF0054B53F82430394640469847E4E7BDE867
S214025000F88300BF8807FE1FE07B070030B5A3B019
S2140250100C464122002111A847F054FE00251095A7
S21402502040222946684647F04DFE15492846FEF7B7
S214025030A1FE10238DF844302269E1680DF1450087
S21402504047F08BFE012310AA11A90E48006829F02A
S2140250500BFD22780C492846FEF78CFE62780B4937
S2140250602846FEF787FE2269E168684647F075FE25
S2140250706A4607492846FEF77DFE23B030BD00BFCC
S214025080C8130700B4B6FF1FE0130700F8130700A3
S2140250900C14070030B5A3B00C464122002111A81B
S2140250A047F010FE0025109540222946684647F034
S2140250B009FE15492846FEF75DFE0F238DF844309B
S2140250C02269E1680DF1450047F047FE012310AA68
S2140250D011A90E48006829F0C7FC22780C49284618
S2140250E0FEF748FE62780B492846FEF743FE226921
S2140250F0E168684647F031FE6A4607492846FEF7E9
S21402510039FE23B030BD00BFC8130700B4B6FF1F78
S214025110E0130700F81307000C14070030B5A3B01D
S2140251200D464122002111A847F0CCFD0024109420
S21402513040222146684647F0C5FD12492046FEF742
S21402514019FE07238DF84430012310AA11A90E4830
S214025150006829F089FC2A780C492046FEF70AFEE8
S2140251606A780B492046FEF705FE2A69E968684612
S21402517047F0F3FD6A4607492046FEF7FBFD23B0DB
S21402518030BD00BFC8130700B4B6FF1FE013070008
S214025190F81307000C14070030B5A3B00D464122E1
S2140251A0002111A847F08EFD0024109440222146CB
S2140251B0684647F087FD12492046FEF7DBFD0623C8
S2140251C08DF84430012310AA11A90E48006829F070
S2140251D04BFC2A780C492046FEF7CCFD6A780B4930
S2140251E02046FEF7C7FD2A69E968684647F0B5FD1E
S2140251F06A4607492046FEF7BDFD23B030BD00BF14
S214025200C8130700B4B6FF1FE0130700F813070021
S2140252100C14070030B5A3B00D464122002111A898
S21402522047F050FD0024109440222146684647F07D
S21402523049FD12492046FEF79DFD05238DF84430B0
S214025240012310AA11A90E48006829F00DFC2A783D
S2140252500C492046FEF78EFD6A780B492046FEF77B
S21402526089FD2A69E968684647F077FD6A46074974
S2140252702046FEF77FFD23B030BD00BFC8130700EF
S214025280B4B6FF1FE0130700F81307000C1407005C
S21402529030B5A3B00D464122002111A847F012FDF9
S2140252A00024109440222146684647F00BFD12491E
S2140252B02046FEF75FFD04238DF84430012310AA32
S2140252C011A90E48006829F0CFFB2A780C4920461F
S2140252D0FEF750FD6A780B492046FEF74BFD2A6919
S2140252E0E968684647F039FD6A4607492046FEF7F0
S2140252F041FD23B030BD00BFC8130700B4B6FF1F80
S214025300E0130700F81307000C14070030B5A3B02B
S2140253100D464122002111A847F0D4FC0024109427
S21402532040222146684647F0CDFC12492046FEF749
S21402533021FD03238DF84430012310AA11A90E483B
S214025340006829F091FB2A780C492046FEF712FDE8
S2140253506A780B492046FEF70DFD2A69E968684619
S21402536047F0FBFC6A4607492046FEF703FD23B0DA
S21402537030BD00BFC8130700B4B6FF1FE013070016
S214025380F81307000C14070030B5A3B00D464122EF
S214025390002111A847F096FC0024109440222146D2
S2140253A0684647F08FFC12492046FEF7E3FC0223CC
S2140253B08DF84430012310AA11A90E48006829F07E
S2140253C053FB2A780C492046FEF7D4FC6A780B4930
S2140253D02046FEF7CFFC2A69E968684647F0BDFC1E
S2140253E06A4607492046FEF7C5FC23B030BD00BF1B
S2140253F0C8130700B4B6FF1FE0130700F813070030
S2140254000C14070030B5A3B00D464122002111A8A6
S21402541047F058FC0024109440222146684647F084
S21402542051FC11492046FEF7A5FC01238DF84430B5
S21402543010AA11A90D48006829F016FB2A780C4913
S2140254402046FEF797FC6A780A492046FEF792FC49
S2140254502A69E968684647F080FC6A46064920469B
S214025460FEF788FC23B030BDC8130700B4B6FF1F92
S214025470E0130700F81307000C1407002DE9F043A9
S2140254808FB00646884617461D46179C0020099090
S2140254900A900B900C900D900DF11C090790089045
S2140254A0049005900690039001462BF099FB8DF828
S2140254B02460CDF82880ADF82C700C95169B0D93C1
S2140254C02BF04CF807904FF47A730693194B04931B
S2140254D0CDF814901AE04FF0FF32009203AB002191
S2140254E008462BF07FF99DF80C50BDB928460FB040
S2140254F0BDE8F0834FF0FF310320FCF72FF813E0EE
S214025500002DF3D0631E002CF0DD1C4604AA09A968
S2140255100948FCF702FF05460028DCD0002CEFDD28
S214025520FCF712F80228E5D0012EE9D101238DF806
S2140255302630E5E7A14F0200D03EFE1F70B5AAB0A6
S2140255400D46144650F8216040F2893200217F4809
S21402555047F0B8FB013D062D00F2F680DFE805F0C5
S2140255600428344470809800D4E90423CDE9042347
S214025570D4E90223CDE90223D4E90023CDE90023AE
S214025580734A40F28931714847F012FB0446002CF8
S21402559040F3DA80304647F001FD024603230193CA
S2140255A000946A4B31460120FFF768FF2AB070BDAF
S2140255B0D4E90023CDE90023664A40F289316348E4
S2140255C047F0F6FA0446E2E7D4E90223CDE90223DD
S2140255D0D4E90023CDE900235F4A40F289315B48D3
S2140255E047F0E6FA0446D2E7D4E91023CDE91023C1
S2140255F0D4E90E23CDE90E23D4E90C23CDE90C23FE
S214025600D4E90A23CDE90A23D4E90823CDE90823FD
S214025610D4E90623CDE90623D4E90423CDE90423FD
S214025620D4E90223CDE90223D4E90023CDE90023FD
S2140256304A4A40F28931454847F0BAFA0446A6E794
S214025640D4E90223CDE90223D4E90023CDE90023DD
S214025650434A40F289313D4847F0AAFA044696E7A3
S214025660D4E90623CDE90623D4E90423CDE90423AD
S214025670D4E90223CDE90223D4E90023CDE90023AD
S214025680384A40F28931314847F092FA04467EE7BA
S214025690D4E92823CDE92823D4E92623CDE92623F5
S2140256A0D4E92423CDE92423D4E92223CDE92223F5
S2140256B0D4E92023CDE92023D4E91E23CDE91E23F5
S2140256C0D4E91C23CDE91C23D4E91A23CDE91A23F5
S2140256D0D4E91823CDE91823D4E91623CDE91623F5
S2140256E0D4E91423CDE91423D4E91223CDE91223F5
S2140256F0D4E91023CDE91023D4E90E23CDE90E23F5
S214025700D4E90C23CDE90C23D4E90A23CDE90A23F4
S214025710D4E90823CDE90823D4E90623CDE90623F4
S214025720D4E90423CDE90423D4E90223CDE90223F4
S214025730D4E90023CDE900230B4A40F2893103481D
S21402574047F036FA044622E701202FE7F497FF1FB8
S21402575060140700D014070014150700741507001C
S21402576090160700F01607008017070070B59CB069
S214025770064615AC624D0FCD0FC495E8070084E8C7
S21402578007000EAC5F4D0FCD0FC495E8070084E806
S21402579007000DF11C0C5C4C0FCCACE80F0094E833
S2140257A00700ACE803002CF8022B120C8CF8002041
S2140257B0EC46564C0FCCACE80F0094E80700ACE879
S2140257C003002CF8022B120C8CF8002056B3344639
S2140257D0013415A9204647F071FB58B369462046A6
S2140257E047F06CFB002836D00EA9204647F066FB31
S2140257F0002841D06946204647F060FB00284CD07E
S21402580007A9204647F05AFB0546002856D06946A7
S214025810204647F053FB0546002860D00025284660
S2140258201CB070BD3A4A3B490020FEF7A3FA00BE00
S214025830FF25F4E70121032000F0EAFF01210420FE
S21402584000F0E6FF0021052000F0E2FF32490020CA
S214025850FEF790FAC8E70121032000F0D9FF0121E4
S214025860042000F0D5FF0121052000F0D1FF2B49CE
S2140258700020FEF77FFAB7E70121032000F0C8FFF9
S2140258800021042000F0C4FF0121052000F0C0FF23
S21402589023490020FEF76EFAB2E70121032000F04A
S2140258A0B7FF0121042000F0B3FF0121052000F01C
S2140258B0AFFF1C490020FEF75DFAA1E70021032096
S2140258C000F0A6FF0121042000F0A2FF012105201E
S2140258D000F09EFF14490020FEF74CFA9FE70121D4
S2140258E0032000F095FF0121042000F091FF012122
S2140258F0052000F08DFF0D490020FEF73BFA8EE7EB
S214025900181B0700341B0700501B07006C1B070000
S214025910881A0700EC000700AC1A0700BC1A07003A
S214025920D01A0700E01A0700F41A0700041B070043
S21402593070B58AB0064605AC1D4D0FCD0FC42B6858
S2140259402380EC461B4C0FCCACE80F0023682CF8E7
S214025950023B1B0C8CF800308EB13446013405A98C
S214025960204647F0ABFA054688B16946204647F01E
S214025970A5FA054698B1002528460AB070BD0E4A1B
S2140259800E490020FEF7F6F900BEFF25F4E70121D6
S21402599000F03EFF0A490020FEF7ECF9ECE7002192
S2140259A0084600F035FF07490020FEF7E3F9E3E773
S2140259B0AC1B0700C01B0700881A0700EC00070094
S2140259C0881B0700981B0700F0B585B000250395D5
S2140259D0FFF774F9A8492846FEF7CCF9A74C2046EB
S2140259E047F0DCFA0246A64E2146304647F0C8FA91
S2140259F0A44C204647F0D2FA0246A34F2146384628
S214025A0047F0BEFAA14C204647F0C8FA02462146A5
S214025A109F4847F0B5FA9F4C2760A660384647F085
S214025A20BDFA01306060304647F0B8FA0130E060F7
S214025A302561656103A827F099FB9DF80E309DF855
S214025A400D20019200939DF80F30934A9349284601
S214025A50FEF790F9FFF7C2F978BB002007F0F4FCD6
S214025A600446002835D100F0B9FF044600283BD191
S214025A70884828F09FFA0446002840D1FFF7E0F94C
S214025A800446002846D1FBF741FD044601284CD1C6
S214025A900120FBF75FFD04214FF4C050FBF724FD05
S214025AA0FFF7F8F801217E4B186828F0C5FCFBF7D3
S214025AB04BFD032846D101244CE004460121022076
S214025AC000F0A6FE224677492846FEF753F900BEA6
S214025AD0C3E70121022000F09BFE22467149002006
S214025AE0FEF748F900BEBEE70121022000F090FE54
S214025AF022466C490020FEF73DF900BEB8E70121B8
S214025B00022000F085FE224666490020FEF732F9A2
S214025B1000BEB3E70121022000F07AFE2246614968
S214025B200020FEF727F900BEADE70121022000F0B3
S214025B306FFE002CACD022465A490020FEF71AF916
S214025B4000BEA5E74FF0FF310320FBF707FDB2E7E3
S214025B500134E4B2092C11D8534B53F8245028468A
S214025B6047F01CFA024629460120FFF79FF9002853
S214025B70EED12A464D49FEF7FDF8E9E74C490020EA
S214025B80FEF7F8F807E0C8224A494B4B186829F096
S214025B904DF8012809D0FBF7D7FC0228F3D14FF0C5
S214025BA0FF310320FBF7DAFCEDE7444B1A68511C81
S214025BB0196043490020FEF7DDF83E4B1B78013B97
S214025BC00F2BE8D8DFE813F010008E00B900FC00B7
S214025BD07701FA015A0210008E00B900FC00770124
S214025BE0FA015A022C043D0400223649364B186844
S214025BF029F09AF9012828D0344B00221A605A60FC
S214025C009A60DA601A615A61012000F01FFE2F4C7A
S214025C10D4E900232E490020FEF7ACF8D4E902238B
S214025C202C490020FEF7A6F8D4E904232A490020CE
S214025C30FEF7A0F8224601212848FFF77FFC00283D
S214025C40A9D1012000F002FEA5E725490020FEF7B3
S214025C5091F81C4DA86845F085FC1C4CC4E900016F
S214025C60286845F07FFCC4E90201686845F07AFCC2
S214025C70C4E90401C8E700BFD41B07009020FE1F3A
S214025C8044A4FF1F9018FE1F449CFF1F1017FE1F00
S214025C90C49BFF1F68ADFF1FE41B0700E81B07003D
S214025CA078AEFF1FEC0007008807FE1F941E070051
S214025CB0BC1E0700809BFF1FB4B6FF1FEC97FF1F9A
S214025CC0001F0700F4ADFF1FB8B1FF1FC0ACFF1FD7
S214025CD0401F0700581F0700701F0700B007FE1F6F
S214025CE0201F070000229649964B186829F01CF9D7
S214025CF0012816D0944B00221A605A60924CD4E9BE
S214025D00002392490020FEF735F8224602219048E9
S214025D10FFF714FC00287FF43EAF012000F096FD4A
S214025D2039E78C490020FEF725F8854B186845F0C0
S214025D3019FC854BC3E90001E0E700228649874B40
S214025D40186829F0F1F801281ED07F4B00221A604D
S214025D505A609A60DA607C4CD4E9002380490020BD
S214025D60FEF708F8D4E902237E490020FEF702F87F
S214025D70224603217648FFF7E1FB00287FF40BAFAB
S214025D80012000F063FD06E777490020FDF7F2FFE9
S214025D90714D286845F0E6FB6B4CC4E90001D5ED71
S214025DA0017A9FED727A67EE877A9FED717A77EEC7
S214025DB0877A17EE900A45F0D5FBC4E90201CAE7D6
S214025DC000226C496C4B186829F0AEF8012847D0BF
