S02900006177735F656B5F7261366D335F6F74615F6170705F776966695F646131363230302E737265630B
S21402020090E7062089C304003DC2040085C30400AB
S21402021085C3040085C3040085C3040085C30400A7
S214020220000000000000000000000000A1240300FF
S21402023085C3040000000000B9240300152503004E
S2140202407DB20400B9AA040009AC0400EDAC0400B7
S2140202508DAD040009420300D14103005142030060
S2140202607D42030081C0040091A30400EDA30400B4
S2140202703D3C0300653B0300F13C0300253D0300C3
S214020280CDB7040071B704003D3C0300653B030094
S214020290F13C0300253D03007DB204007DB204005C
S2140202A07DB2040039AF0400000000000000000028
S2140202B00000000000000000000000000000000037
S2140202C00000000000000000000000000000000027
S2140202D00000000000000000000000000000000017
S2140202E00000000000000000000000000000000007
S2140206000348044B834202D0034B03B1184770479A
S214020610D00DFE1FD00DFE1F000000000548064B41
S2140206201B1AD90F01EBA301491002D0034B03B1E9
S21402063018477047D00DFE1FD00DFE1F00000000A9
S21402064010B5064C237843B9FFF7DAFF044B13B113
S2140206500448AFF300800123237010BDE80DFE1F8F
S21402066000000000E06E0A0008B5054B1BB1054904
S2140206700548AFF30080BDE80840FFF7CFBF00BFD4
S21402068000000000EC0DFE1FE06E0A00F7B5002326
S2140206908DF807302F4D304B29681A682F482BF0FB
S2140206A013F8044630BB2E4B1E782EB12D4B1A780B
S2140206B0002AFCD000221A70296828480DF1070388
S2140206C040222AF06DFF0446A0B99DF80730D3B148
S2140206D0012B3DD0022B16D1234B24491A7812B98E
S2140206E00A78002AFAD01A7802F0FF072AB1002206
S2140206F01A700324204603B0F0BD1D49384603F0A5
S21402070089FA1A4B1F702A681A4D1B4B29781B68E8
S214020710B1B11A4911482AF09DFFB8B928702EB116
S214020720174B1A78002AFCD000221A704FF4006287
S2140207301448002146F05EFE134B00221A80D9E7C9
S214020740104906482AF086FF0028E8D00446D1E77A
S2140207501C46CFE79C16FE1F9416FE1F604602201C
S214020760F4E80900E428FE1FE628FE1FE528FE1F1F
S21402077040C106009016FE1F9816FE1F0416FE1FA6
S214020780E328FE1F80C50120E028FE1F08B5154B92
S214020790154A1A60154B80221A60154B02221A60FF
S2140207A0052808D8DFE800F0030E1114171A1149BD
S2140207B0114846F035FF114B01221A70BDE8084079
S2140207C0FFF764BF0B490E48F3E70A490D48F0E706
S2140207D008490D48EDE707490C48EAE705490C4881
S2140207E0E7E700BF9C16FE1F801F10409816FE1FEC
S2140207F09416FE1F52C106000D16FE1F9016FE1F0F
S2140208002116FE1F3516FE1F4916FE1F5D16FE1F19
S2140208107116FE1F38B5234C23498C22204604F15C
S214020820090546F055FF21490522284646F02AFECC
S21402083018B10023C4F8093063731D4C1B49052206
S214020840204646F01FFE10B1002323602371194C88
S21402085016490522204646F015FE10B100232360F5
S2140208602371154C11490522204646F00BFE10B1A5
S214020870002323602371114C0C490522204646F0C2
S21402088001FE10B10023236023710D4C0749052297
S214020890204646F0F7FD10B10023236023710020A6
S2140208A038BD00BF0416FE1F801F104052C106004E
S2140208B02116FE1F5D16FE1F3516FE1F4916FE1F69
S2140208C07116FE1F174B1848D8624FF4C0621A60A2
S2140208D018221A72154A5A604FF4E0625A611C22B4
S2140208E01A77134A9A6180214FF4807208441A6577
S2140208F0042283F8582018640E4A5A6540200222C1
S2140209005866012083F8302083F8442083F86C0070
S21402091083F880200848094A9962D96398669967DD
S214020920DA6770470416FE1F401E10404010104043
S21402093040161040401D1040401F1040801F1040BF
S2140209402DE9F0415B4C5C4F5C4EDFF8B08105460A
S214020950FFF7B8FF012323703946304646F024FEDF
S214020960E8B1E5B92570564B564A1A60564B5348BD
S2140209704FF4C0621A60554B18221A6046F0B6FE53
S214020980534B1861FFF782FE0446002800F085806C
S2140209905049002003F03EF92046BDE8F08141466A
S2140209A0304646F001FE98B1012D11D10023237086
S2140209B0434B494A1A60444B40484FF4E0621A607F
S2140209C0424B1C221A6046F091FE414B5862D9E710
S2140209D04249304646F0E8FD98B1042D11D1002375
S2140209E02370374B3E4A1A60374B34484FF48072B6
S2140209F01A60364B04221A6046F078FE344B1866AC
S214020A00C0E7384B1B78BBB10D21304646F009FDD6
S214020A1090B100232370052DB4D801A353F825F016
S214020A2067090200B10902005F0A0200410A0200D9
S214020A30E30902007D0A020001202EF041F88BE74E
S214020A401F4B294A1A60204B1C4880221A601F4BF3
S214020A5002221A6046F04AFE1D4BD86492E7184BF3
S214020A60224A1A60184B154880221A60174B022237
S214020A701A6046F03BFE164B986383E7104B1C4AFF
S214020A801A60114B0D4840221A60104B01221A6060
S214020A9046F02CFE0E4B586774E72846FFF776FEA4
S214020AA0044600287FF474AF124903F0B3F81249E3
S214020AB020466FE7E228FE1F58C1060080C50120C7
S214020AC09C16FE1F401010409816FE1F9416FE1F1E
S214020AD00416FE1FA9C106004016104090C106006B
S214020AE0401D10407FC50120C01E1040401E104011
S214020AF0401F1040D6C1060009C2060072C1060099
S214020B0010B5FFF787FE044630B1054B054A064886
S214020B1040F239212BF064FBFFF7D4FE204610BDCD
S214020B2003C406001E3A070016C406002DE9F04369
S214020B30B1B0C0220021684646F05CFCFFF76AFEB0
S214020B40054630B1A84BA94AA94840F2CF212BF05E
S214020B5047FBA849A84E684646F062FD6946284605
S214020B6003F058F8A5490522304646F08BFC80462D
S214020B70002839D156F8051C56F8092CA04846F02C
S214020B80A7FDA0499E48A6F1090446F00DFD18B33C
S214020B909B4846F0ABFD2369984202461CD1984911
S214020BA0994846F095FD9949404603F033F8944833
S214020BB046F09CFD41460246914846F01BFC8F4992
S214020BC0052206F1140046F05DFC04F11D090746F5
S214020BD098B18F49002009E08E49002003F01AF8E8
S214020BE000233360337103E08A49284603F012F883
S214020BF01225284631B0BDE8F083D4E905218048A5
S214020C0046F066FD84497E4846F0CEFC08B37C4832
S214020C1046F06CFD636A984202461AD178497F48CC
S214020C2046F056FD7E49384602F0F4FF744846F018
S214020C305DFD39460246724846F0DCFB06F150007E
S214020C406E49052246F01EFC04F1590658B1754954
S214020C50C0E76F49002002F0DDFF0023C9F800302C
S214020C6089F80430C4E7D4E91421654846F030FD1B
S214020C706D49634846F098FC00B3614846F036FD7D
S214020C80236E9842024619D15D496848684F46F07D
S214020C901FFD6849002002F0BDFF594846F026FDB8
S214020CA000210246564846F0A5FB5449052238461E
S214020CB046F0E8FB064618B15F498BE759498CE7D0
S214020CC0D4E90A214E4846F003FD4D4846F00EFD93
S214020CD0A36B9842024622D1584F4949384646F0FD
S214020CE0F7FC384646F002FD013855493B560D2BB7
S214020CF008BF3E54002002F08DFF4148514F46F097
S214020D00F5FC002102463E4846F074FB3B490522AC
S214020D10384646F0B7FB064640B14B495AE74649C5
S214020D20304602F077FF3E603E7161E7D4E90F215C
S214020D30334846F0CDFC324846F0D8FCE36C984285
S214020D40024622D1414F2E49384646F0C1FC38466B
S214020D5046F0CCFC01383E493B560D2B08BF3E54AC
S214020D60002002F057FF26483A4F46F0BFFC00210B
S214020D700246234846F03EFB20490522384646F006
S214020D8081FB064618B1344924E72F49C8E7D4E95F
S214020D9019211B4846F09CFC194846F0A7FC636FD5
S214020DA0984202461DD12D4C1549204646F090FC2D
S214020DB0204646F09BFC0138294923560D2B08BFD6
S214020DC02654002002F026FF2649002002F022FFC9
S214020DD00B4846F08BFC00210246094846F00AFB07
S214020DE007E71D499CE700BF03C40600053A070053
S214020DF016C406002EC406000D16FE1F52C10600BB
S214020E00040EFE1F58C10600E020FE1F59C406004D
S214020E10F5C4060079C2060072C10600E018FE1F7D
S214020E20A7C4060084C5060090C10600E017FE1F90
S214020E303516FE1F2DC5060016C606006017FE1FD5
S214020E40C5C506004916FE1FA2C60600E016FE1F0E
S214020E5051C606007116FE1F3DC70600A016FE1FED
S214020E60DDC6060012EC06000378032B06D8DFE880
S214020E7003F0080A0602054B01221A707047044B5B
S214020E80FAE7044BF8E7044BF6E700BFE628FE1F36
S214020E90E528FE1FE428FE1FE328FE1F10B528B92A
S214020EA0134B144A2C2114482BF09AF91AB9134BF7
S214020EB0104A2D21F7E7C36844689C4200D3A3B9C1
S214020EC003890133B1FBF3F403FB14111180436869
S214020ED00288013343600389B3EB520F03D25B00EF
S214020EE00381002010BD0281FBE70120FAE700BF64
S214020EF087C706004F3A07009DC70600C9C7060007
S214020F0008B528B9054B064A064859212BF068F958
S214020F10C360002301810280436008BDDEC706006D
S214020F202D3A07009DC7060008B52DF0F7FB024BC9
S214020F301B68C01A08BD00BF3040FE1F38B5074BFD
S214020F40074D187004461F2128682CF075F80121F9
S214020F502868A140BDE838402CF094B8602AFE1FED
S214020F605C2AFE1F7047FFFF2DE9FF41154F164D05
S214020F70386800244FF0FF3116468DF80F402CF0EB
S214020F80A3FC0DF10F082B896BB1CDF80080EA683F
S214020F903189706832F0AEFE9DF80F301BB12B68B7
S214020FA068683146984701340F2C05F11405EAD1DA
S214020FB0002338681A4619462CF04CFA04B0BDE8ED
S214020FC0F08100BF642AFE1F682AFE1F08B5044986
S214020FD0002002F01FFEBDE80840024831F0A2BF22
S214020FE0EFC706003440FE1F2DE9F04F9BB01022DB
S214020FF00390002108A846F0FDF9774B774A1A605D
S21402100000252B4641F288324FF4FA7108A8ADF853
S2140210101050FFF775FFDFF808B2714FDFF8048251
S214021020242200210CAE11A846F0E4F91022002179
S214021030304646F0DFF96B4BDBF80000069306AB52
S2140210401093ADF812500795129046F04FFB664B80
S21402105018930130654B1390199341F2883200239E
S2140210604FF4FA713046FFF74BFF05953A6842F2A5
S214021070B3234146002002F0CDFD4FF47A73CDE94A
S21402108000335548396810AB42F2B32231F0BAFD4C
S214021090044690B1042105A801F038F8012807D1CA
S2140210A005990DF112023046FFF7F8FE00287BD1B3
S2140210B0BDF812002DF004FDD8E71C2201468DF87B
S2140210C0300010A846F096F9494B1868119046F081
S2140210D00DFB3C23ADF84230464B4749ADF848007D
S2140210E0139320463623ADF8503002F093FD434862
S2140210F000964FF4FA63224610A932F06FF90028E0
S21402110050D1039B002B5CD03D4902F083FD9DF835
S21402111030103A4800F09EFD002843D19DF830403A
S214021120002C4ED1DFF80081364ED8F80000DFF8EA
S214021130E0904FF0FF312CF0C7FB27464FF00C0A29
S2140211403189A1B13069012811D10AFB04F209EBF9
S214021150020CF36809F80200ACF808101A462A498D
S214021160CCF80430002002F055FD0134A4B2013759
S2140211700F2F06F11406E3D10023D8F800001A4612
S21402118019462CF067F9E4B12049214B214A1B4845
S214021190C1E90034002393601F4BC2E9003100F01E
S2140211A0DDFD70B1FFF712FF2DF0B8FA04AA014672
S2140211B008A8FFF773FE60B9BDF810002DF080FC9A
S2140211C02BE71649002002F025FD01201BB0BDE8E2
S2140211D0F08F0020FAE700BF3440FE1F3840FE1FA3
S2140211E0F044FE1F0EC806001EC806002AC80600E7
S2140211F0F444FE1F64C806009BC80600203FFE1F7C
S214021200C9C80600682AFE1FF8C80600F428FE1F92
S214021210FC28FE1FE828FE1F650F02002AC90600EA
S214021220EC44FE1F3EC80600642AFE1F07B50023D4
S214021230CDE900130246034903482DF085F903B0B1
S2140212405DF804FB54C90600BD12020008B50A4B3D
S2140212501B780BB1002008BD01202CF0C2F9074B09
S21402126018600028F6D02BF053FE054B18600038A5
S21402127018BF0120EFE700BF602AFE1F642AFE1F88
S2140212805C2AFE1F014B1878704700BF602AFE1FBB
S214021290FFF754BE13B568B1012484400648009196
S2140212A0002300681A4621462BF040FE044214BF73
S2140212B00120002002B010BD5C2AFE1F2DE9F04F6F
S2140212C04FF0FF3191B00120FFF7E4FF4D494E4C3D
S2140212D0DFF888814D4F4E4E002002F09BFCFFF750
S2140212E023FE4C4B186094E803004B4BC8F80030C2
S2140212F04A4B3B600DF11409494B3360083489E8C8
S21402130003000FCC0BAD0FC523682B600025454BA1
S214021310454A0095042119202CF016F8434B186014
S21402132030B9434B434A44484FF4D8712AF058FF29
S2140213300B9300F03BFF414B0A93414B0893414B02
S214021340414C0793414B0193414B0093029507ABE7
S2140213504A460BA92046099500F038FBE0B1042066
S214021360FFF7ECFDD8F80000002845D1386818B120
S2140213702BF06EFD00233B60306818B12BF068FD41
S214021380002333603349002002F044FC002011B0F1
S214021390BDE8F04F2DF008B9FFF726FEDFF8C0B023
S2140213A084F82A0094F82A90B9F1010FD7D10320C5
S2140213B0FFF7C4FD204600F069FB4FF0000A054621
S2140213C0022084F82AA0FFF7B9FD4DB959462846EF
S2140213D002F020FC204600F095FCFFF7F7FDE1E75F
S2140213E01D49504602F016FCFFF7F0FD4846FFF78F
S2140213F0FBFD84F82A00D5E72BF02AFD0023C8F867
S2140214000030B3E759C9060038400700F044FE1F13
S214021410EC44FE1F3040FE1FE016FE1F6017FE1F44
S2140214207B3A0700B029FE1FF829FE1F942BFE1FE9
S21402143083C906006F3A070097C906003440FE1FAC
S2140214407B2F0500492F0500203FFE1F690F020073
S214021450290F020050CA0600FDC90600F444FE1F0A
S214021460C1C906002DE9F74FDFF898B0244E824630
S2140214700D46DBF800004FF0FF311F4691460F2461
S2140214802CF022FAB0460023F16809B90F2C20D0BE
S2140214903289AA421ED12A465046019345F0F2FFEF
S2140214A0019BB8B91422624308EB020158F80220E5
S2140214B04A450FD14A68BA420CD101240023DBF810
S2140214C000001A4619462BF0C5FF204603B0BDE8B9
S2140214D0F08F1C4601330F2B06F11406D4D10E2CC6
S2140214E00CD814235C4308EB04030C9A48F80490C7
S2140214F0C3F80CA01D815F601A61DEE70024DDE7F9
S214021500682AFE1F642AFE1F2DE9F041DFF850808C
S214021510124C07460E46D8F800004FF0FF312CF06A
S214021520D3F90F252389B3420AD13946E0683246F9
S21402153045F0A8FF014618B91422204645F05AFF86
S214021540013D04F11404EDD1D8F800002B462A46DA
S2140215502946BDE8F0412BF07DBF00BF682AFE1F7A
S214021560642AFE1F38B50D46044600B181B9144AF6
S2140215701449154840F2923308F0B2FA13482A4644
S214021580214608F0ADFA124808F0AAFA002038BD43
S214021590436D3BB1836D2BB1C36D1BB1036E0BB1B3
S2140215A0036D53B9064A074907484FF4677308F0B4
S2140215B097FA084808F094FAE5E70120E7E700BF43
S2140215C08E4007007DCA060088CA06009ECA06002C
S2140215D012EC0600DDCA060037B50C460021CDE93E
S2140215E00011054630B9184B184A40F21F31184808
S2140215F02AF0F6FD016E21B9164B144A4FF44871D3
S214021600F5E724B9144B114A40F22131EFE7019372
S214021610A3688DF8002013B1E068694698472B6EE0
S2140216202046984770B90D4A0D490E4840F22F33AE
S21402163008F056FA0C482278214608F051FA0B4870
S21402164008F04EFA03B030BD1ECB06002841070054
S21402165034CB060069CB06009ECB06001841070075
S2140216607DCA060088CA0600AFCB060012EC06004A
S2140216702DE9F0410E46054630B9134B134A4FF496
S2140216805A7113482AF0ACFD00F1640400F5827822
S2140216900027238893B1616821B90E4B0B4A40F2AA
S2140216A07331EEE71EB10B78033B012B06D80023FD
S2140216B004222846FFF790FF2760676008344445F7
S2140216C0E7D1BDE8F08100BFD8CB06009D400700F9
S2140216D034CB0600F2CB06002DE9F0410E46054655
S2140216E030B9214B214A22484FF4C8712AF078FDBE
S2140216F0002300F1640232F833108E421CD1DB0064
S214021700EC1803F16408A36E05EB08073BBB40F236
S214021710A313184A1849194808F0E2F9A26EB4F859
S2140217206410174808F0DCF9164808F0D9F90023C7
S21402173045F808307B6010E00133142BDBD10D4AEC
S2140217400D490E4840F29F1308F0CAF90E4831467A
S21402175008F0C6F90B4808F0C3F9002701E0002E8E
S214021760D5D03846BDE8F0811ECB060058410700AA
S21402177034CB0600434107007DCA060088CA06002D
S2140217803CCC060012EC06001CCC06002DE9F0410B
S2140217900C46B2F800801746054630B92F4B304A41
S2140217A04FF427712F482AF01BFD21B92E4B2C4AE5
S2140217B040F29D21F6E7012380F80C310B7803F006
S2140217C0F002302A06D17A68D0F804314146BDE8E4
S2140217D0F0411847622B2FD00DD8402B11D0502B3A
S2140217E02AD022492248234A40F2D12308F078F927
S2140217F0217821482BE003F0DF02902A01D0702BDB
S214021800EFD141462846FFF767FF0646B0B141686A
S214021810237821B9194B1A4A40F27921C2E7902B54
S21402182008BF63683A7A0CBF023300232846FFF7E4
S214021830D3FE002333607360BDE8F0810B490C4889
S2140218400C4A4FF4317308F04BF90E48414608F043
S21402185047F9BDE8F0410C4808F042B97ACC0600D8
S2140218607F41070034CB06008FCC06007DCA0600F7
S21402187088CA06006D410700F1CC0600A3CC06001C
S21402188038410700C6CC060012EC060008B530B98F
S214021890094B0A4A0A4840F231112AF0A1FC00F12B
S2140218A0A003B0F8642022B108309842F9D1002093
S2140218B008BD0120FCE700BF1ECB0600544007000F
S2140218C034CB06002DE9F34798460B8DDDF82C90B5
S2140218D004460E461746002B55D0CB6D4846984711
S2140218E0054600285ED01022002145F083FD022C1A
S2140218F023D0E31E012B2ED837B92B4B2B4A2C486C
S2140219004FF4E5712AF06CFC3046FFF7BFFF10BBC0
S2140219100224336E2846984768B9264A264927483D
S21402192040F2013308F0DCF82548294608F0D8F8DA
S214021930244808F0D5F8204622E0B7F808A03B78FD
S2140219400AF1040AABB13046FFF7A0FF736A9A4564
S21402195011D20028DDD00A9B2C70C5E902836F6085
S214021960736D306D01954A4601A9984738B903242C
S214021970CFE70120EAE7C0F10200C4B2C9E70020BF
S21402198002B0BDE8F0870B4A0B490C4840F20E3312
S21402199008F0A6F80C4808F0A3F80A4808F0A0F8E1
S2140219A00120EDE70220EBE717CD06006C400700AA
S2140219B034CB06007A4007007DCA060088CA0600B5
S2140219C02ECD060012EC060050CD06002DE9F74398
S2140219D00D46DDE90A9817461E460446F0B1E9B1FF
S2140219E0E3B1B9F1000F19D0B8F1000F16D00B68A9
S2140219F03BB14B682BB18B681BB1CB680BB10B6943
S214021A0073B91A4A1A491B4840F2E63308F068F8D6
S214021A10194808F065F8194808F062F8012620E02F
S214021A204FF48872002145F0E5FC3146144B0097CE
S214021A304A46204631F088FC064690B91422114BDD
S214021A4011490092204631F0ABFC064648B90C9B81
S214021A50C4F80481C4F808310FCD50340FC42B6883
S214021A602360304603B0BDE8F08300BF9141070013
S214021A707DCA060088CA060072CD060012EC060071
S214021A808D170200F844FE1F4845FE1F2DE9F0435D
S214021A9006468DB0002800F0B980036D002B00F0DA
S214021AA0B580DFF8AC815C4DB36D306D4FF0000948
S214021AB032226946CDF8009098470FCD03AC0FC48A
S214021AC00FCD0FC4009F2B682360CDF80490ADF8AD
S214021AD0089027B33B78082B06D9504B504A40F261
S214021AE0352150482AF07CFB0CAA02EB8303796866
S214021AF053F8243C01AA304698470446002865D18C
S214021B009DF80730002B00F08380BDF80450002DAE
S214021B107ED03FB9444B454A40F24F11E1E7394681
S214021B204346E7E706F1640202201423142B32F838
S214021B30341000D1C1B18D4218D13D4A3D493E48CC
S214021B404FF4B77307F0CCFF3C48294607F0C8FFAE
S214021B503B4807F0C5FF0924002322463946304693
S214021B60FFF73AFDA4BB0AE0084623460134142CCC
S214021B70DCD1D8B902EBC30122F833504F609DF88E
S214021B8008402CB30024254686F80C510CB10B2CC9
S214021B901ED196F82A30012B1AD1304632F091F82F
S214021BA096F80C310446002BEED111E0204A21496A
S214021BB0214840F27D1307F093FF2248294607F09A
S214021BC08FFF1F4807F08CFF0224C5E7002FC3D102
S214021BD09DF80630A3B9002C3FF465AF1A4A1549A2
S214021BE0154840F2274307F07BFF204632F02AF9D9
S214021BF00146164807F074FF114807F071FF01E02E
S214021C00002CEBD120460DB0BDE8F0830124F9E7A5
S214021C10002FA1D1B3E700BFA0410700A9CD06005F
S214021C20F340070034CB06009ECB0600DE400700DA
S214021C30C94007007DCA060088CA0600CECD060047
S214021C4012EC06003DCE0600024107009BCE0600BF
S214021C50F91D0200F7B50C460546002845D0038D4F
S214021C60002B42D000293DD00121FFF701FD0023C1
S214021C7001A92846019332F058FE0127044644B3D0
S214021C8021462846FFF728FD064628B343685968CA
S214021C9022468F70284631F067FD0446E0B10246C0
S214021CA0716800232846FFF797FC0023104A114963
S214021CB011483360736040F2553307F011FF204637
S214021CC032F0C0F801460D4807F00AFF0C4807F04C
S214021CD007FF204603B0F0BD01A9284632F025FED4
S214021CE00446CCE7FFF7C4FCF3E70124F1E700BFA4
S214021CF0B94007007DCA060088CA0600C1CE0600A3
S214021D0012EC0600F7B50025044628B3036D1BB394
S214021D1001A9A36D206D01950022984701990646F8
S214021D2021B1002304222046FFF756FC002EEFD1F5
S214021D3004F1640504F582772B883BB169680023B9
S214021D4004222046FFF748FC2E606E600835BD422E
S214021D50F2D1002003B0F0BD0120FBE773B50C46BC
S214021D60114606461546FFF7FDFB80B17CB1236897
S214021D706BB163685BB1AB6801936B6800932B68C9
S214021D80224631460320FFF79DFD02B070BD0120BA
S214021D90FBE773B50C46114606461546FFF7E2FB0F
S214021DA080B17CB123686BB163685BB1AB680193A9
S214021DB06B6800932B68224631460420FFF782FDAB
S214021DC002B070BD0120FBE773B50D46114606460C
S214021DD01446FFF7C7FB60B15DB1A3680193636861
S214021DE0009323682A4631460220FFF76BFD02B0B5
S214021DF070BD0120FBE7FFFF08B52AB9054B064A6E
S214021E00064832212AF0ECF9002001239080106067
S214021E10137108BDECCE0600C842070001CF0600CB
S214021E2070B50D461446064628B91A4B1A4A43217F
S214021E301A482AF0D5F919B9194B174A4421F7E777
S214021E401AB9184B144A4521F2E70023136093800F
S214021E500B7813B131F042FF20804F23124A134908
S214021E60134807F03DFE6A682989124807F038FED3
S214021E70114807F035FE22882946304631F074FCB8
S214021E802B7813B1B0FA80F35B09E3700123237158
S214021E9070BD00BFD8CB0600AF42070001CF0600D8
S214021EA048CF0600ECCE0600964207007DCA060022
S214021EB05CCF060071CF060012EC060070B50D4628
S214021EC01446064628B9114B114A622111482AF0D7
S214021ED087F919B9104B0E4A6321F7E71AB90F4B67
S214021EE00B4A6421F2E700231360938031F0F6FE7A
S214021EF020800346D5E90012304631F0CDFBB0FA19
S214021F0080F35B09E3700123237170BDD8CB060012
S214021F107B42070001CF06008ECF0600ECCE0600FD
S214021F2070B50D461446064628B9114B114A7E2155
S214021F3011482AF055F919B9104B0E4A7F21F7E7D6
S214021F401AB90F4B0B4A8021F2E7002313609380E5
S214021F5031F0C4FE20800346D5E90012304631F047
S214021F6021FEB0FA80F35B09E3700123237170BD92
S214021F70D8CB06005E42070001CF06008ECF0600D1
S214021F80ECCE060073B50C461546064628B9174B26
S214021F90174A9A2117482AF023F919B9164B144AF8
S214021FA09B21F7E71AB9154B114A9C21F2E701F17A
S214021FB00C030093D1E90123096831F00FFA80B9C6
S214021FC00F4A10491048A92307F08AFD217B0F48C3
S214021FD007F086FD0E4807F083FD217B3046FFF7AB
S214021FE039FE00232B60AB8002B070BDD8CB060052
S214021FF04542070001CF0600A9CF0600ECCE060038
S2140220002C4207007DCA06005CCF0600C2CF06003F
S21402201012EC060010B5144628B9094B094ABD2130
S21402202009482AF0DDF81AB9084B064ABE21F7E736
S21402203031F01CFE00232360A3800123A37010BD91
S214022040D8CB06001042070001CF0600ECCE0600F1
S21402205010B5144628B9094B094AD22109482AF074
S214022060BFF81AB9084B064AD321F7E731F0EDFB61
S2140220700023A38023600123237110BDD8CB060062
S214022080FA41070001CF0600ECCE060038B514462A
S214022090054628B9134B144AE82114482AF0A0F83A
S2140220A0036E1BB9124B104AE921F6E71AB9114B17
S2140220B00D4AEA21F1E7EC230F4A1049104807F0CF
S2140220C00FFD104807F00CFD0F4807F009FD00232E
S2140220D02360A3800123A3702846BDE83840FFF79B
S2140220E011BE00BFD8CB0600DF41070001CF0600B5
S2140220F0DBCF0600ECCE0600C44107007DCA060010
S2140221005CCF060014D0060012EC060037B500239A
S214022110CDE900330D46044610B9002003B030BDA9
S2140221200029FAD068462DF08DFC0028F5D1009BD8
S214022130002BF2D001A82FF053FB0028EDD1019816
S2140221400028EAD0009B2A46D3F804312146984755
S2140221500028E2D1009B01989B6B9847B0FA80F06A
S2140221604009DBE710B548B161B14FF47A746243B7
S2140221700068B2FBF4F200232BF06CF9431E5842BF
S214022180584110BD0846F9E708B540B159B14FF4B9
S2140221907A735A430068B2FBF3F22BF0F5FA431E49
S2140221A05842584108BD0846F9E7FFFFF0B5184EF9
S2140221B0337885B003F0FF043BBBA02221461548C6
S2140221C0154F45F017F9154B154A009404210A20BD
S2140221D02BF0BAF8386028B9124B134A5821134824
S2140221E029F0FEFF0B4D0395002203A93846FFF7A0
S2140221F0B9FF18B90E4B0C4A6121F0E701340A2CDC
S21402220005F11005EFD10123337005B0F0BD00BF14
S2140222100846FE1F1046FE1F0C46FE1F9845FE1F70
S214022220E045FE1F2FD006000B4307004DD00600E8
S2140222308ED0060007B500230193094B1B78012BAD
S214022240024605D0074B084A0848702129F0C8FF05
S21402225001A90748FFF798FF019803B05DF804FB51
S2140222600846FE1F9BD00600FA4207004DD0060025
S2140222700C46FE1F07B50F4B01901B78012B05D0AD
S2140222800D4B0E4A83210E4829F0AAFF0D4B9842A9
S2140222900CD3A033984209D20B48002201A9FFF7BB
S2140222A061FF20B9094B054A8D21ECE7002003B0F7
S2140222B05DF804FB0846FE1F9BD00600E5420700B9
S2140222C04DD006001046FE1F0C46FE1FB0D006007C
S2140222D0024B1A68024B1A60704700BFB846FE1FD0
S2140222E0B446FE1F044B054A196813680448116079
S2140222F0CB1A0360704700BFB846FE1FB446FE1FE7
S214022300B046FE1FFFF7EEBF034A01231370034ACF
S214022310137001F0B7B900BFBC46FE1FBD46FE1FD4
S21402232020B10128024818BF0020704701487047B4
S214022330BE46FE1FFE46FE1F014B1878704700BFC2
S214022340BC46FE1F014B1870704700BFBC46FE1FFE
S214022350014B1878704700BFBD46FE1F014B187030
S214022360704700BFBD46FE1F837813B9014B01229A
S2140223701A7070473E47FE1F70B5324D2B78A4B0D8
S2140223807BB93149314829F0CDFC50B930492F4844
S21402239029F05CFD28B92D4829F01AFC08B901235A
S2140223A02B702C4E002333700A240A202CF088FB54
S2140223B033781BB9013C14F0FF04F6D1264C2348AF
S2140223C0264E012322461021039329F00AFC03908D
S2140223D0039B73B13068039B248843F00BFC204AAE
S2140223E0CDE9000123467F2104A844F079FF24B0FA
S2140223F070BD2388DFED1B6A07EE903AB8EEE77AE7
S214022400F8EE677A27EE267ADFED176A174B27EE85
S214022410267A86ED007A9FED167A67EE877AC3ED06
S214022420007A094B9B78002BD4D108482B7029F0F0
S214022430D4FB03900548039B29F03CFC0390039BC6
S214022440C8E700BF4647FE1FC0E60900383E022026
S214022450ACE609003E47FE1F4447FE1F4047FE1FEC
S214022460BFD0060033335340000080396006FE1F9B
S214022470DE3CD53C014B93ED000A70476006FE1F1A
S21402248008B50549054827F0BFFF054A136923F03A
S2140224900103136108BD00BFE4E609005C3E0220AA
S2140224A000B0014010B5054C204627F0B3FF204689
S2140224B00349BDE8104027F0B5BF00BF5C3E0220CE
S2140224C04847FE1F10B1024B02791A70704700BFD0
S2140224D04E47FE1F014B1878704700BF6806FE1F66
S2140224E013B50C4B8DF804008DF80510BDF80420CA
S2140224F01A80094A09480A4C0023137001A90222CD
S21402250028F0C4FA20600A202CF0DAFA206802B01A
S21402251010BD00BF4C47FE1F4E47FE1FBC3D0220AB
S2140225206406FE1F73B5B54EB54D33780446A34216
S2140225304FF0000001902C7041D0102C33D8DFE809
S21402254014F01A013D014D016301110040007A01A9
S214022550F7000C0183018C01E301FA0149025202E1
S2140225609500AA0000210220FFF7BAFF0021019081
S2140225700420FFF7B5FF019BFF21034306200193CA
S214022580FFF7AEFF019B0343019396210520FFF759
S214022590A7FF019B0343019300210720FFF7A0FF3B
S2140225A0019B034301930220347001F07BF828B1AB
S2140225B0297894480423082201F090FC019802B07E
S2140225C070BD00210420FFF78BFFFF21019006203B
S2140225D0FFF786FF019B9621034305200193FFF731
S2140225E07FFF019B0021034307200193FFF778FF3B
S2140225F0019B2021034302200193FFF771FF019BF9
S2140226004021034301200193FFF76AFF019B242127
S214022610034310200193FFF763FF019B242103432A
S21402262011200193FFF75CFF019B24210343122034
S2140226300193FFF755FF019B2421034316200193C4
S214022640FFF74EFF019B2421034317200193FFF758
S21402265047FF019B0343019324211820FFF740FF05
S214022660019B0343019300211C2097E700210220CF
S214022670FFF736FFFF2101900420FFF731FF019B91
S2140226800021034306200193FFF72AFF019B034321
S2140226900193FF217AE7FF210420FFF721FF0021A3
S2140226A001900620FFF71CFF019B03430193FF21C5
S2140226B00520FFF715FF019B002103430720019326
S2140226C0FFF70EFF019B2021034302200193FFF731
S2140226D007FF019B4021034301200193FFF700FF00
S2140226E0019B6821034310200193FFF7F9FE019B2B
S2140226F06821034311200193FFF7F2FE019B682134
S214022700034312200193FFF7EBFE019B682103436C
S21402271016200193FFF7E4FE019B6821034317206E
S2140227200193FFF7DDFE019B03430193682194E7C3
S21402273000210220FFF7D4FEFF2101900420FFF7BC
S214022740CFFE019BFF21034306200193FFF7C8FE3D
S214022750019B03430193002118E7FF210420FFF7A2
S214022760BFFEFF2101900620FFF7BAFE019B03433E
S214022770019300219CE700210220FFF7B1FE019B96
S214022780FF21034004200193FFF7AAFE019B0340AA
S2140227900193FF210620FFF7A3FE019B034001934E
S2140227A0FF210520FFF79CFE019B034001930021B9
S2140227B00720FFF795FE019B0340F3E60021022067
S2140227C0FFF78EFE019B0340019300210420FFF7D2
S2140227D087FE019B03400193FF2124E00021022093
S2140227E0FFF77EFE019B0340019300210420FFF7C2
S2140227F077FE019B034001930021CBE76906FE1F8B
S2140228006806FE1FE6D0060000210220FFF768FEDB
S214022810019B03400193FF210420FFF761FE019B09
S2140228200340019300210620FFF75AFE019B034056
S21402283001930021B5E700210220FFF751FE019B1C
S214022840034001930021E7E700210220FFF748FE3C
S214022850019B034001937721C8E777210420FFF705
S2140228603FFE019B0021034006200193FFF738FE3E
S214022870019BFF21034005200193FFF731FE019BD8
S2140228800021034007200193FFF72AFE019B202127
S214022890034002200193FFF723FE019B40210340E1
S2140228A001200193FFF71CFE019B24210340102008
S2140228B00193FFF715FE019B24210340112001938B
S2140228C0FFF70EFE019B2421034012200193FFF71F
S2140228D007FE019B2421034016200193FFF700FE0A
S2140228E0019B2421034017200193FFF7F9FD019B6A
S2140228F00340019324211820FFF7F2FD019B0340B9
S214022900019300211C2054E700210220FFF7E8FD76
S214022910019BAA21034004200193FFF7E1FD019BDE
S214022920AA21034006200193FFF7DAFD019B03402C
S2140229300193AA2135E7AA210420FFF7D1FD019BC6
S214022940AA21034006200193FFF7CAFD019B03401C
S2140229500193AA210520FFF7C3FD019B0021034036
S21402296007200193FFF7BCFD019B202103400220B4
S2140229700193FFF7B5FD019B40210340012001931F
S214022980FFF7AEFD019B6821034010200193FFF77D
S214022990A7FD019B6821034011200193FFF7A0FDCC
S2140229A0019B6821034012200193FFF799FD019BCA
S2140229B06821034016200193FFF792FD019B6821D0
S2140229C0034017200193FFF78BFD019B0340019301
S2140229D0682190E700210220FFF782FD019B034059
S2140229E001936621F2E666210420FFF779FD019B3A
S2140229F0FF21034006200193FFF772FD019B03406F
S214022A0001930021A6E700BF37B5094BCDE9003395
S214022A106D46082415F8010BFFF784FD30B9C8206F
S214022A20013C2CF04DF814F0FF04F3D103B030BD96
S214022A300F070F0707B5012347494848019327F0B8
S214022A4049FF202101900020FFF74AFD019B00214B
S214022A50034002200193FFF743FD019B0821034038
S214022A6003200193FFF73CFD019BFF210340042056
S214022A700193FFF735FD019BFF21034006200193DA
S214022A80FFF72EFD019BFF21034005200193FFF770
S214022A9027FD019B0021034007200193FFF720FD3D
S214022AA0019B002103400A200193FFF719FD019BB9
S214022AB0002103400B200193FFF712FD019B00212A
S214022AC003400C200193FFF70BFD019B04210340FA
S214022AD010200193FFF704FD019B042103401120FF
S214022AE00193FFF7FDFC019B042103401220019392
S214022AF0FFF7F6FC019B0021034016200193FFF727
S214022B00EFFC019B0021034017200193FFF7E8FC2E
S214022B10019B0021034018200193FFF7E1FC019B73
S214022B20072103401D200193FFF7DAFC019B0021D9
S214022B3003401C200193FFF7D3FC019B0340019343
S214022B40FFF762FF0520FFF7EDFC019B03400193B0
S214022B50019803B05DF804FB24E60900BC3D0220A0
S214022B6038B50D4B05460C4640F6040218460021C1
S214022B7044F040FC0222034602706A09ED004270ED
S214022B808570621E033304F2FF7412F8011F03F805
S214022B90011FA242F9D138BDD45BFE1F08B50279E7
S214022BA0012A0CD1064B07481A7040F2072127F07B
S214022BB09BFC054A1368013303F07F03136008BDCC
S214022BC04F47FE1F782F02205047FE1F08B50022EF
S214022BD0044840F2072127F087FC034B00221A70B4
S214022BE008BD00BF782F02204F47FE1F73B5094E5F
S214022BF004460025A54201D102B070BD33780135E6
S214022C00002BF9D12BF08AFD0A21019001A82BF0A6
S214022C100BFFEFE74F47FE1F38B5194D19491A4CFF
S214022C20284611F05DF92060FFF7D0FF1749072309
S214022C300222284611F0C6FA20600220FFF7D6FFCD
S214022C40FFF7C4FF124907230222284611F0BAFAF8
S214022C5020600220FFF7CAFFFFF7B8FF0D490723DF
S214022C6040F60402284611F0ADFA206040F6040051
S214022C70FFF7BCFF284611F0C9F8206038BD00BF38
S214022C80FC3D022054E60900D05BFE1F6C06FE1FC8
S214022C906A06FE1FD45BFE1F30B585B0032303937E
S214022CA04309C0000C468DF80E00144914488DF8EE
S214022CB00D3011F015F9134D2860FFF787FF072333
S214022CC0114A009303A940F604030D4811F07EFA58
S214022CD0286040F60400FFF789FF094811F096F8CD
S214022CE00A4A2860631E04F2FF7412F8011F03F8F2
S214022CF0011FA342F9D1286805B030BD54E6090089
S214022D00FC3D0220D05BFE1F5447FE1F5747FE1FA6
S214022D102DE9FF410024CDE901440123254F264E2B
S214022D20264D0093039439465FFA84F8284644F009
S214022D3077FC29464046FFF713FFFFF76DFF01AA0F
S214022D4000904FF40061284604F070F8009B03439D
S214022D500093019B3370009B13B1039B01330393D3
S214022D604FF440620021284644F044FB2946404680
S214022D70FFF792FF02AA00904FF40061284604F083
S214022D8055F8009B9DF80820727003430093009B41
S214022D9013B1039B0133039301343C2C16F8020B48
S214022DA007F60107BFD1131A5842584104B0BDE8CE
S214022DB0F08100BF20430700584FFE1FD04FFE1F72
S214022DC0044A1378042B9DBF0133012013700020A0
S214022DD0704700BFD8B4FE1F07B50123019306282B
S214022DE016D8DFE800F00A192820040E2400144939
S214022DF0144828F041F901900AE0124828F026FA11
S214022E00F9E7104828F0E7F80F4B019001221A70F4
S214022E10019803B05DF804FB0A4828F0D7F80A4B7D
S214022E2001900022F3E7074828F0DAF8E3E70548BE
S214022E3028F0DBF8DFE7034828F0FFF8DBE700BFFF
S214022E4060E50900E83C0220D7B4FE1F38B52A4CDC
S214022E502A4D23789FED2A7A05EB8305D5ED007A75
S214022E60F4EEC77AF1EE10FA40DD9FED267AF4EE24
S214022E70C77AF1EE10FA39D5032004F001F80420DF
S214022E8085ED000A257803F0FBFF1F4B052003EBB8
S214022E90850383ED000A257803F0F2FF1B4B03EB54
S214022EA0850383ED000A257803F0A8FD184B03EB93
S214022EB0850383ED000A257803F0A6FD154B03EB88
S214022EC0850383ED000A23780C220133B3FBF2F16B
S214022ED002FB11332370104B1B7863B90420FFF7F3
S214022EE07BFFBDE838400520FFF776BF0B4A136824
S214022EF001331360EFE738BDD4B4FE1FA4B4FE1F3F
S214022F00CDCCCCBDCDCCCC3D74B4FE1F44B4FE1F9C
S214022F1014B4FE1FE4B3FE1FD7B4FE1FE063FE1F09
S214022F2013B50A4B18780024012801940AD1FFF73A
S214022F3053FF019B034320460193FFF74DFF019B7E
S214022F4003430193019802B010BD00BFD7B4FE1F21
S214022F502DE9F347544B554C1A78554B554D53F8BB
S214022F60223000932378544EDFED547A0B2B84BF25
S214022F70002323702B680E2B9CBF01332B60237813
S214022F8006EB830393ED000A2B68B0EEC07AB4EE2C
S214022F90E77AF1EE10FA40F38180009A9A427DD8E1
S214022FA0062003F09FFFDFF830A12378DFF82C918C
S214022FB0DFF82C81424F0AEB830393ED000A0720C9
S214022FC003F090FF237809EB830393ED000A0820B1
S214022FD003F088FF237808EB830393ED000A03F0DF
S214022FE019FD237807EB830393ED000A03F018FD1F
S214022FF023789FED347A06EB83010AEB830A09EB0A
S214023000830908EB830807EB830700220A60013373
S214023010CAF80020C9F80020C8F800203A600C223E
S214023020B3FBF2F102FB113323700133B3FBF2F16F
S21402303002FB113306EB8306D6ED007AF4EEC77A6E
S214023040F1EE10FA0DDD9FED207AF4EEC77AF1EE7E
S21402305010FA06D5032000F081FF1C4A13680133DC
S2140230601360022000F01EFBA8B100230193184B48
S21402307001A918682AF02EFB019B3BB1154B4FF0B5
S21402308080525A60BFF34F8FBFF36F8FFFF798FEE1
S21402309000232B6004E0FFF743FFF7E70E2BF7D879
S2140230A002B0BDE8F08700BFD8B4FE1FD5B4FE1F3D
S2140230B05C230900DCB4FE1FA4B4FE1FBD378635B0
S2140230C0E4B3FE1FCDCCCCBDCDCCCC3DDC63FE1F25
S2140230D0A427022000ED00E074B4FE1F44B4FE1FD5
S2140230E014B4FE1F014B1878704700BFD7B4FE1FFA
S2140230F0014B1878704700BFD6B4FE1F0348002362
S21402310000681A4619462AF0A5B900BFA42702206D
S2140231102DE9F0411F48204D1E4E2DED028B4FF437
S214023120A042002144F066F99FED1C8A3746A84665
S2140231304FF4A044F8EC017A67EE887AFDEEE77A5F
S21402314017EE903A18B203F025F9013C07F8010B86
S214023150F0D1134B1B780A2B07D900F005FF20B1DC
S21402316000F0B0FA08B1FFF7C9FF16F8010B03F03A
S21402317079F907EE900AF8EEE77A013487EE887A54
S214023180B4F5A04FA5EC017AEFD1BDEC028BBDE8F9
S214023190F08100BFE463FE1F7895FF1F00007A44AB
S2140231A0D6B4FE1F10B51446B0B9012913D1012BAF
S2140231B011D1012A0FD1B5EEC00AF1EE10FA0ADDDE
S2140231C0F6EE007AF4EEE70AF1EE10FA03DB0220DE
S2140231D000F07EFA204610BD0020FCE70B2808B55A
S2140231E001D1012901D0002008BD012B13D1042AE8
S2140231F011D1B5EEC00AF1EE10FA0CDDF6EE007A49
S214023200F4EEE70AF1EE10FA05DB05490A78013218
S2140232100A701846E8E7032000F05AFAE3E700BF10
S214023220E0B4FE1F014B1878704700BFE0B4FE1FE3
S214023230014B1878704700BF6E06FE1F07B50123C4
S21402324001930E4B187080B101280AD10C4B0D4821
S21402325000221A7027F0BAFE01900A4827F0F6FFFD
S2140232600190019B03B05DF804FB0749054827F06F
S21402327003FF0190034827F0AEFEF1E76E06FE1F3D
S214023280E0B4FE1F283D0220BCE50900012808B56F
S2140232904FF0000002D9FFF7D1FF012008BDFFFF63
S2140232A008B50A4A138801339BB213800A22B3FB7D
S2140232B0F2F102FB11339BB233B90120FFF7BEFFD6
S2140232C0034A13880133138008BD00BFDA63FE1F6A
S2140232D0D863FE1F07B501230193104B187028B15F
S2140232E001280ED0019B03B05DF804FB0C4B18704E
S2140232F00C4827F06BFE01900A4827F0A7FF0190C2
S214023300F0E70949074827F0B7FE0190054827F07D
S21402331062FE064B019000221A60E3E76F06FE1F6C
S214023320E0B4FE1F083D0220BCE50900E4B4FE1F1F
S21402333037B58D1F012D9DF8184002D82E4B0D2251
S2140233403EE000294CD004284AD10D2A40D801A1DB
S21402335051F822F08D330200A9330200D133020065
S214023360D1330200D1330200D1330200D13302003E
S214023370D1330200D1330200D1330200BD33020042
S214023380C53302003D330200CB330200012B02D1CB
S2140233901846FFF721FD184B0A221A70012003B0C7
S2140233A0BDE83040FFF796BF2BF0B8F94FF47A61CC
S2140233B0019001A82BF038FB03B030BD0E4B0B2258
S2140233C01A70F9E70C4B0C22FAE70B4B0E22F7E7C2
S2140233D00024094B20461C7000F07AF92046DEE7EE
S2140233E0054B002201281A70E6D1022CE4D103B064
S2140233F0BDE83040FFF722BFD6B4FE1F0378022B8B
S21402340001BF024A138801331380704730B5FE1F8E
S214023410014B1888704700BF30B5FE1F10B588B044
S21402342020220021684643F0E5FF2F49684644F013
S214023430F7F89DF800009DF801302C490A22303832
S214023440303B02FB00339DF80300CB609DF804304E
S214023450303802FB0033313B0B619DF807309DF894
S21402346006006424303B303863434FF47A7404FB1E
S21402347000339DF80800303802FB00339DF809003F
S2140234800344A3F29C739DF80B004B619DF80C302D
S2140234903038303B02FB00338B609DF80E009DF8FF
S2140234A00F303038303B02FB00334B609DF8110082
S2140234B09DF812303038303B02FB00330C480B606C
S2140234C026F0FEFD044628B10A4800F075F82046AC
S2140234D008B010BD0849064826F09EFE044600289D
S2140234E0F5D00648F1E700BFEFD006000CB5FE1F88
S2140234F06C3E022003D10600E8B4FE1F1CD1060073
S21402350010B505480E2126F0DFFE044610B103482A
S21402351000F052F8204610BD6C3E022035D106005F
S21402352008B5054826F03EFD20B1BDE80840034830
S21402353000F042B808BD00BF6C3E02205DD1060016
S21402354010B51549154826F0DDFE044658B1144854
S21402355000F032F8134800F02FF8134922460020F4
S21402356000F058FB00BEFFF759FFFFF7C9FF0446FD
S21402357068B1FFF7D5FF0D4800F01EF80C4800F0C2
S2140235801BF809492246002000F044FB00BEBDE8B5
S2140235901040084800F010B8F8E609006C3E022019
S2140235A07BD10600C7D1060093D1060035D10600AE
S2140235B0B3D10600DFD1060030B5C5B00546FFF729
S2140235C027FF0446FFF724FF4FF46163B0FBF3F2D4
S2140235D002FB130292B23C20B2FBF0F100FB112276
S2140235E092B2CDE90012B4FBF3F3064A02959BB2FF
S2140235F0FB2104A843F074FE04A9002000F00AFB95
S21402360045B030BDFAD1060037B5134D4FF480727F
S2140236100021284643F0EEFEFFF7FAFE0446FFF7C7
S214023620F7FE4FF46163B0FBF3F202FB130292B2B1
S2140236303C20B2FBF0F100FB112292B2CDE900125F
S214023640B4FBF3F3054A9BB2FB21284643F048FE3F
S214023650284603B030BD00BF32B5FE1F0FD20600AB
S214023660014B1870704700BF68B6FE1F014B1878F2
S214023670704700BF68B6FE1F014B1870704700BF48
S21402368065B6FE1F054B1A780AB100221A70044B63
S2140236901A780AB100221A700020704767B6FE1F19
S2140236A066B6FE1F012803D0022804D00020704709
S2140236B0024B18787047024BFBE700BF67B6FE1F47
S2140236C066B6FE1F014B1878704700BF64B6FE1F31
S2140236D0014B1870704700BF64B6FE1F0C2807D057
S2140236E00D2809D00B280AD1054B83ED000A704736
S2140236F0034B83ED010A7047014B83ED020A7047C4
S21402370034B6FE1F0369C26893429CBF81685B1889
S214023710013B981A70472DE9F041D0E9028405462C
S214023720A8EB04064068964220440F46144406D985
S21402373043F0CEFFBFF35F8FEC60BDE8F081324608
S214023740A4EB080443F0C4FF68682246B919EFE701
S2140237502DE9F843C5680646894617464FF0000825
S2140237603369B46870689D4228BF1B19641BBC424B
S21402377003F1FF3328BF3C465B1B9C4228BF1C4616
S21402378049462246284443F0A3FFB3682544A04492
S214023790A1443F1BAB4208BF0025BFF35F8FF56015
S2140237A0002FDDD14046BDE8F883FFFF08B5144B75
S2140237B0A8220021184643F01DFE03220261114989
S2140237C04261114A8161C2614FF480620262002244
S2140237D082624262C26201660C49416610218166BB
S2140237E003460267C2664267BFF35F8F084911F954
S2140237F0010D98540132102AF9D1BFF35F8F08BD2C
S2140238007CBAFE1F1FD2060079B6FE1F69B6FE1FDF
S21402381084230900F8B5144B182700FB07751D44CE
S21402382007FB00330E46DB6A012B14460AD0022B36
S21402383014D023B92846FFF765FF844208D900242E
S2140238402046F8BD2846FFF75DFF844228BF04469F
S214023850224631462846FFF75EFFF1E72846BDE8D6
S214023860F840FFF775BF00BF7CBAFE1FF8B50B4BDA
S2140238701B78532B04460D46164601D0FFF796FFDB
S214023880EFF311874FF0200181F311883246294663
S2140238902046FFF7BFFF87F31188F8BD7CBAFE1FEC
S2140238A010B5826804464068531C834205D82068D7
S2140238B08154A360E3680133E360D4E901329A429B
S2140238C00BD121682069FFF7D1FFA368984215BF84
S2140238D04FF0FF330023E360A36010BD2DE9F84FDD
S2140238E09946DDE90A431646054688460A464FF0DB
S2140238F0010AB24212D2CA4538BFCA4613F0010BB9
S21402390001D184B90024EB68002B3DDB0127B9F115
S214023910010F1FD909F1FF397743F8E70AF1010AC7
S214023920B2FBF6F2E5E79B0712D5B9F1000F0CBF22
S21402393030272027A245E6D239462846FFF7B0FFB1
S214023940EB68002B04F1FF34DDDB002CF2D1D9E763
S2140239502027EFE7B8FBF7F39E42DDD9DFF8489061
S214023960B8FBF7F3284619F9031007FB1388FFF78D
S21402397097FFEB68002B03DBB7FBF6F3B74205D2E3
S214023980BBF1000F00D064B9BDE8F88F1F46E7E729
S21402399020212846FFF784FFEB68002B04F1FF3452
S2140239A0F2DB5445F4D8EFE7852309002DE9F04F02
S2140239B000239BB00E464021CDE90613CDE9083020
S2140239C00DF1280A03901546CDF814A016F9011B2E
S2140239D039B9089D002D00F3138108981BB0BDE885
S2140239E0F08F252940F0BD804FF0000B314611F9CB
S2140239F0013B2D2B19D013DC232B1DD02B2B18D0DB
S214023A000024314611F9013BA3F13000C0B2092867
S214023A1015D80A2202FB0433A3F130040E46F0E75F
S214023A20302BEDD14BF0020B01E04BF0010B0E46B2
S214023A30DCE74BF0040BFAE74BF0080BF7E72E2B0C
S214023A4012D10E464FF000094FF00A0C304610F91C
S214023A50011BA1F13007FFB2092F07D80CFB091191
S214023A60A1F130090646F1E74FF00009304610F999
S214023A70011B21F00407682F0646F8D0782909DCD6
S214023A806F290BDC632967D020DC252969D05829E9
S214023A9000F09680089B002B98DA9AE7703908297E
S214023AA0F8D801A050F821F0F13B0200953A020046
S214023AB0953A0200D13B0200953A0200AF3B020063
S214023AC0953A0200953A0200C13B02006429E1D110
S214023AD02968081D28600F6887EAE771A1EBE7717D
S214023AE04FF001080A2009293FDCC84538BFC846FE
S214023AF02CB1002F02DB1BF0040F00D0013C1BF0A0
S214023B00020F02D0B9F1000F04D01BF0010F01D151
S214023B1084BB002408990029BCDB002F36DA7F42DA
S214023B202D2105A8FFF7BCFE08990029B2DB0BF091
S214023B300301022904D1B9F1000F01D15CBB0024B4
S214023B4008990029A6DBCDE9004B4B460A223946E6
S214023B5005A8FFF7C3FE9DE72B681A1D2A6093F996
S214023B60001005A8FFF79CFE94E708F10108B1FBD8
S214023B70F0F1B8E74445CDD9202105A8FFF790FE1D
S214023B800899002904F1FF34C2DAC3E71BF0040FD8
S214023B90CDD02B21C5E74445D2D9302105A8FFF761
S214023BA07FFE0899002904F1FF34C7DAC8E72968BE
S214023BB0081D2860CDE9004B4B460A220968C7E774
S214023BC02968081D2860CDE9004B4B461022F5E710
S214023BD02B681A1D2A601C6814F9011B00293FF481
S214023BE059AF05A8FFF75CFE089B002BF4DA51E7F5
S214023BF029680B1D2B6000220823CDE90032E5E779
S214023C00079C24B1039822465146FFF72FFE2C4408
S214023C100894E2E60EB403B503AB01AA53F8041BFC
S214023C200193FFF7C3FE02B05DF804EB03B07047E2
S214023C3007B500230449054801930FF073FD019070
S214023C40019803B05DF804FB60E40900903B022093
S214023C5001480FF027BD00BF903B022008B54FF485
S214023C6040620021034843F0C5FB034B0020186066
S214023C7008BD00BF2CBBFE1F28BBFE1F2DE9F04F60
S214023C8085B00E460E9F0193B7F5006F04464FF0BF
S214023C9001013046904628BF4FF4006742F0F0FC20
S214023CA0054600285AD0002132460291039143F07D
S214023CB0A1FB2146284643F0B3FCDFF8B090DFF8BC
S214023CC0B0A00124DDF808B0BBF1000F34D1FFF735
S214023CD0C5FF234B2348CDF80CB03246294689F857
S214023CE000B08AF800B083F800B00FF0F2FB04468A
S214023CF048BB99F8003013B9029B434507D3039B90
S214023D00BB420BD3039BBB4216D30124DAE70A203D
S214023D102AF0D6FE029B01330293EAE70199124883
S214023D2043F042FC039A834601320A2003922AF0A9
S214023D30C7FEBBF1000FE2D0284642F0C5FC204683
S214023D4005B0BDE8F08FFFF783FF64202AF0B8FEC7
S214023D50FFF76EFF64202AF0B3FEB3E70124EEE716
S214023D602CC7FE1F903B02202CBBFE1F2DC7FE1F3A
S214023D702EC7FE1F2DE9F041C6B005460E460024AA
S214023D800021174606A84FF48072984643F032FB8D
S214023D90CDE90264164E04953368164A4FF48071D4
S214023DA0CDE9004306A82B4643F09AFAFFF72CFC0F
S214023DB01149024606AB2046FFF72CFF0220FFF70A
S214023DC071FC98B1CDE900840C4B3A464FF48071F1
S214023DD006A8FFF753FF044650202AF071FE336808
S214023DE020460133336046B0BDE8F0810124F3E794
S214023DF024BBFE1F2FD20600A0D2060028D2060041
S214023E00F0B5A5B01E4607460C4615460021802290
S214023E1004A843F0EFFA144A009523468021CDE920
S214023E20016704A843F05CFAFFF7EEFB0F4902466F
S214023E3004AB0020FFF7EEFE0220FFF733FC80B152
S214023E40002301932B9B00932A9A094B802104A8F6
S214023E50FFF714FF044650202AF032FE204625B013
S214023E60F0BD0124F7E700BFA8D20600A0D20600E4
S214023E7028D2060070B5A2B006460C4615460021AA
S214023E80802202A843F0B6FA114A3346802102A8DD
S214023E9043F026FAFFF7B8FB0E49024602AB0020B3
S214023EA0FFF7B8FE0220FFF7FDFB78B10023CDE94D
S214023EB000532246084B802102A8FFF7DFFE044685
S214023EC050202AF0FDFD204622B070BD0124F7E7FF
S214023ED017D30600A0D2060028D20600F0B5A3B07B
S214023EE007460E4614460021802202A81D4643F0CD
S214023EF081FA124A00973346802102A843F0F0F96D
S214023F00FFF782FB0E49024602AB0020FFF782FE55
S214023F100220FFF7C7FB78B10023CDE90053224603
S214023F20084B802102A8FFF7A9FE0446C8202AF003
S214023F30C7FD204623B0F0BD0124F7E756D306009E
S214023F40A0D20600BAD30600004870472FC7FE1F4D
S214023F50014B1878704700BF7106FE1F014B1870A0
S214023F60704700BF7106FE1F034B986C034BC0F3ED
S214023F7040021A70104670470008044030CAFE1FFE
S214023F8038B50C4C0C4DA36F2B4043F00503A367CA
S214023F9064202AF095FDA36F2B4043F00403A36729
S214023FA064202AF08DFDA06C044BC0F340021A7008
S214023FB0104638BD00080440FE3FFEFF30CAFE1F12
S214023FC070B50F4B0F4D1B78C3B90F4C0F4EE36FF6
S214023FD0334043F00503E36764202AF071FDE36F84
S214023FE0334043F00403E36764202AF069FDA36CC0
S214023FF0FA20C3F340032B702AF062FD287870BDC6
S2140240002FCAFE1F30CAFE1F00080440FE3FFEFFF6
S21402401038B504460025A54201D1002038BDFFF779
S214024020A3FF013530B9FFF7ABFF4FF47A702AF0E1
S21402403047FDF0E70120F1E770B52D4D2D49049CB0
S2140240400738164601282A780A7003D80023236008
S2140240502B7033E06BB1002323600F20FFF7D8FFED
S21402406004232B70042E29D8DFE806F0341607291D
S2140240703C00042AF6D10123F3E7236801332360C8
S214024080FFF79EFF2368022B18D9002323600F2018
S214024090FFF7BEFF0123DBE7FFF766FF18B9BDE8AF
S2140240A07040FFF76DBF23680133022B236005D9EA
S2140240B002232B70FFF784FF0023236070BDFFF7F7
S2140240C053FF0028EBD0236801330B2BF5D90023CE
S2140240D02360DFE7FFF748FF0028EFD0BDE8704017
S2140240E0FFF76EBFFFF740FF0028E7D1D7E700BF14
S2140240F07106FE1F7006FE1FF7B51C4601230093CD
S2140241000FF0E7F90D4D0E4E009000221427944250
S2140241102A6004D933782BB10023009333700098B9
S21402412003B0F0BD00972AF0F9FA0A21019001A81F
S2140241302AF07AFC2A680132E9E700BF58CBFE1F54
S2140241405DCBFE1F10B54FF4807204460021044872
S21402415043F050F9034B1C70034B00221A7010BD3B
S21402416058CAFE1F5CCBFE1F34CAFE1FF7B50E46AA
S214024170174605461C46002001230093FFF7E2FF80
S214024180FEF7A6F83A46314628460FF087F90F4D55
S2140241900F4E00900022142794422A6007D93378E3
S2140241A043B100200090FFF7CDFFFEF7ABF8009872
S2140241B003B0F0BD00972AF0B1FA0A21019001A8D7
S2140241C02AF032FC2A680132E6E700BF58CBFE1F0F
S2140241D05CCBFE1F73B5314C012641F211112068EB
S2140241E0019628F029FF3146206828F04BFFFEF79B
S2140241F0AFF805460220002D3AD0FFF753FA284CB6
S214024200C8B12849284803226423FFF775FF5223C2
S21402421001904FF47A7023702AF052FC0020FEF7C9
S2140242209DF80020FEF78EF83046FFF719FAFFF7E2
S214024230C7FE01201AE01D4D4FF4FA602AF040FC3A
S21402424040F21111286828F0F7FE21466423032263
S2140242501548FFF751FF5723019004202370FFF7FC
S214024260FFF92868102128F00DFF002002B070BD6B
S214024270FFF718FA044618B12846FEF763F8D8E79F
S2140242800A4B40F21111186828F0D6FE0848234659
S21402429022462146006829F0DDF8E6E75827022084
S2140242A07206FE1FCAD30600903B02203827022061
S2140242B03C28022008B50220FFF7F4F920B90120B5
S2140242C0FEF740F8012008BD0020FEF73BF8FFF796
S2140242D03FFE02280CD0FFF747FE48B90220FFF740
S2140242E0E1F928B1FEF7F6F8082806D0FFF748FEEF
S2140242F00A202AF0E5FB0020E5E7FEF7EBF80728A0
S214024300F4D1F5E7FFFFFFFF2DE9F0412DED028B1B
S21402431010EE108A9FED1A8B044641F049FCB0EE6F
S214024320480AF0EE680A41EC110B45F099F9604232
S21402433057EC106B41F04CFCB0EE480AF0EE680AFF
S21402434041EC110B45F08CF9404655EC104B41F010
S21402435051FC32463B4641F0A5FC41F03DFF294662
S21402436008EE100A204641F05FFFB8EEC88A00EE5B
S214024370100A20EE080ABDEC028BBDE8F08100BFF1
S21402438000000000000024402DE9F04F2DED048BC4
S214024390AE4D9FEDAF0AAF4FADF58A3DEBB00020B4
S2140243A002F0A0FD0FCD28AC0FC495E8030040F242
S2140243B0546284E8030000210DF5E16043F01AF828
S2140243C04FF4C87301930DF5E1630093042228AB02
S2140243D0062114A841F02EFA0DF5474044F6206255
S2140243E0002188300DF5474643F004F888363546F6
S2140243F000242A4639464FF4C87314A8013441F003
S214024400D9F9322C07F5C86705F5C875F1D1924D72
S2140244100FCD2EAC0FC495E803004FF4D27284E899
S21402442003000021C4A842F0E5FF64230193C4AB55
S214024430009304222EAB062117A841F0FBF90DF5D6
S2140244400E4041F288320021803042F0D3FF0DF553
S2140244500E45803500242A463146642317A80134C7
S21402446041F0A8F9322C06F5C87605F16405F2D1BA
S2140244707A49C82292A843F02BF90DF2B4434FF4BE
S21402448015720021184642F0B5FF64220346214603
S21402449000921AA892AA41F01DFA0DF540504FF468
S2140244A096520021183042F0A5FF00240DF5425323
S2140244B028330DF50E41A3F190058031621921448F
S2140244C064231AA804F5C87441F0CEF9B4F5965FD1
S2140244D0ECD12A464FF49663D2ED007A77EEA77AAD
S2140244E0013BE2EC017AF7D107AC06AA9FED588AA7
S2140244F013604FF4966113462846224684ED008ADE
S21402450041F038F8D4ED007AB5EE007A67EE877A95
S2140245102B464FF49664B3EC017AB4EEE77AF1EEEA
S21402452010FA48BF03ED018A013CF4D10DF585402F
S21402453021464FF49652583042F05CFF0DF5AB40E0
S21402454021464FF49652183042F054FF0DF5D040F3
S21402455021464FF49652583042F04CFF0DF5D042A9
S2140245600DF5AB410DF585405832183158304FF4F1
S214024570966455F8043B40F8043B013C41F8043B82
S21402458042F8043BF5D10DF5EA5041F2BC22214631
S2140245901C3042F02FFF0DF5B563A3F28459A3F544
S2140245A0B06AA3F27C57A3F5AF65A3F27456A3F5DF
S2140245B0AE638DED088A89ED008A8AED008A87ED62
S2140245C0008A85ED008A86ED008A83ED008A8DEDED
S2140245D00F8A0FAB0DF585430DF5EA5B5833DFED19
S2140245E0208A9FED209A03930DF120080BF11C0BF5
S2140245F0039BDFED177AA3EC018A03930EAB88EDDB
S214024600008A0DF5AB4089ED008A0DF5D0428AEDA1
S214024610008A0DF5854187ED008A85ED008A86EDD4
S214024620008A83ED008A8DED0F8A0FAB1830583260
S21402463058310123B0EE676AF0EE675AB0EE677A39
S214024640F0EE676A40F2B14C0EE000BF9823090014
S214024650000000007895FF1FB0230900C823090058
S21402466000009644BD378635B3F5966F18BFD2F86C
S21402467000E0F0EC014A18BFC1F804E00133B1ECE7
S214024680015A634545EE245A04EEA46A45EE057ABD
S21402469076EEA46A37EE057AA2EC015AE4D165EE0C
S2140246A0A85A26EE286AC9ED005A66EE875A67EEC1
S2140246B0A87ACAED005AD9ED005A9AED005A75EE5C
S2140246C0C55AC8ED005A85ED006A95ED006A06EEF9
S2140246D0E66A85ED006AC6ED007AD6ED007A47EE08
S2140246E0477AC6ED007AD5ED007AF0EEE77AF4EE78
S2140246F0C97AF1EE10FA4FDDD6ED007AF0EEE77ADF
S214024700F4EEC97AF1EE10FA46DDD8ED007AF0EE54
S214024710E77AF4EEC97AF1EE10FA3DDDD5ED007ACD
S214024720F5EEC07AF1EE10FA0EABC0F2E581F1EECC
S214024730E77AC3ED007AD6ED007AF5EEC07AF1EEAE
S21402474010FA0FABC0F2DB81F1EEE77AC3ED007A26
S2140247509DED0E7A0EABDDED0F7A67EE277A0FAB84
S21402476017EE900A41F046FAF4A3D3E9002341F08B
S214024770E3F841F059FD386097ED007AF7EE006AEB
S214024780C6EE877AC7ED007AD8ED007A97ED007A02
S21402479067EE877ACBED007A013440F2AF439C4253
S2140247A00BF1040B7FF424AFA822002168A842F084
S2140247B021FE68ABD64A2A211D46013943F8042B4E
S2140247C0FBD10DF5F64041F26832183042F012FE87
S2140247D00DF5F7432833903B0DF5EA5000932A4631
S2140247E02A2340F2AF411C3040F068FF0DF5F74334
S2140247F028330DF5EA56DFEDC78AA3F13C051C36D1
S214024800B5EC010A042020EE280AFFF77DFD013CE4
S214024810A6EC010AF4D10DF522404FF416522146B9
S214024820083042F0E7FD0DF540504FF4965221460F
S214024830183042F0DFFDB8494FF480520DF65C5056
S21402484042F046FF0DF5224308330DF5EA510DF608
S2140248505C521C3125461E46F1EC017AB2EC017A16
S21402486083ED018A67EE877A0135B5F5806FC3ED71
S214024870007A03F10803EFD10123A848002231464B
S21402488040F014F90DF540512A461831304641F0F1
S2140248902FF80DF1170510AB83ED008A0DF5405089
S2140248A000232B7010AA2B464FF40071183040F0EC
S2140248B061FE9B4B1B68002B00F024812B78032B98
S2140248C040F24281062B8CBF4FF02D084FF057085E
S2140248D06822002134A842F08DFD00256822294670
S2140248E04EA811AB1D6042F085FD1022294620A875
S2140248F042F080FD1022294624A842F07BFD34AE09
S2140249006AAB3246A946A3F1700A40F2AF47B7FB3C
S214024910F8F70DF5EA501C3000EB850011AB414666
S2140249209346039240F026FE11AB9BED000A1B68ED
S21402493004202B444AF82930FFF7E6FC09F1010966
S214024940039A4F45A2EC010A4544E2D1013F0023F7
S214024950012220A924AD304690ED007AD6ED017AE8
S214024960F4EEC77AF1EE10FA06F1040640F3EF8091
S21402497096ED017AF4EEC77AF1EE10FA40F3E7808C
S21402498001EB8300C0ED007A5AF8220045F82300B6
S2140249900133042B40F0DB8012AE624B336013AB64
S2140249A000251D60324613AB102120A840F0E2FD20
S2140249B024A996ED007A2B46284620AAF6EE006A2F
S2140249C00D4692ED006AC6EE077AF4EEE67AF1EE4E
S2140249D010FAC4BF51F8236045F8206003F10103C2
S2140249E0C8BF0130042BE2EC017AEAD1032840F278
S2140249F0B3801DAA0023C2E90033936024AAD2E939
S214024A0000CEDFED496A9FED496ADFED495A9FED18
S214024A10495A1DAA24AD164603204FF00008BCF1E1
S214024A20000F00F0A380BEF1000F40F0A2800CF150
S214024A30010107EE901AF8EE677A67EEA67A86EE1E
S214024A40277A1DA901EB8303012083ED007ADDEDB1
S214024A501E7A9DED1D7A37EE277ADDED1F7A1DABA5
S214024A602F4B37EE277A07EE900A1B68F8EE677A26
S214024A70032B87EE270A1DD9002303219FED317AE7
S214024A809FED2D6AF0EE476AF2EC017AF4EEC67AF2
S214024A90F1EE10FA40F3918076EEA76A01340139FE
S214024AA0F2D1A34280F09E8007EE904AF8EE677A33
S214024AB086EEA70ADFED1E7AB4EEE70AF1EE10FAEA
S214024AC00BD4B4EE400AF1EE10FA06D6DFED197AF0
S214024AD0B4EEE70AF1EE10FA01DDB8EE000A0020A5
S214024AE002F000FA002002F0CBF90DF58A3D6BB019
S214024AF0BDEC048BBDE8F08F83ED008A1BE683EDE8
S214024B00008A25E64FF04B08E2E600BFAFF30080CE
S214024B10310CC33C0000284290240900B46A0A0003
S214024B2090F0FE1FCDCCCC3DE3C2883B0000704225
S214024B30000020420000204300009642BC89D8971D
S214024B40B2D29C3C000000004FF06408C0E601327E
S214024B50BA42FFF400AF1FE7C0F1040224AB920092
S214024B60002103EB800042F045FC42E71FED0B7A82
S214024B7067E72F4669683F68C91B07EE901AF8EE8A
S214024B80677A013367EEA67A043586EE277AB4EEA4
S214024B90E57AF1EE10FA0CD4B4EEC57AF1EE10FA1C
S214024BA007DC86ED007A032B06F104067FF437AFA6
S214024BB04DE7C6F800800138F5E77FF570AFF5EEF1
S214024BC0C07AF1EE10FAC4BF37EE277A013366E7F1
S214024BD007EE903AF8EE677A87EE270A6AE7B0EEB3
S214024BE0470A67E7F4D8064BD3ED007AF4EEC67AA6
S214024BF0F1EE10FAF3D47FF75DAFB0EE660A59E72E
S214024C006C07FE1F2DE9F0472DED048BADF52E5DEA
S214024C108EB04FF49A72002105A842F0EBFB744F57
S214024C2005AD00264FF000090DF5DD504FF4805219
S214024C300021183042F0DEFB6E494FF400620DF69A
S214024C40B83042F045FD0DF5DD530DF6B831183398
S214024C503A4640F20124013C03F1080340F0BD80CD
S214024C600DF5DD5101236448224618313FF01EFF40
S214024C700DF59D504FF400622146183042F0BAFB03
S214024C800DF59D510DF5DD504FF4007218311830B8
S214024C9040F02EFE4FF4CE72214652A842F0AAFBF6
S214024CA00DF59D5318330DF5A478643342466721FB
S214024CB0F3EC017A67EEA77A0139E2EC017AF7D1D2
S214024CC04FF400720DF21C6042F094FB0DF21C636E
S214024CD080249A464FF07052013C43F8042BFBD1D5
S214024CE021464FF467720DF61C0042F083FB0DF668
S214024CF01C030093524680236721404640F0DEFCA8
S214024D000DF6B833A3F6D4004FF4CE720DF61C118E
S214024D1042F0DEFC21464FF4CE720DF590600DF5A2
S214024D20906442F067FBB9A922466723F8EC017A41
S214024D30B1EC017A77EEC77A013BE2EC017AF5D163
S214024D4003AAC2F8009004AA6721136020461346FD
S214024D5003AA40F00FFCDFED297A29492346672291
S214024D60B3EC017AB5EEC07AF1EE10FA48BF43F81A
S214024D70041C13ED017A013A77EE877AF0D1DFED63
S214024D80219A37EEA98A4FF06708F4EC017AD5ED3E
S214024D90008A87EE889A39EE290A44F065FD49EEC4
S214024DA0408AB8F10108C5ED008AEED106F5807694
S214024DB0B6F59A4F05F1040507F580677FF434AF20
S214024DC04FF49A7205A9104842F082FC0DF52E5D4A
S214024DD00EB0BDEC048BBDE8F087F2EC017AB1ECC4
S214024DE0017A43F8049C67EE877A43ED027A32E74B
S214024DF07895FF1F90340900C46A0A00000000007C
S214024E00CDCC4C3D0000802534F4FE1F2DE9F04F3A
S214024E10ADF51A5D8DB00DF5D66355AC582200215E
S214024E20A3F23C5042F0E6FA4FF0785323606360F8
S214024E30A360E36023616361A361E3610DF50A5336
S214024E401C3340F214420021184642F0D3FA0823DB
S214024E5022460090E721D14840F030FC4FF45F72C2
S214024E6000210DF6BC4042F0C5FA0DF6BC450DF524
S214024E700A523C322B46DF24F2EC017A013CF1EE78
S214024E80677AE3EC017AF7D106AB00261E60079438
S214024E9007AB06AA07ABDF21284640F06BFB0DF5F1
S214024EA0D663A3F28C6308AF1C603A4609ABDF21D7
S214024EB028463E6040F08EFB97ED007ADFEDB86A3A
S214024EC0B0EEC77A2B46DF24D3ED007A77EE277A48
S214024ED0013C77EEA67AE3EC017AF5D10DF5B553EF
S214024EE0103321464FF45F72A3F5CF6042F082FA88
S214024EF00DF5B553103321464FF45F72A3F53F709C
S214024F0042F078FA0DF5B95021464FF45F72103030
S214024F1042F070FA0DF5B9520DF59D510DF581501E
S214024F20103214311830DF2455F8043B40F8043BA5
S214024F30013C41F8043B42F8043BF5D14FF45E7263
S214024F4021460DF2CC5042F055FA0DF2CC570DF533
S214024F5081559FED945ADFED944A9FED943A3A4676
S214024F601835B846F7EE002A9FED966A45F8046BA8
S214024F700DF59D5C0DF5B9510DF581500CF1140C33
S214024F80103118300123F0EE463AB0EE464AF0EE03
S214024F90465AF0EE467ADF2B18BFD1F800E0FCEC5A
S214024FA0016A18BFC0F804E00133B0EC017AE02BC6
S214024FB007EE264A46EEA63A07EE076A77EEA67A86
S214024FC075EE875AA1EC017AE5D167EEA76A53EE31
S214024FD0856AB0EEE67AB4EEE47AF1EE10FA2FDDE8
S214024FE025EEA57A16EE057AB0EEC76AB4EEE46A46
S214024FF0F1EE10FA24DD67EEA57A54EE057AB0EEED
S214025000E76AB4EEE46AF1EE10FA19DDF5EEC06A6C
S214025010F1EE10FAC0F26D81F1EEE66AB5EEC07AF4
S214025020F1EE10FAC0F26881B1EEC77AB0EE436ACA
S21402503006EE876A82EE867A67EE277AC2ED007AF5
S2140250400134DE2C02F104028ED10AAD2A468021FA
S21402505038460DF5E6792E6040F0A4FA95ED007A12
S2140250604B468025F7EC017A77EEC77A013DE3ECF2
S214025070017AF7D10DF5F4504FF4806229461C30C0
S21402508042F0B8F94FF400724949F3A842F020FB07
S2140250900DF5F453F3AA1C332F46F9EC017AB2EC61
S2140250A0017A5E6067EE877A0137802FC3ED007A59
S2140250B003F10803F1D10DF5F45101233D48002216
S2140250C01C313FF0F3FC0DF5F4511C3108463A460C
S2140250D040F00EFC0B960DF117060BAB0DF5F450D7
S2140250E0002333700BAA33460A211C3040F042FAE2
S2140250F03378022B40F20381032B15BF0A260E26B5
S2140251000627122707EE907AB8EEE77AF7EE006ADD
S214025110C6EE877A55AB0135AF42E3EC017AFAD197
S2140251200DF5D5550C353B464046009555AADE2171
S21402513040F0C4FA4FF45E7200210DF6441042F0BD
S21402514059F90DF6441805EB47054746B5EC010A32
S214025150042087ED000AFFF7D7F8013CA7EC010A06
S214025160F4D15822214613A842F044F95822214687
S21402517029A842F03FF9582221463FA842F03AF9C0
S214025180102221460FA842F035F913ADDF23B3FBF8
S214025190F6FAB30002932A46274615E098F0FE1F59
S2140251A08AA47D2500005F43BD3786359595E624A3
S2140251B0903C0900D46A0A0029018B3D0000704227
S2140251C000002042000000000DF1A409934609EBFE
S2140251D0870340463146039240F0CCF99BED000A25
S2140251E00420FFF791F80137039A029BA2EC010A0A
S2140251F057459844E8D13FA9002213460F4659F86E
S214025200040B01331044534541F8040B3244F6D1E3
S214025210013B002101220FA82E4696ED007AD5ED1D
S214025220017AF4EEC77AF1EE10FA05F104050BDD09
S21402523095ED017AF4EEC77AF1EE10FAC2BF57F88E
S214025240226040F82160013101329A42E4D3002301
S214025250CDE90C330E93DDE90F375FED296A1FEDBA
S214025260296A1FED295A0CA80FAE03214FF0000C35
S214025270F1EE005A002B45D0002F46D1013307EE3F
S214025280903AF8EE677A67EEA67A86EE277A0CAB45
S21402529003EB8404012184ED007ADDED0D7A9DEDA9
S2140252A00C7A37EE277ADDED0E7A37EE277A07EE9E
S2140252B0901AF8EE677A87EE270AF1EE007AB4EED5
S2140252C0E70AF1EE10FA48D4B4EE400AF1EE10FA0C
S2140252D043D65FED457AB4EE670AF1EE10FAF8EEC1
S2140252E0007AC8BFB0EE670A0DF51A5D0DB0BDE8CC
S2140252F0F08F5FED4C6A91E61FED4E7A96E6122627
S2140253001E27FFE61FED517AC1E7354672682D6803
S214025310521B07EE902AF8EE677A013467EEA67AF9
S214025320043686EE277AB4EE477AF1EE10FA10D6F5
S214025330B4EEE57AF1EE10FA0BD4B4EEC57AF1EEDD
S21402534010FA06DC80ED007A032C00F1040091D1FD
S214025350A3E7C0F800C00139F6E7B8EE000AC3E7D3
S21402536037B54FF4A0431D4C0D460A4601461C486D
S21402537040F06CF9002301932246284600234FF49E
S214025380A04140F0F7F8002301AA4FF4A0412846B6
S21402539040F020F9D4ED007AF5EEC07AF1EE10FA7C
S2140253A044BFF1EE677AC4ED007ADDED017A94ED42
S2140253B0007AF5EEC07AF1EE10FA44BFF1EE677AA3
S2140253C0CDED017ADDED017AB4EEE77AF1EE10FA70
S2140253D048BFC4ED007A03B030BD00BF7806FE1F9A
S2140253E0903E090073B54FF07E5305460E461446AE
S2140253F0009301936A46002340F0BCF8002301AAFA
S2140254003146284640F0E6F8DDED007AF5EEC07A41
S214025410F1EE10FA44BFF1EE677ACDED007ADDEDDB
S214025420017A9DED007AF5EEC07AF1EE10FA44BFED
S214025430F1EE677ACDED017ADDED017AB4EEE77A28
S214025440F1EE10FA48BFCDED007A009B236002B061
S21402545070BDFFFF30B5ADF5C05D81B004464FF4B8
S21402546080520D460DF50060002141F0C3FF194938
S2140254704FF40062684642F02BF9204604F50061BC
S2140254806B460DF500620024F0EC017AB3EC017A6B
S214025490546067EE877A8842C2ED007A02F108020B
S2140254A0F2D101230DF500610B4800223FF0FEFA0F
S2140254B04FF400620021284641F09CFF4FF4007230
S2140254C029460DF5006040F013FA0DF5C05D01B0F7
S2140254D030BD00BFB4A80900C46A0A002DE9F04F27
S2140254E02DED068BADF5B95D85B0044668220D46F6
S2140254F002A8002141F07EFF224604F1680002A9BC
S214025500234653F8086B41F8046B8342F9D10FAB7C
S214025510683C516E43F8041B083AA242F9D168224D
S21402552000211CA841F066FF6822002136A841F03F
S21402553061FF0DF1700836AF9FED6CAADFED6C9A35
S2140255409FED6C9A3E46C146002407EE904AF8EE5E
S214025550E77A013467EECA7AC7EEA97A17EE900A9E
S21402556040F048FB41EC180BB0EE480AF0EE680A31
S21402557044F0EEF851EC100B40F056FEB0EE480A3E
S214025580F0EE680A07EE900A67EE897AE9EC017A8D
S21402559044F022F951EC100B40F046FE07EE900A5A
S2140255A067EE897A1A2CE6EC017ACED1DDED1C6A1A
S2140255B0DFED517A9FED51AA86EEA77A36AB0DF54E
S2140255C04A6A0DF504790026D3ED006A8DED1C7A41
S2140255D086EEA77AF3EE0A9A83ED007A07EE906AD1
S2140255E0F8EEE77A534667EE8A7ACB4687EEA99AB2
S2140255F00024019307EE904AF8EEE77A013467EE4C
S214025600897A17EE900A40F0F5FA41EC180BB0EEE4
S214025610480AF0EE680A44F09BF851EC100B40F092
S21402562003FEB0EE480AF0EE680A4BF8040B44F0AC
S214025630D3F851EC100B40F0F7FD019B1A2C43F8FF
S214025640040BD6D101361A2E09F168090AF1680A46
S214025650C4D16822002150A841F0CCFE6822002165
S2140256606AA841F0C7FE50A86AAA14460646002356
S21402567084A903EB0109B6EC017AF4EC017A0DF584
S2140256804A6103EB010E0DF1080C0021FCEC016AE5
S214025690B9EC016A013106EE867A1A29BEEC016A75
S2140256A046EE867AF2D16833B3F5296F06ED017AB3
S2140256B044ED017ADCD1294605F16803F7EC017A5C
S2140256C0B2EC016AF8EC016AB0EC017A67EE867A0F
S2140256D056EE877AE1EC017A8B42EFD10DF5B95D91
S2140256E005B0BDEC068BBDE8F08F00BFDB0F49406E
S2140256F000005042D5008E3EF304B53FDB0FC9C012
S21402570010B50023934200DB10BD51F8044B40F85D
S214025710044B0133F6E72DE9F041069F9DF91CE0A4
S2140257200025844601262C46944201DABD4206DB59
S214025730013E01EB840100EB860EA44630E003EB4B
S2140257408508BEF1010FD8ED007A0CD101EB840872
S21402575098ED007AB4EEE77AF1EE10FA0FD9013539
S214025760CCED007A12E0BEF1000FF8D101EB84080E
S21402577098ED007AB4EEE77AF1EE10FAEFDB01EB81
S21402578084080134D8F80080CCF8008001360CF189
S214025790040CC9E751F8048B4EF8048B0CF1010C8B
S2140257A09445F7DB111B9442C8BF0021314403EB3A
S2140257B0850300EB8100BD4201DBBDE8F08153F8B2
S2140257C0042B40F8042B0135F5E7FFFFF8B50C462D
S2140257D0174600219A001D46064641F00BFE9FED35
S2140257E00F7A21460023AB4200DBF8BDF1EC016ADA
S2140257F03A460024F2EC017A76EEE77A0134F0EECD
S214025800E77AF4EEC77AF1EE10FA03D546F82340AB
S2140258100133E8E7A542EDD1FAE700BFCCBC8C2BFA
S2140258202DE9F04F97B01C46012C9DF980309DF96A
S21402583084A0039306468946174606DC2246384667
S21402584017B0BDE8F04FFFF75BBF6510A4EB640826
S2140258502A4604A8FFF754FF424609EB85010DA825
S214025860FFF74EFF4FF0000B04AA11462B463046B8
S214025870CDF804A0CDF800B0FFF7D2FF0DAA11466E
S21402588043463046CDE900BAFFF7CAFF0DAB0D48D6
S2140258902A4604A9CDE9008AFFF73DFF09492246B8
S2140258A03846FFF72DFF039B012B08D123463A46C5
S2140258B04946304617B0BDE8F04FFFF787BF17B02E
S2140258C0BDE8F08FB0CBFE1F2DE9F04F2DED028B19
S2140258D0ADF5CE5D81B00C4603904FF40062002118
S2140258E070A841F087FD6822002108A841F082FDD9
S2140258F06822002122A841F07DFD682200213CA8F2
S21402590041F078FD6822002156A841F073FD07ABEE
S21402591000221A60002140F6A402204641F06AFDE9
S214025920B748B74F9FEDB78A4FF49E72002141F0F9
S21402593061FD04F59E6600254FF4006200210DF518
S2140259401C6041F057FD4FF4006200210DF58E50A9
S21402595041F050FDAC4B93ED007A039B0DF58E5A49
S21402596003EB85220DF51C604FEA052E53460021F7
S214025970F2EC016AC6EE877A01EB0E0C0131B1F544
S214025980007F40F804CBE3EC017AF1D10DF1140864
S214025990002342460DF58E50C8F800303FF002FE56
S2140259A098ED007A0DF58E520023D2ED007A01337F
S2140259B077EEC77AB3F5007FE2EC017AF5D1DFED38
S2140259C0937A0DF58E534FF00008B3EC017A08F186
S2140259D00108B0EEC77AB8F5007F77EE877AF4D181
S2140259E0F4EEC87AF1EE10FA00F3EB8070A90DF52A
S2140259F08E50FFF72FFD9FED867A70AA0023D2ED18
S214025A00007A67EEA77A013367EE877AB3F5007FEE
S214025A10E2EC017AF3D197ED007ADFF800C27D4A14
S214025A200023DFED7A7A964600215EF8040B0DF528
S214025A30E07808EB8000D0ED006A01310C2977EEA1
S214025A40A67AF2D10133092B37EE277AECEC017AEB
S214025A5002F13002E5D1A7EC017A6822002108A8FB
S214025A6041F0C8FCDFF8C4A10DF120094FF0000B8D
S214025A70F9EC017A70AA534640F20118F3EC016A77
S214025A80B2EC017AB8F1010846EE877AF6D177EEE3
S214025A90887A0BF1010B17EE900A40F0ABF841EC56
S214025AA0100B43F099FD51EC100B40F0BDFBBBF11F
S214025AB01A0F49F8040C0AF2044AD9D16822414660
S214025AC022A841F097FC22A908A8FFF707FD56AACC
S214025AD03CA922A800F0D0FB0123CDE900334E4AB0
S214025AE04E494F48DFF838A1DFF83C910923FFF70B
S214025AF097FEF0EE088AFAEC017AF8EEE77A08F1F9
S214025B000108C7EEA87A17EE900A40F073F841EC47
S214025B10100B43F0E1FF51EC100B40F05DFBB8F1C7
S214025B20090F49F8040BE6D122AA3E4B92681A6086
S214025B303CAADFF8FCB0926ACBF80020374ADFF8BE
S214025B40F4A09269CAF80020374ADFF8EC90506950
S214025B50DFF8E88040F03CF840F066FB324AC9F8CD
S214025B600000906940F034F840F05EFB07EE905A71
S214025B70F8EEE77A2B4BC8F80000C4ED4F7A1B68A4
S214025B80C4F87832DBF80030C4F8B433DAF8003000
S214025B9046F8043BD9F80030C6F83831D8F8003059
S214025BA0C6F8743201354FF07E534F2D44F8043B4D
S214025BB07FF4C2AE0DF5CE5D01B0BDEC028BBDE842
S214025BC0F08F0DF11C0906AA41460DF58E50FFF71F
S214025BD009FC00234A4641460DF58E50C9F80030AE
S214025BE03FF010FD99ED007A0023DAED006AC6EE6A
S214025BF0877A0133B3F5007FEAEC017AF5D1F5E650
S214025C0064CCFE1FCCBC8C2B7806FE1F0000000066
S214025C100000003B04A709001CCCFE1F40CCFE1F60
S214025C20F8CBFE1FB0CDFE1FD4CBFE1F9C3E090054
S214025C30ACCDFE1FA8CDFE1FA4CDFE1FA0CDFE1F1D
S214025C402DE9F04385B0002340F6A40200217A48ED
S214025C50009301930293039341F0CCFB40F6A40217
S214025C6000217648764C774F41F0C4FB764974485B
S214025C7040F6A40241F02CFDDFF8DCC10026734D8D
S214025C802146002229E050F8089CCDF80080CDF885
S214025C900490D0F80C90CDF808909DED007ADDEDDA
S214025CA0017AB4EEE77AF1EE10FA1DDB9DED007A8A
S214025CB0DDED027AB4EEE77AF1EE10FA14D80CEBC8
S214025CC083031B680393039BC1F878320132052ACB
S214025CD001F59E7105F104050DD0D1F878821346C0
S214025CE0284602F5FA7ECEE70533734500F1140026
S214025CF0C9D13B46E8E701364F2E04F10404BED173
S214025D0051494D484C4C4F4F40F6A40241F0E0FC3E
S214025D10DFF848C100264E4D2146002229E050F801
S214025D20089CCDF80080CDF80490D0F80C90CDF801
S214025D3008909DED007ADDED017AB4EEE77AF1EE99
S214025D4010FA1DDB9DED007ADDED027AB4EEE77AFD
S214025D50F1EE10FA14D80CEB83031B680393039B33
S214025D60C1F878320132052A01F59E7105F1040563
S214025D700DD0D1F878821346284602F5FA7ECEE791
S214025D800533734500F11400C9D13B46E8E70136F6
S214025D904F2E04F10404BED12B492848274C294F24
S214025DA040F6A40241F094FCDFF8B4C00026294D68
S214025DB02146002229E050F8089CCDF80080CDF854
S214025DC00490D0F80C90CDF808909DED007ADDEDA9
