S02900006177735F656B5F7261366D335F6F74615F6170705F776966695F646131363230302E737265630B
S21402020060620320696A040009690400656A0400E2
S214020210656A0400656A0400656A0400656A04008B
S21402022000000000000000000000000005D60200EA
S214020230656A0400000000001DD6020079D602009E
S214020240615D040059F102005DF0020035F2020021
S2140202507DF2020059F102005DF0020035F2020062
S2140202607DF202001D640400AD630400000000007D
S2140202700000000000000000000000000000000077
S2140202800000000000000000000000000000000067
S2140202900000000000000000000000000000000057
S2140202A00000000000000000000000000000000047
S2140206000348044B834202D0034B03B1184770479A
S214020610EC0DFE1FEC0DFE1F000000000548064B09
S2140206201B1AD90F01EBA301491002D0034B03B1E9
S21402063018477047EC0DFE1FEC0DFE1F0000000071
S21402064010B5064C237843B9FFF7DAFF044B13B113
S2140206500448AFF300800123237010BD080EFE1F6E
S214020660000000009C28070008B5054B1BB1054991
S2140206700548AFF30080BDE80840FFF7CFBF00BFD4
S214020680000000000C0EFE1F9C280700F0B5334A3F
S214020690334D12682968334883B000238DF807303B
S2140206A025F02AFE0446002831D12F4B1E782EB1A3
S2140206B02E4A1378002BFCD0002313702968294891
S2140206C00DF10703402225F075FD0446F8B99DF8A2
S2140206D007301BB1012B27D0022B27D0244F254BE6
S2140206E039782A681B68A9B123491E4825F0C2FD3D
S2140206F0B0B938702EB1214A1378002BFCD00023F3
S21402070013701F484FF40062002143F087FB204617
S21402071003B0F0BD1A49134825F0ACFD0028E9D015
S2140207200446204603B0F0BD1C46F0E7154A1649BB
S21402073001E00B7813B91378002BFAD0137803F084
S214020740FF0733B91149384602F070FA0E4B1F7094
S214020750C4E7002313700324D9E700BFB816FE1FB0
S214020760C016FE1F40C1FE1F10E606000529FE1F2A
S214020770B416FE1FBC16FE1F2816FE1F0429FE1FF7
S2140207800C4BFE1F0729FE1F0629FE1FFC670600EC
S214020790204A2149214B10B4214C146080240222A5
S2140207A00C601A6005280AD8DFE800F003171E2539
S2140207B02C101C4A1C4B1068928818609A801B4B9F
S2140207C001221A705DF8044BFFF760BF154A184BFA
S2140207D01068928818609A80F1E7124A154B1068E2
S2140207E0928818609A80EAE70E4A134B106892883D
S2140207F018609A80E3E70B4A104B106892881860DC
S2140208009A80DCE7074A0E4B1068928818609A8036
S214020810D5E700BFC016FE1FBC16FE1FB816FE1F89
S214020820801F1040106806003116FE1FB416FE1F09
S2140208309516FE1F4516FE1F5916FE1F6D16FE1F45
S2140208408116FE1F38B5264C26498C22204604F116
S214020850090543F045FC24490522284643F017FBC8
S21402086020BB224C20490522204643F010FB98BBB1
S2140208701F4C1D490522204643F009FB40BB1D4C78
S21402088019490522204643F002FBE8B91A4C1649DC
S2140208900522204643F0FBFA90B9184C124905226D
S2140208A0204643F0F4FA30B9002038BD0023C4F8DD
S2140208B009306373D5E7002323602371002038BD17
S2140208C0002323602371E8E7002323602371DDE71A
S2140208D0002323602371D2E7002323602371C7E736
S2140208E02816FE1F801F1040106806004516FE1FC1
S2140208F08116FE1F5916FE1F6D16FE1F9516FE1F49
S21402090025A1D1E90001204B10B4C3E9140118A1B6
S214020910D1E900019FED187BC3E91E011C204FF4AC
S214020920E06118771948596118641949194C9C6195
S2140209300120022283ED007B83F86C009FED107B82
S214020940402083F8302083F8442083F88020C3E9CF
S214020950190118221A724FF0040C802283ED0A7BCA
S21402096083F858C0DA635DF8044B7047AFF3008033
S21402097080000000801F104000060000401010405B
S21402098080000000401E10402816FE1FC01E1040A9
S214020990401F10404016104000010000401D10404D
S2140209A0F8B50546574E584C584FFFF7A9FF1BE0BF
S2140209B03946204643F0FCFA0346554920460BB119
S2140209C0012D7ED043F0F4FA0346524A0D2120460A
S2140209D013B1042D00F08580137813B143F026FA84
S2140209E058BB012028F080FE3146204643F0E0FA4C
S2140209F00028DDD0002DDBD1474A48494848494BFC
S214020A0010604FF4C060182208603F481A6043F036
S214020A1075FB454B1861FFF739FE0446F0B92846C8
S214020A20FFF7B6FE0446C8B9404902F0FFF840494F
S214020A30204602F0FBF82046F8BD052DEBD801A3B0
S214020A4053F825F0F9090200C30A0200A50A0200BB
S214020A50870A0200E30A0200690A020035490020FA
S214020A6002F0E4F82046F8BD2B4A2C4932482D4BBA
S214020A70106040200122086023481A6043F03EFBC3
S214020A80294B5867C7E7244A24492C48254B10604F
S214020A908020022208601C481A6043F02FFB224B7B
S214020AA0D864B8E71C4A1D4925481E4B10608020B2
S214020AB00222086014481A6043F020FB1A4B98631F
S214020AC0A9E7154A15491F48164B10604FF4E06017
S214020AD01C2208600C481A6043F010FB124B586246
S214020AE099E70D4A0D4918480E4B10604FF4807076
S214020AF00422086004481A6043F000FB0A4B18669A
S214020B0089E700BF186806000C4BFE1F3468060013
S214020B1054680600084BFE1FC016FE1FBC16FE1FBA
S214020B2040101040B816FE1F2816FE1FA0680600CA
S214020B30D468060070680600401F1040C01E1040B1
S214020B40401E104040161040401D104010B5FFF7E2
S214020B5079FE20B90446FFF7D3FE204610BD034BAC
S214020B60034A04484FF40E7125F09EFEE06A060022
S214020B700CDB0600F46A06002DE9F043B1B0C02291
S214020B800021684643F04AF9FFF75CFE002840F071
S214020B90BF81BA4BBA4A1B681268BA49BA4C0546B4
S214020BA0684643F0C5F86946284602F03FF80FCC7F
S214020BB0EC46ACE80F000FCCACE80F0094E8070058
S214020BC0ACE80300B14C2CF8022B130C69462846FD
S214020BD08CF8003002F02AF8AD490522204643F090
S214020BE056F90646002854D154F8051C54F8092C28
S214020BF0A84843F075FAA849A648A4F1090743F0A5
S214020C00D7F928B1A34843F079FA3B6998420BD04A
S214020C10A249002002F00AF800232360237112255D
S214020C20284631B0BDE8F08302469A499C4843F014
S214020C3057FA9C49304601F0F9FF964843F05EFAAF
S214020C4004F1140902463146924843F0E7F8904907
S214020C500522484643F01BF9804600284BD1D7E9C7
S214020C6005218C4843F03CFA8F498A4843F0A0F9A4
S214020C7028B1884843F042FA7B6A98420ED08B49E4
S214020C80002001F0D3FF0023C9F8003089F80430B1
S214020C90C5E78249284601F0C9FFC0E702467D49FA
S214020CA0834843F01DFA8349404601F0BFFF794866
S214020CB043F024FA503402464146764843F0AEF8F2
S214020CC073490522204643F0E2F8002840F0B98036
S214020CD0D7E914216F4843F003FA77496D4843F089
S214020CE067F930B16B4843F009FA3B6E9842024608
S214020CF006D072498DE76D49304601F097FF8EE7C0
S214020D0064496F486F4E43F0EBF96F49002001F0DB
S214020D108DFF604843F0F2F9002102465D4843F039
S214020D207DF85B490522304643F0B1F804460028B8
S214020D3040F09380D7E90A21564843F0D1F9554846
S214020D4043F0DCF9BB6B984202467FD15F4E5149B5
S214020D50304643F0C5F9304643F0D0F901385C49D5
S214020D6033560D2B08BF3454002001F05FFF49486C
S214020D70584E43F0C3F900210246464843F04EF867
S214020D8043490522304643F082F80446002870D1D3
S214020D90D7E90F213F4843F0A3F93E4843F0AEF9A6
S214020DA0FB6C984202465DD14B4E3A49304643F0C0
S214020DB097F9304643F0A2F9431E4849F2560020FE
S214020DC00D2A08BFF45401F031FF3248444E43F076
S214020DD095F9002102462F4843F020F82C490522B7
S214020DE0304643F054F80446002840F08C80D7E999
S214020DF01921284843F074F9264843F07FF97B6F9F
S214020E009842024678D1374E2249304643F068F976
S214020E10304643F073F9431E3349F25600200D2A3A
S214020E2008BFF45401F002FF3049002001F0FEFE34
S214020E30184843F063F900210246164842F0EEFFD6
S214020E40EEE61E49404601F0F1FEE8E62849204655
S214020E5001F0ECFE34603471E1E62549002001F031
S214020E60E5FEDCE62349204601F0E0FE34603471FC
S214020E70D5E62049002001F0D9FED0E6D0E40600EF
S214020E80D4E40600006606000C6B06003116FE1F50
S214020E9010680600240EFE1F186806004869060041
S214020EA00421FE1F386B060034680600D86B060065
S214020EB00419FE1F886B060054680600686C06005C
S214020EC00418FE1F5916FE1F106C06008417FE1F1C
S214020ED0AC6C06006D16FE1F0417FE1F3C6D060066
S214020EE09516FE1FC416FE1FCC6D06005071060036
S214020EF0006D0600906D06000949204601F096FE38
S214020F00346034718BE60649002001F08FFE86E6D7
S214020F10044B054A054840F2CE2125F0C5FC00BF29
S214020F202C6E0600E06A0600F0DA0600F46A060096
S214020F300378032B06D8DFE803F00E020A06084BF6
S214020F4001221A707047074B01221A707047064B2F
S214020F5001221A707047054B01221A70704700BFB3
S214020F600429FE1F0729FE1F0629FE1F0529FE1F4C
S214020F7010B510B3DAB1C36844689C4202D30BB111
S214020F80012010BD03890133B1FBF3FC03FB1C11E6
S214020F9011804368028901880133B2EB510F436026
S214020FA002D30181002010BD52000281FAE7064BEF
S214020FB0064A07482D2125F077FC064B034A0448CB
S214020FC02C2125F071FC00BFBC6E060040DB06003B
S214020FD0906E0600786E060010B528B100240181D6
S214020FE00280C360446010BD024B034A0348592185
S214020FF025F05AFCD46E06001CDB0600906E060036
S21402100008B528F099FB024B1B68C01A08BD00BF42
S2140210105040FE1F704700BF2DE9F041DFF86880A0
S214021020184CD8F8000084B000234FF0FF31154664
S2140210308DF80F300DF10F0727F0BAF904F5967602
S21402104002E01434A64213D02389002BF9D0298952
S214021050E268686800972EF015FB9DF80F30294667
S214021060002BEED0D4E9003014349847A642EBD1D8
S2140210700023D8F800001A46194626F0CFFE04B020
S214021080BDE8F081882AFE1F842AFE1F2DE9F04F54
S214021090804D814B2B609DB0002704903B4641F269
S2140210A088324FF4FA710AA8CDE90B770A97ADF8A1
S2140210B018700D97FFF790FFDFF82882DFF8289266
S2140210C0DFF828A2754C764E0DF1200B2422002163
S2140210D013A842F0A3FE734BD8F800000893CDE99C
S2140210E00E77CDE91077ADF81A700997CDF848B0AB
S2140210F0149043F003F801301590002341F2883231
S2140211004FF4FA710EA8CDE91A9AFFF765FF079712
S21402111007E001F041F901284BD0BDF81A0028F08B
S214021120E3FA226842F2B3233146002001F07EFD44
S2140211304FF47A73216842F2B322CDE9003328468F
S21402114012AB2DF089F80246042107A8002AE0D146
S214021150554B8DF8382018681292CDE91422CDE945
S214021160162218920392139042F0C8FF039A4F4B2E
S21402117015933C234E49ADF85000ADF84A30104660
S2140211803623ADF8583001F051FD0EAB0093039AAA
S21402119048484FF4FA6312A92DF06CFC58BB049B26
S2140211A003BB4549002001F041FD01201DB0BDE80A
S2140211B0F08F07990DF11A020EA8FFF7D9FE002844
S2140211C0ABD028F0B9FA06AA01460AA8FFF7D0FE65
S2140211D018B100201DB0BDE8F08FBDF8180028F049
S2140211E083FA73E7354901F021FD32489DF838103D
S2140211F000F038FE38B13249002001F017FD2548CC
S2140212002DF0BCF9DDE79DF83830002BC9D10393E9
S2140212102C4B4FF0FF31186827F0CAF82A4B03E030
S2140212202A4A143393421BD019890029F8D0186928
S2140212300128F5D1DA680593039B03EB430C244B94
S21402124003F82C0003EB8C00018142602149002048
S21402125001F0ECFC039B5A1C93B20393059BDFE759
S214021260184B186800231A46194626F0D7FD039B2A
S214021270002B96D01849194A4B60154B0B60184B39
S21402128013600C4851600023936000F07FFE002834
S214021290B1D186E75440FE1F5840FE1F9044FE1F01
S2140212A0186F0600E86E06009444FE1FF06F0600F4
S2140212B028700600403FFE1FC46F0600406F0600FF
S2140212C0A46F0600842AFE1F882AFE1FB42BFE1F68
S2140212D01C29FE1F706F06001429FE1F0829FE1F18
S2140212E0151002008C44FE1FF86E0600046F0600FE
S2140212F02DE9F04F91B04FF0FF326B4C0092002375
S2140213001A4602212068DFF8FCA1DFF8FC91DFF81C
S214021310FCB126F0CDFA6549002001F087FC28F0E2
S2140213200BFA634B1A68801A1860624BCAF80030D0
S214021330614BC9F80030614B614ACBF8002093E854
S214021340030005AF03F1080687E803000FCE0BADD6
S2140213504FF00008CDF800800FC533682B60594A5D
S214021360594B0421192026F0D9FC584B1860002846
S21402137000F093800B9301F06FF8554B0193554B99
S2140213800093554B554E0A93554B0893554B07936E
S214021390CDF808803A460BA907AB3046CDF8248034
S2140213A000F0EEFB70B3DFF86881206804231F218B
S2140213B088F8003026F020FB2068102126F03CFB3F
S2140213C0DBF8000020B126F019FA0023CBF8003033
S2140213D0DAF8000020B126F011FA0023CAF800302D
S2140213E0D9F8000020B126F009FA0023C9F8003027
S2140213F03D49002001F01AFC002011B0BDE8F04F74
S21402140027F0ACBFFFF742FE012886F82A00CAD1B1
S214021410DFF8FC8011E03549284601F007FC30462B
S21402142000F07CFD3249284601F000FC2A482DF0E7
S214021430A5F896F82A000128B7D103231F212068B1
S21402144088F8003026F0D8FA0821206826F0F4FA48
S214021450304600F0F5FB0027054602231F212068D0
S21402146086F82A7088F8003026F0C6FA206804212A
S21402147026F0E2FA002DCED01E49384601F0D6FB01
S2140214801B49384601F0D2FB13482DF077F80120AD
S214021490FFF7FCFD86F82A00CDE7174B174A1848D7
S2140214A04FF4D87125F000FA7C2AFE1F5870060009
S2140214B05040FE1F8417FE1F6CDB06002CE1060060
S2140214C00417FE1F182AFE1FD029FE1FB42BFE1F6C
S2140214D019100200011002005440FE1F403FFE1F7A
S2140214E0DDE50400A5E5040054710600C47006009C
S2140214F0A46F0600007106008470060060DB06001A
S214021500987006009044FE1F8C44FE1F9444FE1FF3
S214021510802AFE1F10B5002382B00C460246CDE993
S21402152000430349034827F0E7FE02B010BD00BFA0
S21402153084710600F112020008B50A4B1B780BB143
S214021540002008BD012026F087FD074B1860002802
S214021550F6D026F09FF9054B1860003818BF012018
S21402156008BD00BF802AFE1F842AFE1F7C2AFE1F9B
S214021570014B1878704700BF802AFE1F38B5074D0A
S214021580074B04461F2128681C7026F035FA0121F5
S2140215902868A140BDE8384026F04EBA7C2AFE1FD5
S2140215A0802AFE1F00B9704710B5084A82B001248F
S2140215B084400023106800911A46214626F078F9E6
S2140215C0044214BF0120002002B010BD7C2AFE1F78
S2140215D02DE9F04FDFF8B0A02A4E83B007468946C1
S2140215E0DAF8000001934FF0FF3190464FF00F0BF0
S2140215F026F0DEFE3446002504E001350F2D04F108
S21402160014042BD0E16801B323894B45F5D14A4631
S214021610384642F03CFC0028EFD10BEB8B0306EB7E
S214021620830156F823304345E7D14B68019A93422B
S214021630E3D101240023DAF800001A46194626F000
S214021640EDFB204603B0BDE8F08FBBF10F0FDBD1F8
S214021650AB4601350F2D04F11404D3D1BBF10E0FA6
S2140216600DD80BEB8B0B019B46F82B8006EB8B06FB
S21402167073600C9BF760A6F808903361D9E70024E4
S214021680D8E700BF882AFE1F842AFE1F2DE9F041F4
S214021690144F154C06460D4638684FF0FF3126F0BB
S2140216A087FE04F5967802E01434444511D0238967
S2140216B0AB42F9D1E0682A46314642F0E8FB002800
S2140216C0F2D12061C4E90000C4E9020014344445A2
S2140216D0EDD1002338681A46BDE8F041194626F0D7
S2140216E09DBB00BF842AFE1F882AFE1F38B50D4602
S2140216F00446D8B1D1B1436D4BB1836D3BB1C36DD6
S2140217002BB1036E1BB1036D0BB1012038BD0F4A1E
S2140217100F4910484FF4677303F028FC0E4803F095
S21402172025FC0E4803F022FC002038BD40F292331E
S214021730064A0749074803F019FC09482A46214683
S21402174003F014FC054803F011FCEDE76CE106001B
S2140217508C71060098710600F07106005071060042
S214021760B071060030B50C4683B00021CDE90011F9
S214021770002830D0016E054631B3F4B10193A36858
S2140217808DF800201BB16946E0689847296E20460E
S214021790884708B103B030BD40F22F33114A1249D0
S2140217A0124803F0E3FB22781148214603F0DEFBE1
S2140217B0104803F0DBFB03B030BD0F4B0F4A104856
S2140217C040F2213125F070F80E4B0C4A0C484FF4CB
S2140217D0487125F069F80C4B084A094840F21F3157
S2140217E025F062F800E206008C7106009871060089
S2140217F0D072060050710600BC72060010E20600A7
S2140218004C72060084720600347206002DE9F0411E
S21402181058B38846074600F1640400F58275002630
S21402182006E00B78033B012B0AD90834AC4213D0EE
S2140218302388002BF9D0616881B1B8F1000FF0D18E
S214021840002304223846FFF78DFF083444F8086C5C
S21402185044F8046CAC42EBD1BDE8F081064B074A73
S214021860074840F2733125F01FF8064B034A044836
S2140218704FF45A7125F018F8187306007CE106003A
S2140218804C720600FC72060070B500230C46054634
S21402189000F1640102E00133142B0DD031F833203D
S2140218A0A242F8D1DB0003F164042E197368A3B1D7
S2140218B02B5B93B1304670BD114A1249124840F272
S2140218C09F1303F053FB1148214603F04FFB1048C9
S2140218D003F04CFB0026304670BD40F2A313084AC4
S2140218E00849094803F042FB7268295B094803F07D
S2140218F03DFB074803F03AFB00232B517360E9E7F0
S2140219002CE206008C7106009871060044730600ED
S21402191050710600647306002DE9F041178800280E
S2140219205DD00D46002961D0012380F80C310B787A
S214021930164603F0F002302A044639D0622B1AD03B
S21402194015D903F0DF02902A17D0702B15D02E4A35
S2140219502E492F4840F2D12303F008FB2D48297860
S21402196003F004FBBDE8F0412B4803F0FFBA402B1E
S21402197003D0502BEBD1BDE8F08139462046FFF765
S21402198083FF8046D8B141682B78002935D0902B4A
S21402199008BF6B68327A0CBF023300232046FFF77B
S2140219A0E1FE0023C8F80030C8F80430BDE8F08134
S2140219B07268D0F804313946BDE8F0411847124A39
S2140219C0124913484FF4317303F0D0FA13483946DC
S2140219D003F0CCFABDE8F0410F4803F0C7BA104B4B
S2140219E0104A11484FF4277124F05EFF0F4B0D4A40
S2140219F00D4840F29D2124F057FF0D4B0D4A0A4830
S214021A0040F2792124F050FF44E206008C71060071
S214021A10987106002074060050710600F4730600E2
S214021A20A473060058E206004C720600BC73060059
S214021A30D073060020E206002DE9F0410D46098D1E
S214021A4082B0002935D006461F460998EB6D9046AF
S214021A509847044640B30021022E0160416081602F
S214021A60C16050D0F31E012B0FD8B8F1000F6ED014
S214021A70294605F1A003B1F8640030B108318B4263
S214021A8051D0B1F864000028F8D1089B2670C4E94A
S214021A900273C4F804806B6D099A286D019401A93B
S214021AA09847C0B1002600E00226304602B0BDE8E4
S214021AB0F0812A4A2A492B4840F20E3303F056FA9E
S214021AC0294803F053FA294803F050FA0126304613
S214021AD002B0BDE8F08103262B6E20469847002808
S214021AE0E3D11E4A1E491F4840F2013303F03EFA74
S214021AF021461F4803F03AFA1C4803F037FA3046EC
S214021B0002B0BDE8F081B8F80830D5F824C0191D37
S214021B1098F800304BB96145B7D30126DCE761453A
S214021B2028BF00260FD20226D6E72B4605F1A000D4
S214021B3002E008339842F2D0B3F86420002AF8D1C3
S214021B406145A2D30126C6F10206F6B2C4E7094BE6
S214021B50094A0A484FF4E57124F0A6FE58E1060049
S214021B608C71060098710600847406005071060097
S214021B70607406004874060048E106004C720600CF
S214021B80F0B583B0002847D00C46002944D01E4644
S214021B90002B41D0089B002B3ED0099B002B3BD04C
S214021BA00B6863B34B6853B38B6843B3CB6833B3EA
S214021BB00B6923B3174605464FF48872002142F09C
S214021BC02DF93146164B089A009728462CF0F8FE57
S214021BD0064610BB1422134B1349009228462CF0DB
S214021BE023FF0646C8B9099BC5F804310A9BC5F807
S214021BF008310FCC50350FC523682B600DE00B4A19
S214021C000B490C4840F2E63303F0B0F90A4803F0F9
S214021C10ADF90A4803F0AAF90126304603B0F0BD32
S214021C20191902009844FE1FE844FE1F6CE20600E3
S214021C308C71060098710600A874060050710600A2
S214021C402DE9F0438DB0002800F0C7800546006DF0
S214021C50002800F0C280DFF808820026724CAB6DC6
S214021C6000963222694698470FCC0DF10C0CACE870
S214021C700F000FCCACE80F00009F23680196ADF86A
S214021C800860CCF80030002F00F093803B78082BD9
S214021C9000F2BB800CAA02EB8303796853F8243C5B
S214021CA001AA284698470446D8B12FB10246002317
S214021CB039462846FFF756FD5C4A5D495D4840F2C4
S214021CC0274303F053F920462DF08EFD01465A486D
S214021CD003F04CF9594803F049F920460DB0BDE827
S214021CE0F0839DF8073023B1BDF80490B9F1000FD8
S214021CF019D12FB13946234622462846FFF732FD30
S214021D009DF80830002B57D0002085F80C6100287B
S214021D103FD00B283DD09DF80630002B45D1002839
S214021D2045D1286D9AE7002F76D0034605F1640167
S214021D304FF0020C142004E0914514D00133142B0A
S214021D4042D0142831F83320F6D1002AF4D1132BCE
S214021D5003F1010C18463AD031F83C20914563460F
S214021D604FF0000CEAD1364A314932484FF4B77385
S214021D7003F0FCF84946334803F0F8F82F4803F01E
S214021D80F5F80023092239462846FFF7EBFC09241A
S214021D9092E795F82A30012BBDD128462DF058FC43
S214021DA095F80C31002BB0D1B5E7002895D0044643
S214021DB082E73946434673E79DF80630002BB0D0DB
S214021DC020460DB0BDE8F083BCF1000F07D121F824
S214021DD0309001EBC0014F6092E701247DE7184A7C
S214021DE01349144840F27D1303F0C0F849461648DA
S214021DF003F0BCF8114803F0B9F800230222394672
S214021E002846FFF7AFFC022456E7104B104A11484B
S214021E1040F2352124F048FD0F4B104A0D4840F29F
S214021E204F1124F041FD00BF7CE20600E8E1060007
S214021E308C71060098710600D8750600507106006F
S214021E40A8E106000875060078750600E07406002C
S214021E50D8E106004C720600BC720600C0E106001D
S214021E6041200200F0B583B010B1038D05461BB9C0
S214021E700124204603B0F0BD0C4629B30121FFF72A
S214021E80C5FC002301A9284601932EF0D1FA044688
S214021E90B0B1012721462846FFF7F6FC0646224641
S214021EA0284636B1736859688F702DF06DF804466F
S214021EB078B901A928462EF0BBFA04460028E9D1D3
S214021EC00024204603B0F0BDFFF7A0FC204603B076
S214021ED0F0BD7168024600232846FFF743FC002344
S214021EE0094A0A4933607360094840F2553303F0E1
S214021EF03DF820462DF078FC0146064803F036F8F9
S214021F00054803F033F8B4E798E106008C71060042
S214021F10987106000076060050710600002833D03D
S214021F20F0B50646006D83B0002478B1B36D019417
S214021F30002201A99847019905460023042230464B
S214021F4009B1FFF70FFC25B1306DEFE7012003B0B2
S214021F50F0BD06F1640406F5827702E00834BC425E
S214021F600FD02388002BF9D0616800230422304664
S214021F70FFF7F8FB083444F8085C44F8045CBC42FB
S214021F80EFD1002003B0F0BD0120704770B50D46BA
S214021F9082B0114614460646FFF7A8FB10B9012088
S214021FA002B070BD002DFAD02B68002BF7D06B68FC
S214021FB0002BF4D0D4E9012123680320CDE90021C7
S214021FC02A463146FFF738FD02B070BD70B50D46A1
S214021FD082B0114614460646FFF788FB10B9012068
S214021FE002B070BD002DFAD02B68002BF7D06B68BC
S214021FF0002BF4D0D4E9012123680420CDE9002186
S2140220002A463146FFF718FD02B070BD70B50D4680
S21402201082B0114614460646FFF768FB60B15DB112
S214022020D4E9012123680220CDE900212A4631465F
S214022030FFF702FD02B070BD012002B070BD00BF06
S21402204008B52AB10020012390801060137108BDE4
S214022050024B034A0348322124F026FC2C76060063
S214022060B8E306004476060070B5002835D00D4663
S21402207069B314462AB30023136093800B7806468E
S214022080DBB94F23184A1949194802F06FFF6A68EC
S2140220902989184802F06AFF174802F067FF22886B
S2140220A0294630462CF070FF2B7813B1B0FA80F335
S2140220B05B090122E370227170BD2DF0D7FA2080F1
S2140220C0DFE70E4B0E4A0F48452124F0EDFB0E4B80
S2140220D00B4A0C48442124F0E7FB0C4B084A0948FB
S2140220E0432124F0E1FB00BF80E306008C7106006A
S2140220F0A0760600B8760600507106002C7606001A
S2140221009CE30600447606008C760600FC72060007
S21402211070B5B8B10D4609B31446CAB100231360B0
S214022120938006462DF0A2FA2080D5E900120346D7
S21402213030462CF09BFEB0FA80F35B090122E37076
S214022140227170BD084B094A0948622124F0ACFB93
S214022150084B064A0648642124F0A6FB064B034AAF
S2140221600348632124F0A0FBFC72060064E3060029
S214022170447606002C760600D876060070B5B8B10E
S2140221800D4609B31446CAB100231360938006466F
S2140221902DF06CFA2080D5E90012034630462DF069
S2140221A091F9B0FA80F35B090122E370227170BDE7
S2140221B0084B094A09487E2124F076FB084B064A5A
S2140221C00648802124F070FB064B034A03487F2111
S2140221D024F06AFBFC72060044E30600447606001E
S2140221E02C760600D876060070B582B0002834D069
S2140221F00C4661B3154622B30A468B6852F80C1B8E
S2140222000092626806462CF035FC20B100232B6053
S214022210AB8002B070BD144A14491548A92302F0D7
S214022220A5FE217B134802F0A1FE134802F09EFE93
S214022230217B3046FFF716FE00232B60AB8002B0F0
S21402224070BD0E4B0E4A0F489C2124F02DFB0E4B00
S2140222500B4A0C489B2124F027FB0C4B084A0948E2
S2140222609A2124F021FB00BF0CE306008C710600C5
S214022270A076060010770600507106002C7606003F
S21402228028E3060044760600F4760600FC72060092
S21402229010B548B114466AB12DF0AAF900230122FE
S2140222A02360A380A27010BD054B064A0648BD21D6
S2140222B024F0FAFA054B034A0348BE2124F0F4FA46
S2140222C0FC720600F0E20600447606002C76060053
S2140222D010B548B114466AB12CF0D6FE002301228E
S2140222E0A3802360227110BD054B064A0648D22100
S2140222F024F0DAFA054B034A0348D32124F0D4FA31
S214022300FC720600D8E20600447606002C7606002A
S21402231038B5D0B1036E05461BB31446DAB1144A7B
S21402232014491548EC2302F021FE144802F01EFE62
S214022330134802F01BFE002301222360A380A27032
S2140223402846BDE83840FFF7E9BD0E4B0E4A0F4857
S214022350E82124F0A9FA0E4B0B4A0C48EA2124F095
S214022360A3FA0C4B084A0948E92124F09DFA00BF5B
S214022370A0E206008C710600A076060068770600CA
S21402238050710600FC720600BCE2060044760600A7
S2140223902C7606002C77060030B5002383B0CDE9F4
S2140223A0003308B10D4611B9002003B030BD044613
S2140223B0684628F0F5F90028F6D1009B002BF3D0EA
S2140223C001A82AF055FC0028EED101980028EBD08F
S2140223D0009B2A46D3F80431214698470028E3D1C9
S2140223E0DDE900309B6B9847B0FA80F04009DCE7E5
S2140223F0A8B108B589B14FF47A7C094B00680CFB8A
S21402240002F2A3FB02329209002325F007FDA0F197
S2140224100100B0FA80F0400908BD084608BD7047C2
S214022420D34D6210A0B108B581B10A4B00684FF4D3
S2140224307A7C0CFB02F2A3FB0232920925F0FCFE28
S214022440A0F10100B0FA80F0400908BD084608BDB8
S214022450704700BFD34D6210F0B51A4F3B7885B077
S2140224600BB105B0F0BD03F0FF04A02221461648CA
S214022470164D41F0D3FC164B164A009404210A204E
S21402248025F04CFC2860B0B10F4C04F1A0060022E7
S21402249003A928460394FFF7ABFF30B11034B442C9
S2140224A0F5D101233B7005B0F0BD0B4B0B4A0C482F
S2140224B0612124F0F9F90B4B084A0948582124F007
S2140224C0F3F900BFA845FE1FB045FE1FAC45FE1F30
S2140224D03845FE1F8045FE1FE877060004E4060026
S2140224E0A47706008477060000B50B4B1B7883B0F2
S2140224F00022012B019208D1024601A90748FFF7E4
S21402250091FF019803B05DF804FB054B054A0648A7
S214022510702124F0C9F900BFA845FE1FAC45FE1F76
S214022520F8770600F0E30600A477060000B5114B24
S2140225301B7883B0012B019016D10F4B984203D221
S214022540002003B05DF804FBA0339842F8D20B4893
S214022550002201A9FFF74CFF0028F2D1084B094AD6
S21402256009488D2124F0A0F9084B064A0648832123
S21402257024F09AF9A845FE1FB045FE1FAC45FE1F83
S21402258010780600D8E30600A4770600F87706005F
S2140225902DE9F041D0E902850446A8EB050740681C
S2140225A097422844154408D83A460E46A5EB080535
S2140225B041F096FD60682A46F11941F091FDBFF39D
S2140225C05F8FE560BDE8F0812DE9F8430646D0E965
S2140225D00204894617464FF0000833699C4203F10D
S2140225E0FF3228BF03F1FF33A0EB04052ABF1B18F6
S2140225F0131B1B1BBD4228BF3D469D42706828BF69
S2140226001D4649462A46204441F06AFDB0682C44DD
S214022610A844A9447F1BA04208BF0024BFF35F8FD3
S214022620F460002FD9D14046BDE8F88310B5154CAA
S214022630A8220021204641F0F1FB03212161124A23
S21402264061611248A2614FF48061E0610023216259
S2140226500F48A36210216362E36222666066A16687
S2140226602367E3666367BFF35F8F0A4BA3F1100C21
S2140226701846C21A13F9011DA1546345F9D1BFF3D6
S2140226805F8F10BD604AFE1F207806006046FE1F60
S2140226905046FE1F2CE4060038B5214B00EB4004E2
S2140226A003EBC40E0130DEF82C4000EB4000012C98
S2140226B08C46154603EBC00015D0022C0FD034BB57
S2140226C0DEF82830DEF8242093429CBFDEF8201085
S2140226D05B18013B9A1A95421CD9204638BDBDE8C4
S2140226E03840FFF771BFDEF82830DEF82440A342F8
S2140226F09CBFDEF820105B18013B1C1B944228BFCF
S214022700144622466146FFF743FF204638BD0024A2
S214022710204638BD2A466146FFF73AFF2C46DCE7DC
S214022720604AFE1FF8B50B4B1B78532B04460D462A
S214022730164601D0FFF77AFFEFF311874FF020011C
S21402274081F31188324629462046FFF7A5FF87F314
S2140227501188F8BD604AFE1F10B5D0E90132044662
S214022760501C984207D823689954E2686368A060B0
S2140227700132E26002469A4200D010BD216820690A
S214022780FFF7D0FFA368984215BF4FF0FF33002330
S214022790E360A36010BD00BF2DE9F84F1546A942BD
S2140227A0DDF828900B9A0F4683461E4669D30B46E1
S2140227B04FF00108B3FBF5F39D4208F10108F9D981
S2140227C0B04538BFB04612F0010A02D1B9F1000F87
S2140227D03ED1DBF80C30002B29DB012402E0013E5F
S2140227E005FB04F4012EFAD8B7FBF4F39D4205D894
S2140227F005FB04F4B7FBF4F39D42F9D9224E06E03A
S214022800AC42B4FBF5F30CD31C46B7FBF3F3F1561C
S214022810584604FB1377FFF79FFFDBF80C30002BBC
S214022820EEDABAF1000F02D0B9F1000F07D1BDE817
S214022830F88FFFF791FFDBF80C30002BF7DBC14572
S2140228404FF02001584609F1FF39F2D8BDE8F88F5B
S214022850930711D420240AE0FFF77EFFDBF80C3042
S214022860002B09F1FF39E2DBB9F1000FB3D0C14505
S21402287021465846F0D8ACE7002E0CBF3024202460
S214022880F5E74FF001089BE730E406002DE9F04F2C
S2140228909BB040230DF1280ACDE904A30023CDE91D
S2140228A0073081460C461746069306E004A8FFF753
S2140228B053FF079B002BC0F2AE8014F9011B0029C0
S2140228C000F0A1802529F1D10026234613F9012B19
S2140228D0A2F123010D2908D8DFE801F080070707D7
S2140228E0070707077C0784070778A2F13001C9B2F9
S2140228F009294FF000050FD805EB850502EB4505C3
S21402290093F90020A2F13001C9B209291C46A5F1AB
S214022910300503F10103EFD92E2A00F0FD8094F969
S21402292000104FF0000B21F0040068281C465DD012
S2140229302529BBD05839CBB2202BBAD82029B8D8F3
S21402294001A353F821F000BF1F2A0200B328020099
S214022950B3280200B3280200B3280200B3280200FC
S214022960B3280200B3280200B3280200B3280200EC
S214022970B3280200052B0200992A0200B32802009F
S214022980B3280200B3280200B3280200B3280200CC
S214022990B3280200B3280200B3280200B3280200BC
S2140229A0B3280200B3280200612A0200B3280200FC
S2140229B0B32802003B2A0200B32802007F2A020044
S2140229C0B3280200B32802001F2A020046F00206BD
S2140229D01C467AE746F004061C4676E746F00806EA
S2140229E01C4672E746F001061C466EE714F9011B08
S2140229F021F00403682B9BD114F9011B21F0040378
S214022A00682B95D1F2E7079B002B04DD069C002C71
S214022A1040F09B80234418461BB0BDE8F08F39680F
S214022A20081D3860102209685B46CDE900560DEB9A
S214022A300200FFF7B1FE079B3CE73B681A1D3A60AF
S214022A401D6815F9011B04A800293FF432AFFFF7F1
S214022A5083FE079B002BF4DA18461BB0BDE8F08F06
S214022A603A68111D3960116800220823019210226B
S214022A7000930DEB0200FFF78FFE079B1AE73968FB
S214022A80081D386009685B46CDE900560A2204A88C
S214022A90FFF782FE079B0DE73B68191D39601B682E
S214022AA003931A4683EAE373A3EBE273092B40F31C
S214022AB096805D484FF0010819466329A0FB03C3C0
S214022AC008F101084FEAD303F6DCD84538BFD846EA
S214022AD0002D43D107980025034600289BDB039B65
S214022AE0002B67DB730771D406F00303022B79D041
S214022AF05B46CDE9005603990A2204A8FFF74CFE6E
S214022B00079BD7E63B681A1D3A6093F9001004A8A3
S214022B10FFF722FE079BCDE694F90110A1F13002E1
S214022B20D2B2092A57D81C464FF0000B0BEB8B0289
S214022B3001EB420214F9011FA1F13003DBB2092BAB
S214022B40A2F1300BF2D9631CEDE622465146484606
S214022B500393FFF7E7FD039B23445CE7039A002AEF
S214022B6006F002031CDB72071AD4002B53D0BBF10B
S214022B70000F12D0F0070CD50FE004A8FFF7ECFD0B
S214022B800798002805F1FF350346FFF644AF002DEF
S214022B90A3D0A8454FF02001EFD3079803469CE741
S214022BA0013D13B1BBF1000FF7D0F207F5D4002DAB
S214022BB0EFD18FE75B422D2104A80393FFF7CCFDEC
S214022BC0079800280346FFF626AF8DE72B2104A8B8
S214022BD0FFF7C2FDF4E701334FF0000BA3E64FF018
S214022BE0010872E7BBF1000F82D1002D80D0454567
S214022BF04FF0300116D904A8FFF7AEFD079800285B
S214022C0005F1FF350346FFF606AF002DEFD100288B
S214022C10FFF601AF6CE7F107BBD5079B002BBFF6AB
S214022C2067AFF8E60346F2E7CDCCCCCC0EB400B5DF
S214022C3082B003AB01AA53F8041B0193FFF726FEEA
S214022C4002B05DF804EB03B0704700BF08B52DF084
S214022C5051FF04490020FFF7E9FFBDE808400020C5
S214022C6026F07CBB2C78060070B5082811D8DFE861
S214022C7000F017272D053B10411011000C460029C5
S214022C8048D0284D4FF0FF31286825F091FB0128E7
S214022C9036D070BDBDE8704023490020FFF7C6BF9E
S214022CA022490020FFF7C2FF21490020FFF7BEFF9E
S214022CB02EF0BCFEBDE87040012100202EF088BE3A
S214022CC0BDE870401B490020FFF7B0BF1A4900203C
S214022CD0FFF7ACFF02202EF0B9FE0028D9D1BDE8DE
S214022CE070401649FFF7A2BFBDE8704001210020E0
S214022CF02EF06EBEBDE8704011490020FFF796BF69
S214022D00002384F8003E28681A46BDE8704019463B
S214022D1025F084B80B4B0C4A0C484FF42F7123F065
S214022D20C3FD00BF0C53FE1FC079060044780600A0
S214022D3080780600B0780600EC780600287906004F
S214022D40987906006079060068E40600787906003D
S214022D5030B58FB00024CDE90444CDE90944CDE96D
S214022D600C4408940B940694079400283ED000293D
S214022D7043D008AB049301230546ADF828108DF81E
S214022D8020200593099026F00FFF06AB0C9304ABA8
S214022D9007931D4B1D4906902A460B932046C823CF
S214022DA00D93FFF743FF2146204627F0E3F904A9D7
S214022DB017480BAAFFF70AF9014618B1A2242046C3
S214022DC00FB030BD4FF0FF32009203AB27F01EF873
S214022DD00128F3D19DF80C40002CEFD10D492A466C
S214022DE02046FFF723FF20460FB030BD0A4B0B4AA2
S214022DF00B4840F23F4123F057FD0A4B074A08486A
S214022E004FF4886123F050FD292E02000C7A06004A
S214022E10403FFE1F307A0600D879060054E40600CA
S214022E2078790600F479060030B50B7883B00C4644
S214022E3005464BB1286828B1002122780091032369
S214022E4027F038F803B030BD43681B681989586804
S214022E50FEF71CFCEEE700BF006850B110B582B06A
S214022E6000240A7800940323214627F023F802B0B0
S214022E7010BD704730B50B7883B00C4605464BB193
S214022E80286828B1002122780091032327F012F83F
S214022E9003B030BD4268126811895068024A009336
S214022EA0FEF796FBECE700BF9533020010B58EB036
S214022EB0CDE90C239DF840C00A90002309930B939A
S214022EC0CDE90633CDE904338DF824C0ADF82C10D5
S214022ED0089326F069FE164B0490C82204ACCDE98E
S214022EE006340892FEF744FB032804D04FF0FF3165
S214022EF00320FEF757FB0021084627F03BF909A9F5
S214022F000C4806AAFFF782F8014610B1A0200EB0C0
S214022F1010BD4FF0FF32009203AB26F077FF012878
S214022F20F4D19DF80C000028F0D10EB010BD00BF01
S214022F30592E0200403FFE1F30B58FB00023CDE968
S214022F400433CDE90933CDE90C3308930B9306938A
S214022F500793002844D0002949D008AB04930123E4
S214022F60ADF828108DF8202005930446099026F027
S214022F701BFEC8230D93214B0B9304AA06AB0690A7
S214022F8007920C93FEF7F4FA032804D04FF0FF31B1
S214022F900320FEF707FB0021084627F0EBF804A9FA
S214022FA017480BAAFEF7F2FF014618B1A1252846DC
S214022FB00FB030BD41F2883300934FF0FF3203ABBF
S214022FC026F024FF0128F1D19DF80C50002DEDD1FA
S214022FD00C4922462846FFF729FE28460FB030BD88
S214022FE0094B0A4A0A4840F2AD3123F05DFC094B10
S214022FF0064A074840F2AE3123F056FC752E020010
S214023000403FFE1F507A0600D879060040E40600CC
S21402301078790600F479060038B5134D4FF0FF3183
S214023020286825F0C5F9012813D1104C0022234642
S21402303093F8001E03F6046371B10132042AF7D135
S2140230400024002328681A46194624F0E7FE204684
S21402305038BD0024204638BD40F6046303FB024414
S214023060012384F8003EECE70C53FE1F1053FE1FAC
S214023070F0B5002383B0CDE90033002944D00C8993
S214023080254A264B4E6817681B680C2C0D4614D929
S214023090002B37D003F1FF3EBE4434447B1E06F1BC
S2140230A00C0203E0A24208D0734508D012F9010BC5
S2140230B0194613F901CF8445F4D003B0F0BD0E31A2
S2140230C0C91B73562F2BF8D12A6940F6FA539A4237
S2140230D0F3D813490020FFF7A9FDFFF79DFF04462A
S2140230E00028EAD0D5E9031240F0FAFF2A69C4F8AC
S2140230F0FC2D032368468DF8043000942DF00CFD59
S21402310003B0F0BD0C21DCE7064B074A074840F245
S214023110EE2123F0C9FB00BF2C96FE1F2896FE1F49
S2140231208C7A06006C7A060078E406007879060047
S214023130F0B5A1B0FEF71CFA032804D04FF0FF3119
S2140231400320FEF72FFA6D496D4C6E4E0020FFF7F6
S2140231506DFD6D48206040F0D1FF6C4A6C491388C3
S214023160009393780860D2786A490020FFF75EFDE4
S214023170012024F071FF3060002847D0664B099387
S214023180664B0A93664B0B93664B0D93664B0E93F8
S214023190664B0F93664B1093664B1193664B1293D6
S2140231A0664B1493664B1393664B1F93664B1E93A4
S2140231B0664B1B93664B1C93664B1A93664B674A89
S2140231C01D93674B08920021189343F61002654B35
S2140231D065480291CDE9051104910391079119936F
S2140231E040F01CFE614B6248226808A92EF026FBBE
S2140231F00546B8B15F490020FFF718FD5E48252155
S214023200FEF744FA306808B125F088FA206818B14B
S21402321024F0F4FA00232360002021B0BDE8F04039
S21402322026F09CB8CDE90000544955482B4641F299
S214023230883226F061F80128DCD1524A4E480095C1
S2140232402B462521FEF7C4F90128D3D102A88DF812
S2140232500C504D4F2DF060FC19E0082813D004A83E
S2140232602EF0D8FB079B0193069B00933946DDE9B7
S21402327004230020FFF7DAFC4FF47A710220FEF7EF
S21402328091F9012808D04FF47A7026F02DFA2EF024
S214023290BBFB0A28E1D1ADE73C490020FFF7C6FC9C
S2140232A02EF0F6FB68B90B2501E026F01DFA2EF08B
S2140232B0ABFB08284FF47A7001D0013DF5D12EF011
S2140232C0A3FB4FF0FF310320FEF76CF930490020D4
S2140232D0FFF7ACFC2EF000FC0028D4D10B2501E051
S2140232E026F002FA2EF090FB08284FF47A7001D1ED
S2140232F0013DF5D12EF088FBC5E700BFB47A060083
S2140233002C96FE1F0C53FE1F0417FE1FE8E4060051
S2140233102896FE1FD87A0600CD040500E9040500AB
S2140233202D050500410505000906050041060500B4
S214023330790605007D060500392F0200AD2E020033
S214023340512D0200DDDE020055DE020029DE0200FB
S2140233504DDE0200A9DC0200FDDE02009904050033
S2140233607DDC02003DDC02001053FE1F692C0200C9
S214023370A807FE1F1C7B0600587B0600807B060003
S2140233804D2C020071300200907B0600CC7B0600BA
S214023390F07B0600F0B587B00C460DF10F060096DE
S2140233A000211E238DF80F10334A218905466068D6
S2140233B02CF068F99DF80F305BB9218960682F4AB6
S2140233C0009617232CF05EF99DF80F305BB907B014
S2140233D0F0BD21462846FFF74BFE9DF80F30002B26
S2140233E0EBD007B0F0BD26892549264AD1F800E081
S2140233F01568676800230C2ECDE90433E7D9C5B3F8
S214023400013D75443E440EF1FF3307F10C0203E022
S214023410B242DCD0AB4207D012F9011B9C4613F92C
S214023420010F8842F4D0D2E70CF10E0CACEB0E0C76
S21402343017F90C302F2BCAD1226940F6FA539A425A
S214023440C5D811490020FFF7F1FBFFF7E5FD054659
S2140234500028BCD0D4E9031240F042FE2269C5F827
S214023460FC2D062304A88DF8143004952DF054FB89
S214023470ADE74FF00C0CDBE7147C0600347C06004C
S2140234802C96FE1F2896FE1F4C7C060000B50023D5
S21402349083B00122CDE90023044905484FF4C072E7
S2140234A025F02AFF03B05DF804FB00BF787C060017
S2140234B031310200324B3349334870B501221A705B
S2140234C022F09AFD00284CD130493148314C304E1A
S2140234D0314D40F2C94240F003FE0020FDF760FA8B
S2140234E02E492B484FF4D26240F0FAFD0120FDF738
S2140234F057FA2B492648B32240F0F2FD0420FDF786
S2140235004FFA0FCC0FC694E8030046F8040B344675
S214023510032024F81419FDF743FA0FCD0FC40FCD7C
S2140235200FC40FCD0FC495E8030044F8040B2170B6
S2140235301C4C0220FDF734FA0FCC143E0FC694E85A
S214023540030086E803000520FDF72AFA80B941F257
S214023550883026F0C9F8FDF7F9FABDE87040FDF7A5
S2140235600BBB024610490020FFF760FB00BEABE72C
S21402357002460D490020FFF759FB00BEE7E700BFF1
S214023580084BFE1F10E6060040C1FE1FA87C060080
S2140235900C4BFE1FB8880600D08806007481060011
S2140235A00488060008890600887C060030B50A787A
S2140235B0436883B0044662B91868134601220D4672
S2140235C00189406800920A4AFEF702F8012808D1EB
S2140235D02A78206800210091032326F06BFC03B0B2
S2140235E030BD044B044A054840F2DC5123F05CF936
S2140235F01D360200208906008CE406004C8906006F
S214023600006850B110B582B000240A7800940323F3
S214023610214626F04FFC02B010BD70472DE9F04758
S214023620124C134F8246884604F1280903E04C45A3
S21402363007F1040718D054F8045BB8F80860284667
S21402364040F05CFD8642F2D1D8F804103246284695
S21402365040F01DFC0028EAD13B6841465046984798
S2140236604C4507F10407E6D1BDE8F087E007FE1FE8
S214023670A8E4060030B5A3B000250C46412200217E
S21402368011A840F0CBFB4022294601A8009540F045
S214023690C5FB15492846FFF7C9FAD4E903121023D9
S2140236A00DF145008DF8443040F003FC0F4B11A994
S2140236B06A461868012324F0E9FC22780C49284659
S2140236C0FFF7B4FA62780B492846FFF7AFFAD4E957
S2140236D0031201A840F0EDFB074901AA2846FFF7AE
S2140236E0A5FA23B030BD00BF68890600E4B3FE1F0A
S2140236F08089060098890600AC89060030B5A3B01A
S21402370000250C464122002111A840F087FB4022EA
S214023710294601A8009540F081FB15492846FFF787
S21402372085FAD4E903120F230DF145008DF84430D3
S21402373040F0BFFB0F4B11A96A461868012324F01C
S214023740A5FC22780C492846FFF770FA62780B49E6
S2140237502846FFF76BFAD4E9031201A840F0A9FB4A
S214023760074901AA2846FFF761FA23B030BD00BF19
S21402377068890600E4B3FE1F808906009889060061
S214023780AC89060030B5A3B000240D4641220021C4
S21402379011A840F043FB4022214601A8009440F0C5
S2140237A03DFB12492046FFF741FA07238DF84430C5
S2140237B00F4B11A96A461868012324F067FC2A7881
S2140237C00C492046FFF732FA6A780B492046FFF783
S2140237D02DFAD5E9031201A840F06BFB074901AAAE
S2140237E02046FFF723FA23B030BD00BF68890600E3
S2140237F0E4B3FE1F8089060098890600AC8906009D
S21402380030B5A3B000240D464122002111A840F095
S21402381005FB4022214601A8009440F0FFFA124917
S2140238202046FFF703FA06238DF844300F4B11A902
S2140238306A461868012324F029FC2A780C49204697
S214023840FFF7F4F96A780B492046FFF7EFF9D5E956
S214023850031201A840F02DFB074901AA2046FFF7F4
S214023860E5F923B030BD00BF68890600E4B3FE1F49
S2140238708089060098890600AC89060030B5A3B098
S21402388000240D464122002111A840F0C7FA40222A
S214023890214601A8009440F0C1FA12492046FFF7DB
S2140238A0C5F905238DF844300F4B11A96A461868EE
S2140238B0012324F0EBFB2A780C492046FFF7B6F9E1
S2140238C06A780B492046FFF7B1F9D5E9031201A839
S2140238D040F0EFFA074901AA2046FFF7A7F923B0FE
S2140238E030BD00BF68890600E4B3FE1F808906006B
S2140238F098890600AC89060030B5A3B000240D46B0
S2140239004122002111A840F089FA4022214601A84E
S214023910009440F083FA12492046FFF787F9042301
S2140239208DF844300F4B11A96A461868012324F01B
S214023930ADFB2A780C492046FFF778F96A780B49DE
S2140239402046FFF773F9D5E9031201A840F0B1FA51
S214023950074901AA2046FFF769F923B030BD00BF28
S21402396068890600E4B3FE1F80890600988906006F
S214023970AC89060030B5A3B000240D4641220021D2
S21402398011A840F04BFA4022214601A8009440F0CC
S21402399045FA12492046FFF749F903238DF84430C9
S2140239A00F4B11A96A461868012324F06FFB2A7888
S2140239B00C492046FFF73AF96A780B492046FFF78A
S2140239C035F9D5E9031201A840F073FA074901AAAE
S2140239D02046FFF72BF923B030BD00BF68890600EA
S2140239E0E4B3FE1F8089060098890600AC890600AB
S2140239F030B5A3B000240D464122002111A840F0A4
S214023A000DFA4022214601A8009440F007FA124916
S214023A102046FFF70BF902238DF844300F4B11A90D
S214023A206A461868012324F031FB2A780C4920469E
S214023A30FFF7FCF86A780B492046FFF7F7F8D5E956
S214023A40031201A840F035FA074901AA2046FFF7FB
S214023A50EDF823B030BD00BF68890600E4B3FE1F50
S214023A608089060098890600AC89060030B5A3B0A6
S214023A7000240D464122002111A840F0CFF9402231
S214023A80214601A8009440F0C9F911492046FFF7E3
S214023A90CDF8104A012311A910688DF844306A4601
S214023AA024F0F4FA2A780C492046FFF7BFF86A7821
S214023AB00A492046FFF7BAF8D5E9031201A840F0F2
S214023AC0F8F9074901AA2046FFF7B0F823B030BD3F
S214023AD068890600E4B3FE1F8089060098890600FE
S214023AE0AC890600F0B5914B04460021904853F885
S214023AF02450B7B040F2893240F090F98D4B023C28
S214023B00D3E90001052C00F22781DFE814F09600C5
S214023B10A000AE00D800DE000600D3E92867CDE993
S214023B202867D3E92667CDE92667D3E92467CDE976
S214023B302467D3E92267CDE92267D3E92067CDE976
S214023B402067D3E91E67CDE91E67D3E91C67CDE976
S214023B501C67D3E91A67CDE91A67D3E91867CDE976
S214023B601867D3E91667CDE91667D3E91467CDE976
S214023B701467D3E91267CDE91267D3E91067CDE976
S214023B801067D3E90E67CDE90E67D3E90C67CDE976
S214023B900C67D3E90A67CDE90A67D3E90867CDE976
S214023BA00001CDE90867D3E90601CDE90601D3E9AC
S214023BB00401CDE90401D3E902675F4A5C48CDE916
S214023BC0026740F2893140F07FF80446284640F00A
S214023BD095FA002106460846CDE93211CDE93411A0
S214023BE0CDE92F1131912C912E912B912D9126F00A
S214023BF0C1FA4F4B3295CDE934340123ADF8CC608F
S214023C008DF8C43025F0D0FF2CAF4C4B4C4D2C9089
S214023C104FF47A7230922E932F9704244FF0FF3689
S214023C2031A92EAA2846FEF7F1F9014600286AD0E5
S214023C30013C60D1084637B0F0BDCDE90001414AEB
S214023C403B4840F2893140F03FF80446BEE7D3E9EC
S214023C500267CDE900013C4A3548CDE9026740F2E9
S214023C60893140F031F80446B0E7CDE90001D3E9E6
S214023C701067CDE91067D3E90E67CDE90E67D3E981
S214023C800C67CDE90C67D3E90A67CDE90A67D3E981
S214023C900867CDE90867D3E90667CDE90667D3E981
S214023CA00467CDE90467D3E90267284A2048CDE9CC
S214023CB0026740F2893140F007F8044686E7D3E906
S214023CC00267234ACDE90001C6E7CDE90001D3E940
S214023CD00667CDE90667D3E90467CDE90467D3E949
S214023CE002671C4A1248CDE9026740F289313FF06A
S214023CF0EBFF04466AE7FDF73BFC022810D00123DF
S214023D008DF8C6308CE700962BAB4FF0FF3226F0CC
S214023D107DF89DF8AC1000298AD1084637B0F0BD70
S214023D204FF0FF310320FDF73DFCE8E70808FE1FD1
S214023D303496FE1F00ABFE1F208D060001360200E1
S214023D40403FFE1F708A0600B48A0600148B0600E7
S214023D50308C0600908C0600CDE90001D3E904679A
S214023D60CDE90467D3E90267044A0548CDE902674C
S214023D7040F289313FF0A8FF044627E7008A060092
S214023D803496FE1FFFFFFFFF2DE9F04F2DED068B49
S214023D904FF4FA60A3B025F0A7FCFFF78BFB92481E
S214023DA0924D934E934C40F0A9F98F49024628460D
S214023DB040F096F9904840F0A1F98F490246304605
S214023DC040F08EF98D4840F099F98C4902468C48AD
S214023DD040F086F930462660A56040F08FF9431C15
S214023DE02846636040F08AF90022431C4FF4FA60CA
S214023DF0C4E90332626125F077FC8249824809F001
S214023E00A9FB002840F07586804981483CF094FD65
S214023E10002840F05186002006F016FE04460028D0
S214023E2040F03E8600F070FF0446002840F02C86E4
S214023E30704823F0F5FB0446002840F0E585002391
S214023E400DA80D9314931B9326F0AAFC0446002893
S214023E5000F0CE8514AB02930DF16C0A012102200C
S214023E6000F08CFE6B4922460020FEF7DFFE00BE05
S214023E70FDF762FB0128044640F0AB8541F288302C
S214023E8025F032FC0120FDF779FB04214FF4C050E7
S214023E90FDF740FBFFF7FAFAFDF76AFB032804D0AA
S214023EA04FF0FF310320FDF77DFBDFF894815A4C7B
S214023EB008F12409C346DDF8088000254FF0FF36D6
S214023EC05BF8047F384640F019F9C8E90055C8F88F
S214023ED0085001238DF850300793CDE90D55CAE9F5
S214023EE00055ADF85800CAF8085005951597CDF854
S214023EF0188025F059FE06AB0E93484B1B93002103
S214023F000DAB0D901C9308464FF47A731D9326F062
S214023F1031F9524606A92046FEF738F84FF0FF322E
S214023F20014605AB28B9009625F070FF9DF81430BF
S214023F304BB1FDF71DFB0228EBD14FF0FF310320FA
S214023F40FDF730FBE5E71846354903933A46FEF798
S214023F506DFED945039BB3D13249DFF8DCB0DFED05
S214023F60329A9FED329A324CDFF8D890314D18468D
S214023F70FEF75CFE9FED1A8B2F4E304F06E0206850
S214023F80C822314624F058F9012809D0FDF7F0FA84
S214023F900228F4D14FF0FF310320FDF703FBEEE7D2
S214023FA0D9F800203946531C0020C9F80030FEF725
S214023FB03DFE9BF80030013B0F2BE7D8DFE813F0FD
S214023FC068024D022602740194024101440068020E
S214023FD04D0226027401940241014400E602B70231
S214023FE000000000000000000421FE1F84A2FE1F45
S214023FF0849AFE1FA8ABFE1F0419FE1F8417FE1F1D
S214024000049AFE1F7CE50600B0C0FE1F88E5060087
S21402401038C0FE1F887C0600403FFE1FAD350200FA
S21402402038900600609006006666E63F0000004292
S214024030E4B3FE1F00ABFE1FC099FE1FA49006004D
S214024040E007FE1F3096FE1FBE4BBF4918680022CF
S21402405024F082FA012800F0098485ED008B85EDB4
S214024060028B51EC180BB94BC5E904010022B84982
S214024070186824F071FA012800F0F38351EC180B4B
S214024080B44BC5E906010022B349186824F064FA65
S214024090012800F0D58351EC180B57EC186BAF4B88
S2140240A0C5E90A010022AE491868C5E9086724F086
S2140240B053FA012800F0A083B0EE487AF0EE687A50
S2140240C085ED0C8B85ED0E8B85ED108B85ED128BB9
S2140240D085ED148B85ED168B85ED188B85ED1A8B89
S2140240E0A04BA1491868002285ED1C7B24F034FA07
S2140240F0012800F0DF83B0EE487AF0EE687A51ECE1
S214024100180B9A4BC5E91E0100229949186885EDDD
S214024110207B24F021FA012800F0B88385ED228B5B
S21402412085ED248B85ED268B51EC180BC5E928010D
S21402413090490020FEF77AFD95ED000B8E4900208F
S214024140FEF774FD95ED020B8C490020FEF76EFD1E
S21402415095ED040B8A490020FEF768FD95ED060BE7
S21402416088490020FEF762FD95ED080B864900207F
S214024170FEF75CFD95ED0A0B84490020FEF756FD1E
S21402418095ED0C0B82490020FEF750FD95ED0E0BC7
S21402419080490020FEF74AFD95ED100B7E4900206F
S2140241A0FEF744FD95ED120B7C490020FEF73EFD1E
S2140241B095ED140B7A490020FEF738FD95ED160BA7
S2140241C078490020FEF732FD95ED180B764900205F
S2140241D0FEF72CFD95ED1A0B74490020FEF726FD1E
S2140241E095ED1C0B72490020FEF720FD95ED1E0B87
S2140241F070490020FEF71AFD95ED200B6E4900204F
S214024200FEF714FD95ED220B6C490020FEF70EFD1D
S21402421095ED240B6A490020FEF708FD95ED260B66
S21402422068490020FEF702FD95ED280B664900203E
S214024230FEF7FCFC0720FFF755FC00287FF49CAE37
S214024240A0E14A4B61491868002224F085F901284A
S21402425000F0FD81B0EE48AAF0EE68AA5C48202283
S21402426000213FF0DBFDB0EE4A0AF0EE6A0A594939
S2140242700020FEF7DBFC95ED020B57490020FEF707
S214024280D5FC95ED040B55490020FEF7CFFC95EDC5
S214024290060B53490020FEF7C9FC0620FFF722FC56
S2140242A000287FF469AE6DE12C4B4E491868002257
S2140242B024F052F9012800F0E68145484822002100
S2140242C03FF0ACFDB0EE480AF0EE680A4649002020
S2140242D0FEF7ACFC95ED020B44490020FEF7A6FC67
S2140242E095ED040B42490020FEF7A0FC95ED060B67
S2140242F040490020FEF79AFC95ED080B3E49002047
S214024300FEF794FC95ED0A0B3C490020FEF78EFC66
S21402431095ED0C0B3A490020FEF788FC95ED0E0B46
S21402432038490020FEF782FC95ED100B3649002036
S214024330FEF77CFC0420FFF7D5FB00287FF41CAEBA
S21402434020E100BFE8AEFE1FF4AAFE1F90AEFE1FDD
S214024350F0AAFE1F3CAFFE1FE8AAFE1F40AEFE1FDD
S214024360A0AAFE1FACADFE1F90AAFE1F50ADFE1FF8
S21402437084AAFE1FD0930600F8930600089406004F
S21402438018940600289406004094060058940600E6
S214024390749406008C940600A4940600BC9406004E
S2140243A0D4940600EC940600049506001C950600BC
S2140243B0349506004C9506006C9506008895060016
S2140243C0A4950600C4950600E495060008ACFE1FF8
S2140243D000ABFE1F509306006C93060090930600F7
S2140243E0B4930600C0ABFE1FF091060008920600CA
S2140243F02092060038920600509206006892060046
S2140244008092060098920600B0920600B34BB4491A
S2140244101868002224F0A0F8012800F0C781B0EE48
S21402442048AAF0EE68AA0023C5E90033C5E90233BC
S214024430B0EE4A0AF0EE6A0AAA490020FEF7F6FB38
S21402444095ED020BA8490020FEF7F0FB0320FFF7CC
S21402445049FB00287FF490AD94E0A44BA449186869
S214024460002224F079F8012800F0B981B0EE480A5B
S214024470F0EE680A0023C5E900339E490020FEF7E5
S214024480D5FB0220FFF72EFB00287FF475AD79E0FE
S214024490994B9A491868002224F05EF8012800F029
S2140244A057810023C5E90033C5E90233C5E9043361
S2140244B0012000F0ABFB95ED000B91490020FEF7C2
S2140244C0B5FB95ED020B8F490020FEF7AFFB95ED8D
S2140244D0040B8D490020FEF7A9FB0120FFF702FB23
S2140244E000287FF449AD4DE0884B894918680022C0
S2140244F024F032F8012800F04081B0EE480AF0EECF
S214024500680A0023C5E90033C5E902338149002061
S214024510FEF78CFB95ED020B7F490020FEF786FB2B
S2140245200520FFF7DFFA00287FF426AD2AE07B4A53
S2140245307B497C4F0020FEF779FBDFF810E2DDF8BE
S2140245400880BEE80F00C446ACE80F00DEF8003074
S214024550ACF800300FCF56460FC63B6826F8023B33
S2140245601B0C33706D4841463FF054FD064600284A
S21402457000F00E82694851463FF04CFD0646002880
S21402458000F01F82012000F041FBF5E4634A644913
S2140245900020FEF74BFB644BDDF808801F460FCF6A
S2140245A0A8E80F0097E80700604F88E807000FCFDB
S2140245B0D446ACE80F0097E807005D4F8CE807008A
S2140245C00FCF06AE0FC697E8070003C626F8022BE3
S2140245D0120C3270574E0FCE0DF1340EAEE80F00AD
S2140245E096E80700AEE803002EF8022B120C4B48A2
S2140245F002998EF800203FF00DFD0646002800F0D6
S214024600988146480DA93FF005FD0646002800F0B1
S214024610C781424851463FF0FDFC002800F0598110
S2140246203E4806A93FF0F6FC0028ABD10021032045
S21402463000F0A4FA0121042000F0A0FA01210520CE
S21402464000F09CFA3C490020FEF7F0FA9AE73B4E4F
S2140246503B490020FEF7EAFA30883EF0AFFAC5E999
S214024660000141EC1A0B70883EF0A8FAC5E9020177
S21402467030893EF0A3FAC5E9040170683EF0C0FA3C
S214024680C5E90601EFE52F490020FEF7CFFA2E49CD
S214024690D1E90223C5E90223D1E90423C5E90423AB
S2140246A0D1E90623C5E90623D1E90823C5E908238B
S2140246B0D1E90A23C5E90A23D1E90C23C5E90C236B
S2140246C0D1E90E2391ED000BC5E90E23D1E91023A3
S2140246D085ED000BC5E91023F8E500BF3CAFFE1FD1
S2140246E028ACFE1F84910600A491060090AEFE1F21
S2140246F030ACFE1F4C910600E8AEFE1F34ACFE1F27
S214024700E4900600FC90060014910600ACADFE1F75
S21402471018ACFE1FF092060010930600C199FE1F09
S214024720FC950600AC960600C0960600DC960600CF
S214024730F8960600149706006496060008ACFE1F5C
S2140247402C930600C8910600C0ABFE1F30970600E9
S214024750B54EB6490020FEF769FAB0683EF050FA48
S214024760C5E9000130683EF04BFAC5E902017068FF
S2140247703EF046FAC5E904019AE6AD4EAD49002080
S214024780FEF754FAA6A3D3E90023D6E9000141F0C6
S21402479003FCA94B00223EF0D5F8D6E90223C5E970
S2140247A00001C5E9022341EC100BAFE6A34EA44973
S2140247B00020FEF73BFA30683EF022FAD6ED017A88
S2140247C067EEA97AC5E9000177EE897A41EC1A0B01
S2140247D017EE900A3EF014FAC5E9020128E6994956
S2140247E00020FEF723FA984B18683EF009FAC5E94E
S2140247F0000141EC100B40E69449D1E90023C5E9DB
S2140248000C23D1E90223C5E90E23D1E90423C5E925
S2140248101023D1E90623C5E91223D1E90823C5E905
S2140248201423D1E90A23C5E91623D1E90C23C5E9E5
S2140248301823D1E90E2391ED107BC5E91A234FE424
S214024840834E30683EF0DCF9D6ED017A67EEA97A3F
S214024850064677EE897A0F4617EE900A3EF0D0F9B2
S2140248601DE47C4B18683EF0CBF909E47A4EB0683A
S2140248703EF0C6F9C5E9000130683EF0C1F9C5E967
S214024880020170683EF0BCF9FFF7EDBB734E30884C
S2140248903EF094F9C5E9220170883EF08FF9C5E929
S2140248A0240130893EF08AF9C5E9260170683EF097
S2140248B0A7F93BE46A4E5AA3D3E90023D6E90001DE
S2140248C041F06AFB5C4B00223EF03CF896ED027B20
S2140248D017E40121032000F051F90021042000F022
S2140248E04DF90121052000F049F95E490020FEF746
S2140248F09DF95D4806A93FF08DFB00283FF496AE71
S21402490059480DA93FF086FB064600287FF43AAECA
S2140249100121032000F032F90121042000F02EF9D3
S2140249200121052000F02AF950493046FEF77EF9AB
S21402493028E60121032000F021F90121042000F0DD
S2140249401DF93146052000F019F949493046FEF7AF
S2140249506DF9454851463FF05DFB0028B9D0424804
S2140249600DA93FF057FB064600287FF459AE0121F9
S214024970032000F003F90121042000F0FFF80121D2
S214024980052000F0FBF83B493046FEF74FF9B0E74A
S214024990012100F0F3F838493046FEF747F9F1E511
S2140249A00121032000F0EAF80121042000F0E6F8D5
S2140249B00121052000F0E2F830493046FEF736F9CC
S2140249C0C7E7014600F0DAF82D493046FEF72EF921
S2140249D0D8E50121022000F0D1F8002C3FF44EAABF
S2140249E0284922460020FEF721F900BEFFF746BA04
S2140249F028F0E6F814AB04460293002800F0848000
S214024A000DF16C0AFFF72ABA0121022000F0B6F86F
S214024A101C4922460020FEF709F900BEFFF70FBA2E
S214024A20000000C0CCCCFC3F34ACFE1FC490060095
S214024A3018ACFE1FC89206000000404028ACFE1FBD
S214024A405C9106002C91060030ACFE1FA0AAFE1F49
S214024A50E8AAFE1FF0AAFE1FF4AAFE1F84AAFE1FE3
S214024A6090AAFE1F40960600C199FE1F7496060085
S214024A701C96060050960600889606002C9606009F
S214024A8098960600887C06000121022000F076F83F
S214024A902B4922460020FEF7C9F800BEFFF7C8B928
S214024AA00121022000F06AF8254922460020FEF77E
S214024AB0BDF800BEFFF7B6B9224923483DF0A4FB75
S214024AC0E8B9204920483BF037FF044600283FF467
S214024AD0A2A90121022000F051F80121022000F0D3
S214024AE04DF8174922460020FEF7A0F800BEFFF751
S214024AF092B90121022000F041F8FFF785B90121A1
S214024B00022000F03BF8DCE7184628F0B1F804462D
S214024B1000287FF475AF0D483FF0F0FA0C4B0B49B6
S214024B200DF16C0ACDE9003A421C0323149822F0D8
S214024B3003FA044600283FF49BA9FFF78FB900BF8B
S214024B40887C060088E5060038C0FE1F0418FE1F93
S214024B502890060000B583B001230193012024F0BB
S214024B60C3FDFBE7022800D070470249024821F045
S214024B7075B800BF24E60600E8B3FE1F30B41F4B2C
S214024B805D68EFF3108C012383F310881C4B1A68C0
S214024B901AB91C4CE2704022E2701A6801321A609E
S214024BA08CF31088012913D9EFF31082012181F3C7
S214024BB01088196811B11968013919601B681BB988
S214024BC010498020CB70C87082F3108830BC7047C2
S214024BD00228E9D835F810000B4C020A120152FAE4
S214024BE080F054F8202022F0011222F440420A43B8
S214024BF042F0040244F82020D6E700BFDC04070097
S214024C00AC1AFF1F000D04400008044070B4224B8B
S214024C105D68EFF31081012383F310881F4B1A6837
S214024C201AB91F4CE2704022E2701A6801321A600A
S214024C3081F31088022813D9EFF31082012181F341
S214024C401088196811B11968013919601B681BB9F7
S214024C5013498020CB70C87082F3108870BC7047EE
S214024C6035F810100F4E104C0A0A120152FA81F152
S214024C70255C56F8212022F0011222F440422A43F3
S214024C8042F0040246F8212015B901222254D3E745
S214024C9000222254D0E700BFDC040700AC1AFF1F34
S214024CA0000D04400008044040ACFE1F38B500204A
S214024CB001F0CEFA012805D00D490020FDF7B6FF17
S214024CC00C4838BD044601F0AFFA054628B901F093
S214024CD083FA40B9084B9C6438BD08490020FDF7AA
S214024CE0A5FF074838BD07492846FDF79FFFF8E7A6
S214024CF0D09906007611010044ACFE1F809906008A
S214024D0074110100A4990600F0B56849AFB00020FE
S214024D10FDF78CFF6422002115A83FF07FF8644857
S214024D2090F90030002B00F099806249624C3FF007
S214024D30E3F8014620463FF077F95E4900203FF04F
S214024D40DBF8014604F120003FF06EF9032384F8F5
S214024D50403001F037FA0546002878D15749FDF76A
S214024D6065FF574922462846FDF760FF4522294639
S214024D7003A83FF053F820463FF0C0F9214602460A
S214024D80064603A83FF0ACF904F120008DF82C602B
S214024D903FF0B4F904F12001064602460DF12E005A
S214024DA03FF09EF994F840308DF84E6003A88DF8D7
S214024DB02D3001F019FA0646002856D101F048FABD
S214024DC0074600285BD13F492246FDF72FFF15A86C
S214024DD001F032FA0546002857D1169B3A49C4F824
S214024DE04130A064FDF722FF38492846FDF71EFF32
S214024DF094F8442094F843303549CDE900322846E9
S214024E0094F8423094F84120FDF710FF1B9A31497E
S214024E10100EC2F30743CDE90030C2F3072328463B
S214024E20D2B2FDF703FF209A2B49100EC2F30743B6
S214024E30CDE90030C2F307232846D2B2FDF7F6FECC
S214024E4026492846FDF7F2FE28462FB0F0BD244933
S214024E500020FDF7EBFE21202FB0F0BD21491846B9
S214024E60FDF7E4FE03202FB0F0BD1F492846FDF7EC
S214024E70DDFEFFF71BFFA8B11C482FB0F0BD1C4992
S214024E803046FDF7D3FE6420E6E71A493846FDF7BA
S214024E90CDFEFFF70BFF0028EED017493846FDF788
S214024EA0C5FEE9E71549FDF7C1FEE5E7EC99060000
S214024EB0C416FE1FAC71060044ACFE1F5C9A0600C8
S214024EC0789A0600FC9A06005C9B0600189C060070
S214024ED0549C0600809C0600AC9C0600D89C0600EB
S214024EE03C9A0600149A0600949A06007411010071
S214024EF0DC9A06001C9B06003C9B0600C09A060035
S214024F0010B5044600F01EF92046BDE81040FEF734
S214024F103BBF00BF30B50E4C0E4923680E4D85B020
S214024F20581C0322CDE9011500920C4B20600C4957
S214024F300C484FF4406224F091F90B4B186008B10C
S214024F4005B030BD014605B0BDE8304000F0F8B807
S214024F5010C7FE1F6062032094ACFE1FD8E4060052
S214024F60F89C0600014F020090ACFE1F0FB404B07E
S214024F70704700BF00B583B000213E4B00913E4A09
S214024F804121102022F0CAFE3C4B1860002856D061
S214024F903B49012023F00EF83A4B014618600028E0
S214024FA051D00021384B0091384A0821012022F0C6
S214024FB0B5FE374B01461860002847D00021354B16
S214024FC00091354A0C21012022F0A8FE334B0146FF
S214024FD0186000283DD00021314B0091314A04214F
S214024FE0012022F09BFE304B01461860002833D089
S214024FF000212E4B00912E4A4821012022F08EFEDF
S2140250002C4B0146186050B300212B4B00912B4AC3
S2140250101021012022F082FE294B0146186008B3B7
S2140250200021284B0091284A0A21012022F076FE10
S214025030264B01461860C0B103B05DF804FB01467A
S21402504000F07EF8A4E700F07BF8AAE700F078F814
S214025050B4E700F075F8BEE700F072F8C8E700F0B3
S2140250606FF8D1E700F06CF8DAE703B05DF804EB0E
S21402507000F066B89CB3FE1F8CAFFE1FE4B3FE1FA3
S21402508040AFFE1F88AFFE1FF4AEFE1FECAEFE1F43
S2140250903CAFFE1FA0AEFE1F94AEFE1FE8AEFE1F84
S2140250A048AEFE1F44AEFE1F90AEFE1FF8ADFE1FBA
S2140250B0B0ADFE1F40AEFE1F64ADFE1F54ADFE1F18
S2140250C0ACADFE1F08ADFE1FFCACFE1F50ADFE1FB2
S2140250D010B5044600F036F82046BDE81040FFF74B
S2140250E039BD00BF30B50E4C0E4923680E4D85B053
S2140250F0581C0322CDE9011500920C4B20600C4986
S2140251000C484FF4806224F0A9F80B4B186008B1E3
S21402511005B030BD014605B0BDE8304000F010B81D
S21402512010C7FE1F6092032088C1FE1F0CE6060011
S214025130189D0600D150020084C1FE1FFFF71ABF59
S21402514000BE704738B5164C4FF0FF31206823F08A
S2140251502FF9012803D020680021FFF7F1FF114B39
S2140251601A7802B138BD01221A70FFF7E7FF0E4D1A
S2140251702B68013B2B60002BF4D0002319462068D5
S2140251801A4622F04BFE01284FF00001F0D02068AC
S214025190FFF7D6FF2B68013B2B60002BEDD138BD05
S2140251A008C7FE1F0CC7FE1F10C7FE1F0D480E4A7B
S2140251B010B500230D4C037001214FF4807023605C
S2140251C022F0EEFD0A4B186038B1FFF7A3FEFFF798
S2140251D089FF24F04FF9002010BD0146FFF7B0FF0B
S2140251E0F3E700BF0CC7FE1FC0C6FE1F10C7FE1F98
S2140251F008C7FE1F044B036010B48023034C0C60E8
S2140252005DF8044B1360704758C6FE1F58C4FE1F55
S214025210044B036010B48023034C0C605DF8044B0F
S21402522013607047F0C3FE1FF0C1FE1F30B58168E1
S214025230A1B0103921F07F04054607F03BF9702231
S214025240014668463EF0EAFD084B0FCB0DF1800C96
S2140252500CE90F0080236A462146284607F092F89A
S214025260003818BF012021B030BD00BF84E7060019
S2140252702DE9F043A1B01D4606460F46904607F0BC
S21402528011F96C1E0444C0F1000C04EA0C04802CD4
S21402529004D94FF0FF3021B0BDE8F083304607F066
S2140252A009F9414681462A4668463EF019FF4946B4
S2140252B0621B0DEB05003EF0B1FD23466A463946F9
S2140252C0304607F05FF8003818BF012021B0BDE86D
S2140252D0F08300BF38B583680C46A3F1900121F035
S2140252E07F0101232246054606F0DCFF00280BDB81
S2140252F064B1284607F0DEF82378834208BF03230A
S21402530005D12370002038BD012038BD2378012B3B
S21402531018BF0223F5E700BF30B5836887B00D4695
S21402532002AAA3F110011023044606F0BBFF0028D0
S2140253304FDB204607F0BEF802AB06A901E08B421F
S2140253404AD013F8012B9042F9D02D4B029A9A427A
S21402535044D002232B70A168903921F07F010123EB
S2140253600DF10702A1F58071204606F09BFF00288A
S2140253702FDB9DF8073003F00F021B092B71204626
S2140253806A7007F097F89DF80730834234D10122FD
S21402539000236A702B71A268903A22F07F010123E3
S2140253A0AA1C8039204606F07DFF002811DB204625
S2140253B007F080F8AB78984208BF032302D0012B8F
S2140253C018BF0223AB70E91C2046FFF783FF07B025
S2140253D030BD012007B030BD0323BBE7094B039A5B
S2140253E09A42B6D1084B049A9A42B2D1074B059A12
S2140253F09A42AED10123ADE76B78042BCBD9C6E730
S21402540080002DE15D29410B8D77679C110F1F8A65
S21402541030B587B004A9012006F000FF10B1FF20C6
S21402542007B030BD049802A9FFF776FF0446049839
S21402543006F036FF002CF2D101A9022006F0EEFE9D
S214025440002846D003208DF813009DF80840284B0C
S2140254509DF80BE0B4F1010C18BF4FF0010C03F1FC
S21402546012011A78042A06D0052A18D0121BB2FA9C
S21402547082F252096AB15A78042A05D0052A23D143
S214025480421E18BF012222B19A78042A09D0724518
S21402549007D006338B42E4D1012007B030BD624606
S2140254A0E8E7DA78042A03D09DF813509542F0D143
S2140254B01A79042A03D09DF80A509542E9D1587900
S2140254C0831E022BACD9AAE7121AB2FA82F252094A
S2140254D0D9E704A90198FFF71FFF0446019806F0D2
S2140254E0DFFE012CAED0002C99D19DF81000ACE75F
S2140254F070E706000020FFF78BBF00BF70B584B0D0
S2140255000D46022001A906F089FE18B101242046A4
S21402551004B070BD019802A9FFF7FEFE044638B932
S2140255209DF80860022E22D0032E07D0012E37D116
S214025530019806F0B5FE204604B070BD0198FFF74C
S21402554075FE04460028F3D101988168CDB902267B
S2140255506D468DF800608168903921F07F01012345
S2140255602A46A1F58071FFF783FE0446E0E701981C
S2140255702146826806F05EFF0198032406F090FE3C
S214025580D9E76D469039012321F07F012A468DF82E
S2140255900030FFF76DFE04460028C9D10198D8E70F
S2140255A0034B044A044840F2172121F07DF900BF5C
S2140255B0ACA8060058E706003C9D060001460020FF
S2140255C0FFF79CBF10B584B0002301A90120019308
S2140255D006F024FE18B10124204604B010BD01983E
S2140255E002A9FFF799FE044648B99DF80830022B37
S2140255F00BD0032B03D09DF80B30032B0AD0019857
S21402560006F04EFE204604B010BD0198042406F0B3
S21402561047FEF7E701988168903901236A4621F030
S2140256207F018DF80030FFF723FE0446E7E700BF50
S2140256300020FFF7C7BF00BF70B50C4601682160A7
S21402564045686560816884B011B10139816065681A
S2140256502068561C03F02001B2F1FF3FA660E1600D
S21402566033D009B11644A660002116BA182A029150
S214025670039614D203EB166301268DF80F30B44658
S2140256800DF10F01E5B12B1A63453EDB32463EF0C3
S21402569027FD236833440020236004B070BDB2F5B2
S2140256A0807F21D24FF0FF3C18330B440DF10F01DF
S2140256B001F80C306144CCF1010C6646002DE2D1B3
S2140256C043426345E2DA064422E041F004011F3316
S2140256D0E160DBB295B185421EDD037023680020CF
S2140256E00133236004B070BDB2F5803F2BBF6FF06C
S2140256F0030C6FF0010C02210121D5E70028ECDB38
S214025700013020604FF00040C7E70022F61A6260C0
S21402571026604FF00040C0E7281A0023C0F10100BF
S2140257206360EEE710B40A440224C0E90243C0E90B
S21402573000125DF8044B704730B50446D91701F0E5
S21402574020004A405940A36885B00BB1013BA360D4
S2140257500DBA182A13BA029571F10005039316D2F0
S21402576000EB13638DF80F30D4E9000301252A46B7
S2140257700DF10F0103B31B1A934234DB2A463EF0A7
S214025780AFFC23682B440020236005B030BDB2F581
S214025790807F71F1000314D24FF0FF3300220DF127
S2140257A00F0118301044C854C3F101021944D4E959
S2140257B000031546002BDED143429342DEDA05444F
S2140257C014E0B2F5803F71F1000308D3002915BF3B
S2140257D06FF007036FF0030303220222DFE76FF086
S2140257E001030122DBE70022ED1A626025604FF01A
S2140257F00040CAE7F0B5836885B004460F461546F2
S2140258000BB1013B83602BBA0022182DCDE902238F
S21402581024D2D4E90002C3F30763403301268DF88D
S2140258200F300DF10F0133464AB3121A9A4235DB96
S21402583032463EF055FC23686268334423601846BD
S21402584082B3D21AAA4232DB2A4639463EF048FCD6
S21402585023682B440020236005B0F0BDB5F5807F99
S21402586012D258224FF0FF330DF10F01CA54D4E979
S21402587000021944C3F101031E46002AD5D1424252
S2140258809A42D5DA30440CE0B5F5803F2BBF5A2257
S21402589059226FF003036FF00103E5E70023B01A05
S2140258A0636020604342AB42CEDA054402E0002346
S2140258B0AD1A636025604FF00040CDE7F0B583680F
S2140258C085B004460F4615460BB1013B83602BBAE2
S2140258D00022182DCDE9022324D2D4E90002C3F314
S2140258E00763603301268DF80F300DF10F01334642
S2140258F04AB3121A9A4235DB32463EF0F1FB23686F
S214025900626833442360184682B3D21AAA4232DB54
S2140259102A4639463EF0E4FB23682B4400202360E7
S21402592005B0F0BDB5F5807F12D278224FF0FF3376
S2140259300DF10F01CA54D4E900021944C3F1010360
S2140259401E46002AD5D142429A42D5DA30440CE0AD
S214025950B5F5803F2BBF7A2279226FF003036FF0F2
S2140259600103E5E70023B01A636020604342AB42BE
S214025970CEDA054402E00023AD1A636025604FF0DC
S2140259800040CDE702F100436FF0004C634502D3BE
S214025990A023FFF751BE4FF48060704710B44B68E7
S2140259A04360024608681060CC68640712D48A68AE
S2140259B0012A06D1B3FA83F04009C0075DF8044B0A
S2140259C07047002A40F201305DF8044B08BF4FF4DE
S2140259D04070704753B183420FDDFF230370136894
S2140259E00133136000205DF8044B70470028F4DB97
S2140259F0013010604FF00040E0E71B1A0021C3F1AF
S214025A0001005160F5E700BFFFF7C8BF01207047ED
S214025A1030B5FF2304688373456823689D4242D0ED
S214025A202978C37B01F01F0201F0E00C03F060034B
S214025A301B2A80F80EC0C37382811DD8172A30D95C
S214025A40A2F1180E012101FA0EF101312468641B3D
S214025A508C4228D3BCF1200F4FEA5C112FD00729C5
S214025A6024D0172A1BD9182A31D0192A4FD0C37B23
S214025A7043F00103C37312E01F2A3FD101F0C001B5
S214025A80402909D0802907D0BCF1E00F40F205106A
S214025A9008BF4FF4817030BD43F00403C373002087
S214025AA030BD0121D2E740F2011030BD143A072A78
S214025AB0F5D8DFE802F0151212121A120F0F43F091
S214025AC002030021172AC3738173CCD8E7E76B78E9
S214025AD08381E4E743F00103C3732B788373DEE725
S214025AE00022F52382818373D9E76B7883811F2B8B
S214025AF0D5D8FF2383734FF4837030BD40F205136D
S214025B0040F20310BCF1E00F18BF184630BDB5F8DE
S214025B1001305BBA8381C2E73EF0E2BA08B53EF0D6
S214025B2053F9B0FA80F0400908BD00BF8368827B53
S214025B30591C0CD0C02A08D0013B836033B3C17B0A
S214025B40013381F04001C17303D0FFF761BFC02A61
S214025B5017D1D0E9001309688B42F6D01978FF29CD
S214025B60F3D190F80FC00CF0600CBCF1600F11D0AE
S214025B70C02A0FD001330022436081738260002066
S214025B807047C37B83F04003C373E2E7FF2383734C
S214025B90002070474FF48170704700BF30B505682B
S214025BA02C4614F8013B046003F01F03172B16D98A
S214025BB01B2B2CD8A3F1180E4FF0010C091B0CFA64
S214025BC00EFC614526D3182B0ED0192B19D01A2B92
S214025BD012D0D5F80110636809BA1BBA06E0002194
S214025BE0C2E90031002030BD6B780021C2E90031E5
S214025BF0036863440360F5E7D5F8013000211BBA59
S214025C00F4E7B5F801305BBA00219BB2EEE740F24A
S214025C10051030BD40F2011030BD00BF10B504467D
S214025C2050F8043B82B019686A46FFF7B7FFE8B936
S214025C30A37B03F0DF03402B05D0204602B0BDE86D
S214025C401040FFF773BFDDE900234FF0FF319142AA
S214025C50984119D3E37B5B070FD46368204613444D
S214025C60636002B0BDE81040FFF760BF0A4B0B4A04
S214025C700B484FF4AD7120F017FE0A4B074A08484E
S214025C804FF4AF7120F010FE074B044A044840F26E
S214025C905D1120F009FE00BFD09D060014E8060044
S214025CA0A89D0600009E0600E49D060070B5044608
S214025CB0C07B8307154682B00E4600F0040212D55A
S214025CC0002A39D0636822681168994241D01A784E
S214025CD0FF2A2FD0A37B02F0E00293420CD04FF4AF
S214025CE0827002B070BD6368002AECD0013340F0C7
S214025CF002006360E073E6E76A46201DFFF74EFF88
S214025D0018BB009A019B2A604FF0FF31914270EB5C
S214025D10030322D3236819686368C91A914218D309
S214025D2033602968E27B0B4442F002026360E2734E
S214025D3002B070BD013363600023204633602B60DF
S214025D4002B0BDE87040FFF7F1BE00232B6002B040
S214025D5070BD40F2011002B070BD4FF48060C0E723
S214025D602DE9F04E1F46837B86B003F0DF03402BFF
S214025D700E9E06D0264B274A274840F2534120F073
S214025D8093FD8A4691466EB30FC8012486E80F003B
S214025D9000253C7008E00F9B0AEB05009847003888
S214025DA018BF012038705D4601AA69463046FFF7E3
S214025DB07DFF044690B9009961B1019A12EB050B7A
S214025DC023D238780028EDD0D9F800305B45E2D2ED
S214025DD02046E7E73B783BB9C9F80050204606B0B4
S214025DE0BDE8F08E02AECFE7D9F80030AB42F3D969
S214025DF00F9B8DF8044001A90AEB05000122984783
S214025E00031E18BF01233B70E6E74FF48064E5E704
