S02900006177735F656B5F7261366D335F6F74615F6170705F776966695F646131363230302E737265630B
S214020200F87F032091970400319604008D9704002E
S2140202108D9704008D9704008D9704008D97040037
S21402022000000000000000000000000009ED0200CF
S2140202308D9704000000000021ED02007DED020013
S214020240F9840400D57F0400498104005982040021
S21402025029830400490A0300E1090300BD0A0300DA
S214020260FD0A030059940400D97704004978040073
S214020270FD07030001070300D90803002109030054
S214020280FD07030001070300D90803002109030044
S214020290FD07030001070300D90803002109030034
S2140202A0F9840400F9840400F984040049840400F3
S2140202B0B58B0400458B040000000000000000001F
S2140202C00000000000000000000000000000000027
S2140202D00000000000000000000000000000000017
S2140202E00000000000000000000000000000000007
S2140202F000000000000000000000000000000000F7
S2140206000348044B834202D0034B03B1184770479A
S214020610FC0DFE1FFC0DFE1F000000000548064BE9
S2140206201B1AD90F01EBA301491002D0034B03B1E9
S21402063018477047FC0DFE1FFC0DFE1F0000000051
S21402064010B5064C237843B9FFF7DAFF044B13B113
S2140206500448AFF300800123237010BD180EFE1F5E
S214020660000000008445070008B5054B1BB105498C
S2140206700548AFF30080BDE80840FFF7CFBF00BFD4
S214020680000000001C0EFE1F84450700F0B5324A2B
S214020690324D12682968324883B000238DF807303D
S2140206A028F0F6F90446002834D12E4B1E782EB1D7
S2140206B02D4A1378002BFCD0002313702968284893
S2140206C00DF10703402228F041F9044610BB9DF8BD
S2140206D007301BB1012B2AD0022B2AD0234F244BE2
S2140206E039782A681B68C1B122491D4828F08EF95C
S2140206F0C8B938702EB1204A1378002BFCD00023DC
S21402070013704FF400621D48002146F08DFC1C4B0E
S21402071000221A80204603B0F0BD1849104828F07F
S21402072075F90028E6D00446204603B0F0BD1C4604
S214020730F0E7144A144901E00B7813B91378002B3A
S214020740FAD0137803F0FF0113B90F4B1970C5E7FF
S214020750002313700324DDE7C816FE1FD016FE1F03
S21402076084E2FE1F280307001829FE1FC416FE1F78
S214020770CC16FE1F3816FE1F1729FE1F9463FE1F97
S2140207801429FE1F1A29FE1F1929FE1F204A214975
S214020790214B10B4214C1460802402220C601A6093
S2140207A005280AD8DFE800F003171E252C101C4A7D
S2140207B01C4B1068928818609A801B4B01221A7094
S2140207C05DF8044BFFF762BF154A184B1068928813
S2140207D018609A80F1E7124A154B106892881860E2
S2140207E09A80EAE70E4A134B1068928818609A803D
S2140207F0E3E70B4A104B1068928818609A80DCE791
S214020800074A0E4B1068928818609A80D5E700BF98
S214020810D016FE1FCC16FE1FC816FE1F801F1040E5
S214020820989206004116FE1FC416FE1FA516FE1F4E
S2140208305516FE1F6916FE1F7D16FE1F9116FE1F19
S21402084038B5264C26498C22204604F1090546F086
S2140208504FFD24490522284646F01FFC20BB224CA9
S21402086020490522204646F018FC98BB1F4C1D491D
S2140208700522204646F011FC40BB1D4C19490522B4
S214020880204646F00AFCE8B91A4C164905222046CC
S21402089046F003FC90B9184C12490522204646F051
S2140208A0FCFB30B9002038BD0023C4F8093063735E
S2140208B0D5E7002323602371002038BD0023236080
S2140208C02371E8E7002323602371DDE7002323601A
S2140208D02371D2E7002323602371C7E73816FE1F71
S2140208E0801F1040989206005516FE1F9116FE1F96
S2140208F06916FE1F7D16FE1FA516FE1FFFFFFFFFD1
S21402090025A1D1E90001204B10B4C3E9140118A1B6
S214020910D1E900019FED187BC3E91E011C204FF4AC
S214020920E06118771948596118641949194C9C6195
S2140209300120022283ED007B83F86C009FED107B82
S214020940402083F8302083F8442083F88020C3E9CF
S214020950190118221A724FF0040C802283ED0A7BCA
S21402096083F858C0DA635DF8044B7047AFF3008033
S21402097080000000801F104000060000401010405B
S21402098080000000401E10403816FE1FC01E104099
S214020990401F10404016104000010000401D10404D
S2140209A02DE9F041DFF8A081584E594C594F0546C3
S2140209B0FFF7A6FF012388F800301BE039462046E1
S2140209C046F0FCFB0346544920460BB1012D34D0B9
S2140209D046F0F4FB0346514A0D2120460BB1042D86
S2140209E03ED013781BB146F027FB00284BD10120DE
S2140209F02BF00EFD3146204646F0E0FB0028DDD007
S214020A00002DDBD188F80050454A46494648474BF8
S214020A1010604FF4C060182208603D481A6046F025
S214020A2075FC434B1861FFF731FE20B92846BDE836
S214020A30F041FFF7ABBEBDE8F081002388F8003036
S214020A40374A38493B48394B10604FF4E0601C2265
S214020A5008602F481A6046F059FC354B5862E2E7A8
S214020A60002388F800302E4A2E4933482F4B106058
S214020A704FF480700422086025481A6046F046FC4F
S214020A802B4B1866CFE7002388F80030052DCAD80E
S214020A9001A353F825F000BF090A0200410A02002A
S214020AA0ED0A0200CF0A0200670A0200B10A02003B
S214020AB01B4A1C4921481D4B106040200122086039
S214020AC013481A6046F022FC194B5867ABE7144AE3
S214020AD014491B48154B10608020022208600C48FF
S214020AE01A6046F013FC124BD8649CE70C4A0D4978
S214020AF014480E4B106080200222086004481A60D8
S214020B0046F004FC0A4B98638DE700BFA0920600ED
S214020B109463FE1FBC920600DC9206009063FE1FE2
S214020B20D016FE1FCC16FE1F40101040C816FE1F21
S214020B303816FE1F40161040401D1040401F104041
S214020B40C01E1040401E10401629FE1F10B5FFF7AB
S214020B5077FE20B90446FFF7D3FE204610BD034BAE
S214020B60034A044840F2392128F032FDF892060082
S214020B70B0F606000C9306002DE9F041B0B0C02294
S214020B800021684646F050FAFFF75AFE002840F069
S214020B901D81924B924A934C1B6812689249934F5E
S214020BA00546684646F0CAF90FCCEC46ACE80F009C
S214020BB00FCCACE80F0094E80700ACE803002CF872
S214020BC0022B130C8A498CF800300522384646F070
S214020BD064FAB8B957F8051C57F8092C854846F048
S214020BE087FB85498348A7F1090646F0E7FA30B144
S214020BF0804846F08BFB33699842044607D00023B0
S214020C003B603B711225284630B0BDE8F081794939
S214020C107A48224646F06CFB06F11D072246294614
S214020C20744846F001FA72490522384646F035FA0B
S214020C300028E7D1D6E905216E4846F059FB7049EF
S214020C406C4846F0BBFA0028D9D06A4846F05EFBEC
S214020C50736A98420446D2D166496A48224646F0EA
S214020C6047FB06F1590722462946624846F0DCF958
S214020C705F490522384646F010FA0028C2D1D6E966
S214020C8014215C4846F034FB5F495A4846F096FA0F
S214020C900028B4D0574846F039FB336E98420446D3
S214020CA0ADD1224653495948DFF8788146F020FBF9
S214020CB0224600214F4846F0B7F94D4905224046E4
S214020CC046F0EBF9044600289CD1D6E90A214948A9
S214020CD046F00EFB474846F019FBB36B98420746B0
S214020CE06CD1DFF8448143490246404646F000FB99
S214020CF0404646F00BFB431E002118F903203D48F0
S214020D000D2A08BF08F80340DFF820813A4646F06D
S214020D108BF937490522404646F0BFF904460028BB
S214020D207FF470AFD6E90F21324846F0E1FA314837
S214020D3046F0ECFAF36C984207463FD1DFF8F080B3
S214020D402C490246404646F0D3FA404646F0DEFAC2
S214020D50431E002118F9032026480D2A3A462C4F36
S214020D6008BF08F8034046F05FF9214905223846D5
S214020D7046F093F9044600287FF444AFD6E91921D9
S214020D801C4846F0B5FA1B4846F0C0FA736F984204
S214020D90804618D11F4E17490246304646F0A8FA3A
S214020DA0304646F0B3FA431E0021F25611480D2A89
S214020DB0424608BFF45446F037F924E7C8F8004024
S214020DC088F804401EE73C603C711BE7124B134A4E
S214020DD0134840F2CF2128F0FBFB00BF300007008B
S214020DE03400070024930600909206004116FE1F68
S214020DF098920600340EFE1FA09206001421FE1FD3
S214020E00BC9206001419FE1FDC9206001418FE1F80
S214020E10A516FE1FD416FE1FF892060094F60600CC
S214020E200C9306006916FE1F9417FE1F7D16FE1F02
S214020E301417FE1F0378032B06D8DFE803F00E0212
S214020E400A06084B01221A707047074B01221A70D5
S214020E507047064B01221A707047054B01221A7022
S214020E60704700BF1729FE1F1A29FE1F1929FE1FE9
S214020E701829FE1F10B510B3DAB1C36844689C4245
S214020E8002D30BB1012010BD03890133B1FBF3FC81
S214020E9003FB1C1111804368028901880133B2EBFF
S214020EA0510F436002D30181002010BD520002811F
S214020EB0FAE7064B064A07482D2128F089FB064B1F
S214020EC0034A04482C2128F083FB00BF94930600B3
S214020ED0E4F60600689306005093060010B528B1A3
S214020EE0002401810280C360446010BD024B034AA5
S214020EF00348592128F06CFBAC930600C0F60600A6
S214020F006893060008B52BF0ABFA024B1B68C01AB2
S214020F1008BD00BF6440FE1F704700BF2DE9F04FBA
S214020F206F4C704B23609BB000260390334641F211
S214020F3088324FF4FA7108A8CDE909660896ADF82A
S214020F4010600B96FFF7CAFFDFF8C891DFF8C8817A
S214020F50654D0DF1180B2422002111A846F064F805
S214020F60D8F80000ADF81260CDE90C66CDE90E6641
S214020F70CDE90696CDF840B0129046F0C7F95B4B25
S214020F80189301305A4B1390199341F2883200237A
S214020F904FF4FA710CA8FFF7A1FF4FF47A7A059680
S214020FA007E001F025F9012841D0BDF812002BF028
S214020FB02FFA296810ABCDE900AA42F2B3222046E6
S214020FC02FF0DEFF0746042105A8002FE9D1494B82
S214020FD08DF8307018681097CDE91277CDE914773E
S214020FE01697119046F092F90CAB0093424B13936E
S214020FF03C23ADF842303623ADF84800ADF8503009
S2140210003E483A464FF4FA6310A930F0C7FBE0B107
S214021010334830F047F92BF023FA04AA014608A811
S214021020FFF728FF60B100201BB0BDE8F08F0599DE
S2140210300DF112020CA8FFF71DFF0028EBD1B4E752
S214021040BDF810002BF0E4F985E7039B1BB90120DD
S2140210501BB0BDE8F08F9DF83010284800F02EFE39
S2140210600028D5D19DF83070002FF0D1DFF8ACA063
S2140210704FF0FF31DAF800002AF02EF8204BDFF8A6
S2140210808CC003F596711A896AB1186901280AD1CB
S21402109007EB470E01370CF82E000CEB8E00BFB2A2
S2140210A00281DA68426014339942ECD10023DAF8FE
S2140210B000001A46194629F045FD002FC7D01149EF
S2140210C0114A124B0B60124B13600C484F60002300
S2140210D05160936000F086FE0028B8D098E700BF03
S2140210E06840FE1F6C40FE1FA444FE1FD0930600FD
S2140210F0DC930600A844FE1FF0930600543FFE1F32
S2140211009C2AFE1F2829FE1F1C29FE1F3029FE1FAF
S214021110190F0200C0930600A044FE1F982AFE1F65
S2140211202DE9F041DFF86880184CD8F8000084B04A
S21402113000234FF0FF3115468DF80F300DF10F07E3
S21402114029F0CAFF04F5967602E01434A64213D0BC
S2140211502389002BF9D02989E2686868009731F064
S21402116025F99DF80F302946002BEED0D4E9003041
S21402117014349847A642EBD10023D8F800001A464A
S214021180194629F0DFFC04B0BDE8F0819C2AFE1F58
S214021190982AFE1F2DE9F04F91B04FF0FF325D4CBA
S2140211A0009200231A4602212068DFF8B0A1DFF879
S2140211B0B091DFF8B0B129F00FFA2BF051F9564B87
S2140211C01A68801A1860554BCAF80030544BC9F892
S2140211D00030544B544ACBF8002093E8030005AF86
S2140211E003F1080687E803000FCE0BAD4FF00008A8
S2140211F0CDF800800FC533682B604C4A4C4B042157
S214021200192029F01FFC4B4B186000287BD00B934B
S21402121001F04EF8484B0193484B494D0093494B19
S2140212200893494BCDF80880CDF824800793DFF861
S2140212303881CDF828803A460BA907AB284600F03D
S214021240CBFB40B3414F206804231F213B7029F09B
S21402125067FA2068102129F083FADBF8000020B133
S21402126029F060F90023CBF80030DAF8000020B14C
S21402127029F058F90023CAF80030D9F8000020B146
S21402128029F050F90023C9F80030002011B0BDE85B
S214021290F04F2AF0F7BEFFF741FE012885F82A0034
S2140212A0D0D12A4F09E0284600F064FD40462FF0D0
S2140212B0F9FF95F82A000128C5D103231F212068CB
S2140212C03B7029F02DFA0821206829F049FA2846B1
S2140212D000F0E2FB0022064602231F21206885F862
S2140212E02A203B7029F01CFA2068042129F038FADB
S2140212F0002ED8D040462FF0D5FF0120FFF70EFE75
S21402130085F82A00D7E7124B124A13484FF4D871D1
S21402131028F05EF9902AFE1F6440FE1F9417FE1FF7
S21402132010F70600D0FC06001417FE1F2C2AFE1F1C
S214021330E429FE1FC82BFE1F21110200050F020022
S214021340543FFE1F05130500CD120500942AFE1F0A
S2140213502894060004F706003C940600A444FE1FE8
S214021360A044FE1FA844FE1F6840FE1F10B50023BF
S21402137082B00C460246CDE90043034903482AF0F0
S2140213804FFE02B010BD00BF689406009511020021
S21402139008B50A4B1B780BB1002008BD012029F0C6
S2140213A0EFFC074B18600028F6D029F007F9054B2A
S2140213B01860003818BF012008BD00BF942AFE1F1F
S2140213C0982AFE1F902AFE1F014B1878704700BF0E
S2140213D0942AFE1F38B5074D074B04461F2128687E
S2140213E01C7029F09DF901212868A140BDE838400B
S2140213F029F0B6B9902AFE1F942AFE1F00B970473C
S21402140010B5084A82B00124844000231068009177
S2140214101A46214629F0E0F8044214BF01200020B3
S21402142002B010BD902AFE1F2DE9F04FDFF8B0A0E3
S2140214302A4E83B007468946DAF8000001934FF039
S214021440FF3190464FF00F0B29F046FE344600253A
S21402145004E001350F2D04F114042BD0E16801B32A
S21402146023894B45F5D14A46384645F016FE0028F4
S214021470EFD10BEB8B0306EB830156F82330434583
S214021480E7D14B68019A9342E3D101240023DAF8AC
S21402149000001A46194629F055FB204603B0BDE85F
S2140214A0F08FBBF10F0FDBD1AB4601350F2D04F1E8
S2140214B01404D3D1BBF10E0F0DD80BEB8B0B019B93
S2140214C046F82B8006EB8B0673600C9BF760A6F83B
S2140214D008903361D9E70024D8E700BF9C2AFE1F94
S2140214E0982AFE1F2DE9F041144F154C06460D466C
S2140214F038684FF0FF3129F0EFFD04F5967802E0E8
S2140215001434444511D02389AB42F9D1E0682A4607
S214021510314645F0C2FD0028F2D12061C4E9000040
S214021520C4E9020014344445EDD1002338681A4653
S214021530BDE8F041194629F005BB00BF982AFE1FF8
S2140215409C2AFE1F38B50D460446D8B1D1B1436D6C
S2140215504BB1836D3BB1C36D2BB1036E1BB1036DF3
S2140215600BB1012038BD0F4A0F4910484FF467737C
S21402157004F07AFE0E4804F077FE0E4804F074FE7D
S214021580002038BD40F29233064A0749074804F065
S2140215906BFE09482A46214604F066FE054804F01A
S2140215A063FEEDE710FD0600709406007C940600CC
S2140215B0D49406004CBE06009494060030B50C4641
S2140215C083B00021CDE90011002830D0016E054617
S2140215D031B3F4B10193A3688DF800201BB16946BC
S2140215E0E0689847296E2046884708B103B030BDA8
S2140215F040F22F33114A1249124804F035FE22787F
S2140216001148214604F030FE104804F02DFE03B0C7
S21402161030BD0F4B0F4A104840F2213127F0D8FF59
S2140216200E4B0C4A0C484FF4487127F0D1FF0C4B76
S214021630084A094840F21F3127F0CAFFA4FD0600F7
S214021640709406007C940600B49506004CBE060014
S214021650A0950600B4FD06003095060068950600C3
S214021660189506002DE9F04158B38846074600F162
S214021670640400F58275002606E00B78033B012B16
S2140216800AD90834AC4213D02388002BF9D06168FB
S21402169081B1B8F1000FF0D1002304223846FFF7DB
S2140216A08DFF083444F8086C44F8046CAC42EBD165
S2140216B0BDE8F081064B074A074840F2733127F02F
S2140216C087FF064B034A04484FF45A7127F080FFFF
S2140216D0FC95060020FD060030950600E095060003
S2140216E070B500230C46054600F1640102E00133A2
S2140216F0142B0DD031F83320A242F8D1DB0003F1CF
S21402170064042E197368A3B12B5B93B1304670BD87
S214021710114A1249124840F29F1304F0A5FD1148DF
S214021720214604F0A1FD104804F09EFD0026304636
S21402173070BD40F2A313084A0849094804F094FD14
S2140217407268295B094804F08FFD074804F08CFD97
S21402175000232B517360E9E7D0FD06007094060063
S2140217607C940600289606004CBE060048960600A4
S2140217702DE9F041178800285DD00D46002961D07A
S214021780012380F80C310B78164603F0F002302A5B
S214021790044639D0622B1AD015D903F0DF02902AFC
S2140217A017D0702B15D02E4A2E492F4840F2D1233F
S2140217B004F05AFD2D48297804F056FDBDE8F041A4
S2140217C02B4804F051BD402B03D0502BEBD1BDE883
S2140217D0F08139462046FFF783FF8046D8B141683C
S2140217E02B78002935D0902B08BF6B68327A0CBF55
S2140217F0023300232046FFF7E1FE0023C8F800303C
S214021800C8F80430BDE8F0817268D0F80431394671
S214021810BDE8F0411847124A124913484FF4317393
S21402182004F022FD1348394604F01EFDBDE8F041DF
S2140218300F4804F019BD104B104A11484FF4277197
S21402184027F0C6FE0F4B0D4A0D4840F29D2127F0A9
S214021850BFFE0D4B0D4A0A4840F2792127F0B8FE2A
S214021860E8FD0600709406007C94060004970600C5
S2140218704CBE0600D896060088960600FCFD0600BA
S21402188030950600A0960600B4960600C4FD060033
S2140218902DE9F0410D46098D82B0002935D0064665
S2140218A01F460998EB6D90469847044640B30021C0
S2140218B0022E016041608160C16050D0F31E012B90
S2140218C00FD8B8F1000F6ED0294605F1A003B1F883
S2140218D0640030B108318B4251D0B1F86400002860
S2140218E0F8D1089B2670C4E90273C4F804806B6DB5
S2140218F0099A286D019401A99847C0B1002600E014
S2140219000226304602B0BDE8F0812A4A2A492B4810
S21402191040F20E3304F0A8FC294804F0A5FC29483E
S21402192004F0A2FC0126304602B0BDE8F081032690
S2140219302B6E204698470028E3D11E4A1E491F48B0
S21402194040F2013304F090FC21461F4804F08CFC60
S2140219501C4804F089FC304602B0BDE8F081B8F8B5
S2140219600830D5F824C0191D98F800304BB96145E7
S214021970B7D30126DCE7614528BF00260FD2022630
S214021980D6E72B4605F1A00002E008339842F2D0D3
S214021990B3F86420002AF8D16145A2D30126C6F125
S2140219A00206F6B2C4E7094B094A0A484FF4E57143
S2140219B027F00EFEFCFC0600709406007C940600DF
S2140219C0689706004CBE0600449706002C97060051
S2140219D0ECFC060030950600F0B583B0002847D030
S2140219E00C46002944D01E46002B41D0089B002BF3
S2140219F03ED0099B002B3BD00B6863B34B6853B3B6
S214021A008B6843B3CB6833B30B6923B317460546DB
S214021A104FF48872002145F007FB3146164B089AB0
S214021A20009728462FF060FE064610BB1422134B82
S214021A301349009228462FF08BFE0646C8B9099B2A
S214021A40C5F804310A9BC5F808310FCC50350FC5CE
S214021A5023682B600DE00B4A0B490C4840F2E63334
S214021A6004F002FC0A4804F0FFFB0A4804F0FCFB00
S214021A700126304603B0F0BD71170200AC44FE1FCB
S214021A80FC44FE1F10FE0600709406007C940600BE
S214021A908C9706004CBE06002DE9F0438DB0002858
S214021AA000F0C7800546006D002800F0C280DFF80F
S214021AB008820026724CAB6D009632226946984721
S214021AC00FCC0DF10C0CACE80F000FCCACE80F00FD
S214021AD0009F23680196ADF80860CCF80030002F0E
S214021AE000F093803B78082B00F2BB800CAA02EB36
S214021AF08303796853F8243C01AA2846984704468B
S214021B00D8B12FB10246002339462846FFF756FDC4
S214021B105C4A5D495D4840F2274304F0A5FB204637
S214021B2030F0F6FC01465A4804F09EFB594804F091
S214021B309BFB20460DB0BDE8F0839DF8073023B12D
S214021B40BDF80490B9F1000F19D12FB139462346DA
S214021B5022462846FFF732FD9DF80830002B57D064
S214021B60002085F80C6100283FD00B283DD09DF858
S214021B700630002B45D1002845D1286D9AE7002F64
S214021B8076D0034605F164014FF0020C142004E0FF
S214021B90914514D00133142B42D0142831F8332047
S214021BA0F6D1002AF4D1132B03F1010C18463AD0D1
S214021BB031F83C20914563464FF0000CEAD1364A94
S214021BC0314932484FF4B77304F04EFB4946334866
S214021BD004F04AFB2F4804F047FB0023092239464B
S214021BE02846FFF7EBFC092492E795F82A30012BEA
S214021BF0BDD1284630F0C0FB95F80C31002BB0D191
S214021C00B5E7002895D0044682E73946434673E78F
S214021C109DF80630002BB0D020460DB0BDE8F0830C
S214021C20BCF1000F07D121F8309001EBC0014F60E4
S214021C3092E701247DE7184A1349144840F27D13BF
S214021C4004F012FB4946164804F00EFB114804F055
S214021C500BFB0023022239462846FFF7AFFC02247C
S214021C6056E7104B104A114840F2352127F0B0FCD7
S214021C700F4B104A0D4840F24F1127F0A9FC00BF47
S214021C8020FE06008CFD0600709406007C9406007A
S214021C90BC9806004CBE06004CFD0600EC970600FB
S214021CA05C980600C49706007CFD06003095060088
S214021CB0A095060064FD0600991E0200F0B583B0EA
S214021CC010B1038D05461BB90124204603B0F0BDB2
S214021CD00C4629B30121FFF7C5FC002301A92846BB
S214021CE0019331F039FA0446B0B10127214628465D
S214021CF0FFF7F6FC06462246284636B17368596850
S214021D008F702FF0D5FF044678B901A9284631F026
S214021D1023FA04460028E9D10024204603B0F0BD89
S214021D20FFF7A0FC204603B0F0BD71680246002310
S214021D302846FFF743FC0023094A0A4933607360CA
S214021D40094840F2553304F08FFA204630F0E0FBA3
S214021D500146064804F088FA054804F085FAB4E716
S214021D603CFD0600709406007C940600E49806008B
S214021D704CBE0600002833D0F0B50646006D83B090
S214021D80002478B1B36D0194002201A99847019905
S214021D90054600230422304609B1FFF70FFC25B1A1
S214021DA0306DEFE7012003B0F0BD06F1640406F5DE
S214021DB0827702E00834BC420FD02388002BF9D089
S214021DC06168002304223046FFF7F8FB083444F823
S214021DD0085C44F8045CBC42EFD1002003B0F0BDBE
S214021DE00120704770B50D4682B01146144606466D
S214021DF0FFF7A8FB10B9012002B070BD002DFAD083
S214021E002B68002BF7D06B68002BF4D0D4E90121A5
S214021E1023680320CDE900212A463146FFF738FD24
S214021E2002B070BD70B50D4682B011461446064625
S214021E30FFF788FB10B9012002B070BD002DFAD062
S214021E402B68002BF7D06B68002BF4D0D4E9012165
S214021E5023680420CDE900212A463146FFF718FD03
S214021E6002B070BD70B50D4682B0114614460646E5
S214021E70FFF768FB60B15DB1D4E901212368022057
S214021E80CDE900212A463146FFF702FD02B070BDB9
S214021E90012002B070BD00BF08B52AB100200123A0
S214021EA090801060137108BD024B034A034832212A
S214021EB027F08EFB109906005CFF060028990600A4
S214021EC070B5002835D00D4669B314462AB30023F0
S214021ED0136093800B780646DBB94F23184A1949DC
S214021EE0194804F0C1F96A682989184804F0BCF94F
S214021EF0174804F0B9F92288294630462FF0D8FE52
S214021F002B7813B1B0FA80F35B090122E3702271D9
S214021F1070BD30F03FFA2080DFE70E4B0E4A0F48C6
S214021F20452127F055FB0E4B0B4A0C48442127F05F
S214021F304FFB0C4B084A0948432127F049FB00BFD8
S214021F4024FF060070940600849906009C990600F9
S214021F504CBE06001099060040FF060028990600AF
S214021F6070990600E095060070B5B8B10D4609B343
S214021F701446CAB1002313609380064630F00AFA6C
S214021F802080D5E90012034630462FF003FEB0FA51
S214021F9080F35B090122E370227170BD084B094A87
S214021FA00948622127F014FB084B064A06486421BA
S214021FB027F00EFB064B034A0348632127F008FB73
S214021FC0E095060008FF060028990600109906000C
S214021FD0BC99060070B5B8B10D4609B31446CAB12D
S214021FE0002313609380064630F0D4F92080D5E9AA
S214021FF000120346304630F0F9F8B0FA80F35B0977
S2140220000122E370227170BD084B094A09487E21FD
S21402201027F0DEFA084B064A0648802127F0D8FA4F
S214022020064B034A03487F2127F0D2FAE0950600C2
S214022030E8FE06002899060010990600BC990600DC
S21402204070B582B0002834D00C4661B3154622B370
S2140220500A468B6852F80C1B0092626806462FF0FE
S2140220609DFB20B100232B60AB8002B070BD144AEA
S21402207014491548A92304F0F7F8217B134804F005
S214022080F3F8134804F0F0F8217B3046FFF716FE0B
S21402209000232B60AB8002B070BD0E4B0E4A0F4879
S2140220A09C2127F095FA0E4B0B4A0C489B2127F0F1
S2140220B08FFA0C4B084A09489A2127F089FA00BF82
S2140220C0B0FE06007094060084990600F499060095
S2140220D04CBE060010990600CCFE060028990600A3
S2140220E0D8990600E095060010B548B114466AB1C4
S2140220F030F012F9002301222360A380A27010BDE3
S214022100054B064A0648BD2127F062FA054B034AEC
S2140221100348BE2127F05CFAE095060094FE06000E
S214022120289906001099060010B548B114466AB1FF
S2140221302FF03EFE00230122A3802360227110BDF1
S214022140054B064A0648D22127F042FA054B034AB7
S2140221500348D32127F03CFAE09506007CFE0600F1
S214022160289906001099060038B5D0B1036E0546C8
S2140221701BB31446DAB1144A14491548EC2304F08A
S21402218073F8144804F070F8134804F06DF800234E
S21402219001222360A380A2702846BDE83840FFF7DC
S2140221A0E9BD0E4B0E4A0F48E82127F011FA0E4BF6
S2140221B00B4A0C48EA2127F00BFA0C4B084A09484E
S2140221C0E92127F005FA00BF44FE060070940600D7
S2140221D0849906004C9A06004CBE0600E09506005E
S2140221E060FE06002899060010990600109A06005E
S2140221F030B5002383B0CDE9003308B10D4611B9DE
S214022200002003B030BD044668462BF05DF9002876
S214022210F6D1009B002BF3D001A82DF0BDFB0028C1
S214022220EED101980028EBD0009B2A46D3F8043161
S214022230214698470028E3D1DDE900309B6B98479A
S214022240B0FA80F04009DCE7A8B108B589B14FF4CE
S2140222507A7C094B00680CFB02F2A3FB023292095D
S214022260002328F06FFCA0F10100B0FA80F04009CC
S21402227008BD084608BD7047D34D6210A0B108B528
S21402228081B10A4B00684FF47A7C0CFB02F2A3FB86
S2140222900232920928F064FEA0F10100B0FA80F042
S2140222A0400908BD084608BD704700BFD34D6210FE
S2140222B0F0B51A4F3B7885B00BB105B0F0BD03F010
S2140222C0FF04A02221461648164D44F0ADFE164BDA
S2140222D0164A009404210A2028F0B4FB2860B0B104
S2140222E00F4C04F1A006002203A928460394FFF728
S2140222F0ABFF30B11034B442F5D101233B7005B0C8
S214022300F0BD0B4B0B4A0C48612127F061F90B4BD1
S214022310084A0948582127F05BF900BFBC45FE1F52
S214022320C445FE1FC045FE1F4C45FE1F9445FE1FBA
S214022330CC9A0600A8FF0600889A0600689A06004D
S21402234000B50B4B1B7883B00022012B019208D1FB
S214022350024601A90748FFF791FF019803B05DF80E
S21402236004FB054B054A0648702127F031F900BFE9
S214022370BC45FE1FC045FE1FDC9A060094FF060001
S214022380889A060000B5114B1B7883B0012B01908A
S21402239016D10F4B984203D2002003B05DF804FB1F
S2140223A0A0339842F8D20B48002201A9FFF74CFF4F
S2140223B00028F2D1084B094A09488D2127F008F96E
S2140223C0084B064A0648832127F002F9BC45FE1F41
S2140223D0C445FE1FC045FE1FF49A06007CFF060099
S2140223E0889A0600DC9A0600014B1878704700BFF0
S2140223F06446FE1F837813B9014B01221A70704798
S2140224006546FE1F70B53B4E3378A6B0002B59D0FA
S214022410394D00232B700A240A2029F0F9FF2A7866
S214022420631E12B913F0FF04F6D1344C344801236C
S21402243022461021059326F05DFD0590059B002B94
S2140224403BD123889FED2F7A9FED2F6ADFED2F6A0F
S2140224502F4A304D3049927807EE903AF8EEE77AF6
S21402246067EE877A07EE103A67EE867AB8EE477A14
S21402247017EE900A67EE267A2860C1ED007A6AB1F6
S214022480059A039343F050FA244A039BCDE90001D0
S2140224907F2106A844F01EFD26B070BD1848327093
S2140224A026F022FD05901648059B26F053FF059060
S2140224B0059BDBB923882868E2E7164A059B106865
S2140224C02388DEE712490E4826F0AAFE00289FD18E
S2140224D013490B4826F06EFD002899D1084826F0CD
S2140224E0FDFC002894D10123337091E7059B2868F0
S2140224F02388C6E76E46FE1F6546FE1F6C46FE1F15
S214022500D0DBFE1F3333534000008039DE3CD53C1F
S214022510F40107006846FE1FA807FE1F049B06007C
S214022520E0010700014B93ED000A7047A807FE1F63
S21402253008B50549054825F09FF9054A136923F0B1
S2140225400103136108BD00BF18020700F4DBFE1F7B
S21402255000B0014010B5054C204625F093F9204600
S2140225600349BDE8104025F095B900BFF4DBFE1F15
S2140225707046FE1F10B1024B02791A70704700BFF8
S2140225807646FE1F2DE9F04FA94DAA4E2B7804463B
S21402259083B00020A3420190347000F03E81102CDC
S2140225A000F23581DFE814F04F0733071807FC0600
S2140225B0B606B905890544050D05C604D003800391
S2140225C04E03E402110073025201DFF87892DFF83C
S2140225D078A29948994F4FF0000846F20463022207
S2140225E06946ADF80030A9F8003043468AF8008004
S2140225F025F0BCFB38600A2029F00AFF4FF6067366
S2140226003A68ADF80030A9F80030019B8A481340BA
S21402261001930222434669468AF8008025F0A6FB0B
S21402262038600A2029F0F4FE05233A68ADF8003037
S214022630A9F80030019B80481340019302224346CA
S21402264069468AF8008025F091FB38600A2029F056
S214022650DFFE07233A68ADF80030A9F80030019B88
S2140226607548134001930222434669468AF8008061
S21402267025F07CFB38600A2029F0CAFE42F20203EB
S2140226803A68ADF80030A9F80030019B6A4813405A
S21402269001930222434669468AF8008025F066FBCB
S2140226A038600A2029F0B4FE44F201033A68ADF815
S2140226B00030A9F80030019B5F48134001930222C4
S2140226C0434669468AF8008025F050FB38600A20A7
S2140226D029F09EFE46F610033A68ADF80030A9F8D7
S2140226E00030019B54481340019302224346694638
S2140226F08AF8008025F03AFB38600A2029F088FE26
S21402270046F611033A68ADF80030A9F80030019B8E
S2140227104948134001930222434669468AF80080DC
S21402272025F024FB38600A2029F072FE46F61203D2
S2140227303A68ADF80030A9F80030019B3E481340D5
S21402274001930222434669468AF8008025F00EFB72
S21402275038600A2029F05CFE46F616033A68ADF8A1
S2140227600030A9F80030019B33481340019302223F
S214022770434669468AF8008025F0F8FA38600A204F
S21402278029F046FE46F617033A68ADF80030A9F877
S2140227900030019B284813400193022243466946B3
S2140227A08AF8008025F0E2FA38600A2029F030FE26
S2140227B046F618033A68ADF80030A9F80030019BD7
S2140227C01D48134001930222434669468AF8008058
S2140227D025F0CCFA38600A2029F01AFE3A68019BE6
S2140227E0154813401C220193A9F80020ADF80020DA
S2140227F069468AF800804346022225F0B7FA386016
S2140228000A2029F005FE3A68019B13400193022034
S2140228102C7001F035F918B9019803B0BDE8F08FB5
S214022820317807480423082201F088FDF4E700BF48
S214022830B107FE1FB007FE1F90DBFE1FAC07FE1F90
S2140228402C9B06007446FE1F7646FE1FDFF8189382
S214022850DFF818A3C248C34F4FF000084FF60473C0
S21402286002226946ADF80030A9F8003043468AF8DD
S214022870008025F07BFA38600A2029F0C9FD06237D
S214022880ADF80030A9F800303B68019302224346B7
S2140228906946B3488AF8008025F068FA38600A204C
S2140228A029F0B6FD4FF605733A68ADF80030A9F880
S2140228B00030019BAA48134301930222434669460D
S2140228C08AF8008025F052FA38600A2029F0A0FD26
S2140228D007233A68ADF80030A9F80030019BA048FB
S2140228E0134301930222434669468AF8008025F084
S2140228F03DFA38600A2029F08BFD42F202033A685C
S214022900ADF80030A9F80030019B954813430193B7
S2140229100222434669468AF8008025F027FA386084
S2140229200A2029F075FD44F201033A68ADF800303A
S214022930A9F80030019B8A481343019302224346BA
S21402294069468AF8008025F011FA38600A2029F0D4
S2140229505FFD46F610033A68ADF80030A9F800307D
S214022960019B7F48134301930222434669468AF835
S214022970008025F0FBF938600A2029F049FD46F66A
S21402298011033A68ADF80030A9F80030019B74488C
S214022990134301930222434669468AF8008025F0D3
S2140229A0E5F938600A2029F033FD46F612033A6844
S2140229B0ADF80030A9F80030019B69481343019333
S2140229C00222434669468AF8008025F0CFF938602D
S2140229D00A2029F01DFD46F616033A68ADF80030C7
S2140229E0A9F80030019B5E48134301930222434636
S2140229F069468AF8008025F0B9F938600A2029F07D
S214022A0007FD46F617033A68ADF80030A9F800301D
S214022A10019B5348134301930222434669468AF8B0
S214022A20008025F0A3F938600A2029F0F1FC46F66A
S214022A3018033A68ADF80030A9F80030019B484800
S214022A40134301930222434669468AF8008025F022
S214022A508DF938600A2029F0DBFC3A68019B404871
S214022A6013431C220193A9F80020ADF80020694602
S214022A708AF800804346022225F078F938600A2058
S214022A8029F0C6FC3A68019B13430193BFE64FF058
S214022A9000084FF00209DFF8D0A0DFF8D0B03048C7
S214022AA0ADF8009043464A466946AAF800908BF86D
S214022AB0008025F05BF92B4F38600A2029F0A8FC2D
S214022AC04FF60473ADF80030AAF800303B68019365
S214022AD04A464346694622488BF8008025F046F966
S214022AE038600A2029F094FC06233A68ADF80030D4
S214022AF0AAF80030019B1A48134301934A464346FC
S214022B0069468BF8008025F031F938600A2029F0F2
S214022B107FFC4FF605733A68ADF80030AAF800302D
S214022B20019B0F48134301934A46434669468BF876
S214022B30008025F01BF938600A2029F069FC386805
S214022B40019B034307200193AAF80000ADF800009A
S214022B504A4603488BF80080694643468CE700BF26
S214022B6090DBFE1FAC07FE1F7446FE1F7646FE1F56
S214022B704FF002094FF00008DFF8C4A1DFF8C4B135
S214022B806D48ADF8009043464A466946AAF800905A
S214022B908BF8008025F0EAF8684F38600A2029F0A2
S214022BA037FC46F204633A68ADF80030AAF8003003
S214022BB0019B6148134001934A46434669468BF897
S214022BC0008025F0D3F838600A2029F021FC4FF661
S214022BD006733A68ADF80030AAF80030019B5648F2
S214022BE0134001934A46434669468BF8008025F017
S214022BF0BDF838600A2029F00BFC05233A68ADF8C8
S214022C000030AAF80030019B4B48134001934A4615
S214022C10434669468BF8008025F0A8F838600A20FB
S214022C2029F0F6FB3868019B034007200193AAF8B7
S214022C300000ADF800004A463F488BF8008069461F
S214022C404346DAE5DFF8F890DFF8F8A03A483B4F5B
S214022C504FF000084AF6042302226946ADF8003017
S214022C60A9F8003043468AF8008025F07FF83860DD
S214022C700A2029F0CDFB4AF606233A68ADF8003062
S214022C80A9F80030019B2C481340019302224346C8
S214022C9069468AF8008025F069F838600A2029F02B
S214022CA0B7FB4AF60523C0E44FF000084FF00209CE
S214022CB0DFF88CA0DFF88CB01F48ADF800904346D2
S214022CC04A466946AAF800908BF8008025F04EF82E
S214022CD01A4F38600A2029F09BFB4AF604233A680A
S214022CE0ADF80030AAF80030019B13481340019358
S214022CF04A46434669468BF8008025F037F8386026
S214022D000A2029F085FB4AF606233A68ADF8003019
S214022D10AAF80030019B0848134001934A464346EE
S214022D2069468BF8008025F021F838600A2029F0E1
S214022D306FFB4AF6052361E790DBFE1FAC07FE1F1A
S214022D407446FE1F7646FE1FDFF8DC92DFF8DCA232
S214022D50B348B44F4FF0000847F2047302226946A4
S214022D60ADF80030A9F8003043468AF8008024F017
S214022D70FDFF38600A2029F04BFB06233A68ADF8BF
S214022D800030A9F80030019BA548134001930222A7
S214022D90434669468AF8008024F0E8FF38600A2035
S214022DA029F036FB4FF605733A68ADF80030A9F8FD
S214022DB00030019B9A48134001930222434669461B
S214022DC08AF8008024F0D2FF38600A2029F020FB1F
S214022DD007233A68ADF80030A9F80030019B904806
S214022DE0134001930222434669468AF8008024F083
S214022DF0BDFF38600A2029F00BFB42F202033A6854
S214022E00ADF80030A9F80030019B854813400193C5
S214022E100222434669468AF8008024F0A7FF3860FB
S214022E200A2029F0F5FA44F201033A68ADF80030B8
S214022E30A9F80030019B7A481340019302224346C8
S214022E4069468AF8008024F091FF38600A2029F04B
S214022E50DFFA42F210433A68ADF80030A9F80030C3
S214022E60019B6F48134001930222434669468AF843
S214022E70008024F07BFF38600A2029F0C9FA42F26B
S214022E8011433A68ADF80030A9F80030019B644857
S214022E90134001930222434669468AF8008024F0D2
S214022EA065FF38600A2029F0B3FA42F212433A6804
S214022EB0ADF80030A9F80030019B59481340019341
S214022EC00222434669468AF8008024F04FFF3860A3
S214022ED00A2029F09DFA42F216433A68ADF800300D
S214022EE0A9F80030019B4E48134001930222434644
S214022EF069468AF8008024F039FF38600A2029F0F3
S214022F0087FA42F217433A68ADF80030A9F8003063
S214022F10019B4348134001930222434669468AF8BE
S214022F20008024F023FF38600A2029F071FA42F26A
S214022F3018433FE44FF002094FF00008DFF8E8A01C
S214022F40DFF8E8B03648ADF8009043464A46694690
S214022F50AAF800908BF8008024F008FF314F386002
S214022F600A2029F055FA47F204733A68ADF80030A1
S214022F70AAF80030019B2A48134001934A4643466A
S214022F8069468BF8008024F0F1FE38600A2029F0AA
S214022F903FFA06233A68ADF80030AAF80030019BE3
S214022FA01F48134001934A46434669468BF8008001
S214022FB024F0DCFE38600A2029F02AFA4FF6057360
S214022FC01CE6DFF86490DFF864A01548154F4FF052
S214022FD000084FF6047302226946ADF80030A9F8DD
S214022FE0003043468AF8008024F0C0FE38600A208B
S214022FF029F00EFA4FF60673ADF80030A9F8003045
S2140230003B68019302224346694605488AF80080D7
S21402301024F0ACFE38600A2029F0FAF9052343E4CE
S21402302090DBFE1FAC07FE1F7446FE1F7646FE1F91
S2140230304FF000084FF00209DFF8D0A2DFF8D0B256
S214023040B048ADF8009043464A466946AAF8009052
S2140230508BF8008024F08AFEAB4F38600A2029F0F5
S214023060D7F94FF60473ADF80030AAF800303B6883
S21402307001934A4643466946A2488BF8008024F0EC
S21402308075FE38600A2029F0C3F94FF606733A68CF
S214023090ADF80030AAF80030019B9A48134301931A
S2140230A04A46434669468BF8008024F05FFE386045
S2140230B00A2029F0ADF905232DE54FF002094FF05D
S2140230C00008DFF848A2DFF848B28E48ADF8009054
S2140230D043464A466946AAF800908BF8008024F0D8
S2140230E045FE894F38600A2029F092F904233A688F
S2140230F0ADF80030AAF80030019B824813400193D5
S2140231004A46434669468BF8008024F02FFE386014
S2140231100A2029F07DF906235BE5DFF8F091DFF857
S214023120F0A17848784F4FF000080423022269463F
S214023130ADF80030A9F8003043468AF8008024F043
S21402314015FE38600A2029F063F94FF60673ADF8CB
S2140231500030A9F800303B680193022243466946D4
S21402316068488AF8008024F001FE38600A2029F0B8
S2140231704FF949F205633A68ADF80030A9F8003015
S214023180019B6048134301930222434669468AF82C
S214023190008024F0EBFD38600A2029F039F9072375
S2140231A03A68ADF80030A9F80030019B5548134341
S2140231B001930222434669468AF8008024F0D6FD2F
S2140231C038600A2029F024F942F202033A68ADF880
S2140231D00030A9F80030019B4A48134301930222AB
S2140231E0434669468AF8008024F0C0FD38600A200B
S2140231F029F00EF944F201033A68ADF80030A9F856
S2140232000030019B3F48134301930222434669461E
S2140232108AF8008024F0AAFD38600A2029F0F8F81F
S21402322042F210433A68ADF80030A9F80030019B2C
S2140232303448134301930222434669468AF80080C3
S21402324024F094FD38600A2029F0E2F842F2114395
S2140232503A68ADF80030A9F80030019B29481343BC
S21402326001930222434669468AF8008024F07EFDD6
S21402327038600A2029F0CCF842F212433A68ADF8D8
S2140232800030A9F80030019B1E4813430193022226
S214023290434669468AF8008024F068FD38600A20B2
S2140232A029F0B6F842F216433A68ADF80030A9F8AB
S2140232B00030019B1348134301930222434669469A
S2140232C08AF8008024F052FD38600A2029F0A0F81F
S2140232D042F217433A68ADF80030A9F80030019B75
S2140232E00848134301930222434669468AF800803F
S2140232F024F03CFD38600A2029F08AF842F218438E
S214023300FFF797BB90DBFE1FAC07FE1F7446FE1F3F
S2140233107646FE1F4FF000084FF00209DFF894A130
S214023320DFF894B16148ADF8009043464A466946D4
S214023330AAF800908BF8008024F018FD5C4F3860E5
S2140233400A2029F065F80423ADF80030AAF8003008
S2140233503B6801934A464346694654488BF80080C8
S21402336024F004FD38600A2029F052F84FF606735E
S2140233703A68ADF80030AAF80030019B4B48134378
S21402338001934A46434669468BF8008024F0EEFCD9
S21402339038600A2029F03CF849F20563FFF7BBBB08
S2140233A04FF002094FF00008DFF808A1DFF808B175
S2140233B03E48ADF8009043464A466946AAF8009051
S2140233C08BF8008024F0D2FC394F38600A2029F0AE
S2140233D01FF84FF604738AE64FF002094FF0000812
S2140233E0DFF8D0A0DFF8D0B03048ADF80090434602
S2140233F04A466946AAF800908BF8008024F0B6FC8C
S2140234002B4F38600A2029F003F80423ADE54FF06D
S21402341002094FF00008DFF89CA0DFF89CB02348B2
S214023420ADF8009043464A466946AAF800908BF8E3
S214023430008024F09BFC1E4F38600A2028F0E8FF2C
S2140234400423FFF7B0BB4FF002094FF00008DFF885
S21402345064A0DFF864B01548ADF8009043464A46CB
S2140234606946AAF800908BF8008024F07FFC104F83
S21402347038600A2028F0CCFF4FF604733A68ADF89D
S2140234800030AAF80030019B0848134001934A46D0
S214023490434669468BF8008024F068FC38600A20B0
S2140234A028F0B6FF4FF6067374E500BF90DBFE1FEA
S2140234B0AC07FE1F7446FE1F7646FE1F30B50A4B4B
S2140234C083B0CDE900330DF1FF340DF1070514F892
S2140234D0010FFFF757F80346C8201BB928F098FFDC
S2140234E0A542F4D103B030BD0F070F072DE9F04710
S2140234F0CF4ED049DFF84483DFF84493CE4C82B0F7
S21402350001233046019324F027FD00254FF4005393
S21402351001906946ADF80030A8F8003002222B462A
S214023520304689F8005024F021FC20600A2028F05A
S2140235306FFF2268019B0227134001933A462B46EF
S2140235406946304689F80050ADF80070A8F8007059
S21402355024F00CFC20600A2028F05AFF40F60303F1
S2140235602268ADF80030A8F80030019B13400193A2
S2140235703A462B466946304689F8005024F0F6FB58
S21402358020600A2028F044FF4FF604732268ADF844
S2140235900030A8F80030019B134001933A462B46B0
S2140235A06946304689F8005024F0E0FB20600A2085
S2140235B028F02EFF4FF606732268ADF80030A8F802
S2140235C00030019B134001933A462B46694630462B
S2140235D089F8005024F0CAFB20600A2028F018FF61
S2140235E04FF605732268ADF80030A8F80030019B4C
S2140235F0134001933A462B466946304689F80050F6
S21402360024F0B4FB20600A2028F002FF0723226879
S214023610ADF80030A8F80030019B134001933A46FB
S2140236202B466946304689F8005024F09FFB2060FE
S2140236300A2028F0EDFE2268019B13404FF00A0A8A
S21402364001933A462B466946304689F80050ADF853
S21402365000A0A8F800A024F089FB2060504628F0BD
S214023660D7FE0B232268ADF80030A8F80030019B85
S214023670134001933A462B466946304689F8005075
S21402368024F074FB2060504628F0C2FE0C23226809
S214023690ADF80030A8F80030019B134001933A467B
S2140236A02B466946304689F8005024F05FFB2060BE
S2140236B0504628F0ADFE4FF482632268ADF8003023
S2140236C0A8F80030019B134001933A462B46694600
S2140236D0304689F8005024F049FB2060504628F016
S2140236E097FE40F211432268ADF80030A8F8003089
S2140236F0019B134001933A462B466946304689F8A9
S214023700005024F033FB2060504628F081FE40F241
S21402371012432268ADF80030A8F80030019B13402F
S21402372001933A462B466946304689F8005024F003
S2140237301DFB2060504628F06BFE16232268ADF86B
S2140237400030A8F80030019B134001933A462B46FE
S2140237506946304689F8005024F008FB206050463F
S21402376028F056FE17232268ADF80030A8F800307D
S214023770019B134001933A462B466946304689F828
S214023780005024F0F3FA2060504628F041FE182339
S2140237902268ADF80030A8F80030019B1340019370
S2140237A03A462B466946304689F8005024F0DEFA3F
S2140237B02060504628F02CFE40F21D732268ADF8B9
S2140237C00030A8F80030019B134001933A462B467E
S2140237D06946304689F8005024F0C8FA2060504600
S2140237E028F016FE30462668019B334069463A4664
S2140237F0019389F800502B461C25A8F80050ADF816
S214023800005024F0B3FA03465046236028F000FE28
S2140238102268019B13400193FFF750FE0520FEF736
S214023820B1FE019B03400193019802B0BDE8F08708
S21402383090DBFE1FB0010700AC07FE1F7446FE1F9A
S2140238407646FE1F0378022B03D1024A1388013301
S21402385013807047C046FE1F014B1888704700BF92
S214023860C046FE1F30B53E4C89B020220021684675
S21402387043F0DAFB0FCCEE46AEE80F0023689DF865
S2140238800700CEF80030C3F307224FF0640C30383E
S214023890303AC3F307430CFB00F002EB82029DF8BA
S2140238A006109DF800C09DF803409DF80BE0303BE3
S2140238B003EB42039DF8012030394FF47A75ACF1E0
S2140238C0300C05FB01000CEB8C0C2649303A02EB5F
S2140238D04C02303CCA609DF804200B6004EB840462
S2140238E09DF8083002EB4402313A303B03EB830387
S2140238F00A619DF8092000EB43031344A3F29C736C
S2140239009DF80E009DF80C204B619DF80F30AEF12D
S214023910300E303800EB80000EEB8E0E303A303B25
S21402392003EB400302EB4E020F488A604B6023F023
S2140239307BFE40B90D490C4823F07CFD044648B98D
S214023940204609B030BD0446094800F065F8204616
S21402395009B030BD074800F05FF8204609B030BD18
S214023960389B06009C46FE1F04DCFE1F7846FE1FA0
S2140239704C9B0600689B060010B51E491E4823F0A5
S21402398013FD60B9FFF76EFF1B480E2123F0E6FE1B
S214023990044690B9BDE81040184800F03DB8044609
S2140239A0174800F039F8174800F036F8164922464C
S2140239B0002000F0C3FB00BEE4E7144800F02CF839
S2140239C00D4823F00FFC80B9104800F025F8104887
S2140239D000F022F80C492246002000F0AFFB00BEA1
S2140239E00648BDE8104000F017B80A4800F014F880
S2140239F0EAE700BF2C02070004DCFE1F309C06002C
S214023A00849B0600189C06009C9B0600BC9B060036
S214023A10049C0600E49B060030B5C5B00446FFF7DA
S214023A201BFF0546FFF718FF0F4B0294A3FB00127D
S214023A30D20A4FF4616101FB12020C4C92B2A4FB53
S214023A4002146409C4EB0411A2EB8102A3FB051362
S214023A5091B2CDE90041064AC3F3CF23FB2104A865
S214023A6043F038FA45B030BDC5B3A291898888883C
S214023A704C9C0600014B1878704700BFC446FE1FD8
S214023A80012806D0022801D000207047024B187881
S214023A907047024B18787047C246FE1FC346FE1F89
S214023AA02DE9F041D0E902850446A8EB05074068F7
S214023AB097422844154408D83A460E46A5EB080510
S214023AC043F016FC60682A46F11943F011FCBFF376
S214023AD05F8FE560BDE8F0812DE9F8430646D0E940
S214023AE00204894617464FF0000833699C4203F1E8
S214023AF0FF3228BF03F1FF33A0EB04052ABF1B18D1
S214023B00131B1B1BBD4228BF3D469D42706828BF43
S214023B101D4649462A46204443F0EAFBB0682C4438
S214023B20A844A9447F1BA04208BF0024BFF35F8FAE
S214023B30F460002FD9D14046BDE8F88310B5154C85
S214023B40A8220021204643F06FFA03212161124A7F
S214023B5061611248A2614FF48061E0610023216234
S214023B600F48A36210216362E36222666066A16662
S214023B702367E3666367BFF35F8F0A4BA3F1100CFC
S214023B801846C21A13F9011DA1546345F9D1BFF3B1
S214023B905F8F10BDD84AFE1F7C9C0600D846FE1FCB
S214023BA0C846FE1FD0FF060038B5214B00EB400486
S214023BB003EBC40E0130DEF82C4000EB4000012C73
S214023BC08C46154603EBC00015D0022C0FD034BB32
S214023BD0DEF82830DEF8242093429CBFDEF8201060
S214023BE05B18013B9A1A95421CD9204638BDBDE89F
S214023BF03840FFF771BFDEF82830DEF82440A342D3
S214023C009CBFDEF820105B18013B1C1B944228BFA9
S214023C10144622466146FFF743FF204638BD00247D
S214023C20204638BD2A466146FFF73AFF2C46DCE7B7
S214023C30D84AFE1FF8B50B4B1B78532B04460D468D
S214023C40164601D0FFF77AFFEFF311874FF02001F7
S214023C5081F31188324629462046FFF7A5FF87F3EF
S214023C601188F8BDD84AFE1F10B5D0E901320446C5
S214023C70501C984207D823689954E2686368A0608B
S214023C800132E26002469A4200D010BD21682069E5
S214023C90FFF7D0FFA368984215BF4FF0FF3300230B
S214023CA0E360A36010BD00BF2DE9F84F1546A94298
S214023CB0DDF828900B9A0F4683461E4669D30B46BC
S214023CC04FF00108B3FBF5F39D4208F10108F9D95C
S214023CD0B04538BFB04612F0010A02D1B9F1000F62
S214023CE03ED1DBF80C30002B29DB012402E0013E3A
S214023CF005FB04F4012EFAD8B7FBF4F39D4205D86F
S214023D0005FB04F4B7FBF4F39D42F9D9224E06E014
S214023D10AC42B4FBF5F30CD31C46B7FBF3F3F156F7
S214023D20584604FB1377FFF79FFFDBF80C30002B97
S214023D30EEDABAF1000F02D0B9F1000F07D1BDE8F2
S214023D40F88FFFF791FFDBF80C30002BF7DBC1454D
S214023D504FF02001584609F1FF39F2D8BDE8F88F36
S214023D60930711D420240AE0FFF77EFFDBF80C301D
S214023D70002B09F1FF39E2DBB9F1000FB3D0C145E0
S214023D8021465846F0D8ACE7002E0CBF302420243B
S214023D90F5E74FF001089BE7D4FF06002DE9F04F48
S214023DA09BB040230DF1280ACDE904A30023CDE9F8
S214023DB0073081460C461746069306E004A8FFF72E
S214023DC053FF079B002BC0F2AE8014F9011B00299B
S214023DD000F0A1802529F1D10026234613F9012BF4
S214023DE0A2F123010D2908D8DFE801F080070707B2
S214023DF0070707077C0784070778A2F13001C9B2D4
S214023E0009294FF000050FD805EB850502EB45059D
S214023E1093F90020A2F13001C9B209291C46A5F186
S214023E20300503F10103EFD92E2A00F0FD8094F944
S214023E3000104FF0000B21F0040068281C465DD0ED
S214023E402529BBD05839CBB2202BBAD82029B8D8CE
S214023E5001A353F821F000BF2F3F0200C33D02002A
S214023E60C33D0200C33D0200C33D0200C33D020043
S214023E70C33D0200C33D0200C33D0200C33D020033
S214023E80C33D020015400200A93F0200C33D0200E6
S214023E90C33D0200C33D0200C33D0200C33D020013
S214023EA0C33D0200C33D0200C33D0200C33D020003
S214023EB0C33D0200C33D0200713F0200C33D020043
S214023EC0C33D02004B3F0200C33D02008F3F02008B
S214023ED0C33D0200C33D02002F3F020046F0020629
S214023EE01C467AE746F004061C4676E746F00806C5
S214023EF01C4672E746F001061C466EE714F9011BE3
S214023F0021F00403682B9BD114F9011B21F0040352
S214023F10682B95D1F2E7079B002B04DD069C002C4C
S214023F2040F09B80234418461BB0BDE8F08F3968EA
S214023F30081D3860102209685B46CDE900560DEB75
S214023F400200FFF7B1FE079B3CE73B681A1D3A608A
S214023F501D6815F9011B04A800293FF432AFFFF7CC
S214023F6083FE079B002BF4DA18461BB0BDE8F08FE1
S214023F703A68111D39601168002208230192102246
S214023F8000930DEB0200FFF78FFE079B1AE73968D6
S214023F90081D386009685B46CDE900560A2204A867
S214023FA0FFF782FE079B0DE73B68191D39601B6809
S214023FB003931A4683EAE373A3EBE273092B40F3F7
S214023FC096805D484FF0010819466329A0FB03C39B
S214023FD008F101084FEAD303F6DCD84538BFD846C5
S214023FE0002D43D107980025034600289BDB039B40
S214023FF0002B67DB730771D406F00303022B79D01C
S2140240005B46CDE9005603990A2204A8FFF74CFE48
S214024010079BD7E63B681A1D3A6093F9001004A87E
S214024020FFF722FE079BCDE694F90110A1F13002BC
S214024030D2B2092A57D81C464FF0000B0BEB8B0264
S21402404001EB420214F9011FA1F13003DBB2092B86
S214024050A2F1300BF2D9631CEDE6224651464846E1
S2140240600393FFF7E7FD039B23445CE7039A002ACA
S21402407006F002031CDB72071AD4002B53D0BBF1E6
S214024080000F12D0F0070CD50FE004A8FFF7ECFDE6
S2140240900798002805F1FF350346FFF644AF002DCA
S2140240A0A3D0A8454FF02001EFD3079803469CE71C
S2140240B0013D13B1BBF1000FF7D0F207F5D4002D86
S2140240C0EFD18FE75B422D2104A80393FFF7CCFDC7
S2140240D0079800280346FFF626AF8DE72B2104A893
S2140240E0FFF7C2FDF4E701334FF0000BA3E64FF0F3
S2140240F0010872E7BBF1000F82D1002D80D0454542
S2140241004FF0300116D904A8FFF7AEFD0798002835
S21402411005F1FF350346FFF606AF002DEFD1002866
S214024120FFF601AF6CE7F107BBD5079B002BBFF686
S21402413067AFF8E60346F2E7CDCCCCCC0EB400B5BA
S21402414082B003AB01AA53F8041B0193FFF726FEC5
S21402415002B05DF804EB03B0704700BF10B40379F9
S21402416081680022013B82601F2B14D8DFE803F02F
S214024170222E1316131313101313131313131310E1
S21402418013131313131313131313131313131310FB
S214024190184B01221A705DF8044B7047164B174CE9
S2140241A01A68A154501C134A1860002111705DF859
S2140241B0044B704712490F4C0B6812480022013319
S2140241C022700B6002605DF8044B70470D4A0E4881
S2140241D013680124047023440648094C1360002126
S2140241E00170216009485DF8044B4FF4406242F0CA
S2140241F01BBF00BF8E63FE1F8857FE1F8C57FE1F15
S2140242008457FE1F804BFE1F8D63FE1F844BFE1FCE
S2140242102DE9F04F87B00D46109F0191B7F5006F5C
S21402422004464FF00101284628BF4FF40067904627
S214024230994642F01FF800286FD0002321460393C8
S2140242408246049342F0F6FF354D364C0126DDF8E1
S2140242500CB0BBF1000F2FD14FF4406259462846EE
S21402426042F0E2FE3049314E314B81F800B031481F
S214024270019A86F800B05146C3F800B0CDF810B0E7
S21402428084F800B00BF0CAFD0646E0B129480BF0F0
S214024290CBFE642028F0BCF827492648CDF814B097
S2140242A00BF050FF05906420059B28F0B1F8DDF86E
S2140242B00CB0BBF1000FCFD0504641F0FFFF3046A6
S2140242C007B0BDE8F08F23783BB11CE028F0A0F8D9
S2140242D0039B227801330393AAB9039B43454FF00D
S2140242E00A00F3D3049BBB424946284610D242F04A
S2140242F065FF049A834601320A20049228F088F861
S214024300BBF1000FD8D1049BBB4249462846EED3E8
S214024310049BBB42D0D3012699E70126CFE700BF14
S2140243208C57FE1F8D63FE1F8E63FE1F8C63FE1F5F
S2140243308857FE1F0CE4FE1F08040700F0B5A3B062
S21402434005460C4616460021802202A81F4642F069
S2140243506BFE114A00952346802102A842F0BAFD60
S2140243600220FFF78DFB30B9C82028F051F801244F
S214024370204623B0F0BD0022CDE90072074B32463C
S214024380802102A8FFF744FF0446C82028F040F820
S214024390204623B0F0BD00BF889C0600EC9C0600B9
S2140243A0014B1878704700BFB207FE1F034A044B42
S2140243B0906CC0F340021A70104670470008044022
S2140243C08F63FE1F08B52FF029FA04490020FFF775
S2140243D0B5FEBDE80840002027F054BEFC9C06004F
S2140243E070B5082811D8DFE800F017272D053B1016
S2140243F0411011000C46002948D0284D4FF0FF31DD
S214024400286826F069FE012836D070BDBDE87040E7
S21402441023490020FFF792BE22490020FFF78EFEB6
S21402442021490020FFF78AFE30F094F9BDE870407B
S2140244300121002030F060B9BDE870401B49002021
S214024440FFF77CBE1A490020FFF778FE022030F004
S21402445091F90028D9D1BDE870401649FFF76EBE23
S214024460BDE870400121002030F046B9BDE870403A
S21402447011490020FFF762BE002384F8003E286838
S2140244801A46BDE87040194626F05CBB0B4B0C4A38
S2140244900C4840F25F2125F09BF800BF946BFE1F8C
S2140244A0909E0600149D0600509D0600809D060004
S2140244B0BC9D0600F89D0600689E0600309E06001B
S2140244C00C000700489E060030B58FB00024CDE9E8
S2140244D00444CDE90944CDE90C4408940B940694AF
S2140244E0079400283ED0002943D008AB049301234A
S2140244F00546ADF828108DF820200593099028F07F
S214024500E7F906AB0C9304AB07931D4B1D490690C7
S2140245102A460B932046C8230D93FFF70FFE21462B
S214024520204628F0BBFC04A917480BAAFDF77AFC24
S214024530014618B1A22420460FB030BD4FF0FF321C
S214024540009203AB28F0F6FA0128F3D19DF80C404E
S214024550002CEFD10D492A462046FFF7EFFD2046F4
S2140245600FB030BD0A4B0B4A0B4840F2E23125F041
S2140245702FF80A4B074A084840F2E33125F028F89C
S214024580A1450200DC9E0600543FFE1F009F060067
S214024590A89E0600F8FF0600489E0600C49E060077
S2140245A030B50B7883B00C4605464BB1286828B167
S2140245B0002122780091032328F010FB03B030BDBF
S2140245C043681B6819895868FCF78CFFEEE700BF42
S2140245D0006850B110B582B000240A780094032314
S2140245E0214628F0FBFA02B010BD704730B50B78B2
S2140245F083B00C4605464BB1286828B100212278C4
S2140246000091032328F0EAFA03B030BD426812682C
S21402461011895068024A0093FCF706FFECE700BFD8
S2140246200D4B020010B58EB0CDE90C239DF840C0AC
S2140246300A90002309930B93CDE90633CDE90433A0
S2140246408DF824C0ADF82C10089328F041F9164BCB
S2140246500490C82204ACCDE906340892FCF7B4FEF6
S214024660032804D04FF0FF310320FCF7C7FE0021D9
S214024670084628F013FC09A90C4806AAFDF7F2FB27
S214024680014610B1A0200EB010BD4FF0FF320092CE
S21402469003AB28F04FFA0128F4D19DF80C0000284D
S2140246A0F0D10EB010BD00BFD1450200543FFE1F30
S2140246B030B58FB00023CDE90433CDE90933CDE917
S2140246C00C3308930B9306930793002844D00029D3
S2140246D049D008AB04930123ADF828108DF82020AA
S2140246E005930446099028F0F3F8C8230D93214B4E
S2140246F00B9304AA06AB069007920C93FCF764FE93
S214024700032804D04FF0FF310320FCF777FE002188
S214024710084628F0C3FB04A917480BAAFDF762FB5C
S214024720014618B1A12528460FB030BD41F28833A4
S21402473000934FF0FF3203AB28F0FCF90128F1D1C9
S2140247409DF80C50002DEDD10C4922462846FFF765
S214024750F5FC28460FB030BD094B0A4A0A484FF40A
S214024760547124F035FF094B064A074840F251318E
S21402477024F02EFFED450200543FFE1F209F060048
S214024780A89E0600E4FF0600489E0600C49E060099
S21402479038B5134D4FF0FF31286826F09DFC0128EE
S2140247A013D1104C0022234693F8001E03F604632E
S2140247B071B10132042AF7D10024002328681A4670
S2140247C0194626F0BFF9204638BD0024204638BDDB
S2140247D040F6046303FB0244012384F8003EECE740
S2140247E0946BFE1F986BFE1FF0B5002383B0CDE9D5
S2140247F00033002944D00C89254A264B4E68176898
S2140248001B680C2C0D4614D9002B37D003F1FF3E43
S214024810BE4434447B1E06F10C0203E0A24208D0DA
S214024820734508D012F9010B194613F901CF8445D6
S214024830F4D003B0F0BD0E31C91B73562F2BF8D13E
S2140248402A6940F6FA539A42F3D813490020FFF732
S21402485075FCFFF79DFF04460028EAD0D5E903124F
S21402486042F046FD2A69C4F8FC2D032368468DF8FB
S214024870043000942EF0E4FF03B0F0BD0C21DCE718
S214024880064B074A074840F2912124F0A1FE00BFDA
S214024890B4AEFE1FB0AEFE1F5C9F06003C9F060035
S2140248A01C000700489E0600F0B5A1B0FCF78CFD80
S2140248B0032804D04FF0FF310320FCF79FFD6D491B
S2140248C06D4C6E4E0020FFF739FC6D48206042F0BA
S2140248D01DFD6C4A6C491388009393780860D27861
S2140248E06A490020FFF72AFC012026F049FA3060C8
S2140248F0002847D0664B0993664B0A93664B0B9388
S214024900664B0D93664B0E93664B0F93664B109356
S214024910664B1193664B1293664B1493664B139336
S214024920664B1F93664B1E93664B1B93664B1C93FC
S214024930664B1A93664B674A1D93674B0892002193
S214024940189343F61002654B65480291CDE90511AE
S214024950049103910791199342F066FB614B6248FA
S214024960226808A92FF0FEFD0546B8B15F4900206F
S214024970FFF7E4FB5E482521FCF7B4FD306808B17A
S21402498026F060FD206818B125F0CCFD00232360D8
S214024990002021B0BDE8F04027F074BBCDE900004E
S2140249A0544955482B4641F2883227F039FB0128F4
S2140249B0DCD1524A4E4800952B462521FCF734FDA1
S2140249C00128D3D102A88DF80C504D4F2EF038FF97
S2140249D019E0082813D004A82FF0B0FE079B019315
S2140249E0069B00933946DDE904230020FFF7A6FB69
S2140249F04FF47A710220FCF701FD012808D04FF42B
S214024A007A7027F005FD2FF093FE0A28E1D1ADE774
S214024A103C490020FFF792FB2FF0CEFE68B90B252B
S214024A2001E027F0F5FC2FF083FE08284FF47A7099
S214024A3001D0013DF5D12FF07BFE4FF0FF31032070
S214024A40FCF7DCFC30490020FFF778FB2FF0D8FE9D
S214024A500028D4D10B2501E027F0DAFC2FF068FEFF
S214024A6008284FF47A7001D1013DF5D12FF060FE8F
S214024A70C5E700BF849F0600B4AEFE1F946BFE1F00
S214024A801417FE1F88000700B0AEFE1FA89F060080
S214024A90F531050011320500553205006932050070
S214024AA03133050069330500A1330500A53305003F
S214024AB0B146020025460200C9440200E1F50200A2
S214024AC059F502002DF5020051F50200ADF3020081
S214024AD001F60200C131050081F3020041F3020033
S214024AE0986BFE1FE1430200B407FE1FEC9F060010
S214024AF028A0060050A00600C5430200E9470200AF
S214024B0060A006009CA00600C0A00600F0B587B014
S214024B100C460DF10F06009600211E238DF80F108D
S214024B20334A2189054660682DF040FC9DF80F3017
S214024B305BB9218960682F4A009617232DF036FC50
S214024B409DF80F305BB907B0F0BD21462846FFF747
S214024B504BFE9DF80F30002BEBD007B0F0BD268938
S214024B602549264AD1F800E01568676800230C2E0E
S214024B70CDE90433E7D9C5B3013D75443E440EF191
S214024B80FF3307F10C0203E0B242DCD0AB4207D09F
S214024B9012F9011B9C4613F9010F8842F4D0D2E7A2
S214024BA00CF10E0CACEB0E0C17F90C302F2BCAD1F5
S214024BB0226940F6FA539A42C5D811490020FFF7F7
S214024BC0BDFAFFF7E5FD05460028BCD0D4E903127E
S214024BD042F08EFB2269C5F8FC2D062304A88DF848
S214024BE0143004952EF02CFEADE74FF00C0CDBE7EC
S214024BF0E4A0060004A10600B4AEFE1FB0AEFE1F7F
S214024C001CA1060000B5002383B00122CDE90023D3
S214024C10044905484FF4C07227F002FA03B05DF863
S214024C2004FB00BF48A10600A9480200324B3349E4
S214024C30334870B501221A7023F0AAFD002848D125
S214024C4030493148314C304E314D40F2C94242F083
S214024C504FFB0020FBF7A4FE2E492B484FF4D262EE
S214024C6042F046FB0120FBF79BFE2B492648B32267
S214024C7042F03EFB0420FBF793FE0FCC0FC694E8EF
S214024C80030046F8040B3446032024F81419FBF7F5
S214024C9087FE0FCD0FC40FCD0FC40FCD0FC495E8FE
S214024CA0030044F8040B21701C4C0220FBF778FE2C
S214024CB00FCC143E0FC694E8030086E803000520D6
S214024CC0FBF76EFE60B9FBF741FFBDE87040FBF7ED
S214024CD053BF024612490020FFF730FA00BEAFE784
S214024CE002460F490020FFF729FA00BEFBF72EFF07
S214024CF0BDE87040FBF740BF9063FE1F2803070025
S214024D0084E2FE1F58A106009463FE1F68AD0600EB
S214024D1080AD060024A60600B4AC0600B8AD0600B8
S214024D209C9B060000B583B001230193012027F067
S214024D306FFBFBE7022800D070470249024822F0C8
S214024D4015BF00BF58020700CCCDFE1F30B50A784B
S214024D50436883B0044662B91868134601220D46BA
S214024D600189406800920A4AFCF75EFB012808D1D6
S214024D702A78206800210091032327F02FFF03B032
S214024D8030BD044B044A054840F2D75124F020FCBB
S214024D90BD4D020018AE06003800070044AE0600FD
S214024DA0006850B110B582B000240A78009403233C
S214024DB0214627F013FF02B010BD70472DE9F047D9
S214024DC0124C134F8246884604F1280903E04C45EC
S214024DD007F1040718D054F8045BB8F808602846B0
S214024DE042F094FA8642F2D1D8F8041032462846A7
S214024DF042F053F90028EAD13B68414650469847AC
S214024E004C4507F10407E6D1BDE8F087EC07FE1F24
S214024E105400070030B5A3B000250C4641220021FD
S214024E2011A842F001F94022294601A8009542F055
S214024E30FBF815492846FFF781F9D4E90312102337
S214024E400DF145008DF8443042F039F90F4B11A9A7
S214024E506A461868012325F0ADFF22780C492846D9
S214024E60FFF76CF962780B492846FFF767F9D4E931
S214024E70031201A842F023F9074901AA2846FFF7C0
S214024E805DF923B030BD00BF60AE0600C8CDFE1F80
S214024E9078AE060090AE0600A4AE060030B5A3B00B
S214024EA000250C464122002111A842F0BDF84022FE
S214024EB0294601A8009542F0B7F815492846FFF79B
S214024EC03DF9D4E903120F230DF145008DF8443065
S214024ED042F0F5F80F4B11A96A461868012325F02F
S214024EE069FF22780C492846FFF728F962780B49B1
S214024EF02846FFF723F9D4E9031201A842F0DFF8A7
S214024F00074901AA2846FFF719F923B030BD00BFAA
S214024F1060AE0600C8CDFE1F78AE060090AE060054
S214024F20A4AE060030B5A3B000240D4641220021EF
S214024F3011A842F079F84022214601A8009442F0D6
S214024F4073F812492046FFF7F9F807238DF8443024
S214024F500F4B11A96A461868012325F02BFF2A7801
S214024F600C492046FFF7EAF86A780B492046FFF715
S214024F70E5F8D5E9031201A842F0A1F8074901AA0B
S214024F802046FFF7DBF823B030BD00BF60AE060058
S214024F90C8CDFE1F78AE060090AE0600A4AE060090
S214024FA030B5A3B000240D464122002111A842F0DC
S214024FB03BF84022214601A8009442F035F81249F7
S214024FC02046FFF7BBF806238DF844300F4B11A995
S214024FD06A461868012325F0EDFE2A780C49204619
S214024FE0FFF7ACF86A780B492046FFF7A7F8D5E931
S214024FF0031201A842F063F8074901AA2046FFF708
S2140250009DF823B030BD00BF60AE0600C8CDFE1FBF
S21402501078AE060090AE0600A4AE060030B5A3B089
S21402502000240D464122002111A841F0FDFF402236
S214025030214601A8009441F0F7FF12492046FFF7E7
S2140250407DF805238DF844300F4B11A96A4618687F
S214025050012325F0AFFE2A780C492046FFF76EF8AA
S2140250606A780B492046FFF769F8D5E9031201A8CA
S21402507042F025F8074901AA2046FFF75FF823B059
S21402508030BD00BF60AE0600C8CDFE1F78AE06007B
S21402509090AE0600A4AE060030B5A3B000240D46BE
S2140250A04122002111A841F0BFFF4022214601A85B
S2140250B0009441F0B9FF12492046FFF73FF8042357
S2140250C08DF844300F4B11A96A461868012325F063
S2140250D071FE2A780C492046FFF730F86A780B49A9
S2140250E02046FFF72BF8D5E9031201A841F0E7FFA7
S2140250F0074901AA2046FFF721F823B030BD00BFBA
S21402510060AE0600C8CDFE1F78AE060090AE060062
S214025110A4AE060030B5A3B000240D4641220021FD
S21402512011A841F081FF4022214601A8009441F0D7
S2140251307BFF12492046FFF701F803238DF844301F
S2140251400F4B11A96A461868012325F033FE2A7808
S2140251500C492046FEF7F2FF6A780B492046FEF716
S214025160EDFFD5E9031201A841F0A9FF074901AAFC
S2140251702046FEF7E3FF23B030BD00BF60AE060058
S214025180C8CDFE1F78AE060090AE0600A4AE06009E
S21402519030B5A3B000240D464122002111A841F0EB
S2140251A043FF4022214601A8009441F03DFF1249E8
S2140251B02046FEF7C3FF02238DF844300F4B11A999
S2140251C06A461868012325F0F5FD2A780C49204620
S2140251D0FEF7B4FF6A780B492046FEF7AFFFD5E923
S2140251E0031201A841F06BFF074901AA2046FEF709
S2140251F0A5FF23B030BD00BF60AE0600C8CDFE1FBF
S21402520078AE060090AE0600A4AE060030B5A3B097
S21402521000240D464122002111A841F005FF40223C
S214025220214601A8009441F0FFFE11492046FEF7F0
S21402523085FF104A012311A910688DF844306A468A
S21402524025F0B8FD2A780C492046FEF777FF6A78E3
S2140252500A492046FEF772FFD5E9031201A841F07B
S2140252602EFF074901AA2046FEF768FF23B030BD8D
S21402527060AE0600C8CDFE1F78AE060090AE0600F1
S214025280A4AE0600F0B5914B04460021904853F8B0
S2140252902450B7B040F2893241F0C6FE8D4B023C34
S2140252A0D3E90001052C00F22781DFE814F096000E
S2140252B0A000AE00D800DE000600D3E92867CDE9DC
S2140252C02867D3E92667CDE92667D3E92467CDE9BF
S2140252D02467D3E92267CDE92267D3E92067CDE9BF
S2140252E02067D3E91E67CDE91E67D3E91C67CDE9BF
S2140252F01C67D3E91A67CDE91A67D3E91867CDE9BF
S2140253001867D3E91667CDE91667D3E91467CDE9BE
S2140253101467D3E91267CDE91267D3E91067CDE9BE
S2140253201067D3E90E67CDE90E67D3E90C67CDE9BE
S2140253300C67D3E90A67CDE90A67D3E90867CDE9BE
S2140253400001CDE90867D3E90601CDE90601D3E9F4
S2140253500401CDE90401D3E902675F4A5C48CDE95E
S214025360026740F2893141F0B5FD0446284641F015
S214025370CDFF002106460846CDE93211CDE93411AB
S214025380CDE92F1131912C912E912B912D9127F051
S21402539085FD4F4B3295CDE934340123ADF8CC6010
S2140253A08DF8C43027F094FA2CAF4C4B4C4D2C9011
S2140253B04FF47A7230922E932F9704244FF0FF36D2
S2140253C031A92EAA2846FCF74DFD014600286AD0D0
S2140253D0013C60D1084637B0F0BDCDE90001414A34
S2140253E03B4840F2893141F075FD0446BEE7D3E9F9
S2140253F00267CDE900013C4A3548CDE9026740F232
S214025400893141F067FD0446B0E7CDE90001D3E9F2
S2140254101067CDE91067D3E90E67CDE90E67D3E9C9
S2140254200C67CDE90C67D3E90A67CDE90A67D3E9C9
S2140254300867CDE90867D3E90667CDE90667D3E9C9
S2140254400467CDE90467D3E90267284A2048CDE914
S214025450026740F2893141F03DFD044686E7D3E912
S2140254600267234ACDE90001C6E7CDE90001D3E988
S2140254700667CDE90667D3E90467CDE90467D3E991
S21402548002671C4A1248CDE9026740F2893141F0B0
S21402549021FD04466AE7FBF797FF022810D0012396
S2140254A08DF8C6308CE700962BAB4FF0FF3227F014
S2140254B041FB9DF8AC1000298AD1084637B0F0BDF2
S2140254C04FF0FF310320FBF799FFE8E71408FE1FB1
S2140254D0B8AEFE1F88C3FE1F18B20600A14D02001A
S2140254E0543FFE1F68AF0600ACAF06000CB00600C5
S2140254F028B1060088B10600CDE90001D3E90467A9
S214025500CDE90467D3E90267044A0548CDE9026794
S21402551040F2893141F0DEFC044627E7F8AE060089
S214025520B8AEFE1FFFFFFFFF2DE9F04F2DED048BF7
S214025530A1B000250295FFF779FB8148814E824F84
S214025540824C41F0E3FE7E490246304641F0D0FEF0
S2140255507F4841F0DBFE7E490246384641F0C8FEEF
S2140255607C4841F0D3FE7B4902467B4841F0C0FEB0
S21402557038462760A66041F0C9FE431C3046636089
S21402558041F0C4FE431C02A8C4E90335656124F059
S21402559019F87249724809F05FFB002840F09284BD
S2140255A0704971483EF05CF8002840F06E84002096
S2140255B006F0CCFD0446002840F05B8400F0D4FDE3
S2140255C00446002840F04984604824F0BDFE0446A4
S2140255D0002840F0368400230BA80B9312931993ED
S2140255E027F072FF0446002800F021840DF1480BD4
S2140255F019AD0121022000F01FFD5C492246002061
S214025600FEF79CFD00BEFBF7C3FE0128044640F0F1
S214025610FF830120FBF7DEFE04214FF4C050FBF7A8
S214025620A5FEFFF7EFFAFBF7CFFE032804D04FF0F4
S214025630FF310320FBF7E2FEDFF84891DFF84881EE
S21402564009F124074FF0FF3659F804AF504641F0EF
S2140256505DFE00240123C5E90044AC60CBE90044AA
S214025660CBF80840CDE90B44CDE904B303948DF89A
S2140256704830CDF84CA0ADF8500027F029F94FF489
S2140256807A730246214620460B921B9304AA0BAB62
S2140256900C92CDF864801A9327F000FC344C2A460C
S2140256A004A92046FCF79EFB4FF0FF32014603ABEF
S2140256B028B9009627F03EFA9DF80C304BB1FBF75E
S2140256C083FE0228EBD14FF0FF310320FBF796FE54
S2140256D0E5E74F45B8D19FED188BDFF8A480DFF8D9
S2140256E0AC90DFED249A9FED249A244CAA46FBF751
S2140256F06BFE022800F0C7802149D9F80000C822B4
S21402570025F02EFC0128F2D198F80030013B0F2B31
S214025710EDD8DFE813F00501A90128014A01E300EC
S214025720BE003D000501A90128014A01E300BE00B2
S2140257303D00E501BF0100BF0000000000000000C0
S2140257401421FE1F08BBFE1F08B3FE1F30C4FE1F37
S2140257501419FE1F9417FE1F88B2FE1F1C010700B5
S21402576094DAFE1F280107001CDAFE1F9C9B060027
S214025770543FFE1F6666E63F0000004288C3FE1FD7
S21402578044B2FE1FEC07FE1F4D4D0200C8CDFE1FA1
S214025790A34BA4491868002225F072FD012800F0E8
S2140257A07B8284ED008B84ED028B51EC180B9E4BB2
S2140257B0C4E9040100229D49186825F061FD01280C
S2140257C000F0658251EC180B994BC4E906010022E1
S2140257D09849186825F054FD012800F0438251ECE0
S2140257E0180B57EC186B944BC4E90A010022934934
S2140257F01868C4E9086725F043FD012800F00E8208
S21402580084ED0C8B84ED0E8B84ED108B84ED128B65
S21402581084ED148B84ED168B84ED188B84ED1A8B35
S21402582053EC182BC4E91C23854B864918680022C2
S21402583025F026FD012800F0E28153EC182B51ECEE
S214025840180BC4E92023804BC4E91E0100227F49BD
S214025850186825F015FD012800F0BD8184ED228B25
S21402586084ED248B84ED268B51EC180BC4E92801B9
S2140258700720FFF707FD002800F02E81FBF7A4FDA6
S21402588002287FF439AF4FF0FF310320FBF7B6FD55
S21402589032E76D4B6E491868002225F0F1FC0128AC
S2140258A040F07F816A4D288840F01CF8C4E9000168
S2140258B0688840F017F8C4E90201288940F012F817
S2140258C0C4E90401686840F02FF8C4E9060106201E
S2140258D0FFF7D8FC00287FF40AAFFDE0584B5D497D
S2140258E01868002225F0CCFC012840F05081594D62
S2140258F049A3D3E90023D5E9000140F06DF8564BE1
S21402590000223FF0B3FED5E90223C4E90001C4E950
S21402591002230520FFF7B6FC00287FF4E8AEDBE0A2
S2140259203F4B4E491868002225F0AAFC012840F099
S21402593044814A4DA8683FF0F7FFC4E90001286891
S2140259403FF0F2FFC4E9020168683FF0EDFFC4E9E8
S2140259500401012000F0B8FB0120FFF793FC0028A9
S2140259607FF4C5AEB8E0324B3D491868002225F0F8
S21402597087FC012840F01B81394D28683FF0D4FF90
S214025980D5ED017A67EEA97AC4E9000177EE897A45
S21402599017EE900A3FF0C8FFC4E902010320FFF7A2
S2140259A071FC00287FF4A3AE96E0234B2D491868BD
S2140259B0002225F065FC012840F007812949D1E93B
S2140259C00023C4E90023D1E90223C4E90223D1E972
S2140259D00423C4E90423D1E90623C4E90623D1E952
S2140259E00823C4E90823D1E90A23C4E90A23D1E932
S2140259F00C23C4E90C23D1E90E23C4E90E23D1E912
S214025A001023C4E910230420FFF73CFC00287FF48F
S214025A106EAE61E0AFF30080000000C0CCCCFC3F6D
S214025A20CCC8FE1F7CC3FE1F74C8FE1F78C3FE1FB1
S214025A3020C9FE1F70C3FE1F24C8FE1F28C3FE1FF8
S214025A4090C7FE1F18C3FE1F34C7FE1F08C3FE1FE3
S214025A5090C4FE1FA0C4FE1F00004040BCC4FE1F30
S214025A60B0C4FE1F48C4FE1F954B96491868002214
S214025A7025F006FC012840F09080924B18683FF013
S214025A8053FFC4E900010220FFF7FCFB00287FF465
S214025A902EAE21E0DFF874C28B4EBCE80F005F46E4
S214025AA00FC7DCF800303B800FCE55460FC5336873
S214025AB025F8023B1B0C2B708448594641F0B0FB7C
S214025AC00546002800F083818048514641F0A8FB35
S214025AD00546002800F09481012000F0F5FA06E65B
S214025AE07B4B1F460FCFDE46AEE80F0097E8070057
S214025AF0784F8EE807000FCFD446ACE80F0097E841
S214025B000700754F8CE807000FCF04AE0FC697E864
S214025B10070003C626F8022B120C32706F4E0FCE09
S214025B200BAD0FC596E8070003C525F8022B120C2D
S214025B302A706648594641F073FB0546002800F075
S214025B40E78062480BA941F06BFB0546002800F08F
S214025B5046815E48514641F063FB002800F02681EC
S214025B605A4804A941F05CFB0028B5D10021032065
S214025B7000F062FA0121042000F05EFA01210520FD
S214025B8000F05AFA56490020FEF7D8FAA4E7002396
S214025B90C4E90033C4E90233BBE60023C4E9003398
S214025BA071E7202200214F4841F03EFA8FE600239B
S214025BB0C4E90033C4E90233F0E60023C4E9003343
S214025BC0C4E90233C4E90433C3E648220021454847
S214025BD041F02AFA17E7444D28883FF083FEC4E9CD
S214025BE0220168883FF07EFEC4E9240128893FF03E
S214025BF079FEC4E9260168683FF096FE36E63B4D1C
S214025C002DA3D3E90023D5E900013FF0E5FE384B8A
S214025C1000223FF02BFDD5E9022312E63549D1E9F1
S214025C200023C4E90C23D1E90223C4E90E23D1E9F7
S214025C300423C4E91023D1E90623C4E91223D1E9D7
S214025C400823C4E91423D1E90A23C4E91623D1E9B7
S214025C500C23C4E91823D1E90E23C4E91A23D1E997
S214025C601023DFE5244D28683FF05EFEDFED236A51
S214025C70D5ED017A9FED227A67EEA67A064677EE92
S214025C80877A0F4617EE900A3FF04EFEABE51D4BA5
S214025C9018683FF049FE97E51B4DA8683FF044FEA2
S214025CA0C4E9000128683FF03FFEC4E902016868C3
S214025CB03FF03AFE7BE500BF000000C0CCCCFC3FC4
S214025CC074C8FE1FB8C4FE1FC0B5060045B2FE1F4C
S214025CD0D4B50600F0B506000CB6060028B60600D7
S214025CE078B5060088C3FE1F08C3FE1F18C3FE1F32
S214025CF00000404028C3FE1F70C3FE1F6666E63FD4
S214025D000000004278C3FE1F7CC3FE1F44B6060096
S214025D100121032000F090F90121042000F08CF903
S214025D202946052000F088F978492846FEF706FA43
S214025D307748514641F074FA002837D074480BA9C8
S214025D4041F06EFA054600287FF40AAF01210320CF
S214025D5000F072F90121042000F06EF901210520FD
S214025D6000F06AF96B492846FEF7E8F9684804A984
S214025D7041F056FA00283FF4F9AE65480BA941F007
S214025D804FFA054600287FF4A7AE0121032000F053
S214025D9053F90121042000F04FF90121052000F0FB
S214025DA04BF95D492846FEF7C9F995E6012103201D
S214025DB000F042F90021042000F03EF901210520FE
